:020000040800F2
:1000000000000220257F0008BF380008C138000822
:10001000C3380008C5380008C738000800000000D1
:10002000000000000000000000000000F176000861
:10003000C9380008000000009177000883720008AA
:10004000757F0008757F0008757F0008757F0008C0
:10005000757F0008757F0008757F0008757F0008B0
:10006000757F0008757F0008757F0008757F0008A0
:10007000757F0008757F0008757F0008757F000890
:10008000CD380008DD380008757F0008757F00084E
:10009000ED380008757F0008757F0008757F00083F
:1000A000757F0008FD380008757F0008757F00081F
:1000B000757F0008757F0008757F0008757F000850
:1000C000757F0008757F0008757F0008757F000840
:1000D000757F0008757F00080D390008757F0008DE
:1000E000757F0008757F0008757F0008757F000820
:1000F000757F0008757F0008757F0008757F000810
:10010000757F0008757F0008757F0008757F0008FF
:10011000757F0008757F0008757F0008757F0008EF
:10012000757F0008757F0008757F0008757F0008DF
:10013000757F0008757F0008757F0008757F0008CF
:10014000757F0008757F0008757F0008757F0008BF
:10015000757F0008757F0008757F0008757F0008AF
:10016000757F0008757F0008757F0008757F00089F
:10017000757F0008757F0008757F0008000000008B
:08018000757F0008757F00087F
:1001900010B5054C237833B9044B13B10448AFF3C1
:1001A00000800123237010BD5802002000000000D1
:1001B000B46F010808B5034B1BB103490348AFF303
:1001C000008008BD000000005C020020B46F010840
:1001D000034613F8012B002AFBD1181A0138704787
:1001E00001F0FF01102A2BDB10F0070F08D010F8E8
:1001F000013B013A8B422DD010F0070F42B3F6D1EC
:10020000F0B441EA012141EA014122F007047FF004
:1002100000070023F0E80256083C85EA010586EA5B
:10022000010685FA47F5A3FA87F586FA47F6A5FA97
:1002300087F68EB9EED1F0BC01F0FF0102F00702A3
:1002400032B110F8013B013A83EA010313B1F8D14E
:100250000020704701387047002D06BF354603382F
:10026000073815F0010F07D1013015F4807F02BF68
:10027000013015F4C03F0130F0BC0138704700BFB9
:100280004FF0FF3C06E000BF4FF0010C02E000BF62
:100290004FF0010C4DF804CD4FEA410C7FEA6C5C45
:1002A0004FEA430C18BF7FEA6C5C1BD001B050EAE8
:1002B000410C0CBF52EA430C91EA030F02BF90EAD3
:1002C000020F0020704710F1000F91EA030F58BF92
:1002D000994208BF90422CBFD8176FEAE37040F0F4
:1002E000010070474FEA410C7FEA6C5C02D150EA92
:1002F000013C07D14FEA430C7FEA6C5CD6D152EA4D
:10030000033CD3D05DF8040B704700BF8446104611
:1003100062468C461946634600E000BF01B5FFF710
:10032000B7FF002848BF10F1000F01BD4DF808EDE0
:10033000FFF7F4FF0CBF012000205DF808FB00BFB1
:100340004DF808EDFFF7EAFF34BF012000205DF80B
:1003500008FB00BF4DF808EDFFF7E0FF94BF012058
:1003600000205DF808FB00BF4DF808EDFFF7CEFF59
:1003700094BF012000205DF808FB00BF4DF808ED98
:10038000FFF7C4FF34BF012000205DF808FB00BF69
:100390007BB972B90029BEBF00204FF0004106E0D2
:1003A00008BF00281CBF6FF000414FF0FF3001F084
:1003B00029B9ADF1080C6DE904CE002909DB002B49
:1003C0001ADB00F04DF8DDF804E0DDE9022304B0AB
:1003D0007047404261EB4101002B1BDB00F040F80D
:1003E000DDF804E0DDE9022304B0404261EB4101A5
:1003F000524263EB43037047524263EB430300F006
:100400002FF8DDF804E0DDE9022304B0404261EB9F
:1004100041017047524263EB430300F021F8DDF8DD
:1004200004E0DDE9022304B0524263EB430370476A
:1004300053B94AB9002908BF00281CBF4FF0FF314B
:100440004FF0FF3001F0DEB8ADF1080C6DE904CEDD
:1004500000F006F8DDF804E0DDE9022304B070479F
:100460002DE9F047089D04468E46002B4DD18A4267
:10047000944669D9B2FA82F252B101FA02F3C2F19A
:10048000200120FA01F10CFA02FC41EA030E94402B
:100490004FEA1C48210CBEFBF8F61FFA8CF708FB4C
:1004A00016E341EA034306FB07F199420AD91CEB24
:1004B000030306F1FF3080F01F81994240F21C8156
:1004C000023E63445B1AA4B2B3FBF8F008FB10339E
:1004D00044EA034400FB07F7A7420AD91CEB0404D3
:1004E00000F1FF3380F00A81A74240F207816444A3
:1004F000023840EA0640E41B00261DB1D440002328
:10050000C5E900433146BDE8F0878B4209D9002D8B
:1005100000F0EF800026C5E9000130463146BDE815
:10052000F087B3FA83F6002E4AD18B4202D382427F
:1005300000F2F980841A61EB030301209E46002D2E
:10054000E0D0C5E9004EDDE702B9FFDEB2FA82F283
:10055000002A40F09280A1EB0C014FEA1C471FFAE1
:100560008CFE0126200CB1FBF7F307FB131140EAC8
:1005700001410EFB03F0884208D91CEB010103F195
:10058000FF3802D2884200F2CB804346091AA4B257
:10059000B1FBF7F007FB101144EA01440EFB00FE2B
:1005A000A64508D91CEB040400F1FF3102D2A64590
:1005B00000F2BB800846A4EB0E0440EA03409CE72F
:1005C000C6F12007B34022FA07FC4CEA030C20FADC
:1005D00007F401FA06F31C43F9404FEA1C4900FAFC
:1005E00006F3B1FBF9F8200C1FFA8CFE09FB181179
:1005F00040EA014108FB0EF0884202FA06F20BD9EC
:100600001CEB010108F1FF3A80F08880884240F23B
:100610008580A8F102086144091AA4B2B1FBF9F07F
:1006200009FB101144EA014100FB0EFE8E4508D97A
:100630001CEB010100F1FF346CD28E456AD90238FF
:10064000614440EA0840A0FB0294A1EB0E01A142E4
:10065000C846A64656D353D05DB1B3EB080261EB52
:100660000E0101FA07F722FA06F3F1401F43C5E92C
:10067000007100263146BDE8F087C2F12003D84062
:100680000CFA02FC21FA03F3914001434FEA1C47A4
:100690001FFA8CFEB3FBF7F007FB10360B0C43EA96
:1006A000064300FB0EF69E4204FA02F408D91CEB46
:1006B000030300F1FF382FD29E422DD90238634444
:1006C0009B1B89B2B3FBF7F607FB163341EA0341E4
:1006D00006FB0EF38B4208D91CEB010106F1FF3833
:1006E00016D28B4214D9023E6144C91A46EA00462A
:1006F00038E72E46284605E70646E3E61846F8E6BC
:100700004B45A9D2B9EB020864EB0C0E0138A3E704
:100710004646EAE7204694E74046D1E7D0467BE7E5
:10072000023B614432E7304609E76444023842E75D
:1007300003685A004CBF43F0004323F000431844C1
:10074000704700BF2DE9F84329B34F1E04461546F4
:100750003E464FF0000808EB060101EBD17149104D
:1007600004EBC1094846FFF7E3FF0346C800083021
:100770008F42204409D0AB4209D8FFF7D9FF013896
:10078000A8420AD201F10108E5E7AB4205D9884544
:1007900001D04E1EDFE74FF000094846BDE8F88360
:1007A000012807D0022807D0044B00280CBF1846A8
:1007B000002070470248704702487047790E0008D1
:1007C0007D0E0008810E000830B5234B83B004462F
:1007D0008D1E3BB301A92846AFF30080E8B1019913
:1007E0002A46FFF7AFFF0146B8B1FFF7A1FF4B68FC
:1007F000A064012B2CD0002B01F1040024DBFFF7B7
:1008000097FF0023C4E913030368002B11DBFFF7F4
:100810008FFF2061002003B030BD00230920236139
:1008200003B030BD0D4B0E49C91AC91018460191CD
:10083000D6E7C3F30360FFF7B3FF0028206114BFBE
:100840000020092003B030BD0123C4E91303DBE716
:10085000002323610520DEE700000000B8980108AE
:10086000809901080368DA0710B5044606D49B078F
:1008700000F1480009D500F05BFC2368590709D551
:100880001A070ED5DB0613D510BD00F049FC23680E
:100890005907F5D404F1D00000F052FC23681A0780
:1008A000F0D404F5A87000F053FC2368DB06EBD409
:1008B00004F5E870BDE8104000F08EBC09207047D8
:1008C0000346006800B11844704700BF704700BF7E
:1008D00070B504460E46316C2046FFF775FF05469D
:1008E00088B9326C626123693246214601209847FB
:1008F0000828F0D0072806D12846316CFFF7E6FF1C
:10090000301D00F001FC15F06DFF00BF2DE9F04730
:100910000D1DD0F80C80D0F81890074614460FCD66
:10092000ADF5727D0DF10C0CACE80F000FCDACE80D
:100930000F000FCDACE80F0095E80F0002AE4FF0AE
:10094000000E8CE80F00C6F800E020E0336C7B61FD
:100950004FF4F07231467AA807F048FB3B697AAA57
:10096000394650469847889B73642146CDE9006913
:1009700005463B463A460120C0470446E0B94FF4DD
:10098000F0727AA9304607F031FB082D1AD1316C8C
:100990003846FFF719FF09345FFA84FA0546002844
:1009A000D4D0B36B73643A46CDE900693B464AF054
:1009B00010010120C04700B1092528460DF5727DC0
:1009C000BDE8F087072DF7D12046316CFFF77EFF99
:1009D00003A800F099FB00BF406C7047F0B5CB6BEB
:1009E0000B6401F1040C0E460546BCE80F00F9B09B
:1009F00001AC0FC4BCE80F000FC4BCE80F000FC46B
:100A00009CE80F004FF0FF3784E80F00009706E0E6
:100A10002B696A46294698470828044608D1109948
:100A20002846FFF7D1FE0028F2D0092079B0F0BDAA
:100A30006846FFF717FF062CF7D131462846FFF727
:100A400047FF00BFC160D96B82611964002219465B
:100A50005CE700BF70B5C66843690B64AEB9036953
:100A60000A4604460D46014602209847072805D04D
:100A700008280FD129462046FFF72AFF3046296C67
:100A8000FFF724FF281D00F03FFB0122FFF73EFF88
:100A900015F0A8FE15F0A6FEC2681AB1CA6B0A646A
:100AA000002233E79AE700BF704700BF8368014622
:100AB0000BB1012018477047012912D009D873B92A
:100AC0000F2A0CD800EB820218465368009A136074
:100AD00070470339012994BF01200220704702208A
:100AE00070470846704700BF00B585B00A4600232E
:100AF00003A900911946FFF7DFFF039805B05DF8E1
:100B000004FB00BF012912D009D873B90F2A0CD8F1
:100B100000EB8200009A1268426018467047033961
:100B2000012994BF01200220704702207047084627
:100B3000704700BF10B584B0002303AC039200944B
:100B40000A461946FFF7DEFF04B010BD70B5D36B3F
:100B5000136402F1040C05460C46BCE80F00ADF529
:100B60000E7D0DF15C0EAEE80F00BCE80F00AEE8A4
:100B70000F00BCE80F00AEE80F009CE80F004FF03C
:100B8000FF368EE80F00169610E0FFF7D3FF2146E0
:100B900016A8A847034616AA6946082083B9049BED
:100BA0009847052806460CD0092809D0269968469A
:100BB000FFF70AFE03466A460C2116A8002BE4D074
:100BC000092616A8FFF74EFE30460DF50E7D70BDC6
:100BD0002DE9F04FCC6C89B01E4654F8043B0694C6
:100BE0000D46174600F00308002E79D01A0C1B049E
:100BF00005938DF81D200223D2B204EB82048DF8F8
:100C00001C302B6DB8F1020F08BFAC6B13F0010361
:100C10000CD005A9384600F079FB18B9082009B0B6
:100C2000BDE8F08F092009B0BDE8F08FD4F800A02E
:100C3000BAF1000FEDD0019300F008030293022EE9
:100C40004AD0B4F800A0B4F802900434AB6C29F098
:100C5000010B0F2138469B44FFF746FF834539D8E7
:100C60002AF001039B44834594BF002001204FEAF2
:100C7000490303F002030AF0010A43EA0A03012BC5
:100C800049D0022B32D0002BCCD1B8F1000F02D0CA
:100C9000002840F0CD800434D4F800A0BAF1000F51
:100CA000CDD105A9384600F031FB0028BAD1019B0F
:100CB000002BB3D00F213846FFF716FF0E21024656
:100CC0003846FFF737FF38466A4A0F21FFF732FFF1
:100CD0000720A8E70020CAE7D4F804900834B5E755
:100CE0001B0205930323ADF81C308AE7236823F029
:100CF000004BB8F1000F45D128B1029A002A5CD010
:100D0000BBF1000F74D0002B00DA04340BF1010B9F
:100D100004EB8B04C0E7B8F1000F19D1B0B16368E0
:100D20002268991C4FEAD2723FF47CAF05F158015A
:100D30000133049100F09080201DFFF7C1FD04AB4A
:100D400001462846AFF3008000285BD10834A3E7B2
:100D50000D213846D5F82090FFF7C6FE8145F5D124
:100D6000AB6A9C42F2D12046FFF7E2FC0F2102461B
:100D70003846FFF7DFFE38462A460021FFF7DAFE45
:100D8000072050E70D213846D5F82090FFF7ACFE3C
:100D9000814501D02368B6E7AB6A9C42FAD10423AF
:100DA0000022C5E90B23E318C5F828B06B6323685C
:100DB000002B59DB01230193A8E705F15803CDF877
:100DC0000C8004F1040AB04691461E460EE05046DF
:100DD0000496FFF775FD0022014604AB284609F191
:100DE00001090AF1040AAFF30080E0B9D945EED158
:100DF0000D213846FFF778FE049BAC62C5E9080375
:100E0000062010E781460D213846FFF76DFEB9F147
:100E1000020F286225D12B46049A43F82C2F6B62CF
:100E2000AC620620FFE646462368DDF80C806AE7E0
:100E30002046FFF77DFC04340246AC632846144686
:100E4000AFF3008000283FF4EDAE384622460F2174
:100E5000FFF770FE0720E6E60D213846FFF744FE57
:100E60002862049B6B62DBE70BF1010004EB80005E
:100E70007AE700BF000000000023A9E60123A7E6EF
:100E80000223A5E62DE9F0430646C3B015461C46ED
:100E9000042900F2BF80DFE801F09E57BD2D03005A
:100EA000002C40F0B780102A00F2B4800368D80606
:100EB00000F1F98020AF384600F098F9B46B39465C
:100EC00000234FF0010C0CFA03F22A42204603F1F2
:100ED000010303D050F8042B0A600446042B01F1EF
:100EE0000401F0D13846B46300F076F9002043B035
:100EF000BDE8F083032C40F08D8094B204EB1243E4
:100F0000102B4FEA124500F2858003681F0700F19D
:100F1000D28020AF384600F03DF9B26B07EBC50137
:100F200054B10B46D01A01EBC401E4001D5843F83C
:100F3000045B8B42FAD122443846B26300F008F9D0
:100F4000002043B0BDE8F083012C4FEA124895B26F
:100F50005CD0052C5ED108EB0509B9F1200F59D8FA
:100F6000B8F10F0F79D9A946002D40F08A80B36BF4
:100F70006DB320AF4FF0000907EBC807043F03EB48
:100F8000C50553F8041B47F8041FAB42F9D1B9F16A
:100F9000000F0FD06F464146102938BF102107EBD4
:100FA000C101843903EBC90553F8040B41F8040F60
:100FB000AB42F9D1012C00F08680B8F10F0FB56378
:100FC00047D9B9F1000F02D0684600F0B9F8002007
:100FD00043B0BDE8F083ECB9806B23461FFA82FC76
:100FE0000124371D04FA03F212EA0C0F014604D063
:100FF00051F8042B47F8232008460133102BF1D178
:1010000015F40055E3D1B063284604E008EB05036E
:10101000102B03D9022043B0BDE8F083B8F10F0FC5
:10102000F8D83368DA0706D5304623F0030340F8D2
:10103000483B00F079F820AF384600F075F8B36B04
:10104000002D97D11D460435B563384600F068F889
:10105000BDE720A800F06CF8B3E7B9F1100F40D954
:10106000A9F110093368D90708D523F001033046E8
:1010700043F0020340F8483B00F05EF8B9F1000F7E
:1010800032D033685A0720D4B8F10F0F25D96F46F4
:101090003846C8F1100500F057F8002DB36B7FF704
:1010A0007AAF20AF68E723F01003336006F5E870ED
:1010B00000F09CF8FEE623F00803036000F5A8703A
:1010C00000F068F825E720AFBDE7304623F00403C1
:1010D00040F8D03B00F038F8D6E720A800F02CF814
:1010E000D5E74FF00009BDE7B8F10F0F3FF63FAF6E
:1010F00020AF384600F020F8B36B002D7FF43AAFF4
:10110000384600F015F862E700F1340191E8380044
:101110009C46A6464CF8045D90E8FF0FE54600BDEE
:1011200090EC210B704700BF80EC210B704700BF93
:1011300090EC200B704700BF80EC200B704700BF85
:10114000D0EC200B704700BFC0EC200B704700BFF5
:10115000F0EC0201F0EC0211F0EC0221F0EC0231B3
:10116000F0EC0241F0EC0251F0EC0261F0EC0271A3
:10117000F0EC0281F0EC0291F0EC02A1F0EC02B193
:10118000F0EC02C1F0EC02D1F0EC02E1F0EC02F183
:10119000704700BFE0EC0201E0EC0211E0EC02213C
:1011A000E0EC0231E0EC0241E0EC0251E0EC0261E3
:1011B000E0EC0271E0EC0281E0EC0291E0EC02A1D3
:1011C000E0EC02B1E0EC02C1E0EC02D1E0EC02E1C3
:1011D000E0EC02F1704700BFB0FC0181B0FC01916E
:1011E000B0FC01A1B0FC01B1704700BFA0FC0181BF
:1011F000A0FC0191A0FC01A1A0FC01B1704700BFBF
:10120000EC4600B52DE900502DE9FF1F4FF000031B
:101210002DE90C0001A9FFF7E1FBDDF840E012B079
:10122000704700BFEC4600B52DE900502DE9FF1FC7
:101230004FF000032DE90C0001A9FFF70BFCDDF8CE
:1012400040E012B0704700BFEC4600B52DE90050F9
:101250002DE9FF1F4FF000032DE90C0001A9FFF756
:101260001BFCDDF840E012B0704700BFEC4600B553
:101270002DE900502DE9FF1F4FF000032DE90C0070
:1012800001ABFFF7DFFBDDF840E012B0704700BFB5
:10129000EC4600B52DE900502DE9FF1F4FF000038B
:1012A0002DE90C0001AAFFF751FCDDF840E012B077
:1012B000704700BF027A03467AB9427AA2B1416808
:1012C000013A10B44272086803220C1D1A7202021D
:1012D0005C60000E10BC1A6070470068013A1A7218
:1012E00002021A60000E7047B020704700B585B04A
:1012F000002303AA009219460C22FFF7DDFB039896
:1013000005B05DF804FB00BFF0E700BF2DE9F04336
:10131000054685B00E464FF000083046FFF7CAFF7D
:10132000B028044600F0BA80070620D500F0F0038C
:10133000802B4DD0902B36D0A02B60D0B02B74D00A
:10134000C02B00F08B8000F0F803D02B0BD100F005
:1013500007020132052342F4002201212846FFF74B
:1013600091FD0028D9D0092005B0BDE8F0838300A5
:10137000DBB21F1D0DF10C0900231946CDF80090BA
:101380000D222846FFF798FB039BCDF800906006DE
:101390004CBFDF1BFF1800230D2219462846039778
:1013A000FFF7B0FBB9E700F00D030D2BDBD003AF67
:1013B000002300F00F02194600972846FFF77CFB38
:1013C000002300970D2219462846FFF79BFBA4E750
:1013D0003046FFF76FFF24022043B0F5004FC2D024
:1013E00004010023A2B219462846FFF74BFD00284E
:1013F000B9D114F4004F18BF4FF001088DE7C24374
:1014000002F007034FF47F621A41010702F47F6282
:101410004FF0000348BF42F4804219462846FFF7C8
:1014200031FD00283FF479AF9DE7B1283BD0B228C9
:1014300000F09380B32841D000F0FC03B42B92D08D
:1014400000F007020132012342F400221946284627
:10145000FFF718FD00283FF460AF84E7C6284AD0A4
:10146000C72854D000F0F803C02B63D0C82868D038
:10147000C9287FF478AF3046FFF71CFF020300F065
:101480000F0002F470220130024301210523284697
:10149000FFF7F8FC00283FF440AF64E7B8F1000F15
:1014A00018D0002060E73046FFF704FF024600280E
:1014B0003FF459AF10F0F003C8D054E73046FFF7BF
:1014C000F9FE020300F00F03013302F470221A4305
:1014D0000123BBE703AC43460E2241460094284655
:1014E000FFF7EAFA009443460F2241462846FFF7E9
:1014F00009FB404638E73046FFF7DCFE020300F008
:101500000F03013302F470221A4303239EE730468F
:10151000FFF7D0FE024600283FF425AF10F0F0039D
:101520007FF421AF04212846FFF7ACFC00283FF4EC
:10153000F4AE18E700F00F020132032342F4202238
:1015400084E73046FFF7B6FE00F0F00200F00F032C
:101550001032013343EA023297E700230DF10C0900
:101560000D221946CDF800902846FFF7A5FA30461F
:10157000FFF7A0FE02064FF002040CD5039B00F01B
:101580007F00A040184403903046FFF793FE030607
:1015900004F10704F2D4039BCDF8009000F07F0221
:1015A000A24003F501731A440023039219460D2249
:1015B0002846FFF7A7FAB0E610B5C26C536884B0AE
:1015C0004FF0030C08321C0208461B0E01A90194BF
:1015D00002928DF80CC08DF80D30FFF797FE04B025
:1015E00010BD00BF08B5FFF78FFE806C08BD00BFBF
:1015F00008B5FFF789FEC06CC379023300EB8300A6
:1016000008BD00BF704700BF10F8012B11F8013B67
:10161000012A28BF9A42F7D0D01A704710B517E0B8
:10162000042284F84C2094F84E2042F0040284F8FE
:101630004E20144C04F1140009F070F86065002885
:10164000EED1104A92F84E3043F0040382F84E3047
:101650000C4C022384F84C3023460022114604F13E
:10166000140009F00DF860650028E2D1054B032253
:1016700083F84C2093F84E2022F0040283F84E2089
:1016800010BD00BF7402002070B58EB00146294C19
:10169000012084F84C00284B0193284B0093284BE1
:1016A000284A09F083FE206560B1042284F84C20AA
:1016B00094F84E2042F0010284F84E20002528467E
:1016C0000EB070BD1B4A92F84E3023F0010382F831
:1016D0004E3009A809F02EF91B4B09931B4B0A93B6
:1016E0001B4B0B931B4B0C9309A809F031F90546D2
:1016F00050B9104B042283F84C2093F84E2042F04E
:10170000020283F84E20DAE70A4E02A809F040F9F7
:10171000B44602AC0FCCACE80F002368CCF8003024
:1017200096F84E3023F0020386F84E30FFF776FF2E
:10173000C5E700BF74020020AD7E00086F7E000880
:10174000617E0008497E0008E17C0008057D0008F4
:10175000257D0008657D000808B5FFF795FF40B1BD
:1017600000F01EF9044808F051FF00F055F9002080
:1017700008BD4FF0FF30FBE7D802002010B50D4B3D
:10178000022283F84C2000F047F902E0642005F0C3
:1017900011FE084C04F1140008F0C0FF6065002839
:1017A000F4D1FFF73BFF00F0FBF8034808F02EFFF1
:1017B00010BD00BF74020020D802002008B50A4600
:1017C0004FF4FA73CB600146014800F019FB08BDE5
:1017D0004C3C00200000000010B528B3164C01233B
:1017E00084F8283704F5E66311A1D1E90001C3E9C3
:1017F0000001002204F5E26104F5E16007F054FF06
:10180000C4F8180A38B90C4AB2F8223A23F0020395
:10181000A2F8223A10BDB4F8223A43F00203A4F829
:10182000223AFFF7ABFFF5E7044806F0D5FCF1E7F5
:10183000E923F8F8E796F33FD0020020488A010830
:1018400010B582B0254C264BC4F88C3013F087FAC3
:101850000246D4F88C30214604F1880009F000F8E3
:10186000C4F8900018B3042284F8202AB4F8222A7D
:1018700042F48062A4F8222A184C1A4B009304F513
:10188000DF6304F1980204F1880104F1080008F014
:101890000BFDC4F89000A8B1042284F8202AB4F803
:1018A000222A42F48062A4F8222A02B010BD0B4B17
:1018B000012283F8202AB3F8222A22F48062A3F8B6
:1018C000222AD9E7054B012283F8202AB3F8222ADD
:1018D00022F48062A3F8222AE7E700BFD0020020AA
:1018E000588A0108BD17000810B582B013F030FA0D
:1018F0000246264C264B214604F5E16008F07CFFA9
:10190000C4F8180AD0B9214AB2F8223A23F00203E7
:10191000A2F8223A1D4C1F4BC4F81C3A1E4AC4F8C8
:10192000142A00931C4A00231C4904F5216008F086
:10193000CBFFC4F8180A68B102B010BD042284F8C5
:10194000202AB4F8222A42F00202A4F8222AFFF741
:1019500015FFDFE704F5216104F1080008F078FCC9
:10196000C4F8180A48B1042284F8202AB4F8222ABC
:1019700042F00202A4F8222ADEE7044AB2F8223A30
:1019800023F00203A2F8223AD6E700BFD0020020DB
:10199000688A0108D91700088096980088020020FC
:1019A00010B5184C012384F8203A174B174A1849F0
:1019B000204608F0E5FEC4F8240A60B1114B042269
:1019C00083F8202AB3F8222A42F00102A3F8222A3F
:1019D000FFF7D4FE10BDB4F8223A23F00103A4F8B7
:1019E000223A0C4B022203F1180104F1080008F01E
:1019F00087FBC4F8240A0028EAD1FFF775FFFFF738
:101A00001FFFE7E7D002002088020020DC8A0108DF
:101A1000788A01087402002010B5154C04F1080002
:101A200008F0E2FBC4F8240A04F5216008F03CF950
:101A3000D4F8243A0344C4F8243A214604F5E1607A
:101A400007F0E4FDD4F8243A0344C4F8243A2146CC
:101A500004F1880007F02CFFD4F8243A0344C4F8BA
:101A6000243A204607F042FCC4F8240A10BD00BF07
:101A7000D0020020F0B5FFB006460C4600210191CF
:101A80004FF4F87202A806F0BFFA01233370D4E9CC
:101A90000401024601F10043D4E90201FEF746FCCD
:101AA000002800F09E80D4E90801024601F10043BD
:101AB000D4E90601FEF73AFC002800F0AC800022D1
:101AC0000023D4E90A01FEF731FC40B90022844B1F
:101AD000D4E90C01FEF72AFC002800F0B7800022B0
:101AE0000023D4E90E01FEF721FC40B900227D4B12
:101AF000D4E91001FEF71AFC002800F0BF80D4E9F9
:101B00001401024601F10043D4E91201FEF70EFC74
:101B1000002800F0CB80D4E90223D4E91601FEF7B7
:101B20000FFC30B9D4E90423D4E91801FEF726FCF0
:101B300050B10023337001A8FEF74AFB45226A49E1
:101B400001AB184406F052FAD4E90623D4E91A018D
:101B5000FEF7F6FB30B9D4E90823D4E91C01FEF7FF
:101B60000DFC50B10023337001A8FEF731FB422277
:101B70005E4901AB184406F039FA00225C4BD4E907
:101B80001E01FEF7DDFB30B900225A4BD4E92001DB
:101B9000FEF7F4FBE0B10023337001A8FEF718FB59
:101BA000554D01AB1C1805F13007AC46BCE80F00E1
:101BB00020606160A260E36065461034BC45F4D1EA
:101BC00007CD20606160A2602A88AB78A281A373F0
:101BD00001AC2046FEF7FCFAB060746030467FB07E
:101BE000F0BD0023337001A8FEF7F2FADFF810C150
:101BF00001AB1D180CF1200E67460FCF28606960FD
:101C0000AA60EB60BC4610357745F5D1BCE803000F
:101C10002860696047E70023337001A8FEF7D8FA0F
:101C2000364F01AB1D1807F1200EBC46BCE80F0073
:101C300028606960AA60EB6067461035F445F4D10E
:101C400003CF286069603B782B7238E7002333703C
:101C500001A8FEF7BDFADFF8ACC001AB1D180CF10E
:101C6000200E67460FCF28606960AA60EB60BC4613
:101C700010357745F5D13B782B7030E70023337072
:101C800001A8FEF7A5FADFF880C001AB1D180CF122
:101C9000200E67460FCF28606960AA60EB60BC46E3
:101CA00010357745F5D13B782B7028E7002333704A
:101CB00001A8FEF78DFADFF854C001AB1D180CF136
:101CC000200E67460FCF28606960AA60EB60BC46B3
:101CD00010357745F5D13A88BB782A80AB701AE782
:101CE00000407F40000014404C8B0108948B010899
:101CF00000001CC000001C40D88B0108B48A0108F9
:101D00008C8A0108E08A0108048B0108288B0108ED
:101D100038B50446C0F8F810294B1B68C0F8FC30F1
:101D2000284A127812B32378C4F808310023C4F883
:101D300010310822C4F81821C4F81431D4F8F8304E
:101D40005B6A012B28D094F8243143F0020384F815
:101D50002431B4F88C3023F00403A4F88C30002331
:101D600084F88A30012084F8250138BD0846DA63FA
:101D7000012119645A629A6240F6FF75DD621A63A6
:101D80005A63596403F1240101F0F0FE0028CAD11E
:101D90000C4B01221A70C6E794F8243123F0020399
:101DA00084F82431B4F88C3043F00403A4F88C3068
:101DB000012384F88A3084F825310020D5E700BF5C
:101DC000F80C0020FC0C002038B5102006F0FEF8BE
:101DD000094B1860002408E0074B1D684FF45E7043
:101DE00006F0F4F845F824000134032CF4DD01205A
:101DF000024B187038BD00BF000D0020040D0020FC
:101E00002DE9F047ADF50A7D06460D461446B94B5F
:101E10001B786BB3294682A8FFF72CFE9DF8083289
:101E2000002B59D0B44F3B6888222946186806F029
:101E3000DDF83B681A68002182F88A10196891F869
:101E4000242142F0010281F8242131461868FFF76D
:101E50005FFF90B13A681168B1F88C3023F001034C
:101E6000A1F88C301268012382F82531237066E0D6
:101E7000A14B1868FFF7A8FFCCE74FF0000E84F8DD
:101E800000E005AF9D4BBC460FCBACE80700ACF8BB
:101E900000304FF4F37271460DF1220006F0B4F8F1
:101EA0003846FEF795F9804607EB000EDFF854C27E
:101EB000BCE80F0047F80800CEF80410CEF8082060
:101EC000CEF80C30BCE80700CEF81000CEF81410A5
:101ED000CEF81820676032E04FF0000984F80090D7
:101EE0000DF11408854B47460FCB07C73B804FF4D5
:101EF000F37249460DF1220006F086F883994046B8
:101F000006F092F9C4F804804046FEF761F9A0603B
:101F1000794B1B681968B1F88C2042F00102A1F8D6
:101F20008C201A68012182F88A10196891F82421FE
:101F300022F0010281F824211B6883F825916F4665
:101F400005F188013846FFF795FD0DF5027C97E80D
:101F50000F008CE80F009DF80832002B5AD0664B1A
:101F60001F6838688822A91800F5947006F03EF8BA
:101F70003B68002283F8B2213A6892F84C3243F071
:101F8000010382F84C323868314600F59470FFF74F
:101F9000BFFE68B1584B1A681168B1F8B43123F02C
:101FA0000103A1F8B4311368012283F84D2267E0E0
:101FB0004FF0000E84F800E005AFBC46504B0FCB4D
:101FC000ACE807002CF8023B1B0C8CF8003040F208
:101FD000E51271460DF1230006F016F83846FEF7BB
:101FE000F7F8804607EB000EDFF81CC1BCE80F00D5
:101FF00047F80800CEF80410CEF80820CEF80C30D0
:10200000BCE80700CEF81000CEF81410CEF8182067
:10201000676035E04FF0000984F800900DF1140876
:102020004746374B0FCB07C727F8023B1B0C3B70CB
:1020300040F2E51249460DF1230005F0E5FF8399D2
:10204000404606F0F1F8C4F804804046FEF7C0F8B8
:10205000A060294B1B681968B1F8B42142F0010255
:10206000A1F8B4211A68012182F8B211196891F817
:102070004C2222F0010281F84C221B6883F84D9219
:102080006F4605F588713846FFF7F4FC0DF5027CC4
:1020900097E80F008CE80F009DF80832002B62D003
:1020A000154B1F683868882205F5887100F5147093
:1020B00005F09CFF3B68002283F8DA223A6892F828
:1020C000743343F0010382F874333868314600F505
:1020D0001470FFF71DFEC8B1074B1A681168B1F8FC
:1020E000DC3223F00103A1F8DC321368012283F80B
:1020F000752369E0040D0020000D0020D06F010859
:10210000C4710108188C0108348C01084FF0000CD0
:1021100084F800C005AF3B46AD4A07CA03C31A8026
:102120004FF4F57261460DF11E0005F06DFF384663
:10213000FEF74EF8804607EB000EDFF8A4C2BCE8BD
:102140000F0047F80800CEF80410CEF80820CEF8AB
:102150000C30BCE80700CEF81000CEF81410CEF812
:102160001820676030E04FF0000884F8008005AF69
:102170003B46974A07CA03C31A804FF4F57241469B
:102180000DF11E0005F040FF8399384606F04CF82B
:1021900067603846FEF71CF8A0608E4B1B68196814
:1021A000B1F8DC2242F00102A1F8DC221A68012118
:1021B00082F8DA12196891F8742322F0010281F88A
:1021C00074231B6883F875836F4605F5CC71384618
:1021D000FFF750FC0DF5027C97E80F008CE80F002C
:1021E0009DF80832002B54D07A4F3B68882205F5C1
:1021F000CC71586805F0FAFE3B685A68002182F8F5
:102200008A10596891F8242142F0010281F82421B2
:1022100031465868FFF77CFD60B13A685168B1F803
:102220008C3023F00103A1F88C305368012283F82D
:10223000252161E04FF0000E84F800E005AFBC46B8
:10224000654B0FCBACE80700ACF800304FF4F372ED
:1022500071460DF1220005F0D7FE3846FDF7B8FFB4
:10226000804607EB000EDFF87CC1BCE80F0047F8A2
:102270000800CEF80410CEF80820CEF80C30BCE8E8
:102280000700CEF81000CEF81410CEF818206760C2
:1022900032E04FF0000984F800900DF11408474631
:1022A0004D4B0FCB07C73B804FF4F37249460DF1FE
:1022B000220005F0A9FE8399404605F0B5FFC4F859
:1022C00004804046FDF784FFA060424B1B685968BC
:1022D000B1F88C2042F00102A1F88C205A6801214B
:1022E00082F88A10596891F8242122F0010281F8BD
:1022F00024215B6883F825916F4605F508713846FF
:10230000FFF7B8FB0DF5027C97E80F008CE80F0093
:102310009DF80832002B67D02E4B1F687868882202
:1023200005F5087100F5947005F060FE7B680022E9
:1023300083F8B2217A6892F84C3243F0010382F8B4
:102340004C327868314600F59470FFF7E1FC68B1D3
:10235000204B1A685168B1F8B43123F00103A1F899
:10236000B4315368012283F84D2273E04FF0000E20
:1023700084F800E005AFBC46184B0FCBACE8070073
:102380002CF8023B1B0C8CF8003040F2E512714631
:102390000DF1230005F038FE3846FDF719FF8046A1
:1023A00007EB000EDFF83CC0BCE80F0047F8080060
:1023B000CEF80410CEF80820CEF80C30BCE80700A8
:1023C000CEF81000CEF81410CEF81820676041E067
:1023D000B8730108000D0020AC750108A077010852
:1023E000348C0108188C01084FF0000984F8009023
:1023F0000DF114084746984B0FCB07C727F8023B4F
:102400001B0C3B7040F2E51249460DF1230005F02C
:10241000FBFD8399404605F007FFC4F80480404661
:10242000FDF7D6FEA0608D4B1B685968B1F8B4214A
:1024300042F00102A1F8B4215A68012182F8B211D8
:10244000596891F84C2222F0010281F84C225B6815
:1024500083F84D926F4605F52A713846FFF70AFB5F
:102460000DF5027C97E80F008CE80F009DF808320C
:10247000002B56D0794B1F687868882205F52A71A1
:1024800000F5147005F0B2FD7B68002283F8DA22B3
:102490007A6892F8743343F0010382F874337868F1
:1024A000314600F51470FFF733FC68B16B4B1A68C6
:1024B0005168B1F8DC3223F00103A1F8DC32536833
:1024C000012283F875235DE04FF0000C84F800C012
:1024D00005AF3B46624A07CA03C31A804FF4F57240
:1024E00061460DF11E0005F08FFD3846FDF770FEC8
:1024F000804607EB000EDFF870C1BCE80F0047F81C
:102500000800CEF80410CEF80820CEF80C30BCE855
:102510000700CEF81000CEF81410CEF8182067602F
:1025200030E04FF0000884F8008005AF3B464C4A8D
:1025300007CA03C31A804FF4F57241460DF11E001D
:1025400005F062FD8399384605F06EFE67603846F7
:10255000FDF73EFEA060414B1B685968B1F8DC22D4
:1025600042F00102A1F8DC225A68012182F8DA1255
:10257000596891F8742322F0010281F874235B6892
:1025800083F8758305F54C786F4641463846FFF76A
:1025900071FA0DF5027C97E80F008CE80F004146B8
:1025A00086A8FFF767FA9DF81832002B60D02B4FF2
:1025B0003B6888224146986805F018FD3B689A6898
:1025C000002182F88A10996891F8242142F00102D2
:1025D00081F8242131469868FFF79AFB60B13A6888
:1025E0009168B1F88C3023F00103A1F88C30936826
:1025F000012283F825216EE04FF0000E84F800E000
:1026000005AFBC46174B0FCBACE80700ACF8003069
:102610004FF4F37271460DF1220005F0F5FC3846D7
:10262000FDF7D6FD804607EB000EDFF840C0BCE8A2
:102630000F0047F80800CEF80410CEF80820CEF8B6
:102640000C30BCE80700CEF81000CEF81410CEF81D
:10265000182067603FE000BFA0770108000D002050
:1026600094790108887B0108348C0108188C0108D2
:102670004FF0000984F800900DF1140847469A4B7A
:102680000FCB07C73B804FF4F37249460DF1220090
:1026900005F0BAFC8399404605F0C6FDC4F80480F5
:1026A0004046FDF795FDA060904B1B689968B1F816
:1026B0008C2042F00102A1F88C209A68012182F856
:1026C0008A10996891F8242122F0010281F82421CE
:1026D0009B6883F825916F4605F56E713846FFF7C4
:1026E000C9F90DF5027C97E80F008CE80F009DF802
:1026F0000832002B5BD07D4B1F68B868882205F537
:102700006E7100F5947005F071FCBB68002283F8CF
:10271000B221BA6892F84C3243F0010382F84C328D
:10272000B868314600F59470FFF7F2FA68B16F4B64
:102730001A689168B1F8B43123F00103A1F8B431FB
:102740009368012283F84D2267E04FF0000E84F871
:1027500000E005AFBC46664B0FCBACE807002CF899
:10276000023B1B0C8CF8003040F2E51271460DF173
:10277000230005F049FC3846FDF72AFD804607EBAB
:10278000000EDFF874C1BCE80F0047F80800CEF86F
:102790000410CEF80820CEF80C30BCE80700CEF8C4
:1027A0001000CEF81410CEF81820676035E04FF016
:1027B000000984F800900DF1140847464C4B0FCBEC
:1027C00007C727F8023B1B0C3B7040F2E512494655
:1027D0000DF1230005F018FC8399404605F024FD17
:1027E000C4F804804046FDF7F3FCA0603F4B1B6833
:1027F0009968B1F8B42142F00102A1F8B4219A68B5
:10280000012182F8B211996891F84C2222F001025C
:1028100081F84C229B6883F84D926F4605F58861DC
:102820003846FFF727F90DF5027C97E80F008CE892
:102830000F009DF80832002B60D02C4B1F68B86841
:10284000882205F5886100F5147005F0CFFBBB68A0
:10285000002283F8DA22BA6892F8743343F0010355
:1028600082F87433B868314600F51470FFF750FAF7
:1028700068B11E4B1A689168B1F8DC3223F001038D
:10288000A1F8DC329368012283F8752367E04FF0EA
:10289000000C84F800C005AF3B46164A07CA03C3C4
:1028A0001A804FF4F57261460DF11E0005F0ACFB85
:1028B0003846FDF78DFC804607EB000EDFF838C088
:1028C000BCE80F0047F80800CEF80410CEF8082046
:1028D000CEF80C30BCE80700CEF81000CEF814108B
:1028E000CEF8182067603AE0887B0108000D0020D0
:1028F0007C7D0108707F0108348C01084FF00008CE
:1029000084F8008005AF3B46CE4A07CA03C31A804D
:102910004FF4F57241460DF11E0005F075FB8399E9
:10292000384605F081FC67603846FDF751FCA06031
:10293000C54B1B689968B1F8DC2242F00102A1F88E
:10294000DC229A68012182F8DA12996891F87423DE
:1029500022F0010281F874239B6883F8758305F5E2
:1029600099686F4641463846FFF784F80DF5027CBA
:1029700097E80F008CE80F009DF80832002B53D029
:10298000B14F3B6888224146D86805F02FFB3B6871
:10299000DA68002182F88A10D96891F8242142F07F
:1029A000010281F824213146D868FFF7B1F960B1FE
:1029B0003A68D168B1F88C3023F00103A1F88C306B
:1029C000D368012283F8252161E04FF0000E84F8DE
:1029D00000E005AFBC469D4B0FCBACE80700ACF860
:1029E00000304FF4F37271460DF1220005F00CFB3C
:1029F0003846FDF7EDFB814607EB000EDFF854C2C9
:102A0000BCE80F0047F80900CEF80410CEF8082003
:102A1000CEF80C30BCE80700CEF81000CEF8141049
:102A2000CEF81820676032E04FF0000A84F800A06A
:102A30000DF114094F46854B0FCB07C73B804FF470
:102A4000F37251460DF1220005F0DEFA83994846F3
:102A500005F0EAFBC4F804904846FDF7B9FBA06016
:102A6000794B1B68D968B1F88C2042F00102A1F8BB
:102A70008C20DA68012182F88A10D96891F8242123
:102A800022F0010281F82421DB6883F825A16F463A
:102A900041463846FEF7EEFF0DF5027C97E80F0041
:102AA0008CE80F009DF80832002B5BD0664B1F6846
:102AB000F868882205F5AA6100F5947005F096FA89
:102AC000FB68002283F8B221FA6892F84C3243F096
:102AD000010382F84C32F868314600F59470FFF734
:102AE00017F968B1584B1A68D168B1F8B43123F0BE
:102AF0000103A1F8B431D368012283F84D2267E0C5
:102B00004FF0000E84F800E005AFBC46504B0FCBF1
:102B1000ACE807002CF8023B1B0C8CF8003040F2AC
:102B2000E51271460DF1230005F06EFA3846FDF707
:102B30004FFB814607EB000EDFF818C1BCE80F0021
:102B400047F80900CEF80410CEF80820CEF80C3073
:102B5000BCE80700CEF81000CEF81410CEF818200C
:102B6000676035E04FF0000A84F800A00DF1140909
:102B70004F46374B0FCB07C727F8023B1B0C3B7068
:102B800040F2E51251460DF1230005F03DFA83991C
:102B9000484605F049FBC4F804904846FDF718FB89
:102BA000A060294B1B68D968B1F8B42142F001023A
:102BB000A1F8B421DA68012182F8B211D96891F83C
:102BC0004C2222F0010281F84C22DB6883F84DA2EE
:102BD0006F4641463846FEF74DFF0DF5027C97E8FB
:102BE0000F008CE80F009DF80832002B55D0164BD3
:102BF0001F68F868882205F5BB6100F5147005F0C0
:102C0000F5F9FB68002283F8DA22FA6892F8743347
:102C100043F0010382F87433F868314600F514700C
:102C2000FFF776F8C0B1084B1A68D168B1F8DC320A
:102C300023F00103A1F8DC32D368012283F8752365
:102C40005AE000BF707F0108000D00206481010878
:102C500058830108348C01080025257005AF3B46D8
:102C6000274A07CA03C31A804FF4F57229460DF1AB
:102C70001E0005F0C9F93846FDF7AAFA84463E1849
:102C8000204D0FCD47F80C007160B260F36007CDA6
:102C900030617161B26167602EE00026267005AD7B
:102CA0002B46174A07CA03C31A804FF4F572314600
:102CB0000DF11E0005F0A8F98399284605F0B4FA35
:102CC00065602846FDF784FAA0600F4B1B68D96841
:102CD000B1F8DC2242F00102A1F8DC22DA6801211D
:102CE00082F8DA12D96891F8742322F0010281F88F
:102CF0007423DB6883F875630DF50A7DBDE8F08702
:102D00004C850108348C0108000D00202DE9F041AC
:102D100007460C4615461E46DFF8608100224FF438
:102D20000051404601F06AFD00224FF480514046B8
:102D300001F064FD00224FF48041404601F05EFD49
:102D400000224FF40041404601F058FDF81E0328D0
:102D500026D8DFE800F002274B6F00224FF4005125
:102D6000464801F04BFD002714E0DFF810810122F6
:102D70004FF40051404601F041FD284604F01AFB93
:102D800000224FF40051404601F038FD304604F077
:102D900011FB0137A742E8DB4FF47A7004F00AFB1D
:102DA000BDE8F08100224FF48051344801F026FD47
:102DB000002714E0DFF8C48001224FF48051404620
:102DC00001F01CFD284604F0F5FA00224FF4805172
:102DD000404601F013FD304604F0ECFA0137A742FB
:102DE000E8DB4FF47A7004F0E5FAD9E700224FF4FB
:102DF0008041224801F002FD002714E0DFF87C80CA
:102E000001224FF48041404601F0F8FC284604F0CE
:102E1000D1FA00224FF48041404601F0EFFC3046E9
:102E200004F0C8FA0137A742E8DB4FF47A7004F0E7
:102E3000C1FAB5E700224FF40041104801F0DEFC72
:102E4000002714E0DFF8348001224FF400414046AF
:102E500001F0D4FC284604F0ADFA00224FF4004102
:102E6000404601F0CBFC304604F0A4FA0137A742FB
:102E7000E8DB4FF47A7004F09DFA91E7000C024011
:102E800008B57EE1C8231A4601210320FFF73EFF63
:102E900020E0C8231A4602210320FFF737FF19E07C
:102EA000C8231A4603210846FFF730FF12E0A94C59
:102EB00000224FF40051204601F0A0FC642004F0F1
:102EC00079FA01224FF40051204601F097FC64206A
:102ED00004F070FAA04B93F82030DBB2052B40F0E1
:102EE0003D819C4C00224FF40051204601F086FCAD
:102EF00000224FF48051204601F080FC00224FF464
:102F00008041204601F07AFC00224FF40041204627
:102F100001F074FC4FF4FA7004F04CFA8E4B5B6ACB
:102F200013F0010F06D0C8231A4601210520FFF730
:102F3000EDFE26E1884B5B6A13F0020F7DD1864BD4
:102F40005B6A13F4001F7FD1834B5B6A13F0040F9D
:102F500040F08180804B5B6A13F0080F40F0828064
:102F60007D4B5B6A13F0100F40F083807A4B5B6AF5
:102F700013F0200F40F08480774B5B6A13F0400F12
:102F800040F08580744B5B6A13F0800F40F08680C0
:102F9000714B5B6A13F4807F40F087806E4B5B6AF5
:102FA00013F4007F40F088806B4B5B6A13F4806FF2
:102FB00040F08980684B5B6A13F4006F40F08A80B0
:102FC000654B5B6A13F4805F40F08B80624B5B6AF9
:102FD00013F4005F40F08C805F4B5B6A13F4804F0A
:102FE00040F08D805C4B5B6A13F4004F40F08E80A4
:102FF000594B5B6A13F4803F40F08F80564B5B6AFD
:1030000013F4003F40F09080534B5B6A13F4802F21
:1030100040F09180504B5B6A13F4002F40F0928097
:103020004D4B5B6A13F4801F00F0AB80C8231A4637
:1030300016210520FFF76AFEA3E0C8231A460221E5
:103040000520FFF763FE9CE0C8231A4603210520F4
:10305000FFF75CFE95E0C8231A4604210520FFF720
:1030600055FE8EE0C8231A4605210846FFF74EFE9E
:1030700087E0C8231A4606210520FFF747FE80E0B7
:10308000C8231A4607210520FFF740FE79E0C82330
:103090001A4608210520FFF739FE72E0C8231A46B8
:1030A00009210520FFF732FE6BE0C8231A460A21EA
:1030B0000520FFF72BFE64E0C8231A460B210520EC
:1030C000FFF724FE5DE0C8231A460C210520FFF718
:1030D0001DFE56E0C8231A460D210520FFF716FEF7
:1030E0004FE0C8231A460E210520FFF70FFE48E0E7
:1030F000C8231A460F210520FFF708FE41E0C82328
:103100001A4610210520FFF701FE3AE0C8231A46AF
:1031100011210520FFF7FAFD33E0C8231A461221DA
:103120000520FFF7F3FD2CE0C8231A4613210520E4
:10313000FFF7ECFD25E0C8231A4614210520FFF710
:10314000E5FD1EE0C8231A4615210520FFF7DEFD28
:1031500017E000BF000C02404C3C0020274C00222E
:103160004FF48041204601F049FB642004F022F92D
:1031700001224FF48041204601F040FB642004F01E
:1031800019F91F4B93F84C30032B3FF490AE1B4CB6
:1031900000224FF40051204601F030FB00224FF492
:1031A0008051204601F02AFB00224FF48041204646
:1031B00001F024FB00224FF40041204601F01EFBE9
:1031C0004FF4FA7004F0F6F80D4B93F84E3013F00C
:1031D000010F7FF457AE13F0020F7FF45AAE13F0D5
:1031E000040F7FF45DAE13F0080F3FF473AEC823F5
:1031F0001A4604210320FFF789FD6BE6000C02400C
:103200007402002008B50268034B9A4200D008BD42
:1032100001F0D2FDFBE700BF0000014072B6FEE7FF
:1032200000B595B03022002108A804F0EDFE00237F
:10323000039304930593069307930193214A116C1A
:1032400041F080511164126C02F080520192019A97
:1032500002931D4B1A6842F480421A601B6803F403
:1032600080430293029B012308934FF48033099318
:1032700002230E934FF480020F92082210924FF413
:10328000A872119212930723139308A800F06AFE04
:1032900098B90F23039302230493002305934FF45B
:1032A000A05306934FF480530793052103A801F020
:1032B000BFF820B915B05DF804FBFFF7AFFFFFF7CB
:1032C000ADFF00BF003802400070004008B501F0BB
:1032D00059FDFFF7A5FF00F019F800F085F900F09F
:1032E000A5F900F0F9F900F04DFA00F0E7FA00F066
:1032F00025F9054800F0D6FC03F0D0FF00F002F9F4
:1033000003F0DEFFFEE700BF4C3C00202DE9F04F4C
:103310008DB000240794089409940A940B940194A6
:103320006C4B1A6B42F010021A631A6B02F0100217
:103330000192019A02941A6B42F004021A631A6B0A
:1033400002F004020292029A03941A6B42F0800285
:103350001A631A6B02F080020392039A04941A6BA8
:1033600042F001021A631A6B02F001020492049AFD
:1033700005941A6B42F002021A631A6B02F0020201
:103380000592059A06941A6B42F008021A631B6BA9
:1033900003F008030693069BDFF8449122460821B8
:1033A000484601F02BFADFF83C81012211464046E5
:1033B00001F024FADFF830A122464FF21001504606
:1033C00001F01CFA082507950126089609940A942D
:1033D00007A9484601F020F90796089609940A942F
:1033E00007A9404601F018F90795022508950994A8
:1033F0000A944FF0050BCDF82CB007A9404601F018
:103400000BF907964FF4901308930994324F07A9CC
:10341000384601F001F910230793089509940A949E
:1034200006230B9307A9384601F0F6F80423079307
:103430000894099407A9294801F0EEF84FF4806335
:103440000793089509940A94CDF82CB007A923484E
:1034500001F0E2F84FF210030793089609940A94DA
:1034600007A9504601F0D8F84FF4A45307930895E4
:1034700009940A9406230B9307A9404601F0CCF85F
:103480004FF4007307930894099407A9384601F094
:10349000C3F84FF4E0530793089509940A940A235C
:1034A0000B9307A9384601F0B7F820230793089437
:1034B000099407A9504601F0AFF807954FF490130F
:1034C0000893099407A9484601F0A6F80DB0BDE895
:1034D000F08F00BF003802400000024000040240AC
:1034E0000010024000080240000C024008B50248EB
:1034F000FEF732F908BD00BFE03D002008B5FFF738
:10350000BFFC08BD08B5074A0021074803F0F4FED8
:10351000064B1860064A0021064803F0EDFE064BF4
:10352000186008BD708C0108ED340008443C002090
:10353000948C0108FD340008483C002008B50D4873
:103540000D4B03600323436000238360C3604FF48B
:10355000A02202614FF4C002426103764376837673
:10356000C3760377437700F05BFA00B908BDFFF735
:1035700055FEFBE74C3C00200064004000B589B0DC
:103580000023039304930593069307930268144B57
:103590009A4202D009B05DF804FB0021019103F5C5
:1035A000EA331A6C42F000721A641A6C02F000726C
:1035B0000192019A02911A6B42F008021A631B6B86
:1035C00003F008030293029B032303930222049255
:1035D00006930923079303A9024801F01DF8D9E7D0
:1035E00000640040000C024010B582B00024019439
:1035F0000D4B1A6B42F400121A631B6B03F4001399
:103600000193019B22460521102001F075FB10203B
:1036100001F0AAFB22460521112001F06DFB1120CB
:1036200001F0A2FB02B010BD0038024008B50B4803
:103630000B4B03600B4B436000238360C3604FF46C
:103640008042026143618361C361036201F0C6FB92
:1036500000B908BDFFF7E2FDFBE700BF743C0020A6
:1036600000540040A086010030B589B000230393C8
:1036700004930593069307930268144B9A4201D072
:1036800009B030BD00250195114C236B43F00203B6
:103690002363236B03F002030193019B4FF4107328
:1036A000039312230493012305930423079303A98F
:1036B000084800F0B1FF0295236C43F40013236423
:1036C000236C03F400130293029BD9E700540040DB
:1036D000003802400004024008B50D480D4B03605D
:1036E0004FF48273436000238360C36003614361CE
:1036F0004FF400728261C3610362436283620A23F2
:10370000C36201F049FC00B908BDFFF787FDFBE784
:10371000C83C00200030014000B589B0002303936D
:1037200004930593069307930268144B9A4202D0C0
:1037300009B05DF804FB0021019103F584335A6C54
:1037400042F480525A645A6C02F480520192019AF7
:1037500002911A6B42F001021A631B6B03F0010322
:103760000293029BE0230393022304930523079310
:1037700003A9034800F050FFDAE700BF0030014022
:103780000000024008B50A480A4B03604FF4612369
:10379000436000238360C36003610C224261836144
:1037A000C36101F0E7FE00B908BDFFF737FDFBE795
:1037B000E03D00200044004030B589B00023039371
:1037C00004930593069307930268364B9A4201D0FF
:1037D00009B030BD04460025019503F5FA331A6C93
:1037E00042F400321A641A6C02F400320192019A17
:1037F00002951A6B42F001021A631B6B03F001037E
:103800000293029B0C230393022304930323069346
:103810000723079303A9244800F0FEFE2348244B06
:1038200003604FF0006343608560C5604FF48063C0
:103830000361456185614FF48073C3614FF4403388
:103840000362456201F060F828BB184BA3639C63D8
:103850001848194B03604FF00063436040238360B6
:103860000023C3604FF48062026143618361C361DE
:103870004FF440320262436201F046F870B90D4BDA
:1038800063639C6300220521262001F035FA26207F
:1038900001F06AFA9CE7FFF7C1FCD6E7FFF7BEFC30
:1038A000EDE700BF0044004000000240203D002042
:1038B00088600240803D0020A06002407047FEE723
:1038C000FEE7FEE7FEE7FEE77047000008B50248A6
:1038D00001F012F908BD00BF203D002008B50248E4
:1038E00001F00AF908BD00BF803D002008B502487C
:1038F00000F013FA08BD00BF4C3C002008B5024898
:1039000001F0F2FB08BD00BF8087002008B5024827
:1039100001F0D4FF08BD00BFE03D002000B583B03A
:10392000002200920D4B596C41F480415964596C4E
:1039300001F48041009100990192196C41F080518D
:1039400019641B6C03F080530193019B0F216FF0EE
:10395000010001F0D1F903B05DF804FB003802402A
:103960000120704708B504F007FB162303604FF0F1
:10397000FF3008BD08B54FF0FF31FFF7F3FFFEE75A
:1039800070B50C461646002506E0AFF300802146D0
:1039900001F8010B01350C46B542F6DB304670BD2F
:1039A00070B50C461646002504E014F8010BAFF381
:1039B00000800135B542F8DB304670BD08B50346DE
:1039C0000D4A12685AB10C4A106803440B4A117828
:1039D0000B4A521A934206D8074A136008BD064A9A
:1039E00008491160EFE700BE04F0C6FA0C2303603B
:1039F0004FF0FF30F2E700BF283E00200004000037
:103A000000000220F01801204FF0FF3070474FF403
:103A100000534B6000207047012070470020704722
:103A2000002800F0A18038B5044690F82030D3B1CA
:103A30002268136843F00103136001F0C9F90546D9
:103A400023685A6812F0010F10D101F0C1F9401B30
:103A50000A28F5D9636A43F400336362052384F8C6
:103A60002030012038BDFFF789FDE1E71A6822F018
:103A700002021A6001F0ACF9054623685A6812F098
:103A8000020F0DD001F0A4F9401B0A28F5D9636A92
:103A900043F400336362052384F820300120E1E71A
:103AA000227E012A3DD01A6822F080021A60637ECD
:103AB000012B3BD02268136823F040031360A37EE0
:103AC000012B39D02268136823F020031360E37EB2
:103AD000012B37D02268136843F010031360237F53
:103AE000012B35D02268136823F008031360637F2D
:103AF000012B33D02268136823F004031360A368FA
:103B0000E268134322691343626913436268013A0E
:103B100021681343CB6100206062012384F82030C8
:103B2000A0E71A6842F080021A60C0E722681368B2
:103B300043F040031360C2E72268136843F0200398
:103B40001360C4E72268136823F010031360C6E70C
:103B50002268136843F008031360C8E722681368FB
:103B600043F004031360CAE70120704790F8203047
:103B7000013BDBB2012B05D9436A43F48023436246
:103B80000120704730B5464BD3F8002242F00102C5
:103B9000C3F80022D3F8002222F47C52C3F800229A
:103BA000D3F80022486A42EA0022C3F800224A6998
:103BB00002F01F02012000FA02F2D3F81C026FEAA1
:103BC000020C20EA0200C3F81C02CB69C3B9344BD3
:103BD000D3F80C020CEA0000C3F80C028C88486988
:103BE000CD6844EA0544483043F830408C68088882
:103BF00040EA04404C6904F1480E03EBCE035860E0
:103C0000CB69012B1ED08B69002B33D12448D0F80F
:103C100004320CEA0303C0F804320B698BBB204862
:103C2000D0F814320CEA0303C0F814320B6A012BEB
:103C30002ED01B4AD2F8003223F00103C2F8003222
:103C4000002030BD164BD3F80C021043C3F80C0211
:103C50008C8848690D6844EA0544483043F8304090
:103C600088894C698D6840EA0540483403EBC403F9
:103C70005860C8E70A48D0F804321343C0F8043249
:103C8000CBE70748D0F814321343C0F81432CDE71D
:103C90000349D1F81C321A43C1F81C22C9E700BFFE
:103CA0000064004070B5044690F82050EDB2012D3C
:103CB00006D0436A43F4002343620125284670BDC1
:103CC000022380F820300268136823F00103136098
:103CD00001F07EF8064623685B6813F0010F0CD0F4
:103CE00001F076F8831B0A2BF5D9636A43F400339D
:103CF0006362052384F82030E0E700256562DDE794
:103D000070477047704770477047704770477047FB
:103D1000704770477047704770472DE9F84F054668
:103D200003685C69D3F804809F68D3F80CB0D3F8BB
:103D300010A0D3F8189014F001063BD017F001063C
:103D400016D001229A6017F0020F08D117F0040F65
:103D50000CD117F0080606D04FF4805608E0FFF7A4
:103D6000CFFF002604E0FFF7CEFF01E04FF400662E
:103D700017F4807F0DD02B684FF480729A6017F48F
:103D8000007F40F0868017F4806F00F0868046F454
:103D9000005617F4803F0DD02B684FF480329A60A4
:103DA00017F4003F40F0838017F4802F00F08380E9
:103DB00046F4004614F0080F07D01BF0100F04D093
:103DC00046F400762B681022DA6014F0040F02D05B
:103DD0001BF0080F79D114F0020F04D02B68DB68B8
:103DE00013F0030F78D114F0400F07D01AF0100F22
:103DF00004D046F480662B6810221A6114F0200F5C
:103E000002D01AF0080F6BD114F0100F04D02B68F9
:103E10001B6913F0030F6AD114F4003F02D018F0AD
:103E2000100F68D114F4803F02D018F0080F69D148
:103E300014F4004F7AD018F0040F74D014F4807F7B
:103E400004D019F0010F01D046F0010614F4007FF0
:103E500004D019F0020F01D046F0020614F4806F6E
:103E600004D019F0040F01D046F0040614F4006FDA
:103E700059D019F0700956D0B9F1400F65D058D813
:103E8000B9F1200F5ED0B9F1300F42D146F02006D3
:103E900044E02846FFF735FF7BE717F4006F02D0B8
:103EA00046F4804675E72846FFF72EFF71E728465F
:103EB000FFF728FF7EE717F4002F02D046F4803684
:103EC00078E72846FFF721FF74E72B680822DA60BD
:103ED0002846FFF71CFF7EE72846FFF717FF82E71B
:103EE0002B6808221A612846FFF713FF8CE7284643
:103EF000FFF70EFF90E72B6810225A602846FFF765
:103F000009FF8FE72B6808225A602846FFF703FF56
:103F10008EE7B9F1100F01D146F008062A689369BF
:103F200023F0700393612B6804225A609EB9BDE8A8
:103F3000F88FB9F1500F0BD0B9F1600FEED146F404
:103F40008076EBE746F01006E8E746F04006E5E746
:103F500046F08006E2E76B6A1E436E622846FFF772
:103F6000DBFEE4E7002800F0E08170B582B0044693
:103F7000036813F0010F3BD09F4B9B6803F00C03C9
:103F8000042B2CD09C4B9B6803F00C03082B21D0F6
:103F90006368B3F5803F4FD0B3F5A02F52D0964B56
:103FA0001A6822F480321A601A6822F480221A6099
:103FB0006368002B50D000F00BFF05468E4B1B684A
:103FC00013F4003F14D100F003FF401B6428F5D91F
:103FD0000320B1E1884B5B6813F4800FD8D0864B87
:103FE0001B6813F4003F03D06368002B00F09F812F
:103FF000236813F0020F54D07F4B9B6813F00C0F13
:104000003ED07D4B9B6803F00C03082B33D0E36854
:10401000002B68D0794B01221A6000F0D9FE0546CA
:10402000754B1B6813F0020F54D100F0D1FE401BFA
:104030000228F5D903207FE16F4A136843F48033E7
:104040001360B5E76C4B1A6842F480221A601A6854
:1040500042F480321A60ABE700F0BAFE0546664BC8
:104060001B6813F4003FC3D000F0B2FE401B64286D
:10407000F5D9032060E1604B5B6813F4800FC6D173
:104080005D4B1B6813F0020F03D0E368012B40F077
:104090005081594A136823F0F803216943EAC103A8
:1040A0001360236813F0080F42D063696BB3534B5E
:1040B0000122C3F8802E00F08BFE05464E4B5B6F4D
:1040C00013F0020F34D100F083FE401B0228F5D913
:1040D000032031E1484A136823F0F803216943EAD9
:1040E000C1031360DDE7454B00221A6000F070FE4B
:1040F0000546414B1B6813F0020FD2D000F068FE5A
:10410000401B0228F5D9032016E13C4B0022C3F8DE
:10411000802E00F05DFE0546374B5B6F13F0020FFB
:1041200006D000F055FE401B0228F5D9032003E11C
:10413000236813F0040F77D02F4B1B6C13F0805FB4
:1041400033D1002301932C4B1A6C42F080521A6435
:104150001B6C03F080530193019B0125284B1B68C6
:1041600013F4807F23D0A368012B34D0052B38D0E3
:10417000214B1A6F22F001021A671A6F22F0040213
:104180001A67A368002B3DD000F022FE06461A4BAA
:104190001B6F13F0020F46D100F01AFE801B41F294
:1041A00088339842F3D90320C6E00025D6E7144AA5
:1041B000136843F48073136000F00AFE0646104B48
:1041C0001B6813F4807FCED100F002FE801B022812
:1041D000F5D90320B0E0084A136F43F001031367D9
:1041E000CFE7054B1A6F42F004021A671A6F42F0CC
:1041F00001021A67C5E700BF0038024000004742CD
:104200000070004000F0E4FD0646524B1B6F13F0B7
:10421000020F08D000F0DCFD801B41F28833984289
:10422000F3D9032088E0EDB9A369002B00F0838067
:10423000484A926802F00C02082A51D0022B17D08B
:10424000454B00221A6600F0C3FD0446414B1B6833
:1042500013F0007F42D000F0BBFD001B0228F5D90F
:10426000032069E03B4A136C23F080531364DBE7BF
:10427000394B00221A6600F0ABFD0546354B1B6832
:1042800013F0007F06D000F0A3FD401B0228F5D9F3
:10429000032051E0E369226A1343626A43EA82130E
:1042A000A26A5208013A43EA0243E26A43EA02631D
:1042B000284A5360284B01221A6600F089FD044603
:1042C000244B1B6813F0007F06D100F081FD001B1A
:1042D0000228F5D903202FE000202DE000202BE05C
:1042E000012B2BD01B4B5B6803F48001E2699142E8
:1042F00026D103F03F02216A8A4223D1616A47F640
:10430000C0721A40B2EB811F1ED103F44031A26A81
:104310005208013AB1EB024F18D103F07063E26A20
:10432000B3EB026F14D1002006E00120704701209A
:1043300002E0012000E0002002B070BD0120FBE798
:104340000120F9E70120F7E70120F5E70120F3E775
:104350000120F1E7003802400000474208B5314B28
:104360009B6803F00C03042B57D0082B57D12D4B1F
:104370005A6802F03F025B6813F4800F2AD0294B81
:104380005968C1F3881C4FEA4C11B1EB0C006EEB7D
:104390000E0E4FEA8E1343EA90638101091A63EB14
:1043A0000E03DB0043EA5173C90011EB0C0C43F11F
:1043B0000003590200234FEA4C2041EADC51FCF78C
:1043C00037F8184B5B68C3F3014301335B00B0FB64
:1043D000F3F025E0134B5968C1F3881C4FEA4C11E8
:1043E000B1EB0C006EEB0E0E4FEA8E1343EA9063B6
:1043F0008101091A63EB0E03DB0043EA5173C90024
:1044000011EB0C0C43F10003990200234FEA8C20BE
:1044100041EA9C51FCF70CF8D3E7034800E003485D
:1044200008BD00BF0038024000127A000024F400EA
:10443000002800F09B8070B50D4604464F4B1B686A
:1044400003F007038B4208D2CBB24C4A13701368B7
:1044500003F007038B4240F08B80236813F0020FB8
:1044600017D013F0040F04D0454A936843F4E05387
:104470009360236813F0080F04D0414A936843F413
:10448000604393603E4A936823F0F003A1680B43B6
:104490009360236813F0010F32D06368012B21D0A1
:1044A0009A1E012A25D9364A126812F0020F61D0ED
:1044B00033498A6822F0030213438B6000F088FCC2
:1044C00006462F4B9B6803F00C036268B3EB820F28
:1044D00016D000F07DFC801B41F288339842F0D961
:1044E000032042E0264A126812F4003FE0D1012086
:1044F0003BE0234A126812F0007FD9D1012034E05A
:104500001E4B1B6803F00703AB4207D9EAB21B4BF3
:104510001A701B6803F00703AB422DD1236813F018
:10452000040F06D0164A936823F4E053E1680B4366
:104530009360236813F0080F07D0114A936823F49F
:104540006043216943EAC1039360FFF707FF0C4B07
:104550009B68C3F303130B4AD35CD8400A4B186023
:104560000A4B186803F02AFA002070BD012070473A
:104570000120FAE70120F8E70120F6E7003C0240BD
:1045800000380240C08C01080C0000200800002008
:10459000014B1868704700BF0C00002008B5FFF7FA
:1045A000F7FF044B9B68C3F38223034AD35CD840D4
:1045B00008BD00BF00380240D08C010808B5FFF7E5
:1045C000E7FF044B9B68C3F34233034AD35CD840F4
:1045D00008BD00BF00380240D08C01080F230360E3
:1045E0000B4B9A6802F0030242609A6802F0F002F4
:1045F00082609A6802F4E052C2609B68DB0803F4B0
:10460000E0530361034B1B6803F007030B60704723
:1046100000380240003C024000230F2B00F2E480EF
:1046200070B582B060E085685E000324B44025EA7E
:104630000405CC68B4402C438460456825EA020533
:104640004C68C4F300129A402A4342605AE0DC08E6
:10465000083450F8246003F0070295000F22AA40A6
:1046600026EA020E0A69AA4042EA0E0240F8242015
:104670005CE0072200E0002202FA0EF22A43023434
:104680005A4D45F824205A4A94686FEA0C0224EAED
:104690000C054E6816F4801F01D04CEA0405544CFA
:1046A000A560E46802EA04054E6816F4001F01D014
:1046B0004CEA04054E4CE560646802EA04054E6865
:1046C00016F4003F01D04CEA0405494C65602468AB
:1046D00022404D6815F4803F01D04CEA0402444C5E
:1046E000226001330F2B7DD801229A400C6804EA26
:1046F000020C32EA0404F4D14C6804F00304013CD7
:10470000012C90D94A6802F00302032A09D0C46838
:104710005D000322AA4024EA02048A68AA402243D8
:10472000C2604A6802F00302022A90D004684FEA8D
:10473000430E032202FA0EF224EA02044A6802F04F
:10474000030202FA0EF2224302604A6812F4403F6A
:10475000C7D000220192274A546C44F48044546428
:10476000526C02F480420192019A9C08A51C1F4AD7
:1047700052F8255003F003024FEA820E0F2202FA8C
:104780000EF225EA02051C4A90423FF474AF02F58E
:10479000806290421AD002F58062904218D002F5F1
:1047A0008062904216D002F58062904214D002F5E9
:1047B0008062904212D002F58062904210D002F5E1
:1047C000806290423FF455AF082255E7012253E73B
:1047D000022251E703224FE704224DE705224BE76F
:1047E000062249E702B070BD704700BF00380140A3
:1047F000003C014000380240000002400AB18161E3
:10480000704709048161704730B405682C6824F44E
:1048100080242C60046863608368402B05D00368A3
:1048200099600368DA6030BC704703689A60036877
:10483000D960F8E710B40368D9B210390C4AA2FB6A
:10484000014212090B4CA25CC2655F2909D923F40D
:104850007F7323F0030304338365806D5DF8044B9D
:10486000704723F47F7323F003038365F5E700BFEC
:10487000ABAAAAAAB88C0108836A826992B9012BF3
:104880000AD0022B02D00BB100207047C36A13F08C
:10489000807F28D100207047C36AB3F1C07F24D045
:1048A00000207047B2F5005F09D0022B25D9032BF9
:1048B00025D1C36A13F0807F23D100207047032BDA
:1048C00003D8DFE803F01404140A00207047C36A19
:1048D00013F0807F0DD100207047C36AB3F1C07F11
:1048E00009D0002070470120704701207047012047
:1048F0007047012070470120704701207047002059
:10490000704701207047000070B5044600F060FA5F
:10491000002C5BD00546022384F83530002384F850
:1049200034302268136823F00103136023681A6887
:1049300012F0010F0AD000F04BFA431B052BF5D9FA
:1049400020236365032084F8350070BD1A68204871
:1049500010406168A2680A43E1680A4321690A437A
:1049600061690A43A1690A43E1690A43216A0A436A
:104970000243616A04291ED01A602668756925F011
:104980000705636A1D43042B07D1A36A1D43E36A2D
:104990001BB12046FFF770FF90B975612046FFF705
:1049A00049FFE26D3F23934083600020606501234F
:1049B00084F83530C9E7E16A206B01430A43DBE73D
:1049C00040236365012084F83500BEE70120BCE781
:1049D0003F8010F038B50446856D90F8340001280A
:1049E0002BD0012084F8340094F83500C0B201289F
:1049F00004D0002384F83430022038BD022084F82B
:104A00003500002060652046FFF7FEFEE26D3F2383
:104A10009340AB602268136843F016031360236C65
:104A200023B12268136843F00803136022681368F7
:104A300043F0010313600020DFE70220DDE770B5DB
:104A40000446866D00F0C4F994F83530DBB2022BD1
:104A500006D080236365002384F83430012070BDC4
:104A600005462268136823F0160313602268536911
:104A700023F080035361236CE3B12268136823F0B1
:104A8000080313602268136823F00103136023688E
:104A90001B6813F0010F11D000F09AF9431B052B8E
:104AA000F5D920236365032084F83500002384F8BA
:104AB0003430D4E7A36C002BDFD1E3E7E26D3F2372
:104AC0009340B360012384F83530002084F834002B
:104AD000C5E790F83530DBB2022B03D08023436565
:104AE00001207047052380F835300268136823F0F1
:104AF0000103136000207047F0B583B00446002323
:104B00000193724B1D68724BA3FB0535AD0A876D8F
:104B10003E68C26D08239340334210D003681A6880
:104B200012F0040F0BD01A6822F004021A60C26D52
:104B300008239340BB60436D43F001034365E26D7E
:104B400001239340334209D02268526912F0800F4A
:104B500004D0BB60636D43F002036365E26D042320
:104B60009340334209D02268126812F0020F04D039
:104B7000BB60636D43F004036365E26D10239340F3
:104B8000334224D02268126812F0080F1FD0BB6095
:104B900023681A6812F4802F0DD01B6813F4002FBD
:104BA00004D1236C9BB12046984710E0A36C73B1ED
:104BB000204698470BE01A6812F4807F03D11A68E8
:104BC00022F008021A60236C0BB120469847E26D70
:104BD00020239340334255D02268126812F0100F00
:104BE00050D0BB6094F83530DBB2052B0ED0236873
:104BF0001A6812F4802F33D01B6813F4002F2AD1C7
:104C0000636C002B3ED0204698473BE02268136837
:104C100023F0160313602268536923F08003536165
:104C2000236CA3B12268136823F008031360E26DBC
:104C30003F239340BB60012384F83530002384F880
:104C40003430236D002B3FD0204698473CE0A36CC6
:104C5000002BE7D1EBE7E36BA3B12046984711E0C7
:104C60001A6812F4807F09D11A6822F010021A60C3
:104C7000012384F83530002384F83430E36B0BB122
:104C800020469847636DFBB1636D13F0010F17D099
:104C9000052384F835302268136823F0010313607C
:104CA000019B01330193AB4204D823681B6813F0C6
:104CB000010FF5D1012384F83530002384F8343016
:104CC000E36C0BB12046984703B0F0BD0C00002008
:104CD000B5814E1B074AD36823F4E0631B041B0C09
:104CE000000200F4E060034343F0BF6343F4003389
:104CF000D360704700ED00E000B5194BDB68C3F3EB
:104D00000223C3F1070CBCF1040F28BF4FF0040CC1
:104D100003F1040EBEF1060F18D9033B4FF0FF3E1E
:104D20000EFA0CFC21EA0C0199400EFA03F322EA78
:104D30000303194300280BDB0901C9B200F16040ED
:104D400000F5614080F800135DF804FB0023E5E7FF
:104D500000F00F000901C9B2024B1954F4E700BF7B
:104D600000ED00E014ED00E0002807DB00F01F027A
:104D7000400901239340024A42F82030704700BFA7
:104D800000E100E008B50B4B1A6842F400721A60AB
:104D90001A6842F480621A601A6842F480721A60DB
:104DA0000320FFF797FF0F2002F008FEFEF7B6FD85
:104DB000002008BD003C0240034A1168034B1B78E9
:104DC0000B441360704700BF2C3E002004000020FD
:104DD000014B1868704700BF2C3E0020002800F0EF
:104DE000CC8070B5044690F83D30002B77D024235A
:104DF00084F83D302268136823F0010313602268B1
:104E0000136843F4004313602268136823F40043DB
:104E10001360FFF7C3FB62685A4B9A4264D85A4B3F
:104E200098428CBF00230123002B40F0A8805749F3
:104E3000A1FB00318B0C25686A6822F03F0242EA30
:104E400091426A6021680A6A22F03F0266684D4D0D
:104E5000AE424FD8013313430B622168CA6922F472
:104E60004F4222F0FF026668464B9E424CD8431EDA
:104E70007600B3FBF6F3013340F6FC70034278D0C2
:104E8000C3F30B031343CB6121680B6823F0C0030A
:104E9000E269206A024313430B6021688B6823F4A4
:104EA000034323F0FF032269E068024313438B604E
:104EB0002168CB6823F0FF036269A06902431343B2
:104EC000CB602268136843F0010313600020206464
:104ED000202384F83D30206384F83E0070BD80F8C4
:104EE0003C30FEF7C1FB82E7294B98428CBF002380
:104EF000012399E74FF4967505FB03F3254DA5FBB8
:104F000003539B090133A6E7A368BBB9451E06EB13
:104F1000460CB5FBFCF50135C5F30B05B5FA85F577
:104F20006D0945BBC3B9013806EB4603B0FBF3F38B
:104F30000133C3F30B0343F40043A3E7451E06EB21
:104F4000860C0CEB8C0CB5FBFCF50135C5F30B05A1
:104F5000B5FA85F56D09E4E7013806EB860303EB46
:104F60008303B0FBF3F30133C3F30B0343F4404378
:104F700088E7042386E7012384E7012070470120A6
:104F8000ACE700BFA08601007F841E0083DE1B43C8
:104F9000FF083D00D34D621000285AD010B50446DA
:104FA000436A33B94368B3F5827F05D00023C361F8
:104FB00002E00023036143610023A36294F85130AF
:104FC000002B40D0022384F851302268136823F06C
:104FD00040031360636803F48273A26802F404421E
:104FE0001343E26802F400621343226902F00202F2
:104FF0001343626902F001021343A26902F40072D2
:105000001343E26902F038021343226A02F080027D
:105010001343A26A02F40052216813430B60638BAE
:1050200003F00403626A02F01002216813434B602C
:105030002268D36923F40063D361002060650123F3
:1050400084F8513010BD84F850302046FEF764FBE0
:10505000B8E701207047704790F83D30DBB2012B74
:1050600037D1022380F83D300268D36843F0010352
:10507000D3600368194A934220D0B3F1804F1DD00A
:10508000A2F57C42934219D002F58062934215D07A
:1050900002F58062934211D002F5784293420DD01E
:1050A00002F57052934209D0A2F59432934205D092
:1050B0001A6842F001021A60002070479A6802F0F4
:1050C0000702062A07D01A6842F001021A6000207F
:1050D0007047012070470020704700BF000001406A
:1050E000704770477047704710B5044603681A69E7
:1050F00012F0020F11D0DA6812F0020F0DD06FF02B
:1051000002021A610123037703689B6913F0030FFE
:1051100070D0FFF7E6FF0023237723681A6912F0A7
:10512000040F12D0DA6812F0040F0ED06FF00402F0
:105130001A610223237723689B6913F4407F5FD0B1
:105140002046FFF7CEFF0023237723681A6912F069
:10515000080F12D0DA6812F0080F0ED06FF00802B4
:105160001A61042323772368DB6913F0030F4ED001
:105170002046FFF7B6FF0023237723681A6912F051
:10518000100F12D0DA6812F0100F0ED06FF010026C
:105190001A61082323772368DB6913F4407F3DD02D
:1051A0002046FFF79EFF0023237723681A6912F039
:1051B000010F03D0DA6812F0010F36D123681A69A3
:1051C00012F0800F03D0DA6812F0800F34D1236818
:1051D0001A6912F0400F03D0DA6812F0400F32D192
:1051E00023681A6912F0200F03D0DA6812F0200F3A
:1051F00030D110BDFFF774FF2046FFF773FF8AE739
:105200002046FFF76DFF2046FFF76CFF9BE7204627
:10521000FFF766FF2046FFF765FFACE72046FFF784
:105220005FFF2046FFF75EFFBDE76FF001021A61E6
:105230002046FDF7E7FFC1E76FF080021A612046C4
:1052400000F0A1F8C3E76FF040021A612046FFF7B3
:105250004AFFC5E76FF020021A61204600F092F87D
:10526000C7E700000368304A904212D0B0F1804F87
:105270000FD0A2F57C4290420BD002F580629042A2
:1052800007D002F58062904203D002F57842904246
:1052900003D123F070034A681343234A90422AD073
:1052A000B0F1804F27D0A2F57C42904223D002F586
:1052B000806290421FD002F5806290421BD002F5BE
:1052C0007842904217D002F57052904213D002F506
:1052D000806290420FD002F5806290420BD0A2F51E
:1052E0009832904207D002F58062904203D002F5D6
:1052F0008062904203D123F44073CA68134323F0C1
:1053000080034A69134303608B68C3620B6883623E
:10531000054B984203D003F58063984201D10B6995
:1053200003630123436170470000014040B310B59F
:10533000044690F83D30F3B1022384F83D30214615
:1053400051F8040BFFF78EFF012384F8463084F8F0
:105350003E3084F83F3084F8403084F8413084F89F
:10536000423084F8433084F8443084F8453084F87F
:105370003D30002010BD80F83C30FFF76CFEDBE7CD
:105380000120704770477047026802F10C0353E830
:10539000003F23F0C0030C3242E800310029F3D172
:1053A000202380F83D307047026802F10C0353E877
:1053B000003F23F490730C3242E800310029F3D10E
:1053C000026802F1140353E8003F23F00103143292
:1053D00042E800310029F3D1036B012B05D02023D3
:1053E00080F83E30002303637047026802F10C032B
:1053F00053E8003F23F010030C3242E8003100294B
:10540000F3D1ECE790F83D30DBB2212B01D0022044
:1054100070478368B3F5805F17D0036A5A1C026235
:105420001A7803685A60C38C9BB2013B9BB2C38459
:105430004BB90268D36823F08003D3600268D36855
:1054400043F04003D360002070470369002BE4D190
:10545000036A1B880268C3F308035360036A0233BC
:105460000362E0E738B504460268136923F4405349
:10547000C1680B4313618368026913434269134394
:10548000C2691A430168CB6823F4164323F00C0366
:105490001343CB600268536923F4407381690B4363
:1054A00053610368314A934206D002F58062934209
:1054B00002D0FFF773F801E0FFF780F8E369B3F576
:1054C000004F29D00021031849411B1841F1000168
:1054D000C90041EA5371DB00181863684FEA830280
:1054E0004FEA937341F10001FAF7A2FF204DA5FBAB
:1054F00000325109642303FB11031B013233A5FB66
:1055000003235B0903F0F00202EB011203F00F0327
:10551000216813448B6038BD0023021843EB03015C
:10552000121841F10001C90041EA5271D20010186D
:1055300041F10001626892185B41FAF779FF0C4D66
:10554000A5FB00325109642303FB1103DB00323356
:10555000A5FB03235B095A0002F4F87202EB011267
:1055600003F00703216813448B60D4E70010014067
:105570001F85EB5158B310B5044690F83D300BB37E
:10558000242384F83D302268D36823F40053D36089
:105590002046FFF767FF2268136923F490431361E5
:1055A0002268536923F02A0353612268D36843F4C5
:1055B0000053D36000202064202384F83D3084F819
:1055C0003E3010BD80F83C30FEF7F6F8D8E70120F9
:1055D0007047000038B590F83D30DBB2202B38D151
:1055E0000446002937D0002A37D090F83C30012BF0
:1055F00035D0012380F83C3001628284C2840025CA
:105600000564212380F83D30436B1648D863636BF3
:1056100015481864636B1548D864636B1D65206872
:105620001346021D606BFFF7D5F923686FF0400247
:105630001A6084F83C50226802F1140353E8003FDA
:1056400043F08003143242E800310029F3D10020F6
:1056500000E0022038BD0120FCE70120FAE702202B
:10566000F8E700BFF75600085F5700086F570008BB
:1056700010B5044603685A6990F83D30DBB2212B1F
:105680000AD023685A6902F0400294F83E30DBB237
:10569000222B19D0002010BD02F08002002AF0D089
:1056A000226802F1140353E8003F23F08003143210
:1056B00042E800310029F3D1606B08B1FFF7BFF970
:1056C0002046FFF761FEDCE7002AE3D0226802F102
:1056D000140353E8003F23F04003143242E8003142
:1056E0000029F3D1A06B08B1FFF7A9F92046FFF715
:1056F0005BFECFE7704708B50346806B1B681B68ED
:1057000013F4807F1AD10023C384026802F11403CA
:1057100053E8003F23F08003143242E800310029AF
:10572000F3D1026802F10C0353E8003F43F0400359
:105730000C3242E800310029F3D108BDFFF7DAFF4F
:10574000FBE708B50168CA6822F04002CA6020225F
:1057500080F83D20FFF7CEFF002008BD704708B558
:10576000806BFFF7FBFF08BD70477047704710B5AF
:10577000846B23685A6994F83D30DBB2212B10D03A
:1057800023685A6902F0400294F83E30DBB2222BC3
:1057900011D0236C43F0100323642046FFF7E6FF8B
:1057A00010BD02F08002002AEAD00023E3842046E4
:1057B000FFF7EAFDE4E7002AEBD00023E38520466B
:1057C000FFF7F2FDE5E708B5806B0023C385C384CE
:1057D000FFF7CCFF08BD704790F83E30DBB2222BBC
:1057E00067D18368B3F5805F4DD0826AB3F5805F7F
:1057F00004D0002B54D10369002B51D103685B689E
:105800001370836A01338362C38D9BB2013B9BB2E9
:10581000C385002B4FD100B583B00268D36823F055
:105820002003D3600268D36823F48073D3600268D6
:10583000536923F001035361202380F83E30036B4A
:10584000012B33D100230363026802F10C0353E8F8
:10585000003F23F010030C3242E800310029F3D15D
:1058600003681A6812F0100F06D0002201921A681D
:1058700001925B680193019B818DFFF7ACFF0020D3
:1058800003B05DF804FB0269002AAED1826A0368A6
:105890005B68C3F308031380836A02338362B3E750
:1058A00003685B6803F07F031370AAE7FFF75CFFF0
:1058B000E5E70220704700207047000030B583B054
:1058C000044602681368D068516913F00F0505D1CA
:1058D00013F0200F02D010F0200F19D12DB111F0CC
:1058E000010119D110F4907F16D1216B01297DD0CF
:1058F00013F0800F03D010F0800F40F0158113F0EB
:10590000400F03D010F0400F40F0128103B030BDC3
:105910002046FFF761FFF9E713F0010F06D010F4FE
:10592000807F03D0226C42F00102226413F0040F46
:1059300004D019B1226C42F00202226413F0020F6B
:1059400004D019B1226C42F00402226413F0080F53
:1059500007D010F0200F00D119B1226C42F00802DC
:105960002264226C002AD1D013F0200F02D010F054
:10597000200F29D123685B6903F04003226C12F0E9
:10598000080F00D163B32046FFF70EFD23685B6963
:1059900013F0400F20D0226802F1140353E8003FB7
:1059A00023F04003143242E800310029F3D1A36B05
:1059B00073B1614A1A65A06BFFF78BF80028A5D078
:1059C000A06B036D9847A1E72046FFF705FFD1E7DD
:1059D0002046FFF7CBFE99E72046FFF7C7FE95E785
:1059E0002046FFF7C3FE002323648FE713F0100F58
:1059F0003FF47EAF10F0100F3FF47AAF0023019315
:105A00001368019353680193019B536913F0400F8E
:105A100050D0A26B13685B689BB2002B3FF476AF4B
:105A2000A18D99427FF672AFE385D369B3F5807F8C
:105A300037D0226802F10C0353E8003F23F480734F
:105A40000C3242E800310029F3D1226802F114033C
:105A500053E8003F23F00103143242E800310029EB
:105A6000F3D1226802F1140353E8003F23F040030E
:105A7000143242E800310029F3D1202384F83E306B
:105A800000232363226802F10C0353E8003F23F054
:105A900010030C3242E800310029F3D1A06BFEF76D
:105AA000CEFFA18DE38D9BB2C91A89B22046FFF7C4
:105AB00092FE2BE7A18DE38D9BB2C91A89B2E38DCB
:105AC0009BB2002B3FF422AF00293FF41FAF2268A6
:105AD00002F10C0353E8003F23F490730C3242E8C8
