:020000040800F2
:1000000000000220F5840008473C0008493C000835
:100010004B3C00084D3C00084F3C0008000000002D
:10002000000000000000000000000000C17C00088B
:10003000513C000800000000617D00085B7800086A
:100040004585000845850008458500084585000868
:100050004585000845850008458500084585000858
:100060004585000845850008458500084585000848
:100070004585000845850008458500084585000838
:10008000553C0008653C000845850008458500088A
:10009000753C000845850008458500084585000831
:1000A00045850008853C0008458500084585000811
:1000B00045850008458500084585000845850008F8
:1000C00045850008458500084585000845850008E8
:1000D0004585000845850008953C000845850008D1
:1000E00045850008458500084585000845850008C8
:1000F00045850008458500084585000845850008B8
:1001000045850008458500084585000845850008A7
:100110004585000845850008458500084585000897
:100120004585000845850008458500084585000887
:100130004585000845850008458500084585000877
:100140004585000845850008458500084585000867
:100150004585000845850008458500084585000857
:100160004585000845850008458500084585000847
:100170004585000845850008458500080000000009
:080180004585000845850008D3
:1001900010B5054C237833B9044B13B10448AFF3C1
:1001A00000800123237010BD2804002000000000FF
:1001B000B027020808B5034B1BB103490348AFF34E
:1001C000008008BD000000002C040020B0270208B9
:1001D000034613F8012B002AFBD1181A0138704787
:1001E00001F0FF01102A2BDB10F0070F08D010F8E8
:1001F000013B013A8B422DD010F0070F42B3F6D1EC
:10020000F0B441EA012141EA014122F007047FF004
:1002100000070023F0E80256083C85EA010586EA5B
:10022000010685FA47F5A3FA87F586FA47F6A5FA97
:1002300087F68EB9EED1F0BC01F0FF0102F00702A3
:1002400032B110F8013B013A83EA010313B1F8D14E
:100250000020704701387047002D06BF354603382F
:10026000073815F0010F07D1013015F4807F02BF68
:10027000013015F4C03F0130F0BC0138704700BFB9
:100280007BB972B90029BEBF00204FF0004106E0E3
:1002900008BF00281CBF6FF000414FF0FF3001F095
:1002A0007DB9ADF1080C6DE904CE002909DB002B06
:1002B0001ADB00F04DF8DDF804E0DDE9022304B0BC
:1002C0007047404261EB4101002B1BDB00F040F81E
:1002D000DDF804E0DDE9022304B0404261EB4101B6
:1002E000524263EB43037047524263EB430300F017
:1002F0002FF8DDF804E0DDE9022304B0404261EBB1
:1003000041017047524263EB430300F021F8DDF8EE
:1003100004E0DDE9022304B0524263EB430370477B
:1003200053B94AB9002908BF00281CBF4FF0FF315C
:100330004FF0FF3001F032B9ADF1080C6DE904CE99
:1003400000F006F8DDF804E0DDE9022304B07047B0
:100350002DE9F047089D04468E46002B4DD18A4278
:10036000944669D9B2FA82F252B101FA02F3C2F1AB
:10037000200120FA01F10CFA02FC41EA030E94403C
:100380004FEA1C48210CBEFBF8F61FFA8CF708FB5D
:1003900016E341EA034306FB07F199420AD91CEB35
:1003A000030306F1FF3080F01F81994240F21C8167
:1003B000023E63445B1AA4B2B3FBF8F008FB1033AF
:1003C00044EA034400FB07F7A7420AD91CEB0404E4
:1003D00000F1FF3380F00A81A74240F207816444B4
:1003E000023840EA0640E41B00261DB1D440002339
:1003F000C5E900433146BDE8F0878B4209D9002D9D
:1004000000F0EF800026C5E9000130463146BDE826
:10041000F087B3FA83F6002E4AD18B4202D3824290
:1004200000F2F980841A61EB030301209E46002D3F
:10043000E0D0C5E9004EDDE702B9FFDEB2FA82F294
:10044000002A40F09280A1EB0C014FEA1C471FFAF2
:100450008CFE0126200CB1FBF7F307FB131140EAD9
:1004600001410EFB03F0884208D91CEB010103F1A6
:10047000FF3802D2884200F2CB804346091AA4B268
:10048000B1FBF7F007FB101144EA01440EFB00FE3C
:10049000A64508D91CEB040400F1FF3102D2A645A1
:1004A00000F2BB800846A4EB0E0440EA03409CE740
:1004B000C6F12007B34022FA07FC4CEA030C20FAED
:1004C00007F401FA06F31C43F9404FEA1C4900FA0D
:1004D00006F3B1FBF9F8200C1FFA8CFE09FB18118A
:1004E00040EA014108FB0EF0884202FA06F20BD9FD
:1004F0001CEB010108F1FF3A80F08880884240F24D
:100500008580A8F102086144091AA4B2B1FBF9F090
:1005100009FB101144EA014100FB0EFE8E4508D98B
:100520001CEB010100F1FF346CD28E456AD9023810
:10053000614440EA0840A0FB0294A1EB0E01A142F5
:10054000C846A64656D353D05DB1B3EB080261EB63
:100550000E0101FA07F722FA06F3F1401F43C5E93D
:10056000007100263146BDE8F087C2F12003D84073
:100570000CFA02FC21FA03F3914001434FEA1C47B5
:100580001FFA8CFEB3FBF7F007FB10360B0C43EAA7
:10059000064300FB0EF69E4204FA02F408D91CEB57
:1005A000030300F1FF382FD29E422DD90238634455
:1005B0009B1B89B2B3FBF7F607FB163341EA0341F5
:1005C00006FB0EF38B4208D91CEB010106F1FF3844
:1005D00016D28B4214D9023E6144C91A46EA00463B
:1005E00038E72E46284605E70646E3E61846F8E6CD
:1005F0004B45A9D2B9EB020864EB0C0E0138A3E716
:100600004646EAE7204694E74046D1E7D0467BE7F6
:10061000023B614432E7304609E76444023842E76E
:1006200003685A004CBF43F0004323F000431844D2
:10063000704700BF2DE9F84329B34F1E0446154605
:100640003E464FF0000808EB060101EBD17149105E
:1006500004EBC1094846FFF7E3FF0346C800083032
:100660008F42204409D0AB4209D8FFF7D9FF0138A7
:10067000A8420AD201F10108E5E7AB4205D9884555
:1006800001D04E1EDFE74FF000094846BDE8F88371
:10069000012807D0022807D0044B00280CBF1846B9
:1006A000002070470248704702487047690D0008F3
:1006B0006D0D0008710D000830B5234B83B0044662
:1006C0008D1E3BB301A92846AFF30080E8B1019924
:1006D0002A46FFF7AFFF0146B8B1FFF7A1FF4B680D
:1006E000A064012B2CD0002B01F1040024DBFFF7C8
:1006F00097FF0023C4E913030368002B11DBFFF706
:100700008FFF2061002003B030BD0023092023614A
:1007100003B030BD0D4B0E49C91AC91018460191DE
:10072000D6E7C3F30360FFF7B3FF0028206114BFCF
:100730000020092003B030BD0123C4E91303DBE727
:10074000002323610520DEE7000000001C420208B0
:10075000E44202080368DA0710B5044606D49B0792
:1007600000F1480009D500F05BFC2368590709D562
:100770001A070ED5DB0613D510BD00F049FC23681F
:100780005907F5D404F1D00000F052FC23681A0791
:10079000F0D404F5A87000F053FC2368DB06EBD41A
:1007A00004F5E870BDE8104000F08EBC09207047E9
:1007B0000346006800B11844704700BF704700BF8F
:1007C00070B504460E46316C2046FFF775FF0546AE
:1007D00088B9326C6261236932462146012098470C
:1007E0000828F0D0072806D12846316CFFF7E6FF2D
:1007F000301D00F001FC21F0E3FB00BF2DE9F047C4
:100800000D1DD0F80C80D0F81890074614460FCD77
:10081000ADF5727D0DF10C0CACE80F000FCDACE81E
:100820000F000FCDACE80F0095E80F0002AE4FF0BF
:10083000000E8CE80F00C6F800E020E0336C7B610E
:100840004FF4F07231467AA807F0B8FE3B697AAAF5
:10085000394650469847889B73642146CDE9006924
:1008600005463B463A460120C0470446E0B94FF4EE
:10087000F0727AA9304607F0A1FE082D1AD1316C2A
:100880003846FFF719FF09345FFA84FA0546002855
:10089000D4D0B36B73643A46CDE900693B464AF065
:1008A00010010120C04700B1092528460DF5727DD1
:1008B000BDE8F087072DF7D12046316CFFF77EFFAA
:1008C00003A800F099FB00BF406C7047F0B5CB6BFC
:1008D0000B6401F1040C0E460546BCE80F00F9B0AC
:1008E00001AC0FC4BCE80F000FC4BCE80F000FC47C
:1008F0009CE80F004FF0FF3784E80F00009706E0F8
:100900002B696A46294698470828044608D1109959
:100910002846FFF7D1FE0028F2D0092079B0F0BDBB
:100920006846FFF717FF062CF7D131462846FFF738
:1009300047FF00BFC160D96B82611964002219466C
:100940005CE700BF70B5C66843690B64AEB9036964
:100950000A4604460D46014602209847072805D05E
:1009600008280FD129462046FFF72AFF3046296C78
:10097000FFF724FF281D00F03FFB0122FFF73EFF99
:1009800021F01EFB21F01CFBC2681AB1CA6B0A647D
:10099000002233E79AE700BF704700BF8368014633
:1009A0000BB1012018477047012912D009D873B93B
:1009B0000F2A0CD800EB820218465368009A136085
:1009C00070470339012994BF01200220704702209B
:1009D00070470846704700BF00B585B00A4600233F
:1009E00003A900911946FFF7DFFF039805B05DF8F2
:1009F00004FB00BF012912D009D873B90F2A0CD803
:100A000000EB8200009A1268426018467047033972
:100A1000012994BF01200220704702207047084638
:100A2000704700BF10B584B0002303AC039200945C
:100A30000A461946FFF7DEFF04B010BD70B5D36B50
:100A4000136402F1040C05460C46BCE80F00ADF53A
:100A50000E7D0DF15C0EAEE80F00BCE80F00AEE8B5
:100A60000F00BCE80F00AEE80F009CE80F004FF04D
:100A7000FF368EE80F00169610E0FFF7D3FF2146F1
:100A800016A8A847034616AA6946082083B9049BFE
:100A90009847052806460CD0092809D026996846AB
:100AA000FFF70AFE03466A460C2116A8002BE4D085
:100AB000092616A8FFF74EFE30460DF50E7D70BDD7
:100AC0002DE9F04FCC6C89B01E4654F8043B0694D7
:100AD0000D46174600F00308002E79D01A0C1B04AF
:100AE00005938DF81D200223D2B204EB82048DF809
:100AF0001C302B6DB8F1020F08BFAC6B13F0010373
:100B00000CD005A9384600F079FB18B9082009B0C7
:100B1000BDE8F08F092009B0BDE8F08FD4F800A03F
:100B2000BAF1000FEDD0019300F008030293022EFA
:100B30004AD0B4F800A0B4F802900434AB6C29F0A9
:100B4000010B0F2138469B44FFF746FF834539D8F8
:100B50002AF001039B44834594BF002001204FEA03
:100B6000490303F002030AF0010A43EA0A03012BD6
:100B700049D0022B32D0002BCCD1B8F1000F02D0DB
:100B8000002840F0CD800434D4F800A0BAF1000F62
:100B9000CDD105A9384600F031FB0028BAD1019B20
:100BA000002BB3D00F213846FFF716FF0E21024667
:100BB0003846FFF737FF38466A4A0F21FFF732FF02
:100BC0000720A8E70020CAE7D4F804900834B5E766
:100BD0001B0205930323ADF81C308AE7236823F03A
:100BE000004BB8F1000F45D128B1029A002A5CD021
:100BF000BBF1000F74D0002B00DA04340BF1010BB1
:100C000004EB8B04C0E7B8F1000F19D1B0B16368F1
:100C10002268991C4FEAD2723FF47CAF05F158016B
:100C20000133049100F09080201DFFF7C1FD04AB5B
:100C300001462846AFF3008000285BD10834A3E7C3
:100C40000D213846D5F82090FFF7C6FE8145F5D135
:100C5000AB6A9C42F2D12046FFF7E2FC0F2102462C
:100C60003846FFF7DFFE38462A460021FFF7DAFE56
:100C7000072050E70D213846D5F82090FFF7ACFE4D
:100C8000814501D02368B6E7AB6A9C42FAD10423C0
:100C90000022C5E90B23E318C5F828B06B6323686D
:100CA000002B59DB01230193A8E705F15803CDF888
:100CB0000C8004F1040AB04691461E460EE05046F0
:100CC0000496FFF775FD0022014604AB284609F1A2
:100CD00001090AF1040AAFF30080E0B9D945EED169
:100CE0000D213846FFF778FE049BAC62C5E9080386
:100CF000062010E781460D213846FFF76DFEB9F159
:100D0000020F286225D12B46049A43F82C2F6B62E0
:100D1000AC620620FFE646462368DDF80C806AE7F1
:100D20002046FFF77DFC04340246AC632846144697
:100D3000AFF3008000283FF4EDAE384622460F2185
:100D4000FFF770FE0720E6E60D213846FFF744FE68
:100D50002862049B6B62DBE70BF1010004EB80006F
:100D60007AE700BF000000000023A9E60123A7E600
:100D70000223A5E62DE9F0430646C3B015461C46FE
:100D8000042900F2BF80DFE801F09E57BD2D03006B
:100D9000002C40F0B780102A00F2B4800368D80617
:100DA00000F1F98020AF384600F098F9B46B39466D
:100DB00000234FF0010C0CFA03F22A42204603F103
:100DC000010303D050F8042B0A600446042B01F100
:100DD0000401F0D13846B46300F076F9002043B046
:100DE000BDE8F083032C40F08D8094B204EB1243F5
:100DF000102B4FEA124500F2858003681F0700F1AF
:100E0000D28020AF384600F03DF9B26B07EBC50148
:100E100054B10B46D01A01EBC401E4001D5843F84D
:100E2000045B8B42FAD122443846B26300F008F9E1
:100E3000002043B0BDE8F083012C4FEA124895B280
:100E40005CD0052C5ED108EB0509B9F1200F59D80B
:100E5000B8F10F0F79D9A946002D40F08A80B36B05
:100E60006DB320AF4FF0000907EBC807043F03EB59
:100E7000C50553F8041B47F8041FAB42F9D1B9F17B
:100E8000000F0FD06F464146102938BF102107EBE5
:100E9000C101843903EBC90553F8040B41F8040F71
:100EA000AB42F9D1012C00F08680B8F10F0FB56389
:100EB00047D9B9F1000F02D0684600F0B9F8002018
:100EC00043B0BDE8F083ECB9806B23461FFA82FC87
:100ED0000124371D04FA03F212EA0C0F014604D074
:100EE00051F8042B47F8232008460133102BF1D189
:100EF00015F40055E3D1B063284604E008EB050380
:100F0000102B03D9022043B0BDE8F083B8F10F0FD6
:100F1000F8D83368DA0706D5304623F0030340F8E3
:100F2000483B00F079F820AF384600F075F8B36B15
:100F3000002D97D11D460435B563384600F068F89A
:100F4000BDE720A800F06CF8B3E7B9F1100F40D965
:100F5000A9F110093368D90708D523F001033046F9
:100F600043F0020340F8483B00F05EF8B9F1000F8F
:100F700032D033685A0720D4B8F10F0F25D96F4605
:100F80003846C8F1100500F057F8002DB36B7FF715
:100F90007AAF20AF68E723F01003336006F5E870FE
:100FA00000F09CF8FEE623F00803036000F5A8704B
:100FB00000F068F825E720AFBDE7304623F00403D2
:100FC00040F8D03B00F038F8D6E720A800F02CF825
:100FD000D5E74FF00009BDE7B8F10F0F3FF63FAF7F
:100FE00020AF384600F020F8B36B002D7FF43AAF05
:100FF000384600F015F862E700F1340191E8380056
:101000009C46A6464CF8045D90E8FF0FE54600BDFF
:1010100090EC210B704700BF80EC210B704700BFA4
:1010200090EC200B704700BF80EC200B704700BF96
:10103000D0EC200B704700BFC0EC200B704700BF06
:10104000F0EC0201F0EC0211F0EC0221F0EC0231C4
:10105000F0EC0241F0EC0251F0EC0261F0EC0271B4
:10106000F0EC0281F0EC0291F0EC02A1F0EC02B1A4
:10107000F0EC02C1F0EC02D1F0EC02E1F0EC02F194
:10108000704700BFE0EC0201E0EC0211E0EC02214D
:10109000E0EC0231E0EC0241E0EC0251E0EC0261F4
:1010A000E0EC0271E0EC0281E0EC0291E0EC02A1E4
:1010B000E0EC02B1E0EC02C1E0EC02D1E0EC02E1D4
:1010C000E0EC02F1704700BFB0FC0181B0FC01917F
:1010D000B0FC01A1B0FC01B1704700BFA0FC0181D0
:1010E000A0FC0191A0FC01A1A0FC01B1704700BFD0
:1010F000EC4600B52DE900502DE9FF1F4FF000032D
:101100002DE90C0001A9FFF7E1FBDDF840E012B08A
:10111000704700BFEC4600B52DE900502DE9FF1FD8
:101120004FF000032DE90C0001A9FFF70BFCDDF8DF
:1011300040E012B0704700BFEC4600B52DE900500A
:101140002DE9FF1F4FF000032DE90C0001A9FFF767
:101150001BFCDDF840E012B0704700BFEC4600B564
:101160002DE900502DE9FF1F4FF000032DE90C0081
:1011700001ABFFF7DFFBDDF840E012B0704700BFC6
:10118000EC4600B52DE900502DE9FF1F4FF000039C
:101190002DE90C0001AAFFF751FCDDF840E012B088
:1011A000704700BF027A03467AB9427AA2B1416819
:1011B000013A10B44272086803220C1D1A7202022E
:1011C0005C60000E10BC1A6070470068013A1A7229
:1011D00002021A60000E7047B020704700B585B05B
:1011E000002303AA009219460C22FFF7DDFB0398A7
:1011F00005B05DF804FB00BFF0E700BF2DE9F04348
:10120000054685B00E464FF000083046FFF7CAFF8E
:10121000B028044600F0BA80070620D500F0F0039D
:10122000802B4DD0902B36D0A02B60D0B02B74D01B
:10123000C02B00F08B8000F0F803D02B0BD100F016
:1012400007020132052342F4002201212846FFF75C
:1012500091FD0028D9D0092005B0BDE8F0838300B6
:10126000DBB21F1D0DF10C0900231946CDF80090CB
:101270000D222846FFF798FB039BCDF800906006EF
:101280004CBFDF1BFF1800230D2219462846039789
:10129000FFF7B0FBB9E700F00D030D2BDBD003AF78
:1012A000002300F00F02194600972846FFF77CFB49
:1012B000002300970D2219462846FFF79BFBA4E761
:1012C0003046FFF76FFF24022043B0F5004FC2D035
:1012D00004010023A2B219462846FFF74BFD00285F
:1012E000B9D114F4004F18BF4FF001088DE7C24385
:1012F00002F007034FF47F621A41010702F47F6294
:101300004FF0000348BF42F4804219462846FFF7D9
:1013100031FD00283FF479AF9DE7B1283BD0B228DA
:1013200000F09380B32841D000F0FC03B42B92D09E
:1013300000F007020132012342F400221946284638
:10134000FFF718FD00283FF460AF84E7C6284AD0B5
:10135000C72854D000F0F803C02B63D0C82868D049
:10136000C9287FF478AF3046FFF71CFF020300F076
:101370000F0002F4702201300243012105232846A8
:10138000FFF7F8FC00283FF440AF64E7B8F1000F26
:1013900018D0002060E73046FFF704FF024600281F
:1013A0003FF459AF10F0F003C8D054E73046FFF7D0
:1013B000F9FE020300F00F03013302F470221A4316
:1013C0000123BBE703AC43460E2241460094284666
:1013D000FFF7EAFA009443460F2241462846FFF7FA
:1013E00009FB404638E73046FFF7DCFE020300F019
:1013F0000F03013302F470221A4303239EE73046A1
:10140000FFF7D0FE024600283FF425AF10F0F003AE
:101410007FF421AF04212846FFF7ACFC00283FF4FD
:10142000F4AE18E700F00F020132032342F4202249
:1014300084E73046FFF7B6FE00F0F00200F00F033D
:101440001032013343EA023297E700230DF10C0911
:101450000D221946CDF800902846FFF7A5FA304630
:10146000FFF7A0FE02064FF002040CD5039B00F02C
:101470007F00A040184403903046FFF793FE030618
:1014800004F10704F2D4039BCDF8009000F07F0232
:10149000A24003F501731A440023039219460D225A
:1014A0002846FFF7A7FAB0E610B5C26C536884B0BF
:1014B0004FF0030C08321C0208461B0E01A90194D0
:1014C00002928DF80CC08DF80D30FFF797FE04B036
:1014D00010BD00BF08B5FFF78FFE806C08BD00BFD0
:1014E00008B5FFF789FEC06CC379023300EB8300B7
:1014F00008BD00BF0020704770B545680668042D20
:1015000004460FD8301D07F049F80346F8B1E168EA
:101510000060043332461846A1B107F04FF8034685
:10152000184670BDA819033007F038F878B1EB1CE5
:1015300003446D422B40324643F8040CE1681846E0
:101540000029EAD107F048F80346184670BD20F09C
:1015500037FD00BF10B50446FFF7CCFF38B9A068CF
:1015600000B110BD2046FFF7C7FFA06010BD20F0FE
:1015700027FD00BF10B404688C4202D20024016031
:10158000C4604468944238BF42601BB102688A421A
:1015900008BFC3605DF8044B704700BF704700BFD1
:1015A00010F8012B11F8013B012A28BF9A42F7D00D
:1015B000D01A70470000000080B50D4C0AA3D3E993
:1015C000002320460AF096FD0A4E002732463B468D
:1015D00004F180000AF08EFD32463B4604F580702F
:1015E0000AF088FDE9E700BF404B4C000000000016
:1015F000A80400208096980010B517E0042284F813
:101600004C2094F84E2042F0040284F84E20144CF2
:1016100004F114000AF0B9FF60650028EED1104A09
:1016200092F84E3043F0040382F84E300C4C022303
:1016300084F84C3023460022114604F114000AF0CD
:1016400003FF60650028E2D1054B032283F84C209C
:1016500093F84E2022F0040283F84E2010BD00BF04
:101660004404002070B58EB00146294C012084F856
:101670004C00284B0193284B0093284B284A0CF030
:1016800077FB206560B1042284F84C2094F84E204A
:1016900042F0010284F84E20002528460EB070BDAD
:1016A0001B4A92F84E3023F0010382F84E3009A80D
:1016B0000BF0BAF91B4B09931B4B0A931B4B0B9373
:1016C0001B4B0C9309A80BF0C3F9054650B9104BFE
:1016D000042283F84C2093F84E2042F0020283F853
:1016E0004E20DAE70A4E02A80BF0D8F9B44602AC55
:1016F0000FCCACE80F002368CCF8003096F84E30E1
:1017000023F0020386F84E30FFF776FFC5E700BFEF
:10171000440400207D8400083F84000831840008D0
:1017200019840008B1820008D5820008F5820008FB
:101730003583000808B5FFF795FF10B94FF0FF306B
:1017400008BD00F06DFCFFF737FF000008B50C4B3B
:10175000022283F84C2000F0E3FC02E0642006F053
:1017600015F9074C04F114000AF00FFF606500281A
:10177000F4D1FFF741FF00F053FCFFF71DFF00BF5E
:101780004404002008B50A460146024800F06EFEF7
:1017900008BD00BFE04A002010B50C46154B1B7871
:1017A0000BB9002221E001F0EDFBFAE702EB420069
:1017B00018444FF6FF7124F810100133022B13DC8C
:1017C0000C4909780029F1D00B49096851F8221019
:1017D0004FF0C40C0CFB031C02EB42001844BCF994
:1017E000481024F81010E8E70132032A01DC002336
:1017F000E4E710BDF80B0020F40B002010B50C46F8
:10180000154B1B780BB9002221E001F00DFCFAE723
:1018100002EB420018444FF6FF7124F81010013318
:10182000022B13DC0C4909780029F1D00B49096817
:1018300051F822104FF0C40C0CFB031C02EB4200C9
:101840001844BCF9481024F81010E8E70132032AC4
:1018500001DC0023E4E710BDF80B0020F40B0020AE
:10186000F8B50D460E4B1B781BB94FF6FF730B8076
:10187000F8BD044602780B4F3B6853F8223040789D
:10188000C42606FB003001F0E9FB22783B6853F8E0
:101890002230627806FB0233B3F948302B80E7E749
:1018A000F80B0020F40B002010B582B0254C264B1D
:1018B000C4F88C311EF048F90246D4F88C31214628
:1018C00004F5C4700AF07EFFC4F8900118B3042236
:1018D00084F8F426B4F8F62642F48062A4F8F626DA
:1018E000184C1A4B009304F5996304F5CC7204F577
:1018F000C47104F1080009F0E6FFC4F89001A8B132
:10190000042284F8F426B4F8F62642F48062A4F89F
:10191000F62602B010BD0B4B012283F8F426B3F873
:10192000F62622F48062A3F8F626D9E7054B0122B9
:1019300083F8F426B3F8F62622F48062A3F8F6269C
:10194000E7E700BFA00400208439020885170008DB
:1019500010B582B0254C264BC4F8F0341EF0EDF8DB
:101960000246D4F8F034214604F2EC400AF02AFF93
:10197000C4F8F40418B3042284F8F426B4F8F62664
:1019800042F40062A4F8F626184C1A4B009304F2B5
:10199000FE4304F2FC4204F2EC4104F1080009F0B9
:1019A00092FFC4F8F404A8B1042284F8F426B4F831
:1019B000F62642F40062A4F8F62602B010BD0B4BE6
:1019C000012283F8F426B3F8F62622F40062A3F885
:1019D000F626D9E7054B012283F8F426B3F8F6265C
:1019E00022F40062A3F8F626E7E700BFA004002077
:1019F000943902089917000810B582B0254C264B7F
:101A0000C4F81C351EF092F80246D4F81C35214665
:101A100004F5A3600AF0D6FEC4F8200518B304222A
:101A200084F8F426B4F8F62642F44062A4F8F626C8
:101A3000184C1A4B009304F22A5304F5A56204F5DE
:101A4000A36104F1080009F03EFFC4F82005A8B125
:101A5000042284F8F426B4F8F62642F44062A4F88E
:101A6000F62602B010BD0B4B012283F8F426B3F822
:101A7000F62622F44062A3F8F626D9E7054B0122A8
:101A800083F8F426B3F8F62622F44062A3F8F6268B
:101A9000E7E700BFA0040020A8390208FD170008EE
:101AA00010B582B0254C264BC4F848351EF053F8CB
:101AB0000246D4F84835214604F244500AF082FE2A
:101AC000C4F84C0518B3042284F8F426B4F8F626BA
:101AD00042F48052A4F8F626184C1A4B009304F2F4
:101AE000565304F2545204F2445104F1080009F030
:101AF000EAFEC4F84C05A8B1042284F8F426B4F830
:101B0000F62642F48052A4F8F62602B010BD0B4B24
:101B1000012283F8F426B3F8F62622F48052A3F8C3
:101B2000F626D9E7054B012283F8F426B3F8F6260A
:101B300022F48052A3F8F626E7E700BFA0040020B5
:101B4000BC3902086118000810B51DF0E8FF024614
:101B50000E4C0F4B214604F5AB600AF0D5FDC4F8DE
:101B6000B40638B9094AB2F8F63623F00203A2F8EF
:101B7000F63610BD042284F8F426B4F8F62642F0B6
:101B80000202A4F8F626FFF7E1FDF2E7A004002028
:101B9000D439020870B59C4B1B78002B00F03081C3
:101BA000002566E09949D16450F825601E44F06C28
:101BB000FEF70EFB30650134022C59DC944B18689B
:101BC00050F82520C42304FB03F31A4492F8BD10F7
:101BD0000629F0D801A656F821F000BFA51B000881
:101BE000F91B00080D1C0008211C0008351C00080A
:101BF000491C00085D1C00088649D16450F8256026
:101C00001E44F06CFEF7E4FA3065D4E78249D164F3
:101C100050F825601E44F06CFEF7DAFA3065CAE72A
:101C20007E49D16450F825601E44F06CFEF7D0FA6E
:101C30003065C0E77A49D16450F825601E44F06CE5
:101C4000FEF7C6FA3065B6E77649D16450F82560EC
:101C50001E44F06CFEF7BCFA3065ACE77249D16403
:101C600050F825601E44F06CFEF7B2FA3065A2E72A
:101C70000135032D01DC00249EE7654B1D682B68B0
:101C80006A4C04F25C5E03F1440CBCE80F00AEE861
:101C90000F009CE807008EE807002B6804F5AF6E84
:101CA00003F5847CBCE80F00AEE80F009CE8070059
:101CB0008EE807002B6804F2945E03F5E67CBCE82E
:101CC0000F00AEE80F009CE807008EE807006B6885
:101CD00004F5B66E03F1440CBCE80F00AEE80F004B
:101CE0009CE807008EE807006B6804F2CC5E03F501
:101CF000847CBCE80F00AEE80F009CE807008EE88B
:101D000007006B6804F5BD6E03F5E67CBCE80F00C8
:101D1000AEE80F009CE807008EE80700AB6804F20D
:101D2000046E03F1440CBCE80F00AEE80F009CE821
:101D300007008EE80700AB6804F5C46E03F5847CE9
:101D4000BCE80F00AEE80F009CE807008EE8070033
:101D5000AB6804F23C6E03F5E67CBCE80F00AEE82D
:101D60000F009CE807008EE80700EB6804F5CB6ED7
:101D700003F1440CBCE80F00AEE80F009CE807003C
:101D80008EE80700EB6804F2746E03F5847CBCE80F
:101D90000F00AEE80F009CE807008EE80700ED6832
:101DA00004F5D26C05F5E6750FCDACE80F0095E8AB
:101DB00007008CE8070003F0F7FA1D4D28600022A9
:101DC00004F25C5104F5AB6008F05AF9C4F8B406AB
:101DD00003F0EAFA2B68C01A164B1860D4F8B43630
:101DE00033B1B4F8F63643F00203A4F8F63670BD0A
:101DF0000E4AB2F8F63623F00203A2F8F636F6E7FA
:101E00000D4806F0D1FCF2E7F80B0020E439020897
:101E1000F40B0020E8390208F4390208003A0208FD
:101E2000083A0208143A0208103A0208A0040020F6
:101E3000A00B00209C0400201C3A020838B5044680
:101E400003F0B2FA1D4B186022781D4B1B6853F843
:101E500022306578C42202FB05351A4B1B781BB370
:101E6000E378F3B9A37803BB237913BB95F8BD30AE
:101E7000032B19D1A368EB67E368C5F880302369A9
:101E8000C5F884306369C5F88830A369C5F88C301B
:101E9000284600F0DDFE284600F0CCFFFFF77AFE72
:101EA00002E0284601F08EF838BD284601F03CF8E3
:101EB000FAE7284601F0D2F8F6E700BF9C040020BC
:101EC000F40B0020F80B002038B5164B1B7833BB01
:101ED00038BD184601F076F8FFF75CFE0134022C9D
:101EE00018DC03F061FA104B1B6853F82530C4224C
:101EF00002FB0433D3F8C020801A93F8BD20032AD4
:101F0000E7D1B0F5FA6FE9DD184600F093FFFFF76F
:101F100041FEE3E70135032DDADC0024DFE700258D
:101F2000F9E700BFF80B0020F40B002030B583B0B8
:101F30001DF0EEFD0246164C04F2BC65154B214621
:101F400028460AF09DFCC4F8DC0600230093124BDF
:101F500004F5D862294604F5847009F0CDFBD4F865
:101F6000DC361844C4F8DC0650B1042284F8F426A8
:101F7000B4F8F62642F01002A4F8F62603B030BDFD
:101F8000034AB2F8F63623F01003A2F8F636F5E766
:101F9000A00400202C3A02083D1E000800000000AA
:101FA00030B583B01A4C1B4BC4F8E8361A4AC4F853
:101FB000EC2604F2E465009313A3D3E90023174948
:101FC00028460AF0BEFCC4F8F006294604F1880051
:101FD00009F013FCD4F8F0361844C4F8F00650B1F8
:101FE000042284F8F426B4F8F62642F48072A4F8A9
:101FF000F62603B030BD064AB2F8F63623F48073F5
:10200000A2F8F636F5E700BF00CA9A3B00000000D0
:10201000A0040020C91E000800CA9A3B58040020F2
:102020002DE9F043A1B0394C012384F8F436384B44
:10203000384A394920460AF0E3FAC4F8F80670B184
:10204000324B042283F8F426B3F8F62642F001025C
:10205000A3F8F626FFF77AFB21B0BDE8F083B4F8C9
:10206000F63623F00103A4F8F636684609F01EFAA6
:1020700004F1080980252A466946484606F09EFA7A
:10208000684609F013FA04F188082A466946404672
:1020900006F094FA684609F009FA04F584772A46AE
:1020A0006946384606F08AFA1C4D05F118062B469B
:1020B00004223146484609F00BFAC4F8F8062B46CC
:1020C00001223146404609F003FAD4F8F8360344B9
:1020D000C4F8F8362B4601223146384609F0F8F9A3
:1020E000D4F8F8361844C4F8F8060028B2D1FFF73F
:1020F0002BFDFFF71BFFFFF7D7FBFFF729FCFFF7CF
:102100007BFCFFF7CDFCFFF74BFFA5E7A004002009
:1021100058040020FC390208383A02084404002020
:1021200010B52F4C04F1080009F0A2FAC4F8F80623
:1021300004F1880009F09CFAC4F8F80604F58470EC
:1021400009F096FAC4F8F80604F2AC6008F0BAFF99
:10215000D4F8F8360344C4F8F836214604F5AB60E9
:1021600007F016FFD4F8F8360344C4F8F8362146D1
:1021700004F2BC6008F032FCD4F8F8360344C4F82A
:10218000F836214604F5C47008F041F9D4F8F83661
:102190000344C4F8F836214604F2EC4008F037F95D
:1021A000D4F8F8360344C4F8F836214604F5A360A1
:1021B00008F02DF9D4F8F8360344C4F8F83621466F
:1021C00004F2445008F023F9D4F8F8360344C4F874
:1021D000F836204607F014FCC4F8F80610BD00BF1E
:1021E000A00400200346D0ED016AD0ED025AF1EEC2
:1021F000657AF4EE676AF1EE10FA73D1002093ED80
:10220000037A93ED046AF1EE467AB4EE677AF1EE62
:1022100010FA01D040F00400D3ED057AF5EE407AD3
:10222000F1EE10FA0AD093ED065ADFED2F7AB4EEF4
:10223000675AF1EE10FA01D040F00800D3ED077AAA
:10224000F5EE407AF1EE10FA0AD093ED085AF1EE6D
:10225000047AB4EE675AF1EE10FA01D040F01000A3
:1022600093ED095AD3ED0A7AF1EE677AB4EE675A24
:10227000F1EE10FA01D040F02000D3ED0B7AF4EE2D
:10228000E76AF1EE10FA06DCD3ED0C7AF4EEE75AC9
:10229000F1EE10FA01D540F04000D3ED0D7AB4EE26
:1022A000E77AF1EE10FA06DCD3ED0E7AB4EEE76AC7
:1022B000F1EE10FA01D540F0800093ED0F7AF9EEBF
:1022C0000C7AB4EEE77AF1EE10FA08D493ED107AB6
:1022D000F1EE0C7AB4EEE77AF1EE10FA01DD40F49B
:1022E0008070704702208AE70000FA4338B5044640
:1022F000C0F89010284BC0F89430284B1B7813B3CB
:102300002378C4F8A0300023C4F8A8300822C4F809
:10231000B020C4F8AC30D4F890305B6A012B28D0E0
:1023200094F8BC3043F0020384F8BC30B4F8483071
:1023300023F00203A4F84830002384F8463001203B
:1023400084F8BD0038BD08461349CB6301220A64F6
:102350004B628B6240F6FF75CD620B634B634A6440
:10236000243101F0C7FD0028CAD10C4B01221A709C
:10237000C6E794F8BC3023F0020384F8BC30B4F80C
:10238000483043F00203A4F84830012384F8463073
:1023900084F8BD300020D5E7A40B0020F00B00200E
:1023A00038B5102006F0FAF82C4B1860002408E02D
:1023B0002A4B1D684FF4137006F0F0F845F824001E
:1023C0000134032CF4DD4FF0000C3EE00133072B09
:1023D0000BDCDEF800200A441A44002082F8980042
:1023E000052BF3DC1E4AD054F0E70134022C2ADC22
:1023F0001A4B1A6802EB8C0E52F82C30C42104FBE5
:1024000001F158180023A0F8483052F82C00084475
:1024100080F8443052F82C00084480F8453052F8D7
:102420002C00084480F8463052F82C0008440D4D2A
:10243000C56452F82C0008441425456552F82C2038
:102440000A441365C3E70CF1010CBCF1030F01DC76
:102450000024CBE70120044B187038BDF40B00209A
:10246000A40B0020FC390208F80B00202DE9F041F4
:1024700006460D461446C34B1B78002B00F0CA815C
:102480002846FFF7AFFE00B22080002800F0C78189
:10249000BD4B1B681A68012182F846101968B1F813
:1024A000482042F00102A1F84820196891F8BC20A8
:1024B00022F0010281F8BC201B68002283F8BD20B5
:1024C000B14B1B681B6893F9BD30237605F14400BE
:1024D000FFF788FE00B26080002800F0C781AA4B99
:1024E0001B681A68012182F80A111968B1F80C21D9
:1024F00042F00102A1F80C21196891F8802122F024
:10250000010281F880211B68002283F881219E4B03
:102510001F683B6893F98131637605F18800FFF706
:1025200061FE00B2A080002800F0C9813B68012252
:1025300083F8CE213A68B2F8D03143F00103A2F813
:10254000D0313A6892F8443223F0010382F84432E1
:102550003B68002283F845228B4B1F683B6893F948
:102560004532A37605F1CC00FFF73CFE00B2E080D7
:10257000002800F0CE817B68012283F846207A682B
:10258000B2F8483043F00103A2F848307A6892F874
:10259000BC3023F0010382F8BC307B68002283F852
:1025A000BD20794B1F687B6893F9BD30E37605F554
:1025B0008870FFF717FE00B22081002800F0D1815B
:1025C0007B68012283F80A217A68B2F80C3143F063
:1025D0000103A2F80C317A6892F8803123F00103EC
:1025E00082F880317B68002283F88121664B1F6866
:1025F0007B6893F98131237705F5AA70FFF7F2FD27
:1026000000B26081002800F0D4817B68012283F849
:10261000CE217A68B2F8D03143F00103A2F8D0316C
:102620007A6892F8443223F0010382F844327B68DE
:10263000002283F84522544B1F687B6893F945328A
:10264000637705F5CC70FFF7CDFD00B2A0810028BF
:1026500000F0D981BB68012283F84620BA68B2F83D
:10266000483043F00103A2F84830BA6892F8BC3011
:1026700023F0010382F8BC30BB68002283F8BD2040
:10268000414B1F68BB6893F9BD30A37705F5EE7029
:10269000FFF7A8FD00B2E081002800F0DC81BB68F4
:1026A000012283F80A21BA68B2F80C3143F0010321
:1026B000A2F80C31BA6892F8803123F0010382F855
:1026C0008031BB68002283F881212F4B1F68BB68D3
:1026D00093F98131E37705F50870FFF783FD00B2C8
:1026E0002082002800F0E281BB68012283F8CE211D
:1026F000BA68B2F8D03143F00103A2F8D031BA6819
:1027000092F8443223F0010382F84432BB6800227D
:1027100083F845221C4B1F68BB6893F9453284F847
:10272000203005F519784046FFF75CFD00B2608265
:10273000002800F0E581FB68012283F84620FA6852
:10274000B2F8483043F00103A2F84830FA6892F832
:10275000BC3023F0010382F8BC30FB68002283F810
:10276000BD20094B1F68FB6893F9BD3084F8213008
:102770004046FFF737FD00B2A082002800F0E78155
:1027800004E000BFF80B0020F40B0020FB680122DE
:1027900083F80A21FA68B2F80C3143F00103A2F879
:1027A0000C31FA6892F8803123F0010382F880310D
:1027B000FB68002283F88121BB4B1F68FB6893F9FB
:1027C000813184F822304046FFF70CFD00B2E082F0
:1027D000002800F0E481FB68012283F8CE21FA682A
:1027E000B2F8D03143F00103A2F8D031FA6892F880
:1027F000443223F0010382F84432FB68002283F85C
:102800004522A94B1B68DB6893F9453284F82330D5
:10281000BDE8F081A44B1868FFF7C2FD30E6A24F77
:102820003B6844222946186805F0C8FE3B681A68D0
:10283000002182F84610196891F8BC2042F001028C
:1028400081F8BC2031461868FFF750FD00283FF49E
:1028500037AE3A681168B1F8483023F00103A1F8A7
:1028600048301368012283F8BD2029E68E4B1F688B
:1028700038684422A918C43005F0A0FE3B68002245
:1028800083F80A213A6892F8803143F0010382F814
:10289000803138683146C430FFF728FD00283FF406
:1028A00036AE814B1A681168B1F80C3123F0010380
:1028B000A1F80C311368012283F8812127E63868DA
:1028C000442205F1880100F5C47005F077FE3B68ED
:1028D000002283F8CE213A6892F8443243F0010393
:1028E00082F844323868314600F5C470FFF7FEFCC8
:1028F00000283FF431AE6C4B1A681168B1F8D03142
:1029000023F00103A1F8D0311368012283F8452296
:1029100022E6442205F1CC01786805F04FFE624BB7
:102920001B685A68002182F84610596891F8BC204B
:1029300042F0010281F8BC2031465868FFF7D6FC0E
:1029400000283FF42EAE584B1A685168B1F8483051
:1029500023F00103A1F848305368012283F8BD2019
:102960001FE67868442205F58871C43005F026FE1C
:102970007B68002283F80A217A6892F8803143F05C
:10298000010382F8803178683146C430FFF7AEFC2D
:1029900000283FF42BAE444B1A685168B1F80C3153
:1029A00023F00103A1F80C315368012283F881213F
:1029B0001CE67868442205F5AA7100F5C47005F09C
:1029C000FDFD7B68002283F8CE217A6892F84432BC
:1029D00043F0010382F844327868314600F5C47050
:1029E000FFF784FC00283FF426AE2F4B1A6851688D
:1029F000B1F8D03123F00103A1F8D031536801229E
:102A000083F8452217E6442205F5CC71B86805F035
:102A1000D5FD254B1B689A68002182F846109968FD
:102A200091F8BC2042F0010281F8BC203146986840
:102A3000FFF75CFC00283FF423AE1B4B1A6891683B
:102A4000B1F8483023F00103A1F84830936801221F
:102A500083F8BD2014E6B868442205F5EE71C43051
:102A600005F0ACFDBB68002283F80A21BA6892F831
:102A7000803143F0010382F88031B8683146C430B8
:102A8000FFF734FC00283FF420AE074B1A6891682A
:102A9000B1F80C3123F00103A1F80C319368012245
:102AA00083F8812111E600BFF40B0020B8684422AE
:102AB00005F5087100F5C47005F080FDBB680022C3
:102AC00083F8CE21BA6892F8443243F0010382F8C9
:102AD0004432B868314600F5C470FFF707FC00289F
:102AE0003FF418AE434B1A689168B1F8D03123F027
:102AF0000103A1F8D0319368012283F8452209E649
:102B000044224146F86805F059FD3A4B1B68DA68E3
:102B1000002182F84610D96891F8BC2042F00102E9
:102B200081F8BC203146D868FFF7E0FB00283FF46D
:102B300018AE304B1A68D168B1F8483023F0010361
:102B4000A1F84830D368012283F8BD2009E6F8686F
:102B5000442205F52A71C43005F030FDFB680022DF
:102B600083F80A21FA6892F8803143F0010382F871
:102B70008031F8683146C430FFF7B8FB00283FF4D5
:102B80001BAE1C4B1A68D168B1F80C3123F001035D
:102B9000A1F80C31D368012283F881210CE6F86892
:102BA000442205F53B7100F5C47005F007FDFB6894
:102BB000002283F8CE21FA6892F8443243F00103F0
:102BC00082F84432F868314600F5C470FFF78EFB96
:102BD00000283FF416AE074B1A68D168B1F8D0311F
:102BE00023F00103A1F8D031D368012283F84522F4
:102BF00007E600BFF40B0020F0EE407AB0EE600A6A
:102C0000F4EEE07AF1EE10FA01D5B0EE670A704703
:102C1000F0EE407AB0EE600AF4EEE07AF1EE10FAEF
:102C200001DDB0EE670A704731EE601A30EE600ADF
:102C300001238340013B07EE903AF8EEE77A60EE1D
:102C4000277A87EE817AFDEEC77A17EE900A7047F1
:102C50002DE9F0412DED108B044690ED01EAD0ED09
:102C60001F0AB0EE4E0AFFF7D3FFD4ED02EAF0EEF2
:102C70006E0AFFF7C1FFB0EE40AA94ED03DAD4ED7F
:102C8000200AB0EE4D0AFFF7C3FFD4ED04DAF0EEF0
:102C90006D0AFFF7B1FFF0EE409A94ED05CAD4ED4E
:102CA000210AB0EE4C0AFFF7B3FFD4ED06CAF0EEEE
:102CB0006C0AFFF7A1FFB0EE409A94ED07BAD4ED8D
:102CC000220AB0EE4B0AFFF7A3FFD4ED08BAF0EEEC
:102CD0006B0AFFF791FFF0EE408AD4ED09AAD4ED1C
:102CE000230AB0EE6A0AFFF793FF94ED0AFAF0EEBA
:102CF0004F0AFFF781FFB0EE408A1020B0EE6E1A47
:102D0000F0EE4E0AB0EE4A0AFFF78EFF80460C2026
:102D1000B0EE6D1AF0EE4D0AB0EE690AFFF784FFCF
:102D200007460C20B0EE6C1AF0EE4C0AB0EE490AE1
:102D3000FFF77AFF06460C20B0EE6B1AF0EE4B0A56
:102D4000B0EE680AFFF770FF05460C20B0EE4F1A90
:102D5000F0EE6A0AB0EE480AFFF766FF03464FEA54
:102D6000282284F8982084F899803A1184F89A20CF
:102D7000301240EA071784F89B7084F89C602A118F
:102D800084F89D20181240EA051584F89E5084F8B6
:102D90009F30BDEC108BBDE8F08107EE900A70EE1D
:102DA000C00AF8EEE77A67EEA00A01238B40013BE8
:102DB00007EE903AF8EEE77A80EEA77A37EE000A4F
:102DC0007047000070B50446D0F8942092F801C016
:102DD0009078D17813791E0946EA01161D0205F490
:102DE000706553791D43137884F860301021D4ED59
:102DF000020A94ED010A40EA0C20FFF7CEFF84EDB1
:102E0000190A0C21D4ED040A94ED030A3046FFF7A9
:102E1000C4FF84ED1A0A0C21DFED040A9FED040AB9
:102E20002846FFF7BAFF84ED1B0A70BD0000204260
:102E3000000020C210B582B004463FE0012384F8B0
:102E40004630B4F8483043F00203A4F84830062373
:102E500084F8BD30002027E0D4F894300098186042
:102E6000BDF804209A800098A065BDF80430A4F84D
:102E70005C302046FFF7A6FF02F096FAC4F8C000C7
:102E8000002384F8BE30012084F84400002384F835
:102E90004630B4F8483023F004031BB2A4F848309D
:102EA00023F00203A4F8483002B010BD94F8BE30FD
:102EB0000133DBB284F8BE30022B24D804F1B8030E
:102EC00004F1980204F1A001D4F8900001F0DCF8BC
:102ED0000028B3D1042004F059FDD4F894206B46A7
:102EE00008320021D4F8900001F04CF90028DDD11F
:102EF0009DF8002023789A42AED0D4F890305B6AD7
:102F0000012BD3D1BFE7002084F84400012384F8CB
:102F10004630B4F8483043F00403A4F848300423A2
:102F200084F8BD30C0E7000010B50446144B03CB55
:102F3000C4F89800C4F89C102046FFF77BFF60B1EE
:102F400094F844309BB9B4F8483023F04003A4F817
:102F50004830032384F8BD3010BD94F8443053B991
:102F6000B4F8483043F04003A4F84830F4E70123B4
:102F700084F84530E7E7002384F84530F0E700BFE8
:102F80000800002070B50D4B1E78AEB9304670BDFC
:102F90000B4B1B6853F82530C42000FB0430FFF7AF
:102FA000C3FF012004F0F2FC0134022CF0DD0135F6
:102FB000032DEBDC0024F8E70025F9E7F80B0020EF
:102FC000F40B002038B50446164B03CBC4F8980028
:102FD000C4F89C102046FFF72DFF054650B994F821
:102FE0004430DBB9B4F8483043F08003A4F84830EB
:102FF000284638BD022004F0C9FC94F844304BB98F
:10300000B4F8483023F08003A4F84830022384F851
:10301000BD30EDE7002384F84530F1E7012384F863
:103020004530DFE70000002038B500250FE00A4BEF
:103030001B6853F82530C42000FB0430FFF7C2FFA3
:10304000012004F0A3FC0134022CF0DD0135032D36
:1030500001DC0024F8E738BDF40B002010B504466D
:103060000B4B03CBC4F89800C4F89C102046FFF724
:10307000E1FE30B1B4F8483023F48073A4F848304E
:1030800010BDB4F8483043F48073A4F84830F7E733
:10309000100000202DE9F04107460C4615461E465B
:1030A000DFF8608100224FF40051404601F092FEAB
:1030B00000224FF48051404601F08CFE00224FF474
:1030C0008041404601F086FE00224FF40041404618
:1030D00001F080FEF81E032826D8DFE800F0022762
:1030E0004B6F00224FF40051464801F073FE002759
:1030F00014E0DFF8108101224FF40051404601F046
:1031000069FE284604F042FC00224FF4005140467C
:1031100001F060FE304604F039FC0137A742E8DBDD
:103120004FF47A7004F032FCBDE8F08100224FF4D5
:103130008051344801F04EFE002714E0DFF8C480CF
:1031400001224FF48051404601F044FE284604F02D
:103150001DFC00224FF48051404601F03BFE3046FA
:1031600004F014FC0137A742E8DB4FF47A7004F056
:103170000DFCD9E700224FF48041224801F02AFEDD
:10318000002714E0DFF87C8001224FF480414046A4
:1031900001F020FE284604F0F9FB00224FF48041A4
:1031A000404601F017FE304604F0F0FB0137A7421D
:1031B000E8DB4FF47A7004F0E9FBB5E700224FF446
:1031C0000041104801F006FE002714E0DFF83480CB
:1031D00001224FF40041404601F0FCFD284604F076
:1031E000D5FB00224FF40041404601F0F3FD30468C
:1031F00004F0CCFB0137A742E8DB4FF47A7004F00F
:10320000C5FB91E7000C024008B57EE1C8231A46D1
:1032100001210320FFF73EFF20E0C8231A460221C8
:103220000320FFF737FF19E0C8231A460321084699
:10323000FFF730FF12E0A94C00224FF40051204666
:1032400001F0C8FD642004F0A1FB01224FF40051FD
:10325000204601F0BFFD642004F098FBA04B93F8DA
:103260002030DBB2052B40F03D819C4C00224FF416
:103270000051204601F0AEFD00224FF4805120465F
:1032800001F0A8FD00224FF48041204601F0A2FD8C
:1032900000224FF40041204601F09CFD4FF4FA70EB
:1032A00004F074FB8E4B5B6A13F0010F06D0C82349
:1032B0001A4601210520FFF7EDFE26E1884B5B6AE7
:1032C00013F0020F7DD1864B5B6A13F4001F7FD190
:1032D000834B5B6A13F0040F40F08180804B5B6A84
:1032E00013F0080F40F082807D4B5B6A13F0100FE3
:1032F00040F083807A4B5B6A13F0200F40F08480AB
:10330000774B5B6A13F0400F40F08580744B5B6A2B
:1033100013F0800F40F08680714B5B6A13F4807F5E
:1033200040F087806E4B5B6A13F4007F40F088802A
:103330006B4B5B6A13F4806F40F08980684B5B6A6B
:1033400013F4006F40F08A80654B5B6A13F4805F72
:1033500040F08B80624B5B6A13F4005F40F08C801E
:103360005F4B5B6A13F4804F40F08D805C4B5B6A6F
:1033700013F4004F40F08E80594B5B6A13F4803F8A
:1033800040F08F80564B5B6A13F4003F40F0908012
:10339000534B5B6A13F4802F40F09180504B5B6A73
:1033A00013F4002F40F092804D4B5B6A13F4801FA2
:1033B00000F0AB80C8231A4616210520FFF76AFEED
:1033C000A3E0C8231A4602210520FFF763FE9CE014
:1033D000C8231A4603210520FFF75CFE95E0C823A9
:1033E0001A4604210520FFF755FE8EE0C8231A4631
:1033F00005210846FFF74EFE87E0C8231A4606213E
:103400000520FFF747FE80E0C8231A460721052064
:10341000FFF740FE79E0C8231A4608210520FFF790
:1034200039FE72E0C8231A4609210520FFF732FE53
:103430006BE0C8231A460A210520FFF72BFE64E043
:10344000C8231A460B210520FFF724FE5DE0C823A0
:103450001A460C210520FFF71DFE56E0C8231A4628
:103460000D210520FFF716FE4FE0C8231A460E2156
:103470000520FFF70FFE48E0C8231A460F2105205C
:10348000FFF708FE41E0C8231A4610210520FFF788
:1034900001FE3AE0C8231A4611210520FFF7FAFD84
:1034A00033E0C8231A4612210520FFF7F3FD2CE074
:1034B000C8231A4613210520FFF7ECFD25E0C82399
:1034C0001A4614210520FFF7E5FD1EE0C8231A4621
:1034D00015210520FFF7DEFD17E000BF000C0240BC
:1034E000E04A0020274C00224FF48041204601F0A2
:1034F00071FC642004F04AFA01224FF48041204616
:1035000001F068FC642004F041FA1F4B93F84C3042
:10351000032B3FF490AE1B4C00224FF40051204689
:1035200001F058FC00224FF48051204601F052FC7B
:1035300000224FF48041204601F04CFC00224FF461
:103540000041204601F046FC4FF4FA7004F01EFAE8
:103550000D4B93F84E3013F0010F7FF457AE13F07C
:10356000020F7FF45AAE13F0040F7FF45DAE13F038
:10357000080F3FF473AEC8231A4604210320FFF757
:1035800089FD6BE6000C02404404002008B5026887
:10359000034B9A4200D008BD01F0FAFEFBE700BFE2
:1035A0000000014072B6FEE700B595B03022002160
:1035B00008A805F011F800230393049305930693DC
:1035C00007930193214A116C41F080511164126CF0
:1035D00002F080520192019A02931D4B1A6842F444
:1035E00080421A601B6803F480430293029B01230C
:1035F00008934FF48033099302230E934FF4800213
:103600000F92082210924FF4A8721192129307237E
:10361000139308A800F092FF98B90F230393022395
:103620000493002305934FF4A05306934FF4805363
:103630000793052103A801F0E7F920B915B05DF85B
:1036400004FBFFF7AFFFFFF7ADFF00BF00380240FC
:103650000070004008B501F081FEFFF7A5FF00F003
:1036600019F800F085F900F0A5F900F0F9F900F07B
:103670004DFA00F0E7FA00F025F9054800F0D6FC15
:1036800004F0F8F800F002F904F006F9FEE700BFD4
:10369000E04A00202DE9F04F8DB0002407940894F3
:1036A00009940A940B9401946C4B1A6B42F010022B
:1036B0001A631A6B02F010020192019A02941A6BBB
:1036C00042F004021A631A6B02F004020292029A98
:1036D00003941A6B42F080021A631A6B02F08002A4
:1036E0000392039A04941A6B42F001021A631A6B54
:1036F00002F001020492049A05941A6B42F002024D
:103700001A631A6B02F002020592059A06941A6B6C
:1037100042F008021A631B6B03F008030693069B32
:10372000DFF8449122460821484601F053FBDFF8B8
:103730003C8101221146404601F04CFBDFF830A1EC
:1037400022464FF21001504601F044FB0825079530
:103750000126089609940A9407A9484601F048FAF8
:103760000796089609940A9407A9404601F040FA82
:1037700007950225089509940A944FF0050BCDF89A
:103780002CB007A9404601F033FA07964FF4901386
:1037900008930994324F07A9384601F029FA1023FB
:1037A0000793089509940A9406230B9307A93846B2
:1037B00001F01EFA042307930894099407A92948E5
:1037C00001F016FA4FF480630793089509940A9460
:1037D000CDF82CB007A9234801F00AFA4FF21003E4
:1037E0000793089609940A9407A9504601F000FA35
:1037F0004FF4A4530793089509940A9406230B9356
:1038000007A9404601F0F4F94FF4007307930894B8
:10381000099407A9384601F0EBF94FF4E0530793F8
:10382000089509940A940A230B9307A9384601F0D6
:10383000DFF9202307930894099407A9504601F063
:10384000D7F907954FF490130893099407A94846B0
:1038500001F0CEF90DB0BDE8F08F00BF0038024096
:103860000000024000040240001002400008024034
:10387000000C024008B50248FDF75CFF08BD00BF20
:10388000744C002008B5FFF7BFFC08BD08B5074A17
:103890000021074804F01CF8064B1860064A002176
:1038A000064804F015F8064B186008BD6C3A02088B
:1038B00075380008D84A0020903A02088538000878
:1038C000DC4A002008B50D480D4B0360032343601C
:1038D00000238360C3604FF4A02202614FF4C00252
:1038E0004261037643768376C3760377437700F0AD
:1038F0005BFA00B908BDFFF755FEFBE7E04A002080
:103900000064004000B589B000230393049305933D
:10391000069307930268144B9A4202D009B05DF8EF
:1039200004FB0021019103F5EA331A6C42F00072A6
:103930001A641A6C02F000720192019A02911A6BD9
:1039400042F008021A631B6B03F008030293029B08
:10395000032303930222049206930923079303A9E6
:10396000024801F045F9D9E700640040000C02402C
:1039700010B582B0002401940D4B1A6B42F4001272
:103980001A631B6B03F400130193019B224605216C
:10399000102001F09DFC102001F0D2FC22460521F0
:1039A000112001F095FC112001F0CAFC02B010BDFD
:1039B0000038024008B50B480B4B03600B4B4360CB
:1039C00000238360C3604FF48042026143618361DE
:1039D000C361036201F0EEFC00B908BDFFF7E2FD30
:1039E000FBE700BF084B002000540040A086010008
:1039F00030B589B00023039304930593069307938E
:103A00000268144B9A4201D009B030BD00250195DF
:103A1000114C236B43F002032363236B03F0020377
:103A20000193019B4FF4107303931223049301231A
:103A300005930423079303A9084801F0D9F80295D8
:103A4000236C43F400132364236C03F400130293E8
:103A5000029BD9E7005400400038024000040240B5
:103A600008B50D480D4B03604FF48273436000238B
:103A70008360C360036143614FF400728261C3617C
:103A80000362436283620A23C36201F071FD00B9DD
:103A900008BDFFF787FDFBE75C4B002000300140CD
:103AA00000B589B00023039304930593069307930D
:103AB0000268144B9A4202D009B05DF804FB002161
:103AC000019103F584335A6C42F480525A645A6C63
:103AD00002F480520192019A02911A6B42F00102A3
:103AE0001A631B6B03F001030293029BE023039311
:103AF000022304930523079303A9034801F078F8F0
:103B0000DAE700BF003001400000024008B50A4873
:103B10000A4B03604FF46123436000238360C3605A
:103B200003610C2242618361C36102F00FF800B9A6
:103B300008BDFFF737FDFBE7744C00200044004050
:103B400030B589B00023039304930593069307933C
:103B50000268364B9A4201D009B030BD04460025B8
:103B6000019503F5FA331A6C42F400321A641A6CA8
:103B700002F400320192019A02951A6B42F001029E
:103B80001A631B6B03F001030293029B0C23039344
:103B900002230493032306930723079303A92448CE
:103BA00001F026F82348244B03604FF00063436084
:103BB0008560C5604FF480630361456185614FF4A2
:103BC0008073C3614FF440330362456201F088F9AA
:103BD00028BB184BA3639C631848194B03604FF034
:103BE00000634360402383600023C3604FF480621E
:103BF000026143618361C3614FF4403202624362F8
:103C000001F06EF970B90D4B63639C6300220521CE
:103C1000262001F05DFB262001F092FB9CE7FFF7D8
:103C2000C1FCD6E7FFF7BEFCEDE700BF0044004053
:103C300000000240B44B002088600240144C002079
:103C4000A06002407047FEE7FEE7FEE7FEE7FEE702
:103C50007047000008B5024801F03AFA08BD00BFFD
:103C6000B44B002008B5024801F032FA08BD00BF8D
:103C7000144C002008B5024800F03AFB08BD00BF14
:103C8000E04A002008B5024801F01AFD08BD00BF57
:103C90001496002008B5024802F0FCF808BD00BFE9
:103CA000744C002000B583B0002200920D4B596C7B
:103CB00041F480415964596C01F4804100910099AC
:103CC0000192196C41F0805119641B6C03F0805310
:103CD0000193019B0F216FF0010001F0F9FA03B08D
:103CE0005DF804FB003802400120704708B504F07D
:103CF0002BFC162303604FF0FF3008BD08B54FF0D2
:103D0000FF31FFF7F3FFFEE770B50C4616460025BE
:103D100006E0AFF30080214601F8010B01350C46A7
:103D2000B542F6DB304670BD70B50C461646002530
:103D300004E014F8010BAFF300800135B542F8DB65
:103D4000304670BD08B503460D4A12685AB10C4A98
:103D5000106803440B4A11780B4A521A934206D852
:103D6000074A136008BD064A08491160EFE700BE24
:103D700004F0EAFB0C2303604FF0FF30F2E700BFD2
:103D8000BC4C00200004000000000220786A0120E2
:103D90004FF0FF3070474FF400534B6000207047E6
:103DA0000120704700207047002800F0A18038B53E
:103DB000044690F82030D3B12268136843F0010321
:103DC000136001F0F1FA054623685A6812F0010FFA
:103DD00010D101F0E9FA401B0A28F5D9636A43F4CF
:103DE00000336362052384F82030012038BDFFF7DB
:103DF00089FDE1E71A6822F002021A6001F0D4FAA4
:103E0000054623685A6812F0020F0DD001F0CCFA73
:103E1000401B0A28F5D9636A43F400336362052323
:103E200084F820300120E1E7227E012A3DD01A6883
:103E300022F080021A60637E012B3BD02268136857
:103E400023F040031360A37E012B39D0226813684E
:103E500023F020031360E37E012B37D02268136820
:103E600043F010031360237F012B35D022681368C1
:103E700023F008031360637F012B33D0226813689B
:103E800023F004031360A368E26813432269134319
:103E9000626913436268013A21681343CB610020D1
:103EA0006062012384F82030A0E71A6842F08002A3
:103EB0001A60C0E72268136843F040031360C2E74A
:103EC0002268136843F020031360C4E72268136874
:103ED00023F010031360C6E72268136843F0080359
:103EE0001360C8E72268136843F004031360CAE74D
:103EF0000120704790F82030013BDBB2012B05D93F
:103F0000436A43F4802343620120704730B5464B37
:103F1000D3F8002242F00102C3F80022D3F80022B5
:103F200022F47C52C3F80022D3F80022486A42EA05
:103F30000022C3F800224A6902F01F02012000FAA1
:103F400002F2D3F81C026FEA020C20EA0200C3F866
:103F50001C02CB69C3B9344BD3F80C020CEA000045
:103F6000C3F80C028C884869CD6844EA054448309F
:103F700043F830408C68088840EA04404C6904F1FA
:103F8000480E03EBCE035860CB69012B1ED08B6922
:103F9000002B33D12448D0F804320CEA0303C0F8D4
:103FA00004320B698BBB2048D0F814320CEA0303AF
:103FB000C0F814320B6A012B2ED01B4AD2F8003203
:103FC00023F00103C2F80032002030BD164BD3F8B5
:103FD0000C021043C3F80C028C8848690D6844EA4F
:103FE0000544483043F8304088894C698D6840EA80
:103FF0000540483403EBC4035860C8E70A48D0F8CA
:1040000004321343C0F80432CBE70748D0F8143227
:104010001343C0F81432CDE70349D1F81C321A43D8
:10402000C1F81C22C9E700BF0064004070B5044617
:1040300090F82050EDB2012D06D0436A43F40023DE
:1040400043620125284670BD022380F820300268B3
:10405000136823F00103136001F0A6F906462368F4
:104060005B6813F0010F0CD001F09EF9831B0A2B43
:10407000F5D9636A43F400336362052384F8203082
:10408000E0E700256562DDE730B590F820C0046800
:10409000A4680CF1FF3C5FFA8CFCBCF1010F6BD8FB
:1040A00014F0E05F62D0C4F3016CBCF1020F05D9DB
:1040B000436A43F400034362012062E0012404FAEE
:1040C0000CF41C608B68002B3DD10D68CB68046834
:1040D00043EA45550CF118031B01E55003680C69D0
:1040E0000CF1180E03EB0E135C600B7D012B35D029
:1040F000D17993791B0443EA0163517943EA01239F
:1041000014790168234301EB0C11C1F88C31D1788B
:1041100093781B0443EA0163517843EA0123117841
:1041200002680B4302EB0C12C2F8883102680CF1F2
:10413000180C4FEA0C1C52F80C3043F0010342F803
:104140000C3000201DE04C6843EAC403CC682343D4
:104150000CF11804240105682B51BFE7036803EB39
:104160000E13596841F480715960C1E7436A43F402
:1041700000134362012004E0436A43F48023436256
:10418000012030BD90F820C00CF1FF3C5FFA8CFCA0
:10419000BCF1010F00F2998030B451B90468E468B1
:1041A00014F0030F10D1436A43F40013436201205B
:1041B0007BE00468246914F0030F05D1436A43F4DB
:1041C00000134362012070E001F11B042401056823
:1041D0002C5904F004049460002C68D101F11B04F4
:1041E000240105682C59640D1460046801F11B0C4E
:1041F0004FEA0C1C54F80C4004F00204D46004682C
:104200006444646804F00F041461046864446468DE
:10421000C4F307249461046864446468240C546102
:10422000026802EB0112D2F8B8211A70026802EBA0
:104230000112D2F8B821C2F307225A70026802EBC9
:104240000112D2F8B821C2F307429A70026802EB59
:104250000112D2F8B821120EDA70026802EB0112D4
:10426000D2F8BC211A71026802EB0112D2F8BC210B
:10427000C2F307225A71026802EB0112D2F8BC2184
:10428000C2F307429A71026802EB0112D2F8BC2114
:10429000120EDA7199B90268D36843F02003D36033
:1042A000436A23F400134362002030BC704701F1DD
:1042B0001B04240105682C59E408546095E7026842
:1042C000136943F020031361EAE7436A43F4802350
:1042D00043620120704770477047704770477047CE
:1042E0007047704770477047704770477047704716
:1042F0002DE9F84F054603685C69D3F804809F6890
:10430000D3F80CB0D3F810A0D3F8189014F001062D
:104310003BD017F0010616D001229A6017F0020F69
:1043200008D117F0040F0CD117F0080606D04FF48F
:10433000805608E0FFF7CFFF002604E0FFF7CEFF2E
:1043400001E04FF4006617F4807F0DD02B684FF426
:1043500080729A6017F4007F40F0868017F4806FB7
:1043600000F0868046F4005617F4803F0DD02B688D
:104370004FF480329A6017F4003F40F0838017F4C6
:10438000802F00F0838046F4004614F0080F07D019
:104390001BF0100F04D046F400762B681022DA6070
:1043A00014F0040F02D01BF0080F79D114F0020FA3
:1043B00004D02B68DB6813F0030F78D114F0400FA2
:1043C00007D01AF0100F04D046F480662B68102234
:1043D0001A6114F0200F02D01AF0080F6BD114F0FC
:1043E000100F04D02B681B6913F0030F6AD114F46B
:1043F000003F02D018F0100F68D114F4803F02D0B3
:1044000018F0080F69D114F4004F7AD018F0040F97
:1044100074D014F4807F04D019F0010F01D046F05D
:10442000010614F4007F04D019F0020F01D046F009
:10443000020614F4806F04D019F0040F01D046F086
:10444000040614F4006F59D019F0700956D0B9F170
:10445000400F65D058D8B9F1200F5ED0B9F1300FB8
:1044600042D146F0200644E02846FFF735FF7BE7BF
:1044700017F4006F02D046F4804675E72846FFF730
:104480002EFF71E72846FFF728FF7EE717F4002F7D
:1044900002D046F4803678E72846FFF721FF74E71C
:1044A0002B680822DA602846FFF71CFF7EE72846C3
:1044B000FFF717FF82E72B6808221A612846FFF7EB
:1044C00013FF8CE72846FFF70EFF90E72B681022BA
:1044D0005A602846FFF709FF8FE72B6808225A60C9
:1044E0002846FFF703FF8EE7B9F1100F01D146F020
:1044F00008062A68936923F0700393612B680422ED
:104500005A609EB9BDE8F88FB9F1500F0BD0B9F1E0
:10451000600FEED146F48076EBE746F01006E8E750
:1045200046F04006E5E746F08006E2E76B6A1E4388
:104530006E622846FFF7DBFEE4E70000002800F08B
:10454000E08170B582B00446036813F0010F3BD0E0
:104550009F4B9B6803F00C03042B2CD09C4B9B6857
:1045600003F00C03082B21D06368B3F5803F4FD0D4
:10457000B3F5A02F52D0964B1A6822F480321A60FD
:104580001A6822F480221A606368002B50D000F071
:104590000BFF05468E4B1B6813F4003F14D100F04F
:1045A00003FF401B6428F5D90320B1E1884B5B6809
:1045B00013F4800FD8D0864B1B6813F4003F03D050
:1045C0006368002B00F09F81236813F0020F54D022
:1045D0007F4B9B6813F00C0F3ED07D4B9B6803F024
:1045E0000C03082B33D0E368002B68D0794B0122F1
:1045F0001A6000F0D9FE0546754B1B6813F0020FD8
:1046000054D100F0D1FE401B0228F5D903207FE1F0
:104610006F4A136843F480331360B5E76C4B1A6834
:1046200042F480221A601A6842F480321A60ABE7C2
:1046300000F0BAFE0546664B1B6813F4003FC3D07A
:1046400000F0B2FE401B6428F5D9032060E1604B06
:104650005B6813F4800FC6D15D4B1B6813F0020F2B
:1046600003D0E368012B40F05081594A136823F0CE
:10467000F803216943EAC1031360236813F0080FAC
:1046800042D063696BB3534B0122C3F8802E00F014
:104690008BFE05464E4B5B6F13F0020F34D100F0DA
:1046A00083FE401B0228F5D9032031E1484A1368F4
:1046B00023F0F803216943EAC1031360DDE7454BAA
:1046C00000221A6000F070FE0546414B1B6813F093
:1046D000020FD2D000F068FE401B0228F5D903205B
:1046E00016E13C4B0022C3F8802E00F05DFE05462B
:1046F000374B5B6F13F0020F06D000F055FE401BE6
:104700000228F5D9032003E1236813F0040F77D0C2
:104710002F4B1B6C13F0805F33D1002301932C4B84
:104720001A6C42F080521A641B6C03F080530193A0
:10473000019B0125284B1B6813F4807F23D0A368BD
:10474000012B34D0052B38D0214B1A6F22F00102F7
:104750001A671A6F22F004021A67A368002B3DD073
:1047600000F022FE06461A4B1B6F13F0020F46D1D3
:1047700000F01AFE801B41F288339842F3D90320DF
:10478000C6E00025D6E7144A136843F4807313602B
:1047900000F00AFE0646104B1B6813F4807FCED152
:1047A00000F002FE801B0228F5D90320B0E0084A81
:1047B000136F43F001031367CFE7054B1A6F42F005
:1047C00004021A671A6F42F001021A67C5E700BFB8
:1047D00000380240000047420070004000F0E4FD55
:1047E0000646524B1B6F13F0020F08D000F0DCFDA1
:1047F000801B41F288339842F3D9032088E0EDB959
:10480000A369002B00F08380484A926802F00C02F2
:10481000082A51D0022B17D0454B00221A6600F00F
:10482000C3FD0446414B1B6813F0007F42D000F0EB
:10483000BBFD001B0228F5D9032069E03B4A136C3D
:1048400023F080531364DBE7394B00221A6600F033
:10485000ABFD0546354B1B6813F0007F06D000F01A
:10486000A3FD401B0228F5D9032051E0E369226A29
:104870001343626A43EA8213A26A5208013A43EA86
:104880000243E26A43EA0263284A5360284B01224A
:104890001A6600F089FD0446244B1B6813F0007F64
:1048A00006D100F081FD001B0228F5D903202FE07E
:1048B00000202DE000202BE0012B2BD01B4B5B6850
:1048C00003F48001E269914226D103F03F02216A9C
:1048D0008A4223D1616A47F6C0721A40B2EB811F47
:1048E0001ED103F44031A26A5208013AB1EB024FE3
:1048F00018D103F07063E26AB3EB026F14D10020A9
:1049000006E001207047012002E0012000E00020C5
:1049100002B070BD0120FBE70120F9E70120F7E7B5
:104920000120F5E70120F3E70120F1E7003802401C
:104930000000474208B5314B9B6803F00C03042B81
:1049400057D0082B57D12D4B5A6802F03F025B68B5
:1049500013F4800F2AD0294B5968C1F3881C4FEA01
:104960004C11B1EB0C006EEB0E0E4FEA8E1343EAC6
:1049700090638101091A63EB0E03DB0043EA517374
:10498000C90011EB0C0C43F10003590200234FEA5C
:104990004C2041EADC51FBF7C3FC184B5B68C3F3C6
:1049A000014301335B00B0FBF3F025E0134B596882
:1049B000C1F3881C4FEA4C11B1EB0C006EEB0E0EEC
:1049C0004FEA8E1343EA90638101091A63EB0E03E9
:1049D000DB0043EA5173C90011EB0C0C43F10003F7
:1049E000990200234FEA8C2041EA9C51FBF798FC86
:1049F000D3E7034800E0034808BD00BF0038024089
:104A000000127A000024F400002800F09B8070B5AA
:104A10000D4604464F4B1B6803F007038B4208D238
:104A2000CBB24C4A1370136803F007038B4240F07B
:104A30008B80236813F0020F17D013F0040F04D0FB
:104A4000454A936843F4E0539360236813F0080FDA
:104A500004D0414A936843F4604393603E4A9368AC
:104A600023F0F003A1680B439360236813F0010F58
:104A700032D06368012B21D09A1E012A25D9364AEB
:104A8000126812F0020F61D033498A6822F00302E3
:104A900013438B6000F088FC06462F4B9B6803F0A5
:104AA0000C036268B3EB820F16D000F07DFC801B14
:104AB00041F288339842F0D9032042E0264A126836
:104AC00012F4003FE0D101203BE0234A126812F0CB
:104AD000007FD9D1012034E01E4B1B6803F007038F
:104AE000AB4207D9EAB21B4B1A701B6803F00703ED
:104AF000AB422DD1236813F0040F06D0164A9368F9
:104B000023F4E053E1680B439360236813F0080F2C
:104B100007D0114A936823F46043216943EAC10333
:104B20009360FFF707FF0C4B9B68C3F303130B4A1B
:104B3000D35CD8400A4B18600A4B186803F026FA79
:104B4000002070BD012070470120FAE70120F8E73E
:104B50000120F6E7003C024000380240BC3A02085F
:104B60002400002020000020014B1868704700BF7F
:104B70002400002008B5FFF7F7FF044B9B68C3F340
:104B80008223034AD35CD84008BD00BF00380240EE
:104B9000CC3A020808B5FFF7E7FF044B9B68C3F364
:104BA0004233034AD35CD84008BD00BF00380240FE
:104BB000CC3A02080F2303600B4B9A6802F0030201
:104BC00042609A6802F0F00282609A6802F4E05251
:104BD000C2609B68DB0803F4E0530361034B1B686E
:104BE00003F007030B60704700380240003C0240AE
:104BF00000230F2B00F2E48070B582B060E085687E
:104C00005E000324B44025EA0405CC68B4402C437C
:104C10008460456825EA02054C68C4F300129A4096
:104C20002A4342605AE0DC08083450F8246003F05C
:104C3000070295000F22AA4026EA020E0A69AA403E
:104C400042EA0E0240F824205CE0072200E0002245
:104C500002FA0EF22A4302345A4D45F824205A4AE9
:104C600094686FEA0C0224EA0C054E6816F4801F63
:104C700001D04CEA0405544CA560E46802EA04053E
:104C80004E6816F4001F01D04CEA04054E4CE56056
:104C9000646802EA04054E6816F4003F01D04CEA4D
:104CA0000405494C6560246822404D6815F4803F36
:104CB00001D04CEA0402444C226001330F2B7DD812
:104CC00001229A400C6804EA020C32EA0404F4D18E
:104CD0004C6804F00304013C012C90D94A6802F0AE
:104CE0000302032A09D0C4685D000322AA4024EA13
:104CF00002048A68AA402243C2604A6802F00302A2
:104D0000022A90D004684FEA430E032202FA0EF200
:104D100024EA02044A6802F0030202FA0EF2224375
:104D200002604A6812F4403FC7D000220192274A2D
:104D3000546C44F480445464526C02F480420192F6
:104D4000019A9C08A51C1F4A52F8255003F0030243
:104D50004FEA820E0F2202FA0EF225EA02051C4AE1
:104D600090423FF474AF02F5806290421AD002F58F
:104D70008062904218D002F58062904216D002F50F
:104D80008062904214D002F58062904212D002F507
:104D90008062904210D002F5806290423FF455AF9D
:104DA000082255E7012253E7022251E703224FE789
:104DB00004224DE705224BE7062249E702B070BD09
:104DC000704700BF00380140003C014000380240FD
:104DD000000002400AB18161704709048161704797
:104DE00030B405682C6824F480242C600468636067
:104DF0008368402B05D0036899600368DA6030BC93
:104E0000704703689A600368D960F8E710B40368D4
:104E1000D9B210390C4AA2FB014212090B4CA25C18
:104E2000C2655F2909D923F47F7323F00303043398
:104E30008365806D5DF8044B704723F47F7323F026
:104E400003038365F5E700BFABAAAAAAB43A020838
:104E5000836A826992B9012B0AD0022B02D00BB16E
:104E600000207047C36A13F0807F28D1002070476C
:104E7000C36AB3F1C07F24D000207047B2F5005F51
:104E800009D0022B25D9032B25D1C36A13F0807FCB
:104E900023D100207047032B03D8DFE803F014046C
:104EA000140A00207047C36A13F0807F0DD10020E0
:104EB0007047C36AB3F1C07F09D00020704701205A
:104EC0007047012070470120704701207047012082
:104ED0007047012070470020704701207047000094
:104EE00070B5044600F060FA002C5BD00546022342
:104EF00084F83530002384F834302268136823F0B6
:104F00000103136023681A6812F0010F0AD000F041
:104F10004BFA431B052BF5D920236365032084F846
:104F2000350070BD1A68204810406168A2680A43C5
:104F3000E1680A4321690A4361690A43A1690A4396
:104F4000E1690A43216A0A430243616A04291ED0C7
:104F50001A602668756925F00705636A1D43042BEE
:104F600007D1A36A1D43E36A1BB12046FFF770FF18
:104F700090B975612046FFF749FFE26D3F239340EA
:104F8000836000206065012384F83530C9E7E16A59
:104F9000206B01430A43DBE740236365012084F86B
:104FA0003500BEE70120BCE73F8010F038B504466D
:104FB000856D90F8340001282BD0012084F834004E
:104FC00094F83500C0B2012804D0002384F83430AE
:104FD000022038BD022084F835000020606520469C
:104FE000FFF7FEFEE26D3F239340AB60226813683B
:104FF00043F016031360236C23B12268136843F057
:10500000080313602268136843F001031360002053
:10501000DFE70220DDE770B50446866D00F0C4F9D5
:1050200094F83530DBB2022B06D080236365002371
:1050300084F83430012070BD05462268136823F0DF
:10504000160313602268536923F080035361236CB5
:10505000E3B12268136823F0080313602268136821
:1050600023F00103136023681B6813F0010F11D0B4
:1050700000F09AF9431B052BF5D920236365032023
:1050800084F83500002384F83430D4E7A36C002B77
:10509000DFD1E3E7E26D3F239340B360012384F85F
:1050A0003530002084F83400C5E790F83530DBB2A5
:1050B000022B03D08023436501207047052380F82D
:1050C00035300268136823F0010313600020704735
:1050D000F0B583B0044600230193724B1D68724BF8
:1050E000A3FB0535AD0A876D3E68C26D082393406A
:1050F000334210D003681A6812F0040F0BD01A68FC
:1051000022F004021A60C26D08239340BB60436D15
:1051100043F001034365E26D01239340334209D01C
:105120002268526912F0800F04D0BB60636D43F0B7
:1051300002036365E26D04239340334209D0226881
:10514000126812F0020F04D0BB60636D43F00403D9
:105150006365E26D10239340334224D022681268C5
:1051600012F0080F1FD0BB6023681A6812F4802F5A
:105170000DD01B6813F4002F04D1236C9BB1204683
:10518000984710E0A36C73B1204698470BE01A686B
:1051900012F4807F03D11A6822F008021A60236C8F
:1051A0000BB120469847E26D20239340334255D0FF
:1051B0002268126812F0100F50D0BB6094F835309E
:1051C000DBB2052B0ED023681A6812F4802F33D07F
:1051D0001B6813F4002F2AD1636C002B3ED02046AD
:1051E00098473BE02268136823F016031360226897
:1051F000536923F080035361236CA3B122681368C1
:1052000023F008031360E26D3F239340BB6001234A
:1052100084F83530002384F83430236D002B3FD0E0
:10522000204698473CE0A36C002BE7D1EBE7E36B0B
:10523000A3B12046984711E01A6812F4807F09D183
:105240001A6822F010021A60012384F83530002316
:1052500084F83430E36B0BB120469847636DFBB1A3
:10526000636D13F0010F17D0052384F835302268E1
:10527000136823F001031360019B01330193AB42D8
:1052800004D823681B6813F0010FF5D1012384F8BB
:105290003530002384F83430E36C0BB12046984756
:1052A00003B0F0BD24000020B5814E1B074AD3682F
:1052B00023F4E0631B041B0C000200F4E0600343D2
:1052C00043F0BF6343F40033D360704700ED00E068
:1052D00000B5194BDB68C3F30223C3F1070CBCF123
:1052E000040F28BF4FF0040C03F1040EBEF1060FAB
:1052F00018D9033B4FF0FF3E0EFA0CFC21EA0C01DB
:1053000099400EFA03F322EA0303194300280BDB4A
:105310000901C9B200F1604000F5614080F8001356
:105320005DF804FB0023E5E700F00F000901C9B2B6
:10533000024B1954F4E700BF00ED00E014ED00E06B
:10534000002807DB00F01F02400901239340024AB6
:1053500042F82030704700BF00E100E008B50B4B79
:105360001A6842F400721A601A6842F480621A6085
:105370001A6842F480721A600320FFF797FF0F202B
:1053800002F004FEFEF78EFC002008BD003C024047
:10539000034A1168034B1B780B441360704700BF2E
:1053A000C04C00201C000020014B1868704700BF53
:1053B000C04C0020002800F0CC8070B5044690F866
:1053C0003D30002B77D0242384F83D3022681368C9
:1053D00023F0010313602268136843F40043136051
:1053E0002268136823F400431360FFF7C3FB62686D
:1053F0005A4B9A4264D85A4B98428CBF00230123DF
:10540000002B40F0A8805749A1FB00318B0C256888
:105410006A6822F03F0242EA91426A6021680A6AA1
:1054200022F03F0266684D4DAE424FD80133134320
:105430000B622168CA6922F44F4222F0FF026668BB
:10544000464B9E424CD8431E7600B3FBF6F3013325
:1054500040F6FC70034278D0C3F30B031343CB61D7
:1054600021680B6823F0C003E269206A02431343FA
:105470000B6021688B6823F4034323F0FF03226948
:10548000E068024313438B602168CB6823F0FF037D
:105490006269A06902431343CB602268136843F03A
:1054A0000103136000202064202384F83D30206332
:1054B00084F83E0070BD80F83C30FEF799FA82E730
:1054C000294B98428CBF0023012399E74FF496752E
:1054D00005FB03F3254DA5FB03539B090133A6E709
:1054E000A368BBB9451E06EB460CB5FBFCF50135C0
:1054F000C5F30B05B5FA85F56D0945BBC3B9013890
:1055000006EB4603B0FBF3F30133C3F30B0343F4A1
:105510000043A3E7451E06EB860C0CEB8C0CB5FB99
:10552000FCF50135C5F30B05B5FA85F56D09E4E722
:10553000013806EB860303EB8303B0FBF3F301337F
:10554000C3F30B0343F4404388E7042386E70123B6
:1055500084E7012070470120ACE700BFA08601006E
:105560007F841E0083DE1B43FF083D00D34D621085
:1055700000285AD010B50446436A33B94368B3F5DE
:10558000827F05D00023C36102E0002303614361F1
:105590000023A36294F85130002B40D0022384F8FA
:1055A00051302268136823F040031360636803F4EA
:1055B0008273A26802F404421343E26802F40062B8
:1055C0001343226902F002021343626902F00102EE
:1055D0001343A26902F400721343E26902F0380235
:1055E0001343226A02F080021343A26A02F40052BB
:1055F000216813430B60638B03F00403626A02F0BB
:105600001002216813434B602268D36923F40063BE
:10561000D36100206065012384F8513010BD84F807
:1056200050302046FEF73CFAB8E70120704770473B
:1056300090F83D30DBB2012B37D1022380F83D30AA
:105640000268D36843F00103D3600368194A9342A8
:1056500020D0B3F1804F1DD0A2F57C42934219D0E7
:1056600002F58062934215D002F58062934211D018
:1056700002F5784293420DD002F57052934209D060
:10568000A2F59432934205D01A6842F001021A60E2
:10569000002070479A6802F00702062A07D01A68AD
:1056A00042F001021A60002070470120704700207C
:1056B000704700BF00000140704770477047704757
:1056C00010B5044603681A6912F0020F11D0DA68A7
:1056D00012F0020F0DD06FF002021A61012303775E
:1056E00003689B6913F0030F70D0FFF7E6FF0023F8
:1056F000237723681A6912F0040F12D0DA6812F0C7
:10570000040F0ED06FF004021A610223237723687E
:105710009B6913F4407F5FD02046FFF7CEFF002344
:10572000237723681A6912F0080F12D0DA6812F092
:10573000080F0ED06FF008021A6104232377236844
:10574000DB6913F0030F4ED02046FFF7B6FF0023AE
:10575000237723681A6912F0100F12D0DA6812F05A
:10576000100F0ED06FF010021A6108232377236800
:10577000DB6913F4407F3DD02046FFF79EFF0023F6
:10578000237723681A6912F0010F03D0DA6812F048
:10579000010F36D123681A6912F0800F03D0DA683E
:1057A00012F0800F34D123681A6912F0400F03D031
:1057B000DA6812F0400F32D123681A6912F0200F14
:1057C00003D0DA6812F0200F30D110BDFFF774FF5C
:1057D0002046FFF773FF8AE72046FFF76DFF20465C
:1057E000FFF76CFF9BE72046FFF766FF2046FFF7B9
:1057F00065FFACE72046FFF75FFF2046FFF75EFF3F
:10580000BDE76FF001021A612046FDF7BFFEC1E758
:105810006FF080021A61204600F0A1F8C3E76FF034
:1058200040021A612046FFF74AFFC5E76FF02002E9
:105830001A61204600F092F8C7E700000368304A7A
:10584000904212D0B0F1804F0FD0A2F57C4290422E
:105850000BD002F58062904207D002F58062904240
:1058600003D002F57842904203D123F070034A68D6
:105870001343234A90422AD0B0F1804F27D0A2F59B
:105880007C42904223D002F5806290421FD002F504
:10589000806290421BD002F57842904217D002F508
:1058A0007052904213D002F5806290420FD002F500
:1058B000806290420BD0A2F59832904207D002F558
:1058C0008062904203D002F58062904203D123F4BB
:1058D0004073CA68134323F080034A69134303608B
:1058E0008B68C3620B688362054B984203D003F553
:1058F0008063984201D10B690363012343617047C0
:105900000000014040B310B5044690F83D30F3B1BB
:10591000022384F83D30214651F8040BFFF78EFF37
:10592000012384F8463084F83E3084F83F3084F810
:10593000403084F8413084F8423084F8433084F8B1
:10594000443084F8453084F83D30002010BD80F8A4
:105950003C30FFF76CFEDBE7012070477047704773
:10596000026802F10C0353E8003F23F0C0030C323D
:1059700042E800310029F3D1202380F83D30704700
:10598000026802F10C0353E8003F23F490730C32D9
:1059900042E800310029F3D1026802F1140353E810
:1059A000003F23F00103143242E800310029F3D113
:1059B000036B012B05D0202380F83E3000230363C6
:1059C0007047026802F10C0353E8003F23F0100314
:1059D0000C3242E800310029F3D1ECE790F83D3079
:1059E000DBB2212B01D0022070478368B3F5805FC2
:1059F00017D0036A5A1C02621A7803685A60C38C73
:105A00009BB2013B9BB2C3844BB90268D36823F0BD
:105A10008003D3600268D36843F04003D360002062
:105A200070470369002BE4D1036A1B880268C3F343
:105A300008035360036A02330362E0E738B50446A3
:105A40000268136923F44053C1680B4313618368F0
:105A50000269134342691343C2691A430168CB6860
:105A600023F4164323F00C031343CB6002685369FD
:105A700023F4407381690B4353610368314A9342B5
:105A800006D002F58062934202D0FFF773F801E07E
:105A9000FFF780F8E369B3F5004F29D00021031820
:105AA00049411B1841F10001C90041EA5371DB0073
:105AB000181863684FEA83024FEA937341F10001BB
:105AC000FAF72EFC204DA5FB00325109642303FB9D
:105AD00011031B013233A5FB03235B0903F0F00222
