:020000040800F2
:1000000000000220A5820008F7390008F93900082D
:10001000FB390008FD390008FF3900080000000026
:10002000000000000000000000000000717A0008DD
:10003000013A000800000000117B00080B76000860
:10004000F5820008F5820008F5820008F5820008B4
:10005000F5820008F5820008F5820008F5820008A4
:10006000F5820008F5820008F5820008F582000894
:10007000F5820008F5820008F5820008F582000884
:10008000053A0008153A0008F5820008F5820008D4
:10009000253A0008F5820008F5820008F58200087C
:1000A000F5820008353A0008F5820008F58200085C
:1000B000F5820008F5820008F5820008F582000844
:1000C000F5820008F5820008F5820008F582000834
:1000D000F5820008F5820008453A0008F58200081C
:1000E000F5820008F5820008F5820008F582000814
:1000F000F5820008F5820008F5820008F582000804
:10010000F5820008F5820008F5820008F5820008F3
:10011000F5820008F5820008F5820008F5820008E3
:10012000F5820008F5820008F5820008F5820008D3
:10013000F5820008F5820008F5820008F5820008C3
:10014000F5820008F5820008F5820008F5820008B3
:10015000F5820008F5820008F5820008F5820008A3
:10016000F5820008F5820008F5820008F582000893
:10017000F5820008F5820008F58200080000000002
:08018000F5820008F582000879
:1001900010B5054C237833B9044B13B10448AFF3C1
:1001A00000800123237010BD000400200000000027
:1001B0007C11020808B5034B1BB103490348AFF398
:1001C000008008BD00000000040400207C1102082B
:1001D000034613F8012B002AFBD1181A0138704787
:1001E00001F0FF01102A2BDB10F0070F08D010F8E8
:1001F000013B013A8B422DD010F0070F42B3F6D1EC
:10020000F0B441EA012141EA014122F007047FF004
:1002100000070023F0E80256083C85EA010586EA5B
:10022000010685FA47F5A3FA87F586FA47F6A5FA97
:1002300087F68EB9EED1F0BC01F0FF0102F00702A3
:1002400032B110F8013B013A83EA010313B1F8D14E
:100250000020704701387047002D06BF354603382F
:10026000073815F0010F07D1013015F4807F02BF68
:10027000013015F4C03F0130F0BC0138704700BFB9
:100280004FF0FF3C06E000BF4FF0010C02E000BF62
:100290004FF0010C4DF804CD4FEA410C7FEA6C5C45
:1002A0004FEA430C18BF7FEA6C5C1BD001B050EAE8
:1002B000410C0CBF52EA430C91EA030F02BF90EAD3
:1002C000020F0020704710F1000F91EA030F58BF92
:1002D000994208BF90422CBFD8176FEAE37040F0F4
:1002E000010070474FEA410C7FEA6C5C02D150EA92
:1002F000013C07D14FEA430C7FEA6C5CD6D152EA4D
:10030000033CD3D05DF8040B704700BF8446104611
:1003100062468C461946634600E000BF01B5FFF710
:10032000B7FF002848BF10F1000F01BD4DF808EDE0
:10033000FFF7F4FF0CBF012000205DF808FB00BFB1
:100340004DF808EDFFF7EAFF34BF012000205DF80B
:1003500008FB00BF4DF808EDFFF7E0FF94BF012058
:1003600000205DF808FB00BF4DF808EDFFF7CEFF59
:1003700094BF012000205DF808FB00BF4DF808ED98
:10038000FFF7C4FF34BF012000205DF808FB00BF69
:100390007BB972B90029BEBF00204FF0004106E0D2
:1003A00008BF00281CBF6FF000414FF0FF3001F084
:1003B0007DB9ADF1080C6DE904CE002909DB002BF5
:1003C0001ADB00F04DF8DDF804E0DDE9022304B0AB
:1003D0007047404261EB4101002B1BDB00F040F80D
:1003E000DDF804E0DDE9022304B0404261EB4101A5
:1003F000524263EB43037047524263EB430300F006
:100400002FF8DDF804E0DDE9022304B0404261EB9F
:1004100041017047524263EB430300F021F8DDF8DD
:1004200004E0DDE9022304B0524263EB430370476A
:1004300053B94AB9002908BF00281CBF4FF0FF314B
:100440004FF0FF3001F032B9ADF1080C6DE904CE88
:1004500000F006F8DDF804E0DDE9022304B070479F
:100460002DE9F047089D04468E46002B4DD18A4267
:10047000944669D9B2FA82F252B101FA02F3C2F19A
:10048000200120FA01F10CFA02FC41EA030E94402B
:100490004FEA1C48210CBEFBF8F61FFA8CF708FB4C
:1004A00016E341EA034306FB07F199420AD91CEB24
:1004B000030306F1FF3080F01F81994240F21C8156
:1004C000023E63445B1AA4B2B3FBF8F008FB10339E
:1004D00044EA034400FB07F7A7420AD91CEB0404D3
:1004E00000F1FF3380F00A81A74240F207816444A3
:1004F000023840EA0640E41B00261DB1D440002328
:10050000C5E900433146BDE8F0878B4209D9002D8B
:1005100000F0EF800026C5E9000130463146BDE815
:10052000F087B3FA83F6002E4AD18B4202D382427F
:1005300000F2F980841A61EB030301209E46002D2E
:10054000E0D0C5E9004EDDE702B9FFDEB2FA82F283
:10055000002A40F09280A1EB0C014FEA1C471FFAE1
:100560008CFE0126200CB1FBF7F307FB131140EAC8
:1005700001410EFB03F0884208D91CEB010103F195
:10058000FF3802D2884200F2CB804346091AA4B257
:10059000B1FBF7F007FB101144EA01440EFB00FE2B
:1005A000A64508D91CEB040400F1FF3102D2A64590
:1005B00000F2BB800846A4EB0E0440EA03409CE72F
:1005C000C6F12007B34022FA07FC4CEA030C20FADC
:1005D00007F401FA06F31C43F9404FEA1C4900FAFC
:1005E00006F3B1FBF9F8200C1FFA8CFE09FB181179
:1005F00040EA014108FB0EF0884202FA06F20BD9EC
:100600001CEB010108F1FF3A80F08880884240F23B
:100610008580A8F102086144091AA4B2B1FBF9F07F
:1006200009FB101144EA014100FB0EFE8E4508D97A
:100630001CEB010100F1FF346CD28E456AD90238FF
:10064000614440EA0840A0FB0294A1EB0E01A142E4
:10065000C846A64656D353D05DB1B3EB080261EB52
:100660000E0101FA07F722FA06F3F1401F43C5E92C
:10067000007100263146BDE8F087C2F12003D84062
:100680000CFA02FC21FA03F3914001434FEA1C47A4
:100690001FFA8CFEB3FBF7F007FB10360B0C43EA96
:1006A000064300FB0EF69E4204FA02F408D91CEB46
:1006B000030300F1FF382FD29E422DD90238634444
:1006C0009B1B89B2B3FBF7F607FB163341EA0341E4
:1006D00006FB0EF38B4208D91CEB010106F1FF3833
:1006E00016D28B4214D9023E6144C91A46EA00462A
:1006F00038E72E46284605E70646E3E61846F8E6BC
:100700004B45A9D2B9EB020864EB0C0E0138A3E704
:100710004646EAE7204694E74046D1E7D0467BE7E5
:10072000023B614432E7304609E76444023842E75D
:1007300003685A004CBF43F0004323F000431844C1
:10074000704700BF2DE9F84329B34F1E04461546F4
:100750003E464FF0000808EB060101EBD17149104D
:1007600004EBC1094846FFF7E3FF0346C800083021
:100770008F42204409D0AB4209D8FFF7D9FF013896
:10078000A8420AD201F10108E5E7AB4205D9884544
:1007900001D04E1EDFE74FF000094846BDE8F88360
:1007A000012807D0022807D0044B00280CBF1846A8
:1007B000002070470248704702487047790E0008D1
:1007C0007D0E0008810E000830B5234B83B004462F
:1007D0008D1E3BB301A92846AFF30080E8B1019913
:1007E0002A46FFF7AFFF0146B8B1FFF7A1FF4B68FC
:1007F000A064012B2CD0002B01F1040024DBFFF7B7
:1008000097FF0023C4E913030368002B11DBFFF7F4
:100810008FFF2061002003B030BD00230920236139
:1008200003B030BD0D4B0E49C91AC91018460191CD
:10083000D6E7C3F30360FFF7B3FF0028206114BFBE
:100840000020092003B030BD0123C4E91303DBE716
:10085000002323610520DEE700000000C42A02080F
:100860008C2B02080368DA0710B5044606D49B07F0
:1008700000F1480009D500F05BFC2368590709D551
:100880001A070ED5DB0613D510BD00F049FC23680E
:100890005907F5D404F1D00000F052FC23681A0780
:1008A000F0D404F5A87000F053FC2368DB06EBD409
:1008B00004F5E870BDE8104000F08EBC09207047D8
:1008C0000346006800B11844704700BF704700BF7E
:1008D00070B504460E46316C2046FFF775FF05469D
:1008E00088B9326C626123693246214601209847FB
:1008F0000828F0D0072806D12846316CFFF7E6FF1C
:10090000301D00F001FC20F041F800BF2DE9F04758
:100910000D1DD0F80C80D0F81890074614460FCD66
:10092000ADF5727D0DF10C0CACE80F000FCDACE80D
:100930000F000FCDACE80F0095E80F0002AE4FF0AE
:10094000000E8CE80F00C6F800E020E0336C7B61FD
:100950004FF4F07231467AA807F008FD3B697AAA95
:10096000394650469847889B73642146CDE9006913
:1009700005463B463A460120C0470446E0B94FF4DD
:10098000F0727AA9304607F0F1FC082D1AD1316CCB
:100990003846FFF719FF09345FFA84FA0546002844
:1009A000D4D0B36B73643A46CDE900693B464AF054
:1009B00010010120C04700B1092528460DF5727DC0
:1009C000BDE8F087072DF7D12046316CFFF77EFF99
:1009D00003A800F099FB00BF406C7047F0B5CB6BEB
:1009E0000B6401F1040C0E460546BCE80F00F9B09B
:1009F00001AC0FC4BCE80F000FC4BCE80F000FC46B
:100A00009CE80F004FF0FF3784E80F00009706E0E6
:100A10002B696A46294698470828044608D1109948
:100A20002846FFF7D1FE0028F2D0092079B0F0BDAA
:100A30006846FFF717FF062CF7D131462846FFF727
:100A400047FF00BFC160D96B82611964002219465B
:100A50005CE700BF70B5C66843690B64AEB9036953
:100A60000A4604460D46014602209847072805D04D
:100A700008280FD129462046FFF72AFF3046296C67
:100A8000FFF724FF281D00F03FFB0122FFF73EFF88
:100A90001FF07CFF1FF07AFFC2681AB1CA6B0A64AC
:100AA000002233E79AE700BF704700BF8368014622
:100AB0000BB1012018477047012912D009D873B92A
:100AC0000F2A0CD800EB820218465368009A136074
:100AD00070470339012994BF01200220704702208A
:100AE00070470846704700BF00B585B00A4600232E
:100AF00003A900911946FFF7DFFF039805B05DF8E1
:100B000004FB00BF012912D009D873B90F2A0CD8F1
:100B100000EB8200009A1268426018467047033961
:100B2000012994BF01200220704702207047084627
:100B3000704700BF10B584B0002303AC039200944B
:100B40000A461946FFF7DEFF04B010BD70B5D36B3F
:100B5000136402F1040C05460C46BCE80F00ADF529
:100B60000E7D0DF15C0EAEE80F00BCE80F00AEE8A4
:100B70000F00BCE80F00AEE80F009CE80F004FF03C
:100B8000FF368EE80F00169610E0FFF7D3FF2146E0
:100B900016A8A847034616AA6946082083B9049BED
:100BA0009847052806460CD0092809D0269968469A
:100BB000FFF70AFE03466A460C2116A8002BE4D074
:100BC000092616A8FFF74EFE30460DF50E7D70BDC6
:100BD0002DE9F04FCC6C89B01E4654F8043B0694C6
:100BE0000D46174600F00308002E79D01A0C1B049E
:100BF00005938DF81D200223D2B204EB82048DF8F8
:100C00001C302B6DB8F1020F08BFAC6B13F0010361
:100C10000CD005A9384600F079FB18B9082009B0B6
:100C2000BDE8F08F092009B0BDE8F08FD4F800A02E
:100C3000BAF1000FEDD0019300F008030293022EE9
:100C40004AD0B4F800A0B4F802900434AB6C29F098
:100C5000010B0F2138469B44FFF746FF834539D8E7
:100C60002AF001039B44834594BF002001204FEAF2
:100C7000490303F002030AF0010A43EA0A03012BC5
:100C800049D0022B32D0002BCCD1B8F1000F02D0CA
:100C9000002840F0CD800434D4F800A0BAF1000F51
:100CA000CDD105A9384600F031FB0028BAD1019B0F
:100CB000002BB3D00F213846FFF716FF0E21024656
:100CC0003846FFF737FF38466A4A0F21FFF732FFF1
:100CD0000720A8E70020CAE7D4F804900834B5E755
:100CE0001B0205930323ADF81C308AE7236823F029
:100CF000004BB8F1000F45D128B1029A002A5CD010
:100D0000BBF1000F74D0002B00DA04340BF1010B9F
:100D100004EB8B04C0E7B8F1000F19D1B0B16368E0
:100D20002268991C4FEAD2723FF47CAF05F158015A
:100D30000133049100F09080201DFFF7C1FD04AB4A
:100D400001462846AFF3008000285BD10834A3E7B2
:100D50000D213846D5F82090FFF7C6FE8145F5D124
:100D6000AB6A9C42F2D12046FFF7E2FC0F2102461B
:100D70003846FFF7DFFE38462A460021FFF7DAFE45
:100D8000072050E70D213846D5F82090FFF7ACFE3C
:100D9000814501D02368B6E7AB6A9C42FAD10423AF
:100DA0000022C5E90B23E318C5F828B06B6323685C
:100DB000002B59DB01230193A8E705F15803CDF877
:100DC0000C8004F1040AB04691461E460EE05046DF
:100DD0000496FFF775FD0022014604AB284609F191
:100DE00001090AF1040AAFF30080E0B9D945EED158
:100DF0000D213846FFF778FE049BAC62C5E9080375
:100E0000062010E781460D213846FFF76DFEB9F147
:100E1000020F286225D12B46049A43F82C2F6B62CF
:100E2000AC620620FFE646462368DDF80C806AE7E0
:100E30002046FFF77DFC04340246AC632846144686
:100E4000AFF3008000283FF4EDAE384622460F2174
:100E5000FFF770FE0720E6E60D213846FFF744FE57
:100E60002862049B6B62DBE70BF1010004EB80005E
:100E70007AE700BF000000000023A9E60123A7E6EF
:100E80000223A5E62DE9F0430646C3B015461C46ED
:100E9000042900F2BF80DFE801F09E57BD2D03005A
:100EA000002C40F0B780102A00F2B4800368D80606
:100EB00000F1F98020AF384600F098F9B46B39465C
:100EC00000234FF0010C0CFA03F22A42204603F1F2
:100ED000010303D050F8042B0A600446042B01F1EF
:100EE0000401F0D13846B46300F076F9002043B035
:100EF000BDE8F083032C40F08D8094B204EB1243E4
:100F0000102B4FEA124500F2858003681F0700F19D
:100F1000D28020AF384600F03DF9B26B07EBC50137
:100F200054B10B46D01A01EBC401E4001D5843F83C
:100F3000045B8B42FAD122443846B26300F008F9D0
:100F4000002043B0BDE8F083012C4FEA124895B26F
:100F50005CD0052C5ED108EB0509B9F1200F59D8FA
:100F6000B8F10F0F79D9A946002D40F08A80B36BF4
:100F70006DB320AF4FF0000907EBC807043F03EB48
:100F8000C50553F8041B47F8041FAB42F9D1B9F16A
:100F9000000F0FD06F464146102938BF102107EBD4
:100FA000C101843903EBC90553F8040B41F8040F60
:100FB000AB42F9D1012C00F08680B8F10F0FB56378
:100FC00047D9B9F1000F02D0684600F0B9F8002007
:100FD00043B0BDE8F083ECB9806B23461FFA82FC76
:100FE0000124371D04FA03F212EA0C0F014604D063
:100FF00051F8042B47F8232008460133102BF1D178
:1010000015F40055E3D1B063284604E008EB05036E
:10101000102B03D9022043B0BDE8F083B8F10F0FC5
:10102000F8D83368DA0706D5304623F0030340F8D2
:10103000483B00F079F820AF384600F075F8B36B04
:10104000002D97D11D460435B563384600F068F889
:10105000BDE720A800F06CF8B3E7B9F1100F40D954
:10106000A9F110093368D90708D523F001033046E8
:1010700043F0020340F8483B00F05EF8B9F1000F7E
:1010800032D033685A0720D4B8F10F0F25D96F46F4
:101090003846C8F1100500F057F8002DB36B7FF704
:1010A0007AAF20AF68E723F01003336006F5E870ED
:1010B00000F09CF8FEE623F00803036000F5A8703A
:1010C00000F068F825E720AFBDE7304623F00403C1
:1010D00040F8D03B00F038F8D6E720A800F02CF814
:1010E000D5E74FF00009BDE7B8F10F0F3FF63FAF6E
:1010F00020AF384600F020F8B36B002D7FF43AAFF4
:10110000384600F015F862E700F1340191E8380044
:101110009C46A6464CF8045D90E8FF0FE54600BDEE
:1011200090EC210B704700BF80EC210B704700BF93
:1011300090EC200B704700BF80EC200B704700BF85
:10114000D0EC200B704700BFC0EC200B704700BFF5
:10115000F0EC0201F0EC0211F0EC0221F0EC0231B3
:10116000F0EC0241F0EC0251F0EC0261F0EC0271A3
:10117000F0EC0281F0EC0291F0EC02A1F0EC02B193
:10118000F0EC02C1F0EC02D1F0EC02E1F0EC02F183
:10119000704700BFE0EC0201E0EC0211E0EC02213C
:1011A000E0EC0231E0EC0241E0EC0251E0EC0261E3
:1011B000E0EC0271E0EC0281E0EC0291E0EC02A1D3
:1011C000E0EC02B1E0EC02C1E0EC02D1E0EC02E1C3
:1011D000E0EC02F1704700BFB0FC0181B0FC01916E
:1011E000B0FC01A1B0FC01B1704700BFA0FC0181BF
:1011F000A0FC0191A0FC01A1A0FC01B1704700BFBF
:10120000EC4600B52DE900502DE9FF1F4FF000031B
:101210002DE90C0001A9FFF7E1FBDDF840E012B079
:10122000704700BFEC4600B52DE900502DE9FF1FC7
:101230004FF000032DE90C0001A9FFF70BFCDDF8CE
:1012400040E012B0704700BFEC4600B52DE90050F9
:101250002DE9FF1F4FF000032DE90C0001A9FFF756
:101260001BFCDDF840E012B0704700BFEC4600B553
:101270002DE900502DE9FF1F4FF000032DE90C0070
:1012800001ABFFF7DFFBDDF840E012B0704700BFB5
:10129000EC4600B52DE900502DE9FF1F4FF000038B
:1012A0002DE90C0001AAFFF751FCDDF840E012B077
:1012B000704700BF027A03467AB9427AA2B1416808
:1012C000013A10B44272086803220C1D1A7202021D
:1012D0005C60000E10BC1A6070470068013A1A7218
:1012E00002021A60000E7047B020704700B585B04A
:1012F000002303AA009219460C22FFF7DDFB039896
:1013000005B05DF804FB00BFF0E700BF2DE9F04336
:10131000054685B00E464FF000083046FFF7CAFF7D
:10132000B028044600F0BA80070620D500F0F0038C
:10133000802B4DD0902B36D0A02B60D0B02B74D00A
:10134000C02B00F08B8000F0F803D02B0BD100F005
:1013500007020132052342F4002201212846FFF74B
:1013600091FD0028D9D0092005B0BDE8F0838300A5
:10137000DBB21F1D0DF10C0900231946CDF80090BA
:101380000D222846FFF798FB039BCDF800906006DE
:101390004CBFDF1BFF1800230D2219462846039778
:1013A000FFF7B0FBB9E700F00D030D2BDBD003AF67
:1013B000002300F00F02194600972846FFF77CFB38
:1013C000002300970D2219462846FFF79BFBA4E750
:1013D0003046FFF76FFF24022043B0F5004FC2D024
:1013E00004010023A2B219462846FFF74BFD00284E
:1013F000B9D114F4004F18BF4FF001088DE7C24374
:1014000002F007034FF47F621A41010702F47F6282
:101410004FF0000348BF42F4804219462846FFF7C8
:1014200031FD00283FF479AF9DE7B1283BD0B228C9
:1014300000F09380B32841D000F0FC03B42B92D08D
:1014400000F007020132012342F400221946284627
:10145000FFF718FD00283FF460AF84E7C6284AD0A4
:10146000C72854D000F0F803C02B63D0C82868D038
:10147000C9287FF478AF3046FFF71CFF020300F065
:101480000F0002F470220130024301210523284697
:10149000FFF7F8FC00283FF440AF64E7B8F1000F15
:1014A00018D0002060E73046FFF704FF024600280E
:1014B0003FF459AF10F0F003C8D054E73046FFF7BF
:1014C000F9FE020300F00F03013302F470221A4305
:1014D0000123BBE703AC43460E2241460094284655
:1014E000FFF7EAFA009443460F2241462846FFF7E9
:1014F00009FB404638E73046FFF7DCFE020300F008
:101500000F03013302F470221A4303239EE730468F
:10151000FFF7D0FE024600283FF425AF10F0F0039D
:101520007FF421AF04212846FFF7ACFC00283FF4EC
:10153000F4AE18E700F00F020132032342F4202238
:1015400084E73046FFF7B6FE00F0F00200F00F032C
:101550001032013343EA023297E700230DF10C0900
:101560000D221946CDF800902846FFF7A5FA30461F
:10157000FFF7A0FE02064FF002040CD5039B00F01B
:101580007F00A040184403903046FFF793FE030607
:1015900004F10704F2D4039BCDF8009000F07F0221
:1015A000A24003F501731A440023039219460D2249
:1015B0002846FFF7A7FAB0E610B5C26C536884B0AE
:1015C0004FF0030C08321C0208461B0E01A90194BF
:1015D00002928DF80CC08DF80D30FFF797FE04B025
:1015E00010BD00BF08B5FFF78FFE806C08BD00BFBF
:1015F00008B5FFF789FEC06CC379023300EB8300A6
:1016000008BD00BF0020704770B545680668042D0E
:1016100004460FD8301D06F099FE0346F8B1E16884
:101620000060043332461846A1B106F09FFE03461F
:10163000184670BDA819033006F088FE78B1EB1C7F
:1016400003446D422B40324643F8040CE1681846CF
:101650000029EAD106F098FE0346184670BD1FF037
:1016600095F900BF10B50446FFF7CCFF38B9A06864
:1016700000B110BD2046FFF7C7FFA06010BD1FF0EE
:1016800085F900BF10B404688C4202D200240160C6
:10169000C4604468944238BF42601BB102688A4209
:1016A00008BFC3605DF8044B704700BF704700BFC0
:1016B00010F8012B11F8013B012A28BF9A42F7D0FC
:1016C000D01A704710B517E0042284F84C2094F823
:1016D0004E2042F0040284F84E20144C04F1140011
:1016E0000AF04EFB60650028EED1104A92F84E30A9
:1016F00043F0040382F84E300C4C022384F84C3043
:1017000023460022114604F114000AF098FA60659D
:101710000028E2D1054B032283F84C2093F84E2099
:1017200022F0040283F84E2010BD00BF1C040020EC
:1017300070B58EB00146294C012084F84C00284B2E
:101740000193284B0093284B284A0BF031FE20656B
:1017500060B1042284F84C2094F84E2042F001023B
:1017600084F84E20002528460EB070BD1B4A92F822
:101770004E3023F0010382F84E3009A80AF0EEFC47
:101780001B4B09931B4B0A931B4B0B931B4B0C934B
:1017900009A80AF0F7FC054650B9104B042283F85B
:1017A0004C2093F84E2042F0020283F84E20DAE7F4
:1017B0000A4E02A80AF00CFDB44602AC0FCCACE80D
:1017C0000F002368CCF8003096F84E3023F0020367
:1017D00086F84E30FFF776FFC5E700BF1C040020F7
:1017E0002D820008EF810008E1810008C98100080E
:1017F0006180000885800008A5800008E580000859
:1018000008B5FFF795FF40B100F026FC04480AF048
:101810005FF900F06FFC002008BD4FF0FF30FBE7E0
:101820008004002010B50D4B022283F84C2000F0FC
:1018300061FC02E0642005F081FF084C04F1140013
:101840000AF09EFA60650028F4D1FFF73BFF00F034
:1018500003FC03480AF03CF910BD00BF1C04002043
:101860008004002008B50A460146024800F0FAFD4F
:1018700008BD00BF045E002010B50C46154B1B7858
:101880000BB9002221E001F051FAFAE702EB420025
:1018900018444FF6FF7124F810100133022B13DCAB
:1018A0000C4909780029F1D00B49096851F8221038
:1018B0004FF4947C0CFB031C02EB42001844BCF96F
:1018C0008C1024F81010E8E70132032A01DC002311
:1018D000E4E710BD7C0F0020780F002010B50C4607
:1018E000154B1B780BB9002221E001F073FAFAE7DF
:1018F00002EB420018444FF6FF7124F81010013338
:10190000022B13DC0C4909780029F1D00B49096836
:1019100051F822104FF4947C0CFB031C02EB4200A4
:101920001844BCF98C1024F81010E8E70132032A9F
:1019300001DC0023E4E710BD7C0F0020780F0020BD
:10194000F8B50D460F4B1B781BB94FF6FF730B8094
:10195000F8BD044602780C4F3B6853F822304078BB
:101960004FF4947606FB003001F050FA22783B6881
:1019700053F82230627806FB0233B3F98C302B80A7
:10198000E6E700BF7C0F0020780F002070B520B183
:10199000D04B1B78002B40F08480CF4806F0DCFD54
:1019A00070BDCE49C2F8901050F825601E44D6F89C
:1019B0009000FEF70DFCC6F894000134022C6BDC9D
:1019C000C74B186850F825204FF4947304FB03F3B9
:1019D0001A4492F825110629EFD801A656F821F0ED
:1019E000A3190008FD190008171A0008311A000889
:1019F0004B1A0008651A00087F1A0008B949C2F896
:101A0000901050F825601E44D6F89000FEF7E0FBD9
:101A1000C6F89400D1E7B449C2F8901050F8256098
:101A20001E44D6F89000FEF7D3FBC6F89400C4E736
:101A3000AE49C2F8901050F825601E44D6F89000C8
:101A4000FEF7C6FBC6F89400B7E7A949C2F89010A4
:101A500050F825601E44D6F89000FEF7B9FBC6F892
:101A60009400AAE7A349C2F8901050F825601E44DC
:101A7000D6F89000FEF7ACFBC6F894009DE79E49AF
:101A8000C2F8901050F825601E44D6F89000FEF77A
:101A90009FFBC6F8940090E70135032D03DC00247A
:101AA0008CE70025F9E78E4B1D682B68934C04F5F5
:101AB000F36E03F1880CBCE80F00AEE80F00BCE841
:101AC0000F00AEE80F00BCE80F00AEE80F009CE886
:101AD0000F008EE80F002B6804F5FB6E03F5D87C31
:101AE000BCE80F00AEE80F00BCE80F00AEE80F0046
:101AF000BCE80F00AEE80F009CE80F008EE80F0076
:101B00002B6804F6180E03F5367CBCE80F00AEE82F
:101B10000F00BCE80F00AEE80F00BCE80F00AEE815
:101B20000F009CE80F008EE80F006B6804F6580E5B
:101B300003F1880CBCE80F00AEE80F00BCE80F0012
:101B4000AEE80F00BCE80F00AEE80F009CE80F0005
:101B50008EE80F006B6804F6980E03F5D87CBCE89D
:101B60000F00AEE80F00BCE80F00AEE80F00BCE8C5
:101B70000F00AEE80F009CE80F008EE80F006B68C6
:101B800004F6D80E03F5367CBCE80F00AEE80F0073
:101B9000BCE80F00AEE80F00BCE80F00AEE80F0095
:101BA0009CE80F008EE80F00AB6804F6181E03F1E6
:101BB000880CBCE80F00AEE80F00BCE80F00AEE8F0
:101BC0000F00BCE80F00AEE80F009CE80F008EE8A5
:101BD0000F00AB6804F6581E03F5D87CBCE80F0074
:101BE000AEE80F00BCE80F00AEE80F00BCE80F0045
:101BF000AEE80F009CE80F008EE80F00AB6804F61B
:101C0000981E03F5367CBCE80F00AEE80F00BCE878
:101C10000F00AEE80F00BCE80F00AEE80F009CE834
:101C20000F008EE80F00EB6804F6D81E03F1880C55
:101C3000BCE80F00AEE80F00BCE80F00AEE80F00F4
:101C4000BCE80F00AEE80F009CE80F008EE80F0024
:101C5000EB6804F6182E03F5D87CBCE80F00AEE85C
:101C60000F00BCE80F00AEE80F00BCE80F00AEE8C4
:101C70000F009CE80F008EE80F00EB6804F6582573
:101C800003F5367CBCE80F000FC5BCE80F000FC59C
:101C9000BCE80F000FC59CE80F0085E80F0000228C
:101CA00004F5F36104F5F26008F0C2F8C4F8A00A84
:101CB00038B9124AB2F8AA3A23F00203A2F8AA3AB3
:101CC0006EE6B4F8AA3A43F00203A4F8AA3AFFF782
:101CD000A9FD65E67C0F002014230208DC2202081F
:101CE000780F0020E0220208EC220208F822020805
:101CF000002302080C2302080823020878040020AD
:101D000010B582B0254C264BC4F88C301CF03DFD3C
:101D10000246D4F88C30214604F188000AF04CF9D0
:101D2000C4F8900018B3042284F8A82AB4F8AA2AA8
:101D300042F48062A4F8AA2A184C1A4B009304F5C6
:101D4000DF6304F1980204F1880104F1080009F04E
:101D500095F9C4F89000A8B1042284F8A82AB4F830
:101D6000AA2A42F48062A4F8AA2A02B010BD0B4B42
:101D7000012283F8A82AB3F8AA2A22F48062A3F8E1
:101D8000AA2AD9E7054B012283F8A82AB3F8AA2A80
:101D900022F48062A3F8AA2AE7E700BF78040020B3
:101DA000242302086518000810B582B0254C264B84
:101DB000C4F824371CF0E2FC0246D4F8243721464C
:101DC00004F5E4600AF0F8F8C4F8280718B3042210
:101DD00084F8A82AB4F8AA2A42F40062A4F8AA2A2D
:101DE000184C1A4B009304F2327304F5E66204F5C2
:101DF000E46104F1080009F041F9C4F82807A8B12A
:101E0000042284F8A82AB4F8AA2A42F40062A4F8AA
:101E1000AA2A02B010BD0B4B012283F8A82AB3F8FE
:101E2000AA2A22F40062A3F8AA2AD9E7054B0122C4
:101E300083F8A82AB3F8AA2A22F40062A3F8AA2AEF
:101E4000E7E700BF7804002034230208791800086F
:101E500010B582B0254C264BC4F850371CF087FCD7
:101E60000246D4F85037214604F24C700AF0A4F828
:101E7000C4F8540718B3042284F8A82AB4F8AA2A8C
:101E800042F44062A4F8AA2A184C1A4B009304F2B8
:101E90005E7304F25C7204F24C7104F1080009F004
:101EA000EDF8C4F85407A8B1042284F8A82AB4F8BD
:101EB000AA2A42F44062A4F8AA2A02B010BD0B4B31
:101EC000012283F8A82AB3F8AA2A22F44062A3F8D0
:101ED000AA2AD9E7054B012283F8A82AB3F8AA2A2F
:101EE00022F44062A3F8AA2AE7E700BF78040020A2
:101EF00048230208DD18000810B582B0254C264B97
:101F0000C4F87C371CF048FC0246D4F87C372146E4
:101F100004F5EF600AF050F8C4F8800718B3042203
:101F200084F8A82AB4F8AA2A42F48052A4F8AA2A6B
:101F3000184C1A4B009304F28A7304F5F16204F50D
:101F4000EF6104F1080009F099F8C4F88007A8B11E
:101F5000042284F8A82AB4F8AA2A42F48052A4F8E9
:101F6000AA2A02B010BD0B4B012283F8A82AB3F8AD
:101F7000AA2A22F48052A3F8AA2AD9E7054B012203
:101F800083F8A82AB3F8AA2A22F48052A3F8AA2A2E
:101F9000E7E700BF780400205C230208411900082D
:101FA00010B582B01CF0DCFB0246264C264B2146C5
:101FB00004F5F26009F0A2FFC4F8A00AD0B9214AE2
:101FC000B2F8AA3A23F00203A2F8AA3A1D4C1F4B1A
:101FD000C4F8A43A1E4AC4F89C2A00931C4A002361
:101FE0001C4904F698200AF045F8C4F8A00A68B124
:101FF00002B010BD042284F8A82AB4F8AA2A42F03C
:102000000202A4F8AA2AFFF70DFCDFE704F69821E4
:1020100004F1080008F0CCFFC4F8A00A48B104227B
:1020200084F8A82AB4F8AA2A42F00202A4F8AA2A3C
:10203000DEE7044AB2F8AA3A23F00203A2F8AA3A69
:10204000D6E700BF78040020742302088D19000829
:10205000809698003004002030B5A1B0204C0123B8
:1020600084F8A83A1F4B204A2049204609F0C3FEB5
:10207000C4F8AC0A68B11A4B042283F8A82AB3F852
:10208000AA2A42F00102A3F8AA2AFFF7CBFB21B04B
:1020900030BDB4F8AA3A23F00103A4F8AA3A68467E
:1020A00008F060FE04F1080580226946284606F023
:1020B0005DF90F4B052203F11801284608F064FE74
:1020C000C4F8AC0A0028E0D1FFF76AFFFFF718FE5A
:1020D000FFF76AFEFFF7BCFEFFF70EFFD7E700BF72
:1020E0007804002030040020F4220208842302082F
:1020F0001C04002010B5244C04F1080008F014FF63
:10210000C4F8AC0A04F6982008F032FCD4F8AC3AD3
:102110000344C4F8AC3A214604F5F26007F010FE1F
:10212000D4F8AC3A0344C4F8AC3A214604F1880030
:1021300008F045F8D4F8AC3A0344C4F8AC3A214668
:1021400004F5E46008F03BF8D4F8AC3A0344C4F872
:10215000AC3A214604F24C7008F031F8D4F8AC3AAD
:102160000344C4F8AC3A214604F5EF6008F027F8C0
:10217000D4F8AC3A0344C4F8AC3A204607F018FB54
:10218000C4F8AC0A10BD00BF780400202DE9F04F60
:1021900083B00446D0E90267D0E90489424609F1D8
:1021A000004330463946FEF7C1F8002873D00025B9
:1021B000D4E906AB94ED087B8DED007B51EC170B59
:1021C00017EE102A01F1004350465946FEF7AEF8CB
:1021D00008B945F0040500220023D4E90A01FEF7FE
:1021E000A5F840B900222D4BD4E90C01FEF79EF86A
:1021F00008B945F0080500220023D4E90E01FEF7D6
:1022000095F840B90022264BD4E91001FEF78EF86C
:1022100008B945F01005D4E91401024601F1004364
:10222000D4E91201FEF782F808B945F02005D4E997
:10223000162330463946FEF7A1F830B9D4E9182301
:1022400040464946FEF77CF808B145F04005D4E920
:102250001A2350465946FEF791F830B9D4E91C23A9
:10226000DDE90001FEF76CF808B145F080050022B9
:102270000C4BD4E91E01FEF763F830B900220A4B7B
:10228000D4E92001FEF77AF808B145F480752846B4
:1022900003B0BDE8F08F02258AE700BF00407F4011
:1022A0000000144000001CC000001C4038B504466B
:1022B000C0F8F810284BC0F8FC30284B1B7813B33B
:1022C0002378C4F808310023C4F810310822C4F878
:1022D0001821C4F81431D4F8F8305B6A012B28D0E7
:1022E00094F8243143F0020384F82431B4F88C309C
:1022F00023F00203A4F88C30002384F88A300120F4
:1023000084F8250138BD08461349CB6301220A64CD
:102310004B628B6240F6FF75CD620B634B634A6480
:10232000243101F0BFFC0028CAD10C4B01221A70E5
:10233000C6E794F8243123F0020384F82431B4F87A
:102340008C3043F00203A4F88C30012384F88A30E7
:1023500084F825310020D5E7280F0020740F0020D5
:1023600038B5102005F0F2FF3B4B1860002408E060
:10237000394B1D684FF45E7005F0E8FF45F8240006
:102380000134032CF4DD002257E0334B196851F877
:1023900022004FF4947303FB0CF300EB030E0020B8
:1023A000AEF88C0051F8224004EB030E8EF8880042
:1023B00051F8224004EB030E8EF8890051F82240B8
:1023C00004EB030E8EF88A0051F8224004EB030E52
:1023D0008EF8A00051F8224004EB030E9FED1C7B09
:1023E0008EED2A7B51F8224004EB030E8EED2C7B00
:1023F00051F8224004EB030E8EED2E7B51F8224063
:1024000004EB030E8EED307B51F8224004EB030EFB
:10241000124CCEF8904051F8224004EB030E642495
:10242000CEF8984051F822100B44C3F894000CF1F8
:10243000010CBCF1020FA8DD0132032A02DC4FF0CF
:10244000000CF6E70120064B187038BDAFF3008092
:102450000000000000000000780F0020F4220208B5
:102460007C0F00202DE9F04106460D461446C34B73
:102470001B78002B00F0CA812846FFF787FE00B2C8
:102480002080002800F0C781BD4B1B681A6801211D
:1024900082F88A101968B1F88C2042F00102A1F884
:1024A0008C20196891F8242122F0010281F824215E
:1024B0001B68002283F82521B14B1B681B6893F928
:1024C0002531237605F18800FFF760FE00B26080B9
:1024D000002800F0C781AA4B1B681A68012182F806
:1024E000B2111968B1F8B42142F00102A1F8B42187
:1024F000196891F84C2222F0010281F84C221B68E5
:10250000002283F84D229E4B1F683B6893F94D32A1
:10251000637605F58870FFF739FE00B2A0800028C9
:1025200000F0CB813B68012283F8DA223A68B2F8E6
:10253000DC3243F00103A2F8DC323A6892F87433DB
:1025400023F0010382F874333B68002283F875237B
:102550008B4B1F683B6893F97533A37605F5CC70F8
:10256000FFF714FE00B2E080002800F0D0817B6805
:10257000012283F88A207A68B2F88C3043F0010394
:10258000A2F88C307A6892F8243123F0010382F8A3
:1025900024317B68002283F82521794B1F687B68F2
:1025A00093F92531E37605F50870FFF7EFFD00B2EA
:1025B0002081002800F0D3817B68012283F8B221BA
:1025C0007A68B2F8B43143F00103A2F8B4317A6802
:1025D00092F84C3223F0010382F84C327B680022DF
:1025E00083F84D22664B1F687B6893F94D32237741
:1025F00005F52A70FFF7CAFD00B26081002800F0DF
:10260000D8817B68012283F8DA227A68B2F8DC325A
:1026100043F00103A2F8DC327A6892F8743323F0B5
:10262000010382F874337B68002283F87523544BCE
:102630001F687B6893F97533637705F54C70FFF776
:10264000A5FD00B2A081002800F0DD81BB68012259
:1026500083F88A20BA68B2F88C3043F00103A2F8FC
:102660008C30BA6892F8243123F0010382F82431C7
:10267000BB68002283F82521414B1F68BB6893F992
:102680002531A37705F56E70FFF780FD00B2E0817C
:10269000002800F0E081BB68012283F8B221BA680B
:1026A000B2F8B43143F00103A2F8B431BA6892F839
:1026B0004C3223F0010382F84C32BB68002283F8CD
:1026C0004D222F4B1F68BB6893F94D32E37705F518
:1026D0008860FFF75BFD00B22082002800F0E881EF
:1026E000BB68012283F8DA22BA68B2F8DC3243F020
:1026F0000103A2F8DC32BA6892F8743323F00103C4
:1027000082F87433BB68002283F875231C4B1F6862
:10271000BB6893F9753384F8203005F59968404615
:10272000FFF734FD00B26082002800F0EB81FB6807
:10273000012283F88A20FA68B2F88C3043F0010352
:10274000A2F88C30FA6892F8243123F0010382F861
:102750002431FB68002283F82521094B1F68FB68A0
:1027600093F9253184F821304046FFF70FFD00B280
:10277000A082002800F0ED8104E000BF7C0F002063
:10278000780F0020FB68012283F8B221FA68B2F8C2
:10279000B43143F00103A2F8B431FA6892F84C3234
:1027A00023F0010382F84C32FB68002283F84D22AB
:1027B000BE4B1F68FB6893F94D3284F822304046C7
:1027C000FFF7E4FC00B2E082002800F0EC81FB6837
:1027D000012283F8DA22FA68B2F8DC3243F001030E
:1027E000A2F8DC32FA6892F8743323F0010382F81D
:1027F0007433FB68002283F87523AC4B1B68DB68DD
:1028000093F9753384F82330BDE8F081A74B18683D
:10281000FFF7A6FD30E6A54F3B68882229461868D9
:1028200005F0A4FD3B681A68002182F88A10196837
:1028300091F8242142F0010281F8242131461868E0
:10284000FFF734FD00283FF437AE3A681168B1F85D
:102850008C3023F00103A1F88C301368012283F837
:10286000252129E6914B1F6838688822A91800F5B0
:10287000947005F07BFD3B68002283F8B2213A6832
:1028800092F84C3243F0010382F84C3238683146FA
:1028900000F59470FFF70AFD00283FF434AE834B37
:1028A0001A681168B1F8B43123F00103A1F8B4310A
:1028B0001368012283F84D2225E63868882205F541
:1028C000887100F5147005F051FD3B68002283F813
:1028D000DA223A6892F8743343F0010382F87433D1
:1028E0003868314600F51470FFF7E0FC00283FF42B
:1028F0002FAE6E4B1A681168B1F8DC3223F0010379
:10290000A1F8DC321368012283F8752320E68822BF
:1029100005F5CC71786805F029FD644B1B685A6891
:10292000002182F88A10596891F8242142F00102AE
:1029300081F8242131465868FFF7B8FC00283FF49D
:102940002CAE5A4B1A685168B1F88C3023F0010351
:10295000A1F88C305368012283F825211DE67868A0
:10296000882205F5087100F5947005F0FFFC7B687E
:10297000002283F8B2217A6892F84C3243F00103C6
:1029800082F84C327868314600F59470FFF78EFC7F
:1029900000283FF427AE454B1A685168B1F8B431AE
:1029A00023F00103A1F8B4315368012283F84D22CA
:1029B00018E67868882205F52A7100F5147005F08C
:1029C000D5FC7B68002283F8DA227A6892F87433A7
:1029D00043F0010382F874337868314600F51470CF
:1029E000FFF764FC00283FF422AE304B1A685168B0
:1029F000B1F8DC3223F00103A1F8DC325368012284
:102A000083F8752313E6882205F54C71B86805F044
:102A1000ADFC264B1B689A68002182F88A109968E1
:102A200091F8242142F0010281F82421314698686E
:102A3000FFF73CFC00283FF41FAE1C4B1A6891685E
:102A4000B1F88C3023F00103A1F88C309368012297
:102A500083F8252110E6B868882205F56E7100F527
:102A6000947005F083FCBB68002283F8B221BA6839
:102A700092F84C3243F0010382F84C32B868314688
:102A800000F59470FFF712FC00283FF41AAE074BD4
:102A90001A689168B1F8B43123F00103A1F8B43198
:102AA0009368012283F84D220BE600BF780F0020C7
:102AB000B868882205F5886100F5147005F056FCA9
:102AC000BB68002283F8DA22BA6892F8743343F0C4
:102AD000010382F87433B868314600F51470FFF7CB
:102AE000E5FB00283FF412AE444B1A689168B1F838
:102AF000DC3223F00103A1F8DC329368012283F871
:102B0000752303E688224146F86805F02FFC3B4B0D
:102B10001B68DA68002182F88A10D96891F82421AC
:102B200042F0010281F824213146D868FFF7BEFB4C
:102B300000283FF412AE314B1A68D168B1F88C30DE
:102B400023F00103A1F88C30D368012283F82521FA
:102B500003E6F868882205F5AA6100F5947005F08F
:102B600005FCFB68002283F8B221FA6892F84C3227
:102B700043F0010382F84C32F868314600F5947056
:102B8000FFF794FB00283FF413AE1C4B1A68D16882
:102B9000B1F8B43123F00103A1F8B431D3680122B4
:102BA00083F84D2204E6F868882205F5BB6100F53C
:102BB000147005F0DBFBFB68002283F8DA22FA6868
:102BC00092F8743343F0010382F87433F8683146A5
:102BD00000F51470FFF76AFB00283FF40EAE074BB8
:102BE0001A68D168B1F8DC3223F00103A1F8DC32B5
:102BF000D368012283F87523FFE500BF780F00201A
:102C000010B582B0044604F5907304F5807204F5A3
:102C10008471D4F8F80001F00FF978BB022004F0B9
:102C20008DFDD4F8FC206B4608320021D4F8F80062
:102C300001F080F988B99DF8002023789A422BD0C2
:102C4000D4F8F8305B6A012B30D094F82631013388
:102C5000DBB284F82631052BD5D9002084F8880012
:102C6000012384F88A30B4F88C3043F00403A4F8CC
:102C70008C30042384F8253102B010BD012384F880
:102C80008A30B4F88C3043F00203A4F88C30062369
:102C900084F825310020EFE7D4F8FC300098186064
:102CA000BDF804209A80002384F82631012084F89E
:102CB0008800002384F88A30B4F88C3023F00403B1
:102CC0001BB2A4F88C3023F00203A4F88C30D3E7B5
:102CD00010B50446144B03CBC4F80001C4F804112A
:102CE0002046FFF78DFF60B194F888309BB9B4F8A7
:102CF0008C3023F04003A4F88C30032384F8253172
:102D000010BD94F8883053B9B4F88C3043F04003C8
:102D1000A4F88C30F4E7012384F88930E7E7002336
:102D200084F88930F0E700BF0800002070B50E4B32
:102D30001E78B6B9304670BD0C4B1B6853F8253071
:102D40004FF4947000FB0430FFF7C2FF022004F040
:102D5000F5FC0134022CEFDD0135032DEADC002403
:102D6000F8E70025F9E700BF7C0F0020780F00206E
:102D700038B50446164B03CBC4F80001C4F804115F
:102D80002046FFF73DFF054650B994F88830DBB97F
:102D9000B4F88C3043F08003A4F88C30284638BD5A
:102DA000022004F0CBFC94F888304BB9B4F88C3096
:102DB00023F08003A4F88C30022384F82531EDE75A
:102DC000002384F88930F1E7012384F88930DFE7B4
:102DD0000000002038B5002510E00B4B1B6853F8AD
:102DE00025304FF4947000FB0430FFF7C1FF022040
:102DF00004F0A4FC0134022CEFDD0135032D01DCCD
:102E00000024F8E738BD00BF780F002010B5044655
:102E10000B4B03CBC4F80001C4F804112046FFF7A4
:102E2000EFFE30B1B4F88C3023F48073A4F88C300A
:102E300010BDB4F88C3043F48073A4F88C30F7E7FD
:102E4000100000202DE9F04107460C4615461E46AD
:102E5000DFF8608100224FF40051404601F092FEFD
:102E600000224FF48051404601F08CFE00224FF4C6
:102E70008041404601F086FE00224FF4004140466A
:102E800001F080FEF81E032826D8DFE800F00227B4
:102E90004B6F00224FF40051464801F073FE0027AB
:102EA00014E0DFF8108101224FF40051404601F098
:102EB00069FE284604F042FC00224FF400514046CF
:102EC00001F060FE304604F039FC0137A742E8DB30
:102ED0004FF47A7004F032FCBDE8F08100224FF428
:102EE0008051344801F04EFE002714E0DFF8C48022
:102EF00001224FF48051404601F044FE284604F080
:102F00001DFC00224FF48051404601F03BFE30464C
:102F100004F014FC0137A742E8DB4FF47A7004F0A8
:102F20000DFCD9E700224FF48041224801F02AFE2F
:102F3000002714E0DFF87C8001224FF480414046F6
:102F400001F020FE284604F0F9FB00224FF48041F6
:102F5000404601F017FE304604F0F0FB0137A7426F
:102F6000E8DB4FF47A7004F0E9FBB5E700224FF498
:102F70000041104801F006FE002714E0DFF834801D
:102F800001224FF40041404601F0FCFD284604F0C8
:102F9000D5FB00224FF40041404601F0F3FD3046DE
:102FA00004F0CCFB0137A742E8DB4FF47A7004F061
:102FB000C5FB91E7000C024008B57EE1C8231A4624
:102FC00001210320FFF73EFF20E0C8231A4602211B
:102FD0000320FFF737FF19E0C8231A4603210846EC
:102FE000FFF730FF12E0A94C00224FF400512046B9
:102FF00001F0C8FD642004F0A1FB01224FF4005150
:10300000204601F0BFFD642004F098FBA04B93F82C
:103010002030DBB2052B40F03D819C4C00224FF468
:103020000051204601F0AEFD00224FF480512046B1
:1030300001F0A8FD00224FF48041204601F0A2FDDE
:1030400000224FF40041204601F09CFD4FF4FA703D
:1030500004F074FB8E4B5B6A13F0010F06D0C8239B
:103060001A4601210520FFF7EDFE26E1884B5B6A39
:1030700013F0020F7DD1864B5B6A13F4001F7FD1E2
:10308000834B5B6A13F0040F40F08180804B5B6AD6
:1030900013F0080F40F082807D4B5B6A13F0100F35
:1030A00040F083807A4B5B6A13F0200F40F08480FD
:1030B000774B5B6A13F0400F40F08580744B5B6A7E
:1030C00013F0800F40F08680714B5B6A13F4807FB1
:1030D00040F087806E4B5B6A13F4007F40F088807D
:1030E0006B4B5B6A13F4806F40F08980684B5B6ABE
:1030F00013F4006F40F08A80654B5B6A13F4805FC5
:1031000040F08B80624B5B6A13F4005F40F08C8070
:103110005F4B5B6A13F4804F40F08D805C4B5B6AC1
:1031200013F4004F40F08E80594B5B6A13F4803FDC
:1031300040F08F80564B5B6A13F4003F40F0908064
:10314000534B5B6A13F4802F40F09180504B5B6AC5
:1031500013F4002F40F092804D4B5B6A13F4801FF4
:1031600000F0AB80C8231A4616210520FFF76AFE3F
:10317000A3E0C8231A4602210520FFF763FE9CE066
:10318000C8231A4603210520FFF75CFE95E0C823FB
:103190001A4604210520FFF755FE8EE0C8231A4683
:1031A00005210846FFF74EFE87E0C8231A46062190
:1031B0000520FFF747FE80E0C8231A4607210520B7
:1031C000FFF740FE79E0C8231A4608210520FFF7E3
:1031D00039FE72E0C8231A4609210520FFF732FEA6
:1031E0006BE0C8231A460A210520FFF72BFE64E096
:1031F000C8231A460B210520FFF724FE5DE0C823F3
:103200001A460C210520FFF71DFE56E0C8231A467A
:103210000D210520FFF716FE4FE0C8231A460E21A8
:103220000520FFF70FFE48E0C8231A460F210520AE
:10323000FFF708FE41E0C8231A4610210520FFF7DA
:1032400001FE3AE0C8231A4611210520FFF7FAFDD6
:1032500033E0C8231A4612210520FFF7F3FD2CE0C6
:10326000C8231A4613210520FFF7ECFD25E0C823EB
:103270001A4614210520FFF7E5FD1EE0C8231A4673
:1032800015210520FFF7DEFD17E000BF000C02400E
:10329000045E0020274C00224FF48041204601F0BC
:1032A00071FC642004F04AFA01224FF48041204668
:1032B00001F068FC642004F041FA1F4B93F84C3095
:1032C000032B3FF490AE1B4C00224FF400512046DC
:1032D00001F058FC00224FF48051204601F052FCCE
:1032E00000224FF48041204601F04CFC00224FF4B4
:1032F0000041204601F046FC4FF4FA7004F01EFA3B
:103300000D4B93F84E3013F0010F7FF457AE13F0CE
:10331000020F7FF45AAE13F0040F7FF45DAE13F08A
:10332000080F3FF473AEC8231A4604210320FFF7A9
:1033300089FD6BE6000C02401C04002008B5026801
:10334000034B9A4200D008BD01F0FAFEFBE700BF34
:103350000000014072B6FEE700B595B030220021B2
:1033600008A805F011F8002303930493059306932E
:1033700007930193214A116C41F080511164126C42
:1033800002F080520192019A02931D4B1A6842F496
:1033900080421A601B6803F480430293029B01235E
:1033A00008934FF48033099302230E934FF4800265
:1033B0000F92082210924FF4A872119212930723D1
:1033C000139308A800F092FF98B90F2303930223E8
:1033D0000493002305934FF4A05306934FF48053B6
:1033E0000793052103A801F0E7F920B915B05DF8AE
:1033F00004FBFFF7AFFFFFF7ADFF00BF003802404F
:103400000070004008B501F081FEFFF7A5FF00F055
:1034100019F800F085F900F0A5F900F0F9F900F0CD
:103420004DFA00F0E7FA00F025F9054800F0D6FC67
:1034300004F0F8F800F002F904F006F9FEE700BF26
:10344000045E00202DE9F04F8DB00024079408940D
:1034500009940A940B9401946C4B1A6B42F010027D
:103460001A631A6B02F010020192019A02941A6B0D
:1034700042F004021A631A6B02F004020292029AEA
:1034800003941A6B42F080021A631A6B02F08002F6
:103490000392039A04941A6B42F001021A631A6BA6
:1034A00002F001020492049A05941A6B42F002029F
:1034B0001A631A6B02F002020592059A06941A6BBF
:1034C00042F008021A631B6B03F008030693069B85
:1034D000DFF8449122460821484601F053FBDFF80B
:1034E0003C8101221146404601F04CFBDFF830A13F
:1034F00022464FF21001504601F044FB0825079583
:103500000126089609940A9407A9484601F048FA4A
:103510000796089609940A9407A9404601F040FAD4
:1035200007950225089509940A944FF0050BCDF8EC
:103530002CB007A9404601F033FA07964FF49013D8
:1035400008930994324F07A9384601F029FA10234D
:103550000793089509940A9406230B9307A9384604
:1035600001F01EFA042307930894099407A9294837
:1035700001F016FA4FF480630793089509940A94B2
:10358000CDF82CB007A9234801F00AFA4FF2100336
:103590000793089609940A9407A9504601F000FA87
:1035A0004FF4A4530793089509940A9406230B93A8
:1035B00007A9404601F0F4F94FF40073079308940B
:1035C000099407A9384601F0EBF94FF4E05307934B
:1035D000089509940A940A230B9307A9384601F029
:1035E000DFF9202307930894099407A9504601F0B6
:1035F000D7F907954FF490130893099407A9484603
:1036000001F0CEF90DB0BDE8F08F00BF00380240E8
:103610000000024000040240001002400008024086
:10362000000C024008B50248FEF7EAF808BD00BFEA
:10363000985F002008B5FFF7BFFC08BD08B5074A32
:103640000021074804F01CF8064B1860064A0021C8
:10365000064804F015F8064B186008BDB8230208A8
:1036600025360008FC5D0020DC2302083536000802
:10367000005E002008B50D480D4B03600323436036
:1036800000238360C3604FF4A02202614FF4C002A4
:103690004261037643768376C3760377437700F0FF
:1036A0005BFA00B908BDFFF755FEFBE7045E00209A
:1036B0000064004000B589B0002303930493059390
:1036C000069307930268144B9A4202D009B05DF842
:1036D00004FB0021019103F5EA331A6C42F00072F9
:1036E0001A641A6C02F000720192019A02911A6B2C
:1036F00042F008021A631B6B03F008030293029B5B
:10370000032303930222049206930923079303A938
:10371000024801F045F9D9E700640040000C02407E
:1037200010B582B0002401940D4B1A6B42F40012C4
:103730001A631B6B03F400130193019B22460521BE
:10374000102001F09DFC102001F0D2FC2246052142
:10375000112001F095FC112001F0CAFC02B010BD4F
:103760000038024008B50B480B4B03600B4B43601D
:1037700000238360C3604FF4804202614361836130
:10378000C361036201F0EEFC00B908BDFFF7E2FD82
:10379000FBE700BF2C5E002000540040A086010023
:1037A00030B589B0002303930493059306930793E0
:1037B0000268144B9A4201D009B030BD0025019532
:1037C000114C236B43F002032363236B03F00203CA
:1037D0000193019B4FF4107303931223049301236D
:1037E00005930423079303A9084801F0D9F802952B
:1037F000236C43F400132364236C03F4001302933B
:10380000029BD9E700540040003802400004024007
:1038100008B50D480D4B03604FF4827343600023DD
:103820008360C360036143614FF400728261C361CE
:103830000362436283620A23C36201F071FD00B92F
:1038400008BDFFF787FDFBE7805E002000300140E8
:1038500000B589B00023039304930593069307935F
:103860000268144B9A4202D009B05DF804FB0021B3
:10387000019103F584335A6C42F480525A645A6CB5
:1038800002F480520192019A02911A6B42F00102F5
:103890001A631B6B03F001030293029BE023039363
:1038A000022304930523079303A9034801F078F842
:1038B000DAE700BF003001400000024008B50A48C6
:1038C0000A4B03604FF46123436000238360C360AD
:1038D00003610C2242618361C36102F00FF800B9F9
:1038E00008BDFFF737FDFBE7985F0020004400406C
:1038F00030B589B00023039304930593069307938F
:103900000268364B9A4201D009B030BD044600250A
:10391000019503F5FA331A6C42F400321A641A6CFA
:1039200002F400320192019A02951A6B42F00102F0
:103930001A631B6B03F001030293029B0C23039396
:1039400002230493032306930723079303A9244820
:1039500001F026F82348244B03604FF000634360D6
:103960008560C5604FF480630361456185614FF4F4
:103970008073C3614FF440330362456201F088F9FC
:1039800028BB184BA3639C631848194B03604FF086
:1039900000634360402383600023C3604FF4806270
:1039A000026143618361C3614FF44032026243624A
:1039B00001F06EF970B90D4B63639C630022052121
:1039C000262001F05DFB262001F092FB9CE7FFF72B
:1039D000C1FCD6E7FFF7BEFCEDE700BF00440040A6
:1039E00000000240D85E002088600240385F00205E
:1039F000A06002407047FEE7FEE7FEE7FEE7FEE755
:103A00007047000008B5024801F03AFA08BD00BF4F
:103A1000D85E002008B5024801F032FA08BD00BFA8
:103A2000385F002008B5024800F03AFB08BD00BF2F
:103A3000045E002008B5024801F01AFD08BD00BF71
:103A400038A9002008B5024802F0FCF808BD00BF04
:103A5000985F002000B583B0002200920D4B596C96
:103A600041F480415964596C01F4804100910099FE
:103A70000192196C41F0805119641B6C03F0805362
:103A80000193019B0F216FF0010001F0F9FA03B0DF
:103A90005DF804FB003802400120704708B504F0CF
:103AA0002BFC162303604FF0FF3008BD08B54FF024
:103AB000FF31FFF7F3FFFEE770B50C461646002511
:103AC00006E0AFF30080214601F8010B01350C46FA
:103AD000B542F6DB304670BD70B50C461646002583
:103AE00004E014F8010BAFF300800135B542F8DBB8
:103AF000304670BD08B503460D4A12685AB10C4AEB
:103B0000106803440B4A11780B4A521A934206D8A4
:103B1000074A136008BD064A08491160EFE700BE76
:103B200004F0EAFB0C2303604FF0FF30F2E700BF24
:103B3000E05F002000040000000002207846012021
:103B40004FF0FF3070474FF400534B600020704738
:103B50000120704700207047002800F0A18038B590
:103B6000044690F82030D3B12268136843F0010373
:103B7000136001F0F1FA054623685A6812F0010F4C
:103B800010D101F0E9FA401B0A28F5D9636A43F421
:103B900000336362052384F82030012038BDFFF72D
:103BA00089FDE1E71A6822F002021A6001F0D4FAF6
:103BB000054623685A6812F0020F0DD001F0CCFAC6
:103BC000401B0A28F5D9636A43F400336362052376
:103BD00084F820300120E1E7227E012A3DD01A68D6
:103BE00022F080021A60637E012B3BD022681368AA
:103BF00023F040031360A37E012B39D022681368A1
:103C000023F020031360E37E012B37D02268136872
:103C100043F010031360237F012B35D02268136813
:103C200023F008031360637F012B33D022681368ED
:103C300023F004031360A368E2681343226913436B
:103C4000626913436268013A21681343CB61002023
:103C50006062012384F82030A0E71A6842F08002F5
:103C60001A60C0E72268136843F040031360C2E79C
:103C70002268136843F020031360C4E722681368C6
:103C800023F010031360C6E72268136843F00803AB
:103C90001360C8E72268136843F004031360CAE79F
:103CA0000120704790F82030013BDBB2012B05D991
:103CB000436A43F4802343620120704730B5464B8A
:103CC000D3F8002242F00102C3F80022D3F8002208
:103CD00022F47C52C3F80022D3F80022486A42EA58
:103CE0000022C3F800224A6902F01F02012000FAF4
:103CF00002F2D3F81C026FEA020C20EA0200C3F8B9
:103D00001C02CB69C3B9344BD3F80C020CEA000097
:103D1000C3F80C028C884869CD6844EA05444830F1
:103D200043F830408C68088840EA04404C6904F14C
:103D3000480E03EBCE035860CB69012B1ED08B6974
:103D4000002B33D12448D0F804320CEA0303C0F826
:103D500004320B698BBB2048D0F814320CEA030301
:103D6000C0F814320B6A012B2ED01B4AD2F8003255
:103D700023F00103C2F80032002030BD164BD3F807
:103D80000C021043C3F80C028C8848690D6844EAA1
:103D90000544483043F8304088894C698D6840EAD2
:103DA0000540483403EBC4035860C8E70A48D0F81C
:103DB00004321343C0F80432CBE70748D0F814327A
:103DC0001343C0F81432CDE70349D1F81C321A432B
:103DD000C1F81C22C9E700BF0064004070B504466A
:103DE00090F82050EDB2012D06D0436A43F4002331
:103DF00043620125284670BD022380F82030026806
:103E0000136823F00103136001F0A6F90646236846
:103E10005B6813F0010F0CD001F09EF9831B0A2B95
:103E2000F5D9636A43F400336362052384F82030D4
:103E3000E0E700256562DDE730B590F820C0046852
:103E4000A4680CF1FF3C5FFA8CFCBCF1010F6BD84D
:103E500014F0E05F62D0C4F3016CBCF1020F05D92D
:103E6000436A43F400034362012062E0012404FA40
:103E70000CF41C608B68002B3DD10D68CB68046886
:103E800043EA45550CF118031B01E55003680C6922
:103E90000CF1180E03EB0E135C600B7D012B35D07B
:103EA000D17993791B0443EA0163517943EA0123F1
:103EB00014790168234301EB0C11C1F88C31D178DE
:103EC00093781B0443EA0163517843EA0123117894
:103ED00002680B4302EB0C12C2F8883102680CF145
:103EE000180C4FEA0C1C52F80C3043F0010342F856
:103EF0000C3000201DE04C6843EAC403CC68234327
:103F00000CF11804240105682B51BFE7036803EB8B
:103F10000E13596841F480715960C1E7436A43F454
:103F200000134362012004E0436A43F480234362A8
:103F3000012030BD90F820C00CF1FF3C5FFA8CFCF2
:103F4000BCF1010F00F2998030B451B90468E46803
:103F500014F0030F10D1436A43F4001343620120AD
:103F60007BE00468246914F0030F05D1436A43F42D
:103F700000134362012070E001F11B042401056875
:103F80002C5904F004049460002C68D101F11B0446
:103F9000240105682C59640D1460046801F11B0CA0
:103FA0004FEA0C1C54F80C4004F00204D46004687E
:103FB0006444646804F00F04146104686444646831
:103FC000C4F307249461046864446468240C546155
:103FD000026802EB0112D2F8B8211A70026802EBF3
:103FE0000112D2F8B821C2F307225A70026802EB1C
:103FF0000112D2F8B821C2F307429A70026802EBAC
:104000000112D2F8B821120EDA70026802EB011226
:10401000D2F8BC211A71026802EB0112D2F8BC215D
:10402000C2F307225A71026802EB0112D2F8BC21D6
:10403000C2F307429A71026802EB0112D2F8BC2166
:10404000120EDA7199B90268D36843F02003D36085
:10405000436A23F400134362002030BC704701F12F
:104060001B04240105682C59E408546095E7026894
:10407000136943F020031361EAE7436A43F48023A2
:104080004362012070477047704770477047704720
:104090007047704770477047704770477047704768
:1040A0002DE9F84F054603685C69D3F804809F68E2
:1040B000D3F80CB0D3F810A0D3F8189014F0010680
:1040C0003BD017F0010616D001229A6017F0020FBC
:1040D00008D117F0040F0CD117F0080606D04FF4E2
:1040E000805608E0FFF7CFFF002604E0FFF7CEFF81
:1040F00001E04FF4006617F4807F0DD02B684FF479
:1041000080729A6017F4007F40F0868017F4806F09
:1041100000F0868046F4005617F4803F0DD02B68DF
:104120004FF480329A6017F4003F40F0838017F418
:10413000802F00F0838046F4004614F0080F07D06B
:104140001BF0100F04D046F400762B681022DA60C2
:1041500014F0040F02D01BF0080F79D114F0020FF5
:1041600004D02B68DB6813F0030F78D114F0400FF4
:1041700007D01AF0100F04D046F480662B68102286
:104180001A6114F0200F02D01AF0080F6BD114F04E
:10419000100F04D02B681B6913F0030F6AD114F4BD
:1041A000003F02D018F0100F68D114F4803F02D005
:1041B00018F0080F69D114F4004F7AD018F0040FEA
:1041C00074D014F4807F04D019F0010F01D046F0B0
:1041D000010614F4007F04D019F0020F01D046F05C
:1041E000020614F4806F04D019F0040F01D046F0D9
:1041F000040614F4006F59D019F0700956D0B9F1C3
:10420000400F65D058D8B9F1200F5ED0B9F1300F0A
:1042100042D146F0200644E02846FFF735FF7BE711
:1042200017F4006F02D046F4804675E72846FFF782
:104230002EFF71E72846FFF728FF7EE717F4002FCF
:1042400002D046F4803678E72846FFF721FF74E76E
:104250002B680822DA602846FFF71CFF7EE7284615
:10426000FFF717FF82E72B6808221A612846FFF73D
:1042700013FF8CE72846FFF70EFF90E72B6810220C
:104280005A602846FFF709FF8FE72B6808225A601B
:104290002846FFF703FF8EE7B9F1100F01D146F072
:1042A00008062A68936923F0700393612B6804223F
:1042B0005A609EB9BDE8F88FB9F1500F0BD0B9F133
:1042C000600FEED146F48076EBE746F01006E8E7A3
:1042D00046F04006E5E746F08006E2E76B6A1E43DB
:1042E0006E622846FFF7DBFEE4E70000002800F0DE
:1042F000E08170B582B00446036813F0010F3BD033
:104300009F4B9B6803F00C03042B2CD09C4B9B68A9
:1043100003F00C03082B21D06368B3F5803F4FD026
:10432000B3F5A02F52D0964B1A6822F480321A604F
:104330001A6822F480221A606368002B50D000F0C3
:104340000BFF05468E4B1B6813F4003F14D100F0A1
:1043500003FF401B6428F5D90320B1E1884B5B685B
:1043600013F4800FD8D0864B1B6813F4003F03D0A2
:104370006368002B00F09F81236813F0020F54D074
:104380007F4B9B6813F00C0F3ED07D4B9B6803F076
:104390000C03082B33D0E368002B68D0794B012243
:1043A0001A6000F0D9FE0546754B1B6813F0020F2A
:1043B00054D100F0D1FE401B0228F5D903207FE143
:1043C0006F4A136843F480331360B5E76C4B1A6887
:1043D00042F480221A601A6842F480321A60ABE715
:1043E00000F0BAFE0546664B1B6813F4003FC3D0CD
:1043F00000F0B2FE401B6428F5D9032060E1604B59
:104400005B6813F4800FC6D15D4B1B6813F0020F7D
:1044100003D0E368012B40F05081594A136823F020
:10442000F803216943EAC1031360236813F0080FFE
:1044300042D063696BB3534B0122C3F8802E00F066
:104440008BFE05464E4B5B6F13F0020F34D100F02C
:1044500083FE401B0228F5D9032031E1484A136846
:1044600023F0F803216943EAC1031360DDE7454BFC
:1044700000221A6000F070FE0546414B1B6813F0E5
:10448000020FD2D000F068FE401B0228F5D90320AD
:1044900016E13C4B0022C3F8802E00F05DFE05467D
:1044A000374B5B6F13F0020F06D000F055FE401B38
:1044B0000228F5D9032003E1236813F0040F77D015
:1044C0002F4B1B6C13F0805F33D1002301932C4BD7
:1044D0001A6C42F080521A641B6C03F080530193F3
:1044E000019B0125284B1B6813F4807F23D0A36810
:1044F000012B34D0052B38D0214B1A6F22F001024A
:104500001A671A6F22F004021A67A368002B3DD0C5
:1045100000F022FE06461A4B1B6F13F0020F46D125
:1045200000F01AFE801B41F288339842F3D9032031
:10453000C6E00025D6E7144A136843F4807313607D
:1045400000F00AFE0646104B1B6813F4807FCED1A4
:1045500000F002FE801B0228F5D90320B0E0084AD3
:10456000136F43F001031367CFE7054B1A6F42F057
:1045700004021A671A6F42F001021A67C5E700BF0A
:1045800000380240000047420070004000F0E4FDA7
:104590000646524B1B6F13F0020F08D000F0DCFDF3
:1045A000801B41F288339842F3D9032088E0EDB9AB
:1045B000A369002B00F08380484A926802F00C0245
:1045C000082A51D0022B17D0454B00221A6600F062
:1045D000C3FD0446414B1B6813F0007F42D000F03E
:1045E000BBFD001B0228F5D9032069E03B4A136C90
:1045F00023F080531364DBE7394B00221A6600F086
:10460000ABFD0546354B1B6813F0007F06D000F06C
:10461000A3FD401B0228F5D9032051E0E369226A7B
:104620001343626A43EA8213A26A5208013A43EAD8
:104630000243E26A43EA0263284A5360284B01229C
:104640001A6600F089FD0446244B1B6813F0007FB6
:1046500006D100F081FD001B0228F5D903202FE0D0
:1046600000202DE000202BE0012B2BD01B4B5B68A2
:1046700003F48001E269914226D103F03F02216AEE
:104680008A4223D1616A47F6C0721A40B2EB811F99
:104690001ED103F44031A26A5208013AB1EB024F35
:1046A00018D103F07063E26AB3EB026F14D10020FB
:1046B00006E001207047012002E0012000E0002018
:1046C00002B070BD0120FBE70120F9E70120F7E708
:1046D0000120F5E70120F3E70120F1E7003802406F
:1046E0000000474208B5314B9B6803F00C03042BD4
:1046F00057D0082B57D12D4B5A6802F03F025B6808
:1047000013F4800F2AD0294B5968C1F3881C4FEA53
:104710004C11B1EB0C006EEB0E0E4FEA8E1343EA18
:1047200090638101091A63EB0E03DB0043EA5173C6
:10473000C90011EB0C0C43F10003590200234FEAAE
:104740004C2041EADC51FBF773FE184B5B68C3F366
:10475000014301335B00B0FBF3F025E0134B5968D4
:10476000C1F3881C4FEA4C11B1EB0C006EEB0E0E3E
:104770004FEA8E1343EA90638101091A63EB0E033B
:10478000DB0043EA5173C90011EB0C0C43F1000349
:10479000990200234FEA8C2041EA9C51FBF748FE26
:1047A000D3E7034800E0034808BD00BF00380240DB
:1047B00000127A000024F400002800F09B8070B5FD
:1047C0000D4604464F4B1B6803F007038B4208D28B
:1047D000CBB24C4A1370136803F007038B4240F0CE
:1047E0008B80236813F0020F17D013F0040F04D04E
:1047F000454A936843F4E0539360236813F0080F2D
:1048000004D0414A936843F4604393603E4A9368FE
:1048100023F0F003A1680B439360236813F0010FAA
:1048200032D06368012B21D09A1E012A25D9364A3D
:10483000126812F0020F61D033498A6822F0030235
:1048400013438B6000F088FC06462F4B9B6803F0F7
:104850000C036268B3EB820F16D000F07DFC801B66
:1048600041F288339842F0D9032042E0264A126888
:1048700012F4003FE0D101203BE0234A126812F01D
:10488000007FD9D1012034E01E4B1B6803F00703E1
:10489000AB4207D9EAB21B4B1A701B6803F007033F
:1048A000AB422DD1236813F0040F06D0164A93684B
:1048B00023F4E053E1680B439360236813F0080F7F
:1048C00007D0114A936823F46043216943EAC10386
:1048D0009360FFF707FF0C4B9B68C3F303130B4A6E
:1048E000D35CD8400A4B18600A4B186803F026FACC
:1048F000002070BD012070470120FAE70120F8E791
:104900000120F6E7003C024000380240082402087B
:104910002400002020000020014B1868704700BFD1
:104920002400002008B5FFF7F7FF044B9B68C3F392
:104930008223034AD35CD84008BD00BF0038024040
:104940001824020808B5FFF7E7FF044B9B68C3F380
:104950004233034AD35CD84008BD00BF0038024050
:10496000182402080F2303600B4B9A6802F003021D
:1049700042609A6802F0F00282609A6802F4E052A3
:10498000C2609B68DB0803F4E0530361034B1B68C0
:1049900003F007030B60704700380240003C024000
:1049A00000230F2B00F2E48070B582B060E08568D0
:1049B0005E000324B44025EA0405CC68B4402C43CF
:1049C0008460456825EA02054C68C4F300129A40E9
:1049D0002A4342605AE0DC08083450F8246003F0AF
:1049E000070295000F22AA4026EA020E0A69AA4091
:1049F00042EA0E0240F824205CE0072200E0002298
:104A000002FA0EF22A4302345A4D45F824205A4A3B
:104A100094686FEA0C0224EA0C054E6816F4801FB5
:104A200001D04CEA0405544CA560E46802EA040590
:104A30004E6816F4001F01D04CEA04054E4CE560A8
:104A4000646802EA04054E6816F4003F01D04CEA9F
:104A50000405494C6560246822404D6815F4803F88
:104A600001D04CEA0402444C226001330F2B7DD864
:104A700001229A400C6804EA020C32EA0404F4D1E0
:104A80004C6804F00304013C012C90D94A6802F000
:104A90000302032A09D0C4685D000322AA4024EA65
:104AA00002048A68AA402243C2604A6802F00302F4
:104AB000022A90D004684FEA430E032202FA0EF253
:104AC00024EA02044A6802F0030202FA0EF22243C8
:104AD00002604A6812F4403FC7D000220192274A80
:104AE000546C44F480445464526C02F48042019249
:104AF000019A9C08A51C1F4A52F8255003F0030296
:104B00004FEA820E0F2202FA0EF225EA02051C4A33
:104B100090423FF474AF02F5806290421AD002F5E1
:104B20008062904218D002F58062904216D002F561
:104B30008062904214D002F58062904212D002F559
:104B40008062904210D002F5806290423FF455AFEF
:104B5000082255E7012253E7022251E703224FE7DB
:104B600004224DE705224BE7062249E702B070BD5B
:104B7000704700BF00380140003C0140003802404F
:104B8000000002400AB181617047090481617047E9
:104B900030B405682C6824F480242C6004686360B9
:104BA0008368402B05D0036899600368DA6030BCE5
:104BB000704703689A600368D960F8E710B4036827
:104BC000D9B210390C4AA2FB014212090B4CA25C6B
:104BD000C2655F2909D923F47F7323F003030433EB
:104BE0008365806D5DF8044B704723F47F7323F079
:104BF00003038365F5E700BFABAAAAAA0024020855
:104C0000836A826992B9012B0AD0022B02D00BB1C0
:104C100000207047C36A13F0807F28D100207047BE
:104C2000C36AB3F1C07F24D000207047B2F5005FA3
:104C300009D0022B25D9032B25D1C36A13F0807F1D
:104C400023D100207047032B03D8DFE803F01404BE
:104C5000140A00207047C36A13F0807F0DD1002032
:104C60007047C36AB3F1C07F09D0002070470120AC
:104C700070470120704701207047012070470120D4
:104C800070470120704700207047012070470000E6
:104C900070B5044600F060FA002C5BD00546022394
:104CA00084F83530002384F834302268136823F008
:104CB0000103136023681A6812F0010F0AD000F094
:104CC0004BFA431B052BF5D920236365032084F899
:104CD000350070BD1A68204810406168A2680A4318
:104CE000E1680A4321690A4361690A43A1690A43E9
:104CF000E1690A43216A0A430243616A04291ED01A
:104D00001A602668756925F00705636A1D43042B40
:104D100007D1A36A1D43E36A1BB12046FFF770FF6A
:104D200090B975612046FFF749FFE26D3F2393403C
:104D3000836000206065012384F83530C9E7E16AAB
:104D4000206B01430A43DBE740236365012084F8BD
:104D50003500BEE70120BCE73F8010F038B50446BF
:104D6000856D90F8340001282BD0012084F83400A0
:104D700094F83500C0B2012804D0002384F8343000
:104D8000022038BD022084F83500002060652046EE
:104D9000FFF7FEFEE26D3F239340AB60226813688D
:104DA00043F016031360236C23B12268136843F0A9
:104DB000080313602268136843F0010313600020A6
:104DC000DFE70220DDE770B50446866D00F0C4F928
:104DD00094F83530DBB2022B06D0802363650023C4
:104DE00084F83430012070BD05462268136823F032
:104DF000160313602268536923F080035361236C08
:104E0000E3B12268136823F0080313602268136873
:104E100023F00103136023681B6813F0010F11D006
:104E200000F09AF9431B052BF5D920236365032075
:104E300084F83500002384F83430D4E7A36C002BC9
:104E4000DFD1E3E7E26D3F239340B360012384F8B1
:104E50003530002084F83400C5E790F83530DBB2F7
:104E6000022B03D08023436501207047052380F87F
:104E700035300268136823F0010313600020704787
:104E8000F0B583B0044600230193724B1D68724B4A
:104E9000A3FB0535AD0A876D3E68C26D08239340BC
:104EA000334210D003681A6812F0040F0BD01A684E
:104EB00022F004021A60C26D08239340BB60436D68
:104EC00043F001034365E26D01239340334209D06F
:104ED0002268526912F0800F04D0BB60636D43F00A
:104EE00002036365E26D04239340334209D02268D4
:104EF000126812F0020F04D0BB60636D43F004032C
:104F00006365E26D10239340334224D02268126817
:104F100012F0080F1FD0BB6023681A6812F4802FAC
:104F20000DD01B6813F4002F04D1236C9BB12046D5
:104F3000984710E0A36C73B1204698470BE01A68BD
:104F400012F4807F03D11A6822F008021A60236CE1
:104F50000BB120469847E26D20239340334255D051
:104F60002268126812F0100F50D0BB6094F83530F0
:104F7000DBB2052B0ED023681A6812F4802F33D0D1
:104F80001B6813F4002F2AD1636C002B3ED02046FF
:104F900098473BE02268136823F0160313602268E9
:104FA000536923F080035361236CA3B12268136813
:104FB00023F008031360E26D3F239340BB6001239D
:104FC00084F83530002384F83430236D002B3FD033
:104FD000204698473CE0A36C002BE7D1EBE7E36B5E
:104FE000A3B12046984711E01A6812F4807F09D1D6
:104FF0001A6822F010021A60012384F83530002369
:1050000084F83430E36B0BB120469847636DFBB1F5
:10501000636D13F0010F17D0052384F83530226833
:10502000136823F001031360019B01330193AB422A
:1050300004D823681B6813F0010FF5D1012384F80D
:105040003530002384F83430E36C0BB120469847A8
:1050500003B0F0BD24000020B5814E1B074AD36881
:1050600023F4E0631B041B0C000200F4E060034324
:1050700043F0BF6343F40033D360704700ED00E0BA
:1050800000B5194BDB68C3F30223C3F1070CBCF175
:10509000040F28BF4FF0040C03F1040EBEF1060FFD
:1050A00018D9033B4FF0FF3E0EFA0CFC21EA0C012D
:1050B00099400EFA03F322EA0303194300280BDB9D
:1050C0000901C9B200F1604000F5614080F80013A9
:1050D0005DF804FB0023E5E700F00F000901C9B209
:1050E000024B1954F4E700BF00ED00E014ED00E0BE
:1050F000002807DB00F01F02400901239340024A09
:1051000042F82030704700BF00E100E008B50B4BCB
:105110001A6842F400721A601A6842F480621A60D7
:105120001A6842F480721A600320FFF797FF0F207D
:1051300002F004FEFEF78EFC002008BD003C024099
:10514000034A1168034B1B780B441360704700BF80
:10515000E45F00201C000020014B1868704700BF6E
:10516000E45F0020002800F0CC8070B5044690F881
:105170003D30002B77D0242384F83D30226813681B
:1051800023F0010313602268136843F400431360A3
:105190002268136823F400431360FFF7C3FB6268BF
:1051A0005A4B9A4264D85A4B98428CBF0023012331
:1051B000002B40F0A8805749A1FB00318B0C2568DB
:1051C0006A6822F03F0242EA91426A6021680A6AF4
:1051D00022F03F0266684D4DAE424FD80133134373
:1051E0000B622168CA6922F44F4222F0FF0266680E
:1051F000464B9E424CD8431E7600B3FBF6F3013378
:1052000040F6FC70034278D0C3F30B031343CB6129
:1052100021680B6823F0C003E269206A024313434C
:105220000B6021688B6823F4034323F0FF0322699A
:10523000E068024313438B602168CB6823F0FF03CF
:105240006269A06902431343CB602268136843F08C
:105250000103136000202064202384F83D30206384
:1052600084F83E0070BD80F83C30FEF799FA82E782
:10527000294B98428CBF0023012399E74FF4967580
:1052800005FB03F3254DA5FB03539B090133A6E75B
:10529000A368BBB9451E06EB460CB5FBFCF5013512
:1052A000C5F30B05B5FA85F56D0945BBC3B90138E2
:1052B00006EB4603B0FBF3F30133C3F30B0343F4F4
:1052C0000043A3E7451E06EB860C0CEB8C0CB5FBEC
:1052D000FCF50135C5F30B05B5FA85F56D09E4E775
:1052E000013806EB860303EB8303B0FBF3F30133D2
:1052F000C3F30B0343F4404388E7042386E7012309
:1053000084E7012070470120ACE700BFA0860100C0
:105310007F841E0083DE1B43FF083D00D34D6210D7
:1053200000285AD010B50446436A33B94368B3F530
:10533000827F05D00023C36102E000230361436143
:105340000023A36294F85130002B40D0022384F84C
:1053500051302268136823F040031360636803F43C
:105360008273A26802F404421343E26802F400620A
:105370001343226902F002021343626902F0010240
:105380001343A26902F400721343E26902F0380287
:105390001343226A02F080021343A26A02F400520D
:1053A000216813430B60638B03F00403626A02F00D
:1053B0001002216813434B602268D36923F4006311
:1053C000D36100206065012384F8513010BD84F85A
:1053D00050302046FEF73CFAB8E70120704770478E
:1053E00090F83D30DBB2012B37D1022380F83D30FD
:1053F0000268D36843F00103D3600368194A9342FB
:1054000020D0B3F1804F1DD0A2F57C42934219D039
:1054100002F58062934215D002F58062934211D06A
:1054200002F5784293420DD002F57052934209D0B2
:10543000A2F59432934205D01A6842F001021A6034
:10544000002070479A6802F00702062A07D01A68FF
:1054500042F001021A6000207047012070470020CE
:10546000704700BF000001407047704770477047A9
:1054700010B5044603681A6912F0020F11D0DA68F9
:1054800012F0020F0DD06FF002021A6101230377B0
:1054900003689B6913F0030F70D0FFF7E6FF00234A
:1054A000237723681A6912F0040F12D0DA6812F019
:1054B000040F0ED06FF004021A61022323772368D1
:1054C0009B6913F4407F5FD02046FFF7CEFF002397
:1054D000237723681A6912F0080F12D0DA6812F0E5
:1054E000080F0ED06FF008021A6104232377236897
:1054F000DB6913F0030F4ED02046FFF7B6FF002301
:10550000237723681A6912F0100F12D0DA6812F0AC
:10551000100F0ED06FF010021A6108232377236852
:10552000DB6913F4407F3DD02046FFF79EFF002348
:10553000237723681A6912F0010F03D0DA6812F09A
:10554000010F36D123681A6912F0800F03D0DA6890
:1055500012F0800F34D123681A6912F0400F03D083
:10556000DA6812F0400F32D123681A6912F0200F66
:1055700003D0DA6812F0200F30D110BDFFF774FFAE
:105580002046FFF773FF8AE72046FFF76DFF2046AE
:10559000FFF76CFF9BE72046FFF766FF2046FFF70B
:1055A00065FFACE72046FFF75FFF2046FFF75EFF91
:1055B000BDE76FF001021A612046FDF7BFFEC1E7AB
:1055C0006FF080021A61204600F0A1F8C3E76FF087
:1055D00040021A612046FFF74AFFC5E76FF020023C
:1055E0001A61204600F092F8C7E700000368304ACD
:1055F000904212D0B0F1804F0FD0A2F57C42904281
:105600000BD002F58062904207D002F58062904292
:1056100003D002F57842904203D123F070034A6828
:105620001343234A90422AD0B0F1804F27D0A2F5ED
:105630007C42904223D002F5806290421FD002F556
:10564000806290421BD002F57842904217D002F55A
:105650007052904213D002F5806290420FD002F552
:10566000806290420BD0A2F59832904207D002F5AA
:105670008062904203D002F58062904203D123F40D
:105680004073CA68134323F080034A6913430360DD
:105690008B68C3620B688362054B984203D003F5A5
:1056A0008063984201D10B69036301234361704712
:1056B0000000014040B310B5044690F83D30F3B10E
:1056C000022384F83D30214651F8040BFFF78EFF8A
:1056D000012384F8463084F83E3084F83F3084F863
:1056E000403084F8413084F8423084F8433084F804
:1056F000443084F8453084F83D30002010BD80F8F7
:105700003C30FFF76CFEDBE70120704770477047C5
:10571000026802F10C0353E8003F23F0C0030C328F
:1057200042E800310029F3D1202380F83D30704752
:10573000026802F10C0353E8003F23F490730C322B
:1057400042E800310029F3D1026802F1140353E862
:10575000003F23F00103143242E800310029F3D165
:10576000036B012B05D0202380F83E300023036318
:105770007047026802F10C0353E8003F23F0100366
:105780000C3242E800310029F3D1ECE790F83D30CB
:10579000DBB2212B01D0022070478368B3F5805F14
:1057A00017D0036A5A1C02621A7803685A60C38CC5
:1057B0009BB2013B9BB2C3844BB90268D36823F010
:1057C0008003D3600268D36843F04003D3600020B5
:1057D00070470369002BE4D1036A1B880268C3F396
:1057E00008035360036A02330362E0E738B50446F6
:1057F0000268136923F44053C1680B431361836843
:105800000269134342691343C2691A430168CB68B2
:1058100023F4164323F00C031343CB60026853694F
:1058200023F4407381690B4353610368314A934207
:1058300006D002F58062934202D0FFF773F801E0D0
:10584000FFF780F8E369B3F5004F29D00021031872
:1058500049411B1841F10001C90041EA5371DB00C5
:10586000181863684FEA83024FEA937341F100010D
:10587000FAF7DEFD204DA5FB00325109642303FB3E
:1058800011031B013233A5FB03235B0903F0F00274
:1058900002EB011203F00F03216813448B6038BD43
:1058A0000023021843EB0301121841F10001C90063
:1058B00041EA5271D200101841F100016268921859
:1058C0005B41FAF7B5FD0C4DA5FB0032510964238D
:1058D00003FB1103DB003233A5FB03235B095A00F2
:1058E00002F4F87202EB011203F00703216813447B
:1058F0008B60D4E7001001401F85EB5158B310B501
:10590000044690F83D300BB3242384F83D302268E0
:10591000D36823F40053D3602046FFF767FF226863
:10592000136923F4904313612268536923F02A0317
:1059300053612268D36843F40053D360002020648D
:10594000202384F83D3084F83E3010BD80F83C3090
:10595000FDF7CEFFD8E701207047000038B590F87A
:105960003D30DBB2202B38D10446002937D0002A45
:1059700037D090F83C30012B35D0012380F83C30F3
:1059800001628284C28400250564212380F83D30B1
:10599000436B1648D863636B15481864636B1548EE
:1059A000D864636B1D6520681346021D606BFFF7AA
:1059B000D5F923686FF040021A6084F83C502268E1
:1059C00002F1140353E8003F43F08003143242E82D
:1059D00000310029F3D1002000E0022038BD012071
:1059E000FCE70120FAE70220F8E700BF7F5A000831
:1059F000E75A0008F75A000810B5044603685A69C8
:105A000090F83D30DBB2212B0AD023685A6902F0AE
:105A1000400294F83E30DBB2222B19D0002010BD9A
:105A200002F08002002AF0D0226802F1140353E849
:105A3000003F23F08003143242E800310029F3D103
:105A4000606B08B1FFF7BFF92046FFF761FEDCE7A6
:105A5000002AE3D0226802F1140353E8003F23F048
:105A60004003143242E800310029F3D1A06B08B1A1
:105A7000FFF7A9F92046FFF75BFECFE7704708B5AF
:105A80000346806B1B681B6813F4807F1AD10023C8
:105A9000C384026802F1140353E8003F23F080033B
:105AA000143242E800310029F3D1026802F10C03FC
:105AB00053E8003F43F040030C3242E80031002934
:105AC000F3D108BDFFF7DAFFFBE708B50168CA6844
:105AD00022F04002CA60202280F83D20FFF7CEFF6E
