:020000040800F2
:1000000000000220E58B0008334300083543000858
:1000100037430008394300083B4300080000000054
:10002000000000000000000000000000B183000894
:100030003D4300080000000051840008477F00088D
:10004000358C0008358C0008358C0008358C00088C
:10005000358C0008358C0008358C0008358C00087C
:10006000358C0008358C0008358C0008358C00086C
:10007000358C0008358C0008358C0008358C00085C
:100080004143000851430008358C0008358C0008B6
:1000900061430008358C0008358C0008358C000859
:1000A000358C000871430008358C0008358C000839
:1000B000358C0008358C0008358C0008358C00081C
:1000C000358C0008358C0008358C0008358C00080C
:1000D000358C0008358C000881430008358C0008F9
:1000E000358C0008358C0008358C0008358C0008EC
:1000F000358C0008358C0008358C0008358C0008DC
:10010000358C0008358C0008358C0008358C0008CB
:10011000358C0008358C0008358C0008358C0008BB
:10012000358C0008358C0008358C0008358C0008AB
:10013000358C0008358C0008358C0008358C00089B
:10014000358C0008358C0008358C0008358C00088B
:10015000358C0008358C0008358C0008358C00087B
:10016000358C0008358C0008358C0008358C00086B
:10017000358C0008358C0008358C00080000000024
:08018000358C0008358C0008E5
:1001900010B5054C237833B9044B13B10448AFF3C1
:1001A00000800123237010BD2804002000000000FF
:1001B000B02F020808B5034B1BB103490348AFF346
:1001C000008008BD000000002C040020B02F0208B1
:1001D000034613F8012B002AFBD1181A0138704787
:1001E00001F0FF01102A2BDB10F0070F08D010F8E8
:1001F000013B013A8B422DD010F0070F42B3F6D1EC
:10020000F0B441EA012141EA014122F007047FF004
:1002100000070023F0E80256083C85EA010586EA5B
:10022000010685FA47F5A3FA87F586FA47F6A5FA97
:1002300087F68EB9EED1F0BC01F0FF0102F00702A3
:1002400032B110F8013B013A83EA010313B1F8D14E
:100250000020704701387047002D06BF354603382F
:10026000073815F0010F07D1013015F4807F02BF68
:10027000013015F4C03F0130F0BC0138704700BFB9
:1002800081F0004102E000BF83F0004330B54FEA47
:1002900041044FEA430594EA050F08BF90EA020FB4
:1002A0001FBF54EA000C55EA020C7FEA645C7FEA47
:1002B000655C00F0E2804FEA5454D4EB5555B8BF6A
:1002C0006D420CDD2C4480EA020281EA030382EADB
:1002D000000083EA010180EA020281EA0303362D6D
:1002E00088BF30BD11F0004F4FEA01314FF4801C40
:1002F0004CEA113102D0404261EB410113F0004F52
:100300004FEA03334CEA133302D0524263EB430308
:1003100094EA050F00F0A780A4F10104D5F1200EA6
:100320000DDB02FA0EFC22FA05F2801841F1000101
:1003300003FA0EF2801843FA05F359410EE0A5F1D5
:1003400020050EF1200E012A03FA0EFC28BF4CF006
:10035000020C43FA05F3C01851EBE37101F00045BC
:1003600007D54FF0000EDCF1000C7EEB00006EEBC9
:100370000101B1F5801F1BD3B1F5001F0CD3490853
:100380005FEA30004FEA3C0C04F101044FEA4452AA
:1003900012F5800F80F09A80BCF1004F08BF5FEA31
:1003A000500C50F1000041EB045141EA050130BD11
:1003B0005FEA4C0C404141EB0101013C28BFB1F523
:1003C000801FE9D291F0000F04BF01460020B1FA6E
:1003D00081F308BF2033A3F10B03B3F120020CDA41
:1003E0000C3208DD02F1140CC2F10C0201FA0CF01F
:1003F00021FA02F10CE002F11402D8BFC2F1200C84
:1004000001FA02F120FA0CFCDCBF41EA0C01904039
:10041000E41AA2BF01EB0451294330BD6FEA040482
:100420001F3C1CDA0C340EDC04F11404C4F120026D
:1004300020FA04F001FA02F340EA030021FA04F37F
:1004400045EA030130BDC4F10C04C4F1200220FAD6
:1004500002F001FA04F340EA0300294630BD21FA14
:1004600004F0294630BD94F0000F83F4801306BFDA
:1004700081F480110134013D4EE77FEA645C18BFCE
:100480007FEA655C29D094EA050F08BF90EA020F65
:1004900005D054EA000C04BF1946104630BD91EA5D
:1004A000030F1EBF0021002030BD5FEA545C05D160
:1004B0004000494128BF41F0004130BD14F580049F
:1004C0003CBF01F5801130BD01F0004545F0FE4113
:1004D00041F470014FF0000030BD7FEA645C1ABF48
:1004E000194610467FEA655C1CBF0B46024650EA7F
:1004F000013406BF52EA033591EA030F41F40021AB
:1005000030BD00BF90F0000F04BF0021704730B530
:100510004FF4806404F132044FF000054FF0000105
:1005200050E700BF90F0000F04BF0021704730B5C6
:100530004FF4806404F1320410F0004548BF40429B
:100540004FF000013EE700BF42004FEAE2014FEAF0
:1005500031014FEA02701FBF12F07F4393F07F4FCB
:1005600081F06051704732F07F4208BF704793F0CE
:100570007F4F04BF41F40021704730B54FF46074E1
:1005800001F0004521F000411CE700BF50EA0102E4
:1005900008BF704730B54FF000050AE050EA01028D
:1005A00008BF704730B511F0004502D5404261EBFD
:1005B00041014FF4806404F132045FEA915C3FF43E
:1005C000D8AE4FF003025FEADC0C18BF03325FEADB
:1005D000DC0C18BF033202EBDC02C2F1200300FA8C
:1005E00003FC20FA02F001FA03FE40EA0E0021FAB1
:1005F00002F11444BDE600BF4FF0FF3C06E000BF2F
:100600004FF0010C02E000BF4FF0010C4DF804CD9B
:100610004FEA410C7FEA6C5C4FEA430C18BF7FEA5B
:100620006C5C1BD001B050EA410C0CBF52EA430C89
:1006300091EA030F02BF90EA020F0020704710F109
:10064000000F91EA030F58BF994208BF90422CBF98
:10065000D8176FEAE37040F0010070474FEA410C91
:100660007FEA6C5C02D150EA013C07D14FEA430CAF
:100670007FEA6C5CD6D152EA033CD3D05DF8040B20
:10068000704700BF8446104662468C461946634652
:1006900000E000BF01B5FFF7B7FF002848BF10F129
:1006A000000F01BD4DF808EDFFF7F4FF0CBF01206E
:1006B00000205DF808FB00BF4DF808EDFFF7EAFFEA
:1006C00034BF012000205DF808FB00BF4DF808EDA5
:1006D000FFF7E0FF94BF012000205DF808FB00BF9A
:1006E0004DF808EDFFF7CEFF94BF012000205DF824
:1006F00008FB00BF4DF808EDFFF7C4FF34BF012031
:1007000000205DF808FB00BF4FEA4102B2F1E04370
:1007100024BFB3F5001CDCF1FE5C0DD901F0004CE8
:100720004FEAC0024CEA5070B2F1004F40EB830038
:1007300008BF20F00100704711F0804F21D113F164
:100740003872BCBF01F00040704741F480114FEA9D
:100750005252C2F11802C2F1200C10FA0CF320FA26
:1007600002F018BF40F001004FEAC1234FEAD32343
:1007700003FA0CFC40EA0C0023FA02F34FEA4303AD
:10078000CCE77FEA625307D150EA01331EBF4FF036
:10079000FE4040F44000704701F0004040F0FE4051
:1007A00040F40000704700BF7BB972B90029BEBF9A
:1007B00000204FF0004106E008BF00281CBF6FF08A
:1007C00000414FF0FF3001F07DB9ADF1080C6DE94B
:1007D00004CE002909DB002B1ADB00F04DF8DDF810
:1007E00004E0DDE9022304B07047404261EB4101BF
:1007F000002B1BDB00F040F8DDF804E0DDE902230C
:1008000004B0404261EB4101524263EB4303704745
:10081000524263EB430300F02FF8DDF804E0DDE91A
:10082000022304B0404261EB41017047524263EB46
:10083000430300F021F8DDF804E0DDE9022304B011
:10084000524263EB4303704753B94AB9002908BFCA
:1008500000281CBF4FF0FF314FF0FF3001F032B9DC
:10086000ADF1080C6DE904CE00F006F8DDF804E007
:10087000DDE9022304B070472DE9F047089D0446E6
:100880008E46002B4DD18A42944669D9B2FA82F243
:1008900052B101FA02F3C2F1200120FA01F10CFA7F
:1008A00002FC41EA030E94404FEA1C48210CBEFBB7
:1008B000F8F61FFA8CF708FB16E341EA034306FB40
:1008C00007F199420AD91CEB030306F1FF3080F0CF
:1008D0001F81994240F21C81023E63445B1AA4B21C
:1008E000B3FBF8F008FB103344EA034400FB07F7BE
:1008F000A7420AD91CEB040400F1FF3380F00A81FF
:10090000A74240F207816444023840EA0640E41BF3
:1009100000261DB1D4400023C5E900433146BDE89F
:10092000F0878B4209D9002D00F0EF800026C5E941
:10093000000130463146BDE8F087B3FA83F6002E59
:100940004AD18B4202D3824200F2F980841A61EBD1
:10095000030301209E46002DE0D0C5E9004EDDE7EF
:1009600002B9FFDEB2FA82F2002A40F09280A1EBD7
:100970000C014FEA1C471FFA8CFE0126200CB1FB2C
:10098000F7F307FB131140EA01410EFB03F0884225
:1009900008D91CEB010103F1FF3802D2884200F2B2
:1009A000CB804346091AA4B2B1FBF7F007FB101144
:1009B00044EA01440EFB00FEA64508D91CEB0404E2
:1009C00000F1FF3102D2A64500F2BB800846A4EB3D
:1009D0000E0440EA03409CE7C6F12007B34022FA28
:1009E00007FC4CEA030C20FA07F401FA06F31C4357
:1009F000F9404FEA1C4900FA06F3B1FBF9F8200C64
:100A00001FFA8CFE09FB181140EA014108FB0EF0A9
:100A1000884202FA06F20BD91CEB010108F1FF3AF9
:100A200080F08880884240F28580A8F10208614405
:100A3000091AA4B2B1FBF9F009FB101144EA014113
:100A400000FB0EFE8E4508D91CEB010100F1FF34BE
:100A50006CD28E456AD90238614440EA0840A0FB56
:100A60000294A1EB0E01A142C846A64656D353D02C
:100A70005DB1B3EB080261EB0E0101FA07F722FA50
:100A800006F3F1401F43C5E9007100263146BDE879
:100A9000F087C2F12003D8400CFA02FC21FA03F3DC
:100AA000914001434FEA1C471FFA8CFEB3FBF7F05D
:100AB00007FB10360B0C43EA064300FB0EF69E4282
:100AC00004FA02F408D91CEB030300F1FF382FD21B
:100AD0009E422DD9023863449B1B89B2B3FBF7F6C3
:100AE00007FB163341EA034106FB0EF38B4208D99C
:100AF0001CEB010106F1FF3816D28B4214D9023EDD
:100B00006144C91A46EA004638E72E46284605E7FA
:100B10000646E3E61846F8E64B45A9D2B9EB0208CB
:100B200064EB0C0E0138A3E74646EAE7204694E75B
:100B30004046D1E7D0467BE7023B614432E730468E
:100B400009E76444023842E703685A004CBF43F0A7
:100B5000004323F000431844704700BF2DE9F843D9
:100B600029B34F1E044615463E464FF0000808EBD9
:100B7000060101EBD171491004EBC1094846FFF7AA
:100B8000E3FF0346C80008308F42204409D0AB423F
:100B900009D8FFF7D9FF0138A8420AD201F10108AC
:100BA000E5E7AB4205D9884501D04E1EDFE74FF09F
:100BB00000094846BDE8F883012807D0022807D07D
:100BC000044B00280CBF18460020704702487047AD
:100BD0000248704791120008951200089912000807
:100BE00030B5234B83B004468D1E3BB301A9284684
:100BF000AFF30080E8B101992A46FFF7AFFF014645
:100C0000B8B1FFF7A1FF4B68A064012B2CD0002BDB
:100C100001F1040024DBFFF797FF0023C4E913036D
:100C20000368002B11DBFFF78FFF2061002003B06A
:100C300030BD00230920236103B030BD0D4B0E49A8
:100C4000C91AC91018460191D6E7C3F30360FFF72C
:100C5000B3FF0028206114BF0020092003B030BD7D
:100C60000123C4E91303DBE7002323610520DEE74A
:100C7000000000001C4A0208E44A02080368DA0780
:100C800010B5044606D49B0700F1480009D500F0D2
:100C90005BFC2368590709D51A070ED5DB0613D567
:100CA00010BD00F049FC23685907F5D404F1D000C9
:100CB00000F052FC23681A07F0D404F5A87000F085
:100CC00053FC2368DB06EBD404F5E870BDE8104064
:100CD00000F08EBC092070470346006800B118443C
:100CE000704700BF704700BF70B504460E46316CB8
:100CF0002046FFF775FF054688B9326C62612369AB
:100D000032462146012098470828F0D0072806D10E
:100D10002846316CFFF7E6FF301D00F001FC21F0A2
:100D20004FFD00BF2DE9F0470D1DD0F80C80D0F825
:100D30001890074614460FCDADF5727D0DF10C0CE1
:100D4000ACE80F000FCDACE80F000FCDACE80F0002
:100D500095E80F0002AE4FF0000E8CE80F00C6F8C9
:100D600000E020E0336C7B614FF4F07231467AA8EA
:100D700007F09CFF3B697AAA394650469847889B02
:100D800073642146CDE9006905463B463A46012099
:100D9000C0470446E0B94FF4F0727AA9304607F034
:100DA00085FF082D1AD1316C3846FFF719FF093439
:100DB0005FFA84FA05460028D4D0B36B73643A46D0
:100DC000CDE900693B464AF010010120C04700B15F
:100DD000092528460DF5727DBDE8F087072DF7D16E
:100DE0002046316CFFF77EFF03A800F099FB00BF9F
:100DF000406C7047F0B5CB6B0B6401F1040C0E46F0
:100E00000546BCE80F00F9B001AC0FC4BCE80F0008
:100E10000FC4BCE80F000FC49CE80F004FF0FF3771
:100E200084E80F00009706E02B696A462946984738
:100E30000828044608D110992846FFF7D1FE00285B
:100E4000F2D0092079B0F0BD6846FFF717FF062CF5
:100E5000F7D131462846FFF747FF00BFC160D96B85
:100E600082611964002219465CE700BF70B5C6684C
:100E700043690B64AEB903690A4604460D46014650
:100E800002209847072805D008280FD12946204678
:100E9000FFF72AFF3046296CFFF724FF281D00F0DA
:100EA0003FFB0122FFF73EFF21F08AFC21F088FC86
:100EB000C2681AB1CA6B0A64002233E79AE700BF1E
:100EC000704700BF836801460BB101201847704787
:100ED000012912D009D873B90F2A0CD800EB82026D
:100EE00018465368009A136070470339012994BF6C
:100EF000012002207047022070470846704700BF5B
:100F000000B585B00A46002303A900911946FFF7F2
:100F1000DFFF039805B05DF804FB00BF012912D084
:100F200009D873B90F2A0CD800EB8200009A126816
:100F30004260184670470339012994BF01200220FE
:100F40007047022070470846704700BF10B584B054
:100F5000002303AC039200940A461946FFF7DEFF14
:100F600004B010BD70B5D36B136402F1040C0546D8
:100F70000C46BCE80F00ADF50E7D0DF15C0EAEE841
:100F80000F00BCE80F00AEE80F00BCE80F00AEE8B1
:100F90000F009CE80F004FF0FF368EE80F0016960A
:100FA00010E0FFF7D3FF214616A8A847034616AA6C
:100FB0006946082083B9049B9847052806460CD04B
:100FC000092809D026996846FFF70AFE03466A46B3
:100FD0000C2116A8002BE4D0092616A8FFF74EFE18
:100FE00030460DF50E7D70BD2DE9F04FCC6C89B00B
:100FF0001E4654F8043B06940D46174600F00308BD
:10100000002E79D01A0C1B0405938DF81D200223A5
:10101000D2B204EB82048DF81C302B6DB8F1020FB4
:1010200008BFAC6B13F001030CD005A9384600F0E3
:1010300079FB18B9082009B0BDE8F08F092009B084
:10104000BDE8F08FD4F800A0BAF1000FEDD0019305
:1010500000F008030293022E4AD0B4F800A0B4F8BE
:1010600002900434AB6C29F0010B0F2138469B44ED
:10107000FFF746FF834539D82AF001039B44834597
:1010800094BF002001204FEA490303F002030AF055
:10109000010A43EA0A03012B49D0022B32D0002B6C
:1010A000CCD1B8F1000F02D0002840F0CD8004343C
:1010B000D4F800A0BAF1000FCDD105A9384600F050
:1010C00031FB0028BAD1019B002BB3D00F21384649
:1010D000FFF716FF0E2102463846FFF737FF384666
:1010E0006A4A0F21FFF732FF0720A8E70020CAE76E
:1010F000D4F804900834B5E71B0205930323ADF838
:101100001C308AE7236823F0004BB8F1000F45D16B
:1011100028B1029A002A5CD0BBF1000F74D0002BDA
:1011200000DA04340BF1010B04EB8B04C0E7B8F1D7
:10113000000F19D1B0B163682268991C4FEAD272CE
:101140003FF47CAF05F158010133049100F0908029
:10115000201DFFF7C1FD04AB01462846AFF3008018
:1011600000285BD10834A3E70D213846D5F820903C
:10117000FFF7C6FE8145F5D1AB6A9C42F2D120460D
:10118000FFF7E2FC0F2102463846FFF7DFFE384644
:101190002A460021FFF7DAFE072050E70D213846E6
:1011A000D5F82090FFF7ACFE814501D02368B6E763
:1011B000AB6A9C42FAD104230022C5E90B23E31851
:1011C000C5F828B06B632368002B59DB012301931A
:1011D000A8E705F15803CDF80C8004F1040AB046E5
:1011E00091461E460EE050460496FFF775FD00221C
:1011F000014604AB284609F101090AF1040AAFF3DC
:101200000080E0B9D945EED10D213846FFF778FED0
:10121000049BAC62C5E90803062010E781460D2156
:101220003846FFF76DFEB9F1020F286225D12B4633
:10123000049A43F82C2F6B62AC620620FFE6464608
:101240002368DDF80C806AE72046FFF77DFC043454
:101250000246AC6328461446AFF3008000283FF4F2
:10126000EDAE384622460F21FFF770FE0720E6E676
:101270000D213846FFF744FE2862049B6B62DBE7D2
:101280000BF1010004EB80007AE700BF00000000D2
:101290000023A9E60123A7E60223A5E62DE9F043F2
:1012A0000646C3B015461C46042900F2BF80DFE89D
:1012B00001F09E57BD2D0300002C40F0B780102A8E
:1012C00000F2B4800368D80600F1F98020AF3846F8
:1012D00000F098F9B46B394600234FF0010C0CFA7A
:1012E00003F22A42204603F1010303D050F8042BF5
:1012F0000A600446042B01F10401F0D13846B463BE
:1013000000F076F9002043B0BDE8F083032C40F0F4
:101310008D8094B204EB1243102B4FEA124500F279
:10132000858003681F0700F1D28020AF384600F0A7
:101330003DF9B26B07EBC50154B10B46D01A01EB76
:10134000C401E4001D5843F8045B8B42FAD12244E7
:101350003846B26300F008F9002043B0BDE8F083DE
:10136000012C4FEA124895B25CD0052C5ED108EBF7
:101370000509B9F1200F59D8B8F10F0F79D9A9464D
:10138000002D40F08A80B36B6DB320AF4FF00009A1
:1013900007EBC807043F03EBC50553F8041B47F8E8
:1013A000041FAB42F9D1B9F1000F0FD06F4641468F
:1013B000102938BF102107EBC101843903EBC9059F
:1013C00053F8040B41F8040FAB42F9D1012C00F0A3
:1013D0008680B8F10F0FB56347D9B9F1000F02D07D
:1013E000684600F0B9F8002043B0BDE8F083ECB9DE
:1013F000806B23461FFA82FC0124371D04FA03F296
:1014000012EA0C0F014604D051F8042B47F82320B0
:1014100008460133102BF1D115F40055E3D1B06328
:10142000284604E008EB0503102B03D9022043B043
:10143000BDE8F083B8F10F0FF8D83368DA0706D5A6
:10144000304623F0030340F8483B00F079F820AF22
:10145000384600F075F8B36B002D97D11D46043562
:10146000B563384600F068F8BDE720A800F06CF8D6
:10147000B3E7B9F1100F40D9A9F110093368D907C2
:1014800008D523F00103304643F0020340F8483BFF
:1014900000F05EF8B9F1000F32D033685A0720D45B
:1014A000B8F10F0F25D96F463846C8F1100500F086
:1014B00057F8002DB36B7FF77AAF20AF68E723F0C2
:1014C0001003336006F5E87000F09CF8FEE623F0A8
:1014D0000803036000F5A87000F068F825E720AF66
:1014E000BDE7304623F0040340F8D03B00F038F865
:1014F000D6E720A800F02CF8D5E74FF00009BDE7AB
:10150000B8F10F0F3FF63FAF20AF384600F020F89C
:10151000B36B002D7FF43AAF384600F015F862E760
:1015200000F1340191E838009C46A6464CF8045D71
:1015300090E8FF0FE54600BD90EC210B704700BF1F
:1015400080EC210B704700BF90EC200B704700BF70
:1015500080EC200B704700BFD0EC200B704700BF21
:10156000C0EC200B704700BFF0EC0201F0EC021160
:10157000F0EC0221F0EC0231F0EC0241F0EC02510F
:10158000F0EC0261F0EC0271F0EC0281F0EC0291FF
:10159000F0EC02A1F0EC02B1F0EC02C1F0EC02D1EF
:1015A000F0EC02E1F0EC02F1704700BFE0EC020168
:1015B000E0EC0211E0EC0221E0EC0231E0EC02414F
:1015C000E0EC0251E0EC0261E0EC0271E0EC02813F
:1015D000E0EC0291E0EC02A1E0EC02B1E0EC02C12F
:1015E000E0EC02D1E0EC02E1E0EC02F1704700BF78
:1015F000B0FC0181B0FC0191B0FC01A1B0FC01B1D3
:10160000704700BFA0FC0181A0FC0191A0FC01A1DA
:10161000A0FC01B1704700BFEC4600B52DE90050B9
:101620002DE9FF1F4FF000032DE90C0001A9FFF782
:10163000E1FBDDF840E012B0704700BFEC4600B5BA
:101640002DE900502DE9FF1F4FF000032DE90C009C
:1016500001A9FFF70BFCDDF840E012B0704700BFB6
:10166000EC4600B52DE900502DE9FF1F4FF00003B7
:101670002DE90C0001A9FFF71BFCDDF840E012B0DA
:10168000704700BFEC4600B52DE900502DE9FF1F63
:101690004FF000032DE90C0001ABFFF7DFFBDDF895
:1016A00040E012B0704700BFEC4600B52DE9005095
:1016B0002DE9FF1F4FF000032DE90C0001AAFFF7F1
:1016C00051FCDDF840E012B0704700BF027A0346DB
:1016D0007AB9427AA2B14168013A10B442720868FC
:1016E00003220C1D1A7202025C60000E10BC1A600C
:1016F00070470068013A1A7202021A60000E7047C1
:10170000B020704700B585B0002303AA00921946A7
:101710000C22FFF7DDFB039805B05DF804FB00BF6A
:10172000F0E700BF2DE9F043054685B00E464FF0C7
:1017300000083046FFF7CAFFB028044600F0BA8020
:10174000070620D500F0F003802B4DD0902B36D02B
:10175000A02B60D0B02B74D0C02B00F08B8000F099
:10176000F803D02B0BD100F007020132052342F41D
:10177000002201212846FFF791FD0028D9D0092039
:1017800005B0BDE8F0838300DBB21F1D0DF10C092D
:1017900000231946CDF800900D222846FFF798FB4C
:1017A000039BCDF8009060064CBFDF1BFF180023A1
:1017B0000D22194628460397FFF7B0FBB9E700F062
:1017C0000D030D2BDBD003AF002300F00F021946F1
:1017D00000972846FFF77CFB002300970D2219464F
:1017E0002846FFF79BFBA4E73046FFF76FFF240274
:1017F0002043B0F5004FC2D004010023A2B2194625
:101800002846FFF74BFD0028B9D114F4004F18BF4C
:101810004FF001088DE7C24302F007034FF47F62E7
:101820001A41010702F47F624FF0000348BF42F4FF
:10183000804219462846FFF731FD00283FF479AF72
:101840009DE7B1283BD0B22800F09380B32841D067
:1018500000F0FC03B42B92D000F007020132012308
:1018600042F4002219462846FFF718FD00283FF4ED
:1018700060AF84E7C6284AD0C72854D000F0F803E8
:10188000C02B63D0C82868D0C9287FF478AF304611
:10189000FFF71CFF020300F00F0002F4702201307A
:1018A0000243012105232846FFF7F8FC00283FF4F6
:1018B00040AF64E7B8F1000F18D0002060E7304671
:1018C000FFF704FF024600283FF459AF10F0F00381
:1018D000C8D054E73046FFF7F9FE020300F00F03CB
:1018E000013302F470221A430123BBE703AC4346E1
:1018F0000E22414600942846FFF7EAFA0094434638
:101900000F2241462846FFF709FB404638E730469C
:10191000FFF7DCFE020300F00F03013302F4702234
:101920001A4303239EE73046FFF7D0FE0246002805
:101930003FF425AF10F0F0037FF421AF04212846D7
:10194000FFF7ACFC00283FF4F4AE18E700F00F02FC
:101950000132032342F4202284E73046FFF7B6FE2B
:1019600000F0F00200F00F031032013343EA0232BC
:1019700097E700230DF10C090D221946CDF80090D0
:101980002846FFF7A5FA3046FFF7A0FE02064FF003
:1019900002040CD5039B00F07F00A0401844039084
:1019A0003046FFF793FE030604F10704F2D4039BCD
:1019B000CDF8009000F07F02A24003F501731A44B5
:1019C0000023039219460D222846FFF7A7FAB0E636
:1019D00010B5C26C536884B04FF0030C08321C027F
:1019E00008461B0E01A9019402928DF80CC08DF8D7
:1019F0000D30FFF797FE04B010BD00BF08B5FFF72C
:101A00008FFE806C08BD00BF08B5FFF789FEC06C73
:101A1000C379023300EB830008BD00BF002070478C
:101A200070B545680668042D04460FD8301D07F0D0
:101A30002DF90346F8B1E1680060043332461846D8
:101A4000A1B107F033F90346184670BDA819033059
:101A500007F01CF978B1EB1C03446D422B40324671
:101A600043F8040CE16818460029EAD107F02CF984
:101A70000346184670BD20F0A3FE00BF10B5044613
:101A8000FFF7CCFF38B9A06800B110BD2046FFF7C2
:101A9000C7FFA06010BD20F093FE00BF10B4046823
:101AA0008C4202D200240160C4604468944238BF72
:101AB00042601BB102688A4208BFC3605DF8044BF4
:101AC000704700BF704700BF10F8012B11F8013BB1
:101AD000012A28BF9A42F7D0D01A704700000000B0
:101AE00080B50D4C0AA3D3E9002320460AF07AFE04
:101AF0000A4E002732463B4604F180000AF072FE8F
:101B000032463B4604F580700AF06CFEE9E700BF00
:101B1000404B4C0000000000A80400208096980074
:101B200010B517E0042284F84C2094F84E2042F0BF
:101B3000040284F84E20144C04F114000BF09DF8BC
:101B400060650028EED1104A92F84E3043F004034D
:101B500082F84E300C4C022384F84C30234600228D
:101B6000114604F114000AF0E7FF60650028E2D195
:101B7000054B032283F84C2093F84E2022F00402F8
:101B800083F84E2010BD00BF4404002070B58EB015
:101B90000146294C012084F84C00284B0193284B26
:101BA0000093284B284A0CF05BFC206560B10422AE
:101BB00084F84C2094F84E2042F0010284F84E2024
:101BC000002528460EB070BD1B4A92F84E3023F017
:101BD000010382F84E3009A80BF09EFA1B4B0993C3
:101BE0001B4B0A931B4B0B931B4B0C9309A80BF03D
:101BF000A7FA054650B9104B042283F84C2093F8FD
:101C00004E2042F0020283F84E20DAE70A4E02A884
:101C10000BF0BCFAB44602AC0FCCACE80F00236862
:101C2000CCF8003096F84E3023F0020386F84E30A0
:101C3000FFF776FFC5E700BF440400206D8B000866
:101C40002F8B0008218B0008098B0008A189000850
:101C5000C5890008E5890008258A000808B5FFF74E
:101C600095FF10B94FF0FF3008BD00F0C9FCFFF739
:101C700037FF000008B50C4B022283F84C2000F01F
:101C80003FFD02E0642006F0F7F9074C04F1140070
:101C90000AF0F3FF60650028F4D1FFF741FF00F080
:101CA000AFFCFFF71DFF00BF4404002008B50A4643
:101CB0000146024800F0CCFE08BD00BF284E0020BF
:101CC00010B50C46154B1B780BB9002221E001F032
:101CD000CBFCFAE702EB420018444FF6FF7124F800
:101CE00010100133022B13DC0C4909780029F1D0C4
:101CF0000B49096851F822104FF49C7C0CFB031C23
:101D000002EB42001844BCF98C1024F81010E8E7EC
:101D10000132032A01DC0023E4E710BD400F00205C
:101D20003C0F002010B50C46154B1B780BB9002258
:101D300021E001F0EDFCFAE702EB420018444FF617
:101D4000FF7124F810100133022B13DC0C490978C1
:101D50000029F1D00B49096851F822104FF49C7CFE
:101D60000CFB031C02EB42001844BCF98C1024F855
:101D70001010E8E70132032A01DC0023E4E710BD7C
:101D8000400F00203C0F0020F8B50D460F4B1B788C
:101D90001BB94FF6FF730B80F8BD044602780C4F59
:101DA0003B6853F8223040784FF49C7606FB0030B5
:101DB00001F0CAFC22783B6853F82230627806FBB7
:101DC0000233B3F98C302B80E6E700BF400F0020D0
:101DD0003C0F002070B5A74B1B78002B00F046810C
:101DE00000257CE0A449C2F8901050F825601E44FC
:101DF000D6F89000FEF7ECF9C6F894000134022CF6
:101E00006CDC9E4B186850F825204FF49C7304FB43
:101E100003F31A4492F82D110629EFD801A656F8BB
:101E200021F000BFE51D0008411E00085B1E0008F0
:101E3000751E00088F1E0008A91E0008C31E00089A
:101E40008F49C2F8901050F825601E44D6F89000D3
:101E5000FEF7BEF9C6F89400D0E78A49C2F89010A0
:101E600050F825601E44D6F89000FEF7B1F9C6F888
:101E70009400C3E78449C2F8901050F825601E44CE
:101E8000D6F89000FEF7A4F9C6F89400B6E77F49AB
:101E9000C2F8901050F825601E44D6F89000FEF766
:101EA00097F9C6F89400A9E77949C2F8901050F85C
:101EB00025601E44D6F89000FEF78AF9C6F8940013
:101EC0009CE77449C2F8901050F825601E44D6F87B
:101ED0009000FEF77DF9C6F894008FE70135032DD9
:101EE00001DC00248BE7654B1D682B686A4C04F508
:101EF000096E03F1880CBCE80F00AEE80F009CE807
:101F000007008EE807002B6804F6AC0E03F5E07CB2
:101F1000BCE80F00AEE80F009CE807008EE8070061
:101F20002B6804F6C80E03F53E7CBCE80F00AEE853
:101F30000F009CE807008EE807006B6804F6E40ECB
:101F400003F1880CBCE80F00AEE80F009CE8070026
:101F50008EE807006B6804F5106E03F5E07CBCE8C2
:101F60000F00AEE80F009CE807008EE807006B68E2
:101F700004F61C1E03F53E7CBCE80F00AEE80F0023
:101F80009CE807008EE80700AB6804F6381E03F1F2
:101F9000880CBCE80F00AEE80F009CE807008EE854
:101FA0000700AB6804F6541E03F5E07CBCE80F00A4
:101FB000AEE80F009CE807008EE80700AB6804F568
:101FC000176E03F53E7CBCE80F00AEE80F009CE8FE
:101FD00007008EE80700EB6804F68C1E03F1880CFE
:101FE000BCE80F00AEE80F009CE807008EE8070091
:101FF000EB6804F6A81E03F5E07CBCE80F00AEE831
:102000000F009CE807008EE80700ED6804F6C41C8A
:1020100005F53E750FCDACE80F0095E807008CE89C
:10202000070003F037FD1D4D2860002204F509610B
:1020300004F68C0008F09CFBC4F8E80903F02AFDC4
:102040002B68C01A164B1860D4F8E83933B1B4F8CD
:10205000423A43F00203A4F8423A70BD0E4AB2F885
:10206000423A23F00203A2F8423AF6E70D4806F09E
:1020700013FFF2E7400F0020844102083C0F0020CC
:102080008841020894410208A0410208A8410208C0
:10209000B4410208B0410208A0040020E80E00206C
:1020A0009C040020BC41020838B5044603F0F2FC51
:1020B0001F4B186022781F4B1B6853F8223065783D
:1020C0004FF49C7202FB05351B4B1B783BB3E37846
:1020D00013BBA37823BB237933BB95F82D31032B96
:1020E0001DD1D4E90223C5E93623D4E90423C5E987
:1020F0003823D4E90623C5E93A23D4E90823C5E9FE
:102100003C23D4E90A23C5E93E23284601F09AF886
:10211000284601F001FA02E0284601F0C7FA38BD6E
:10212000284601F073FAFAE7284601F00DFBF6E7BE
:102130009C0400203C0F0020400F0020184B1B780F
:102140004BBB704703F0A6FC164B1B6853F82630B8
:102150001D44D5F83031C01AB0F5FA7F12D80134D9
:10216000022C13DC0F4B1B6853F826004FF49C75B0
:1021700004FB05F5284490F82D31032BE2D001F043
:1021800095FAECE7284601F0C7F9E8E70136032E97
:1021900004DC0024E4E770B50026F8E770BD00BF5A
:1021A000400F00203C0F002010B582B0254C264B7C
:1021B000C4F88C311EF0B4F80246D4F88C312146B4
:1021C00004F5C4700AF076FEC4F8900118B3042236
:1021D00084F8402AB4F8422A42F48062A4F8422AE1
:1021E000184C1A4B009304F5FF6304F5CC7204F508
:1021F000C47104F1080009F0DEFEC4F89001A8B132
:10220000042284F8402AB4F8422A42F48062A4F8F6
:10221000422A02B010BD0B4B012283F8402AB3F8CA
:10222000422A22F48062A3F8422AD9E7054B012210
:1022300083F8402AB3F8422A22F48062A3F8422AA3
:10224000E7E700BFA0040020CC410208AD1C000855
:1022500010B582B0254C264BC4F824381EF059F82E
:102260000246D4F82438214604F502600AF022FE22
:10227000C4F8280818B3042284F8402AB4F8422A83
:1022800042F40062A4F8422A184C1A4B009304F658
:10229000320304F5036204F5026104F1080009F059
:1022A0008AFEC4F82808A8B1042284F8402AB4F8A9
:1022B000422A42F40062A4F8422A02B010BD0B4B3D
:1022C000012283F8402AB3F8422A22F40062A3F8DC
:1022D000422AD9E7054B012283F8402AB3F8422A63
:1022E00022F40062A3F8422AE7E700BFA00400201E
:1022F000DC410208C11C000810B582B0254C264BF9
:10230000C4F850381DF0FEFF0246D4F8503821467C
:1023100004F64C000AF0CEFDC4F8540818B30422A9
:1023200084F8402AB4F8422A42F44062A4F8422ACF
:10233000184C1A4B009304F65E0304F65C0204F694
:102340004C0104F1080009F036FEC4F85408A8B1A5
:10235000042284F8402AB4F8422A42F44062A4F8E5
:10236000422A02B010BD0B4B012283F8402AB3F879
:10237000422A22F44062A3F8422AD9E7054B0122FF
:1023800083F8402AB3F8422A22F44062A3F8422A92
:10239000E7E700BFA0040020F0410208251D000867
:1023A00010B582B0254C264BC4F87C381DF0BFFF19
:1023B0000246D4F87C38214604F678000AF07AFD0B
:1023C000C4F8800818B3042284F8402AB4F8422ADA
:1023D00042F48052A4F8422A184C1A4B009304F697
:1023E0008A0304F6880204F6780104F1080009F073
:1023F000E2FDC4F88008A8B1042284F8402AB4F8A9
:10240000422A42F48052A4F8422A02B010BD0B4B7B
:10241000012283F8402AB3F8422A22F48052A3F81A
:10242000422AD9E7054B012283F8402AB3F8422A11
:1024300022F48052A3F8422AE7E700BFA00400205C
:1024400004420208891D000810B582B01DF053FF38
:102450000246294C294B214604F68C000AF0CCFC9C
:10246000C4F8E809D8B9244AB2F8423A23F0020382
:10247000A2F8423A204C224BC4F8EC39214AC4F865
:10248000E42900931AA3D3E900231F4904F51E6031
:102490000AF0CFFDC4F8E80968B102B010BD04220B
:1024A00084F8402AB4F8422A42F00202A4F8422AF0
:1024B000FFF7E0FBDEE704F51E6104F1880009F098
:1024C00014FDC4F8E80948B1042284F8402AB4F89D
:1024D000422A42F00202A4F8422ADEE7064AB2F893
:1024E000423A23F00203A2F8423AD6E7AFF3008063
:1024F00000204AA900000000A00400201C4202089D
:10250000D51D000800204AA95804002030B583B02A
:102510001DF0EAFE0246164C04F51F65154B2146D8
:1025200028460AF025FDC4F8280A00230093124B20
:1025300004F6F812294604F5847009F055FCD4F825
:10254000283A1844C4F8280A50B1042284F8402AD2
:10255000B4F8422A42F01002A4F8422A03B030BD77
:10256000034AB2F8423A23F01003A2F8423AF5E7E0
:10257000A00400202C420208A9200008000000004E
:1025800030B583B01A4C1B4BC4F8343A1A4AC4F81D
:10259000382A04F52365009313A3D3E900231749D0
:1025A00028460AF046FDC4F83C0A294604F1880092
:1025B00009F09BFCD4F83C3A1844C4F83C0A50B1EA
:1025C000042284F8402AB4F8422A42F48072A4F823
:1025D000422A03B030BD064AB2F8423A23F480736F
:1025E000A2F8423AF5E700BF00CA9A3B000000009B
:1025F000A00400203D21000800CA9A3B5804002096
:102600002DE9F043A1B0394C012384F8403A384B0E
:10261000384A394920460AF06BFBC4F8440A70B1C5
:10262000324B042283F8402AB3F8422A42F00102D6
:10263000A3F8422AFFF71EFB21B0BDE8F083B4F8EF
:10264000423A23F00103A4F8423A684609F0A6FA98
:1026500004F1080980252A466946484606F026FB0B
:10266000684609F09BFA04F188082A466946404604
:1026700006F01CFB684609F091FA04F584772A46B7
:102680006946384606F012FB1C4D05F118062B462C
:1026900004223146484609F093FAC4F8440A2B460E
:1026A00002223146404609F08BFAD4F8443A0344FA
:1026B000C4F8443A2B4601223146384609F080FAE4
:1026C000D4F8443A1844C4F8440A0028B2D1FFF7B9
:1026D000BBFEFFF71BFFFFF767FDFFF7B9FDFFF735
:1026E0000BFEFFF75DFEFFF74BFFA5E7A004002000
:1026F000580400209C41020838420208440400208B
:1027000010B52F4C04F1080009F02AFBC4F8440A64
:1027100004F1880009F024FBC4F8440A04F584702D
:1027200009F01EFBC4F8440A04F51E6009F042F8E3
:10273000D4F8443A0344C4F8443A214604F68C00E1
:1027400007F09EFFD4F8443A0344C4F8443A2146C3
:1027500004F51F6008F0BAFCD4F8443A0344C4F806
:10276000443A214604F5C47008F0C9F9D4F8443A53
:102770000344C4F8443A214604F5026008F0BFF966
:10278000D4F8443A0344C4F8443A214604F64C00D1
:1027900008F0B5F9D4F8443A0344C4F8443A214661
:1027A00004F6780008F0ABF9D4F8443A0344C4F8CE
:1027B000443A204607F09CFCC4F8440A10BD00BF10
:1027C000A00400202DE9F04F83B00446D0E9026751
:1027D000D0E90489424609F1004330463946FDF705
:1027E00061FF002873D00025D4E906AB94ED087B87
:1027F0008DED007B51EC170B17EE102A01F1004311
:1028000050465946FDF74EFF08B945F00405002231
:102810000023D4E90A01FDF745FF40B900222D4B02
:10282000D4E90C01FDF73EFF08B945F00805002288
:102830000023D4E90E01FDF735FF40B90022264BF5
:10284000D4E91001FDF72EFF08B945F01005D4E9D1
:102850001401024601F10043D4E91201FDF722FF01
:1028600008B945F02005D4E9162330463946FDF76E
:1028700041FF30B9D4E9182340464946FDF71CFF13
:1028800008B145F04005D4E91A2350465946FDF7F2
:1028900031FF30B9D4E91C23DDE90001FDF70CFF5D
:1028A00008B145F0800500220C4BD4E91E01FDF76C
:1028B00003FF30B900220A4BD4E92001FDF71AFFCB
:1028C00008B145F48075284603B0BDE8F08F0225B5
:1028D0008AE700BF00407F400000144000001CC099
:1028E00000001C4038B50446C0F80011284BC0F861
:1028F0000431284B1B7813B32378C4F8103100231C
:10290000C4F818310822C4F82021C4F81C31D4F8C6
:1029100000315B6A012B28D094F82C3143F002037C
:1029200084F82C31B4F88C3023F00203A4F88C30F6
:10293000002384F88A30012084F82D0138BD084630
:102940001349CB6301220A644B628B6240F6FF7528
:10295000CD620B634B634A64243101F041FE0028D1
:10296000CAD10C4B01221A70C6E794F82C3123F01F
:10297000020384F82C31B4F88C3043F00203A4F83D
:102980008C30012384F88A3084F82D310020D5E77B
:10299000EC0E0020380F002038B5102006F076F934
:1029A000284B1860002408E0264B1D684FF46A701D
:1029B00006F06CF945F824000134032CF4DD002204
:1029C00037E0204B196851F822004FF49C7303FB49
:1029D0000CF300EB030E0020AEF88C0051F82240FF
:1029E00004EB030E8EF8880051F8224004EB030E2E
:1029F0008EF8890051F8224004EB030E8EF88A000D
:102A000051F8224004EB030E0F4CCEF8904051F8E1
:102A1000224004EB030E1424CEF8984051F8221003
:102A20000B44C3F894000CF1010CBCF1020FC8DD9B
:102A30000132032A02DC4FF0000CF6E70120034BC1
:102A4000187038BD3C0F00209C410208400F002048
:102A50002DE9F04106460D461446C34B1B78002B6A
:102A600000F0CA812846FFF7ADFE00B220800028A2
:102A700000F0C781BD4B1B681A68012182F88A10DB
:102A80001968B1F88C2042F00102A1F88C20196875
:102A900091F82C2122F0010281F82C211B680022E0
:102AA00083F82D21B14B1B681B6893F92D312376D8
:102AB00005F18800FFF786FE00B26080002800F074
:102AC000C781AA4B1B681A68012182F8C2111968D4
:102AD000B1F8C42142F00102A1F8C421196891F8AB
:102AE000642222F0010281F864221B68002283F82C
:102AF00065229E4B1F683B6893F96532637605F546
:102B00008870FFF75FFE00B2A080002800F0CB8144
:102B10003B68012283F8FA223A68B2F8FC3243F0AB
:102B20000103A2F8FC323A6892F89C3323F00103C7
:102B300082F89C333B68002283F89D238B4B1F68EF
:102B40003B6893F99D33A37605F5CC70FFF73AFE09
:102B500000B2E080002800F0D0817B68012283F879
:102B60008A207A68B2F88C3043F00103A2F88C30E6
:102B70007A6892F82C3123F0010382F82C317B68BB
:102B8000002283F82D21794B1F687B6893F92D3142
:102B9000E37605F50870FFF715FE00B220810028E6
:102BA00000F0D3817B68012283F8C2217A68B2F8F1
:102BB000C43143F00103A2F8C4317A6892F8643258
:102BC00023F0010382F864327B68002283F86522D7
:102BD000664B1F687B6893F96532237705F52A7089
:102BE000FFF7F0FD00B26081002800F0D8817B681B
:102BF000012283F8FA227A68B2F8FC3243F001032A
:102C0000A2F8FC327A6892F89C3323F0010382F830
:102C10009C337B68002283F89D23544B1F687B689C
:102C200093F99D33637705F54C70FFF7CBFD00B248
:102C3000A081002800F0DD81BB68012283F88A2092
:102C4000BA68B2F88C3043F00103A2F88C30BA684D
:102C500092F82C3123F0010382F82C31BB6800225A
:102C600083F82D21414B1F68BB6893F92D31A37761
:102C700005F56E70FFF7A6FD00B2E081002800F0B8
:102C8000E081BB68012283F8C221BA68B2F8C4317E
:102C900043F00103A2F8C431BA6892F8643223F019
:102CA000010382F86432BB68002283F865222F4B4F
:102CB0001F68BB6893F96532E37705F58860FFF715
:102CC00081FD00B22082002800F0E881BB6801226B
:102CD00083F8FA22BA68B2F8FC3243F00103A2F892
:102CE000FC32BA6892F89C3323F0010382F89C33DB
:102CF000BB68002283F89D231C4B1F68BB6893F9B7
:102D00009D3384F8203005F599684046FFF75AFD59
:102D100000B26082002800F0EB81FB68012283F89A
:102D20008A20FA68B2F88C3043F00103A2F88C30A4
:102D3000FA6892F82C3123F0010382F82C31FB68F9
:102D4000002283F82D21094B1F68FB6893F92D3170
:102D500084F821304046FFF735FD00B2A0820028FC
:102D600000F0ED8104E000BF400F00203C0F002088
:102D7000FB68012283F8C221FA68B2F8C43143F03B
:102D80000103A2F8C431FA6892F8643223F0010317
:102D900082F86432FB68002283F86522BE4B1F680C
:102DA000FB6893F9653284F822304046FFF70AFD4C
:102DB00000B2E082002800F0EC81FB68012283F879
:102DC000FA22FA68B2F8FC3243F00103A2F8FC32AE
:102DD000FA6892F89C3323F0010382F89C33FB6875
:102DE000002283F89D23AC4B1B68DB6893F99D336D
:102DF00084F82330BDE8F081A74B1868FFF7CCFDBD
:102E000030E6A54F3B6888222946186805F04EFF3A
:102E10003B681A68002182F88A10196891F82C2101
:102E200042F0010281F82C2131461868FFF75AFD63
:102E300000283FF437AE3A681168B1F88C3023F0BF
:102E40000103A1F88C301368012283F82D2129E6B3
:102E5000914B1F6838688822A91800F59C7005F00E
:102E600025FF3B68002283F8C2213A6892F8643259
:102E700043F0010382F864323868314600F59C70F3
:102E8000FFF730FD00283FF434AE834B1A68116819
:102E9000B1F8C43123F00103A1F8C4311368012251
:102EA00083F8652225E63868882205F5887100F5E3
:102EB0001C7005F0FBFE3B68002283F8FA223A689A
:102EC00092F89C3343F0010382F89C333868314612
:102ED00000F51C70FFF706FD00283FF42FAE6E4B87
:102EE0001A681168B1F8FC3223F00103A1F8FC3232
:102EF0001368012283F89D2320E6882205F5CC7112
:102F0000786805F0D3FE644B1B685A68002182F88C
:102F10008A10596891F82C2142F0010281F82C2185
:102F200031465868FFF7DEFC00283FF42CAE5A4BC0
:102F30001A685168B1F88C3023F00103A1F88C3085
:102F40005368012283F82D211DE67868882205F553
:102F5000087100F59C7005F0A9FE7B68002283F8DB
:102F6000C2217A6892F8643243F0010382F8643235
:102F70007868314600F59C70FFF7B4FC00283FF4F8
:102F800027AE454B1A685168B1F8C43123F00103EC
:102F9000A1F8C4315368012283F8652218E67868E5
:102FA000882205F52A7100F51C7005F07FFE7B680C
:102FB000002283F8FA227A6892F89C3343F00103E6
:102FC00082F89C337868314600F51C70FFF78AFC64
:102FD00000283FF422AE304B1A685168B1F8FC3239
:102FE00023F00103A1F8FC325368012283F89D23EA
:102FF00013E6882205F54C71B86805F057FE264B9C
:103000001B689A68002182F88A10996891F82C212F
:1030100042F0010281F82C2131469868FFF762FCEA
:1030200000283FF41FAE1C4B1A689168B1F88C3031
:1030300023F00103A1F88C309368012283F82D213D
:1030400010E6B868882205F56E7100F59C7005F0F1
:103050002DFEBB68002283F8C221BA6892F8643260
:1030600043F0010382F86432B868314600F59C7081
:10307000FFF738FC00283FF41AAE074B1A68916836
:10308000B1F8C43123F00103A1F8C43193680122DF
:1030900083F865220BE600BF3C0F0020B868882249
:1030A00005F5886100F51C7005F000FEBB68002284
:1030B00083F8FA22BA6892F89C3343F0010382F84D
:1030C0009C33B868314600F51C70FFF70BFC0028F4
:1030D0003FF412AE444B1A689168B1F8FC3223F009
:1030E0000103A1F8FC329368012283F89D2303E6D3
:1030F00088224146F86805F0D9FD3B4B1B68DA6829
:10310000002182F88A10D96891F82C2142F001023E
:1031100081F82C213146D868FFF7E4FB00283FF402
:1031200012AE314B1A68D168B1F88C3023F001032C
:10313000A1F88C30D368012283F82D2103E6F868CA
:10314000882205F5AA6100F59C7005F0AFFDFB68CB
:10315000002283F8C221FA6892F8643243F0010336
:1031600082F86432F868314600F59C70FFF7BAFBCC
:1031700000283FF413AE1C4B1A68D168B1F8C43173
:1031800023F00103A1F8C431D368012283F865223A
:1031900004E6F868882205F5BB6100F51C7005F0AF
:1031A00085FDFB68002283F8FA22FA6892F89C33C6
:1031B00043F0010382F89C33F868314600F51C7037
:1031C000FFF790FB00283FF40EAE074B1A68D1685A
:1031D000B1F8FC3223F00103A1F8FC32D3680122DC
:1031E00083F89D23FFE500BF3C0F0020F0EE407AFE
:1031F000B0EE600AF4EEE07AF1EE10FA01D5B0EE2E
:10320000670A7047F0EE407AB0EE600AF4EEE07ABA
:10321000F1EE10FA01DDB0EE670A704731EE601A88
:1032200030EE600A01238340013B07EE903AF8EE4E
:10323000E77A60EE277A87EE817AFDEEC77A17EE9D
:10324000900A70472DE9F0412DED108B0446D0E92E
:103250000201FDF759FA0CEE100AD4E93601FDF728
:1032600053FA00EE900AB0EE4C0AFFF7CBFFB0EE37
:10327000408AD4E90401FDF747FA0CEE900A00EE0B
:10328000900AB0EE480AFFF7B1FFB0EE40FAD4E979
:103290000601FDF739FA0BEE100AD4E93801FDF703
:1032A00033FA00EE900AB0EE4B0AFFF7ABFFB0EE38
:1032B000408AD4E90801FDF727FA0BEE900A00EEE8
:1032C000900AB0EE480AFFF791FFF0EE40EAD4E929
:1032D0000A01FDF719FA0AEE100AD4E93A01FDF7DE
:1032E00013FA00EE900AB0EE4A0AFFF78BFFB0EE39
:1032F000408AD4E90C01FDF707FA0AEE900A00EEC5
:10330000900AB0EE480AFFF771FFB0EE40EAD4E948
:103310000E01FDF7F9F909EE100AD4E93C01FDF7B9
:10332000F3F900EE900AB0EE490AFFF76BFFB0EE3A
:10333000408AD4E91001FDF7E7F909EE900A00EEA2
:10334000900AB0EE480AFFF751FFF0EE40DAD4E9F8
:103350001201FDF7D9F908EE100AD4E93E01FDF794
:10336000D3F900EE900AB0EE480AFFF74BFFB0EE3B
:1033700040DAD4E91401FDF7C7F908EE900A00EE2F
:10338000900AB0EE4D0AFFF731FFB0EE40DA1020A0
:10339000B0EE6C1AF0EE4C0AB0EE4F0AFFF73EFFAB
:1033A00080460C20B0EE6B1AF0EE4B0AB0EE6E0ABF
:1033B000FFF734FF07460C20B0EE6A1AF0EE4A0A17
:1033C000B0EE4E0AFFF72AFF06460C20B0EE691A4F
:1033D000F0EE490AB0EE6D0AFFF720FF05460C201B
:1033E000B0EE681AF0EE480AB0EE4D0AFFF716FF8D
:1033F00003464FEA282284F8082184F809813A110B
:1034000084F80A21301240EA071784F80B7184F817
:103410000C612A1184F80D21181240EA051584F870
:103420000E5184F80F31BDEC108BBDE8F08107EE32
:10343000900AF8EEE77A27EE807A01238B40013B71
:1034400007EE903AF8EEE77AC7EE276A36EE800A82
:10345000704700002DE9F8432DED028B0446D0F8AB
:1034600004315A789F7847EA0227D9781A791609E1
:1034700046EA0116150205F470655A7915431B7862
:1034800080F8A830D0E90289D0E90401FDF73CF9C1
:1034900008EE100A40464946FDF736F91021F0EED5
:1034A000480A00EE100A3846FFF7C1FF10EE100A76
:1034B000FDF74AF8C4E92C01D4E90689D4E90801EA
:1034C000FDF722F908EE100A40464946FDF71CF9BF
:1034D0000C21F0EE480A00EE100A3046FFF7A7FF75
:1034E00010EE100AFDF730F8C4E92E010C21DFEDD3
:1034F000080A9FED080A2846FFF799FF10EE100A08
:10350000FDF722F8C4E93001BDEC028BBDE8F88379
:1035100000002042000020C210B582B0044640E006
:10352000012384F88A30B4F88C3043F00203A4F805
:103530008C30062384F82D31002028E0D4F80431A3
:1035400000981860BDF804209A800098C4F89C0088
:10355000BDF80430A4F8A0302046FFF77BFF02F04E
:1035600099FAC4F83001002384F82E31012084F840
:103570008800002384F88A30B4F88C3023F00403E8
:103580001BB2A4F88C3023F00203A4F88C3002B0F4
:1035900010BD94F82E310133DBB284F82E31052BA7
:1035A00024D804F5947304F5847204F58871D4F872
:1035B000000101F0DFF80028B2D1042004F05CFD26
:1035C000D4F804216B4608320021D4F8000101F040
:1035D0004FF90028DDD19DF8002023789A42ADD024
:1035E000D4F800315B6A012BD3D1BFE7002084F807
:1035F0008800012384F88A30B4F88C3043F0040347
:10360000A4F88C30042384F82D31C0E710B50446AB
:10361000144B03CBC4F80801C4F80C112046FFF783
:103620007BFF60B194F888309BB9B4F88C3023F0FC
:103630004003A4F88C30032384F82D3110BD94F896
:10364000883053B9B4F88C3043F04003A4F88C3080
:10365000F4E7012384F88930E7E7002384F8893010
:10366000F0E700BF0800002070B50E4B1E78B6B919
:10367000304670BD0C4B1B6853F825304FF49C70DE
:1036800000FB0430FFF7C2FF012004F0F5FC013419
:10369000022CEFDD0135032DEADC0024F8E70025DC
:1036A000F9E700BF400F00203C0F002038B504466A
:1036B000164B03CBC4F80801C4F80C112046FFF7E1
:1036C0002BFF054650B994F88830DBB9B4F88C303C
:1036D00043F08003A4F88C30284638BD022004F063
:1036E000CBFC94F888304BB9B4F88C3023F08003CD
:1036F000A4F88C30022384F82D31EDE7002384F800
:103700008930F1E7012384F88930DFE700000020E9
:1037100038B5002510E00B4B1B6853F825304FF4EB
:103720009C7000FB0430FFF7C1FF012004F0A4FCF3
:103730000134022CEFDD0135032D01DC0024F8E714
:1037400038BD00BF3C0F002010B504460B4B03CB27
:10375000C4F80801C4F80C112046FFF7DDFE30B1B3
:10376000B4F88C3023F48073A4F88C3010BDB4F816
:103770008C3043F48073A4F88C30F7E710000020FD
:103780002DE9F04107460C4615461E46DFF86081DC
:1037900000224FF40051404601F092FE00224FF407
:1037A0008051404601F08CFE00224FF4804140469B
:1037B00001F086FE00224FF40041404601F080FEF9
:1037C000F81E032826D8DFE800F002274B6F0022FE
:1037D0004FF40051464801F073FE002714E0DFF873
:1037E000108101224FF40051404601F069FE284645
:1037F00004F042FC00224FF40051404601F060FE0C
:10380000304604F039FC0137A742E8DB4FF47A7008
:1038100004F032FCBDE8F08100224FF480513448BE
:1038200001F04EFE002714E0DFF8C48001224FF4BF
:103830008051404601F044FE284604F01DFC002261
:103840004FF48051404601F03BFE304604F014FC3A
:103850000137A742E8DB4FF47A7004F00DFCD9E79A
:1038600000224FF48041224801F02AFE002714E094
:10387000DFF87C8001224FF48041404601F020FEB9
:10388000284604F0F9FB00224FF48041404601F045
:1038900017FE304604F0F0FB0137A742E8DB4FF497
:1038A0007A7004F0E9FBB5E700224FF400411048BC
:1038B00001F006FE002714E0DFF8348001224FF407
:1038C0000041404601F0FCFD284604F0D5FB0022F3
:1038D0004FF40041404601F0F3FD304604F0CCFBCC
:1038E0000137A742E8DB4FF47A7004F0C5FB91E79B
:1038F000000C024008B57EE1C8231A4601210320CE
:10390000FFF73EFF20E0C8231A4602210320FFF7FD
:1039100037FF19E0C8231A4603210846FFF730FF96
:1039200012E0A94C00224FF40051204601F0C8FDDE
:10393000642004F0A1FB01224FF40051204601F065
:10394000BFFD642004F098FBA04B93F82030DBB25D
:10395000052B40F03D819C4C00224FF40051204645
:1039600001F0AEFD00224FF48051204601F0A8FD89
:1039700000224FF48041204601F0A2FD00224FF4C6
:103980000041204601F09CFD4FF4FA7004F074FBF6
:103990008E4B5B6A13F0010F06D0C8231A46012133
:1039A0000520FFF7EDFE26E1884B5B6A13F0020F5E
:1039B0007DD1864B5B6A13F4001F7FD1834B5B6A1A
:1039C00013F0040F40F08180804B5B6A13F0080F06
:1039D00040F082807D4B5B6A13F0100F40F08380D3
:1039E0007A4B5B6A13F0200F40F08480774B5B6A60
:1039F00013F0400F40F08580744B5B6A13F0800F2A
:103A000040F08680714B5B6A13F4807F40F08780C2
:103A10006E4B5B6A13F4007F40F088806B4B5B6AEF
:103A200013F4806F40F08980684B5B6A13F4006F79
:103A300040F08A80654B5B6A13F4805F40F08B80B6
:103A4000624B5B6A13F4005F40F08C805F4B5B6AF3
:103A500013F4804F40F08D805C4B5B6A13F4004F91
:103A600040F08E80594B5B6A13F4803F40F08F80AA
:103A7000564B5B6A13F4003F40F09080534B5B6AF7
:103A800013F4802F40F09180504B5B6A13F4002FA9
:103A900040F092804D4B5B6A13F4801F00F0AB80C6
:103AA000C8231A4616210520FFF76AFEA3E0C823A3
:103AB0001A4602210520FFF763FE9CE0C8231A4640
:103AC00003210520FFF75CFE95E0C8231A46042178
:103AD0000520FFF755FE8EE0C8231A46052108464B
:103AE000FFF74EFE87E0C8231A4606210520FFF7A0
:103AF00047FE80E0C8231A4607210520FFF740FE55
:103B000079E0C8231A4608210520FFF739FE72E044
:103B1000C8231A4609210520FFF732FE6BE0C823AF
:103B20001A460A210520FFF72BFE64E0C8231A4637
:103B30000B210520FFF724FE5DE0C8231A460C2167
:103B40000520FFF71DFE56E0C8231A460D2105206B
:103B5000FFF716FE4FE0C8231A460E210520FFF797
:103B60000FFE48E0C8231A460F210520FFF708FE84
:103B700041E0C8231A4610210520FFF701FE3AE074
:103B8000C8231A4611210520FFF7FAFD33E0C823A8
:103B90001A4612210520FFF7F3FD2CE0C8231A4630
:103BA00013210520FFF7ECFD25E0C8231A46142158
:103BB0000520FFF7E5FD1EE0C8231A461521052064
:103BC000FFF7DEFD17E000BF000C0240284E00208A
:103BD000274C00224FF48041204601F071FC642004
:103BE00004F04AFA01224FF48041204601F068FCBB
:103BF000642004F041FA1F4B93F84C30032B3FF440
:103C000090AE1B4C00224FF40051204601F058FCAE
:103C100000224FF48051204601F052FC00224FF464
:103C20008041204601F04CFC00224FF40041204628
:103C300001F046FC4FF4FA7004F01EFA0D4B93F8B5
:103C40004E3013F0010F7FF457AE13F0020F7FF4E4
:103C50005AAE13F0040F7FF45DAE13F0080F3FF47B
:103C600073AEC8231A4604210320FFF789FD6BE6D3
:103C7000000C02404404002008B50268034B9A423D
:103C800000D008BD01F0FAFEFBE700BF00000140D4
:103C900072B6FEE700B595B03022002108A805F005
:103CA00013F800230393049305930693079301935A
:103CB000214A116C41F080511164126C02F0805263
:103CC0000192019A02931D4B1A6842F480421A60D5
:103CD0001B6803F480430293029B012308934FF473
:103CE0008033099302230E934FF480020F9208222F
:103CF00010924FF4A872119212930723139308A8FD
:103D000000F092FF98B90F2303930223049300233A
:103D100005934FF4A05306934FF480530793052166
:103D200003A801F0E7F920B915B05DF804FBFFF72F
:103D3000AFFFFFF7ADFF00BF00380240007000404A
:103D400008B501F081FEFFF7A5FF00F019F800F0BB
:103D500085F900F0A5F900F0F9F900F04DFA00F04E
:103D6000E7FA00F025F9054800F0D6FC04F0F8F871
:103D700000F002F904F006F9FEE700BF284E00202B
:103D80002DE9F04F8DB000240794089409940A940B
:103D90000B9401946C4B1A6B42F010021A631A6B6D
:103DA00002F010020192019A02941A6B42F004028E
:103DB0001A631A6B02F004020292029A03941A6BBD
:103DC00042F080021A631A6B02F080020392039A97
:103DD00004941A6B42F001021A631A6B02F001029A
:103DE0000492049A05941A6B42F002021A631A6B49
:103DF00002F002020592059A06941A6B42F008023C
:103E00001A631B6B03F008030693069BDFF84491CB
:103E100022460821484601F053FBDFF83C8101228D
:103E20001146404601F04CFBDFF830A122464FF22C
:103E30001001504601F044FB08250795012608961D
:103E400009940A9407A9484601F048FA079608968B
:103E500009940A9407A9404601F040FA0795022503
:103E6000089509940A944FF0050BCDF82CB007A9DA
:103E7000404601F033FA07964FF4901308930994E3
:103E8000324F07A9384601F029FA10230793089505
:103E900009940A9406230B9307A9384601F01EFAE9
:103EA000042307930894099407A9294801F016FAF6
:103EB0004FF480630793089509940A94CDF82CB0C9
:103EC00007A9234801F00AFA4FF210030793089656
:103ED00009940A9407A9504601F000FA4FF4A4533C
:103EE0000793089509940A9406230B9307A9404663
:103EF00001F0F4F94FF4007307930894099407A9AB
:103F0000384601F0EBF94FF4E05307930895099414
:103F10000A940A230B9307A9384601F0DFF92023FE
:103F200007930894099407A9504601F0D7F907951B
:103F30004FF490130893099407A9484601F0CEF96D
:103F40000DB0BDE8F08F00BF003802400000024015
:103F5000000402400010024000080240000C024031
:103F600008B50248FDF77AFE08BD00BFBC4F00202F
:103F700008B5FFF7BFFC08BD08B5074A0021074890
:103F800004F01CF8064B1860064A0021064804F0AD
:103F900015F8064B186008BD6C420208613F000826
:103FA000204E002090420208713F0008244E00205D
:103FB00008B50D480D4B0360032343600023836065
:103FC000C3604FF4A02202614FF4C0024261037645
:103FD00043768376C3760377437700F05BFA00B9C4
:103FE00008BDFFF755FEFBE7284E002000640040A7
:103FF00000B589B0002303930493059306930793B8
:104000000268144B9A4202D009B05DF804FB00210B
:10401000019103F5EA331A6C42F000721A641A6CCB
:1040200002F000720192019A02911A6B42F00802AA
:104030001A631B6B03F008030293029B0323039391
:104040000222049206930923079303A9024801F070
:1040500045F9D9E700640040000C024010B582B079
:10406000002401940D4B1A6B42F400121A631B6B6F
:1040700003F400130193019B22460521102001F057
:104080009DFC102001F0D2FC22460521112001F0F8
:1040900095FC112001F0CAFC02B010BD00380240AE
:1040A00008B50B480B4B03600B4B43600023836048
:1040B000C3604FF48042026143618361C361036264
:1040C00001F0EEFC00B908BDFFF7E2FDFBE700BF21
:1040D000504E002000540040A086010030B589B049
:1040E0000023039304930593069307930268144BEC
:1040F0009A4201D009B030BD00250195114C236BC7
:1041000043F002032363236B03F002030193019B3B
:104110004FF4107303931223049301230593042394
:10412000079303A9084801F0D9F80295236C43F4DA
:1041300000132364236C03F400130293029BD9E75A
:1041400000540040003802400004024008B50D4809
:104150000D4B03604FF48273436000238360C360A0
:10416000036143614FF400728261C3610362436281
:1041700083620A23C36201F071FD00B908BDFFF735
:1041800087FDFBE7A44E00200030014000B589B058
:104190000023039304930593069307930268144B3B
:1041A0009A4202D009B05DF804FB0021019103F5A9
:1041B00084335A6C42F480525A645A6C02F480522E
:1041C0000192019A02911A6B42F001021A631B6B71
:1041D00003F001030293029BE02303930223049361
:1041E0000523079303A9034801F078F8DAE700BF35
:1041F000003001400000024008B50A480A4B036045
:104200004FF46123436000238360C36003610C2289
:1042100042618361C36102F00FF800B908BDFFF786
:1042200037FDFBE7BC4F00200044004030B589B0AB
:104230000023039304930593069307930268364B78
:104240009A4201D009B030BD04460025019503F51E
:10425000FA331A6C42F400321A641A6C02F4003217
:104260000192019A02951A6B42F001021A631B6BCC
:1042700003F001030293029B0C2303930223049394
:10428000032306930723079303A9244801F026F884
:104290002348244B03604FF0006343608560C56092
:1042A0004FF480630361456185614FF48073C3619E
:1042B0004FF440330362456201F088F928BB184B84
:1042C000A3639C631848194B03604FF0006343607D
:1042D000402383600023C3604FF480620261436126
:1042E0008361C3614FF440320262436201F06EF9B0
:1042F00070B90D4B63639C6300220521262001F0F9
:104300005DFB262001F092FB9CE7FFF7C1FCD6E79E
:10431000FFF7BEFCEDE700BF004400400000024094
:10432000FC4E0020886002405C4F0020A0600240EC
:104330007047FEE7FEE7FEE7FEE7FEE77047000096
:1043400008B5024801F03AFA08BD00BFFC4E002053
:1043500008B5024801F032FA08BD00BF5C4F0020EA
:1043600008B5024800F03AFB08BD00BF284E002007
:1043700008B5024801F01AFD08BD00BF5C99002095
:1043800008B5024802F0FCF808BD00BFBC4F002091
:1043900000B583B0002200920D4B596C41F480416E
:1043A0005964596C01F48041009100990192196C93
:1043B00041F0805119641B6C03F080530193019B01
:1043C0000F216FF0010001F0F9FA03B05DF804FB72
:1043D000003802400120704708B504F02DFC162378
:1043E00003604FF0FF3008BD08B54FF0FF31FFF715
:1043F000F3FFFEE770B50C461646002506E0AFF366
:104400000080214601F8010B01350C46B542F6DB70
:10441000304670BD70B50C461646002504E014F811
:10442000010BAFF300800135B542F8DB304670BDBB
:1044300008B503460D4A12685AB10C4A1068034485
:104440000B4A11780B4A521A934206D8074A136056
:1044500008BD064A08491160EFE700BE04F0ECFB16
:104460000C2303604FF0FF30F2E700BF0450002040
:104470000004000000000220C06D01204FF0FF305A
:1044800070474FF400534B60002070470120704785
:1044900000207047002800F0A18038B5044690F84D
:1044A0002030D3B12268136843F00103136001F098
:1044B000F1FA054623685A6812F0010F10D101F095
:1044C000E9FA401B0A28F5D9636A43F400336362B2
:1044D000052384F82030012038BDFFF789FDE1E78E
:1044E0001A6822F002021A6001F0D4FA0546236825
:1044F0005A6812F0020F0DD001F0CCFA401B0A28C6
:10450000F5D9636A43F400336362052384F82030ED
:104510000120E1E7227E012A3DD01A6822F08002C4
:104520001A60637E012B3BD02268136823F040039E
:104530001360A37E012B39D02268136823F0200377
:104540001360E37E012B37D02268136843F0100319
:104550001360237F012B35D02268136823F00803F2
:104560001360637F012B33D02268136823F00403A8
:104570001360A368E268134322691343626913431B
:104580006268013A21681343CB6100206062012315
:1045900084F82030A0E71A6842F080021A60C0E771
:1045A0002268136843F040031360C2E7226813686F
:1045B00043F020031360C4E72268136823F010035C
:1045C0001360C6E72268136843F008031360C8E766
:1045D0002268136843F004031360CAE701207047A0
:1045E00090F82030013BDBB2012B05D9436A43F43C
:1045F000802343620120704730B5464BD3F8002238
:1046000042F00102C3F80022D3F8002222F47C52C7
:10461000C3F80022D3F80022486A42EA0022C3F815
:1046200000224A6902F01F02012000FA02F2D3F8C8
:104630001C026FEA020C20EA0200C3F81C02CB69DC
:10464000C3B9344BD3F80C020CEA0000C3F80C02D7
:104650008C884869CD6844EA0544483043F83040C6
:104660008C68088840EA04404C6904F1480E03EB6A
:10467000CE035860CB69012B1ED08B69002B33D140
:104680002448D0F804320CEA0303C0F804320B6962
:104690008BBB2048D0F814320CEA0303C0F8143264
:1046A0000B6A012B2ED01B4AD2F8003223F00103F3
:1046B000C2F80032002030BD164BD3F80C02104374
:1046C000C3F80C028C8848690D6844EA05444830F8
:1046D00043F8304088894C698D6840EA0540483489
:1046E00003EBC4035860C8E70A48D0F80432134308
:1046F000C0F80432CBE70748D0F814321343C0F8AF
:104700001432CDE70349D1F81C321A43C1F81C22F8
:10471000C9E700BF0064004070B5044690F820501F
:10472000EDB2012D06D0436A43F400234362012514
:10473000284670BD022380F820300268136823F0F9
:104740000103136001F0A6F9064623685B6813F0C5
:10475000010F0CD001F09EF9831B0A2BF5D9636A77
:1047600043F400336362052384F82030E0E700253A
:104770006562DDE730B590F820C00468A4680CF1EC
:10478000FF3C5FFA8CFCBCF1010F6BD814F0E05FCA
:1047900062D0C4F3016CBCF1020F05D9436A43F443
:1047A00000034362012062E0012404FA0CF41C605F
:1047B0008B68002B3DD10D68CB68046843EA4555F2
:1047C0000CF118031B01E55003680C690CF1180E7D
:1047D00003EB0E135C600B7D012B35D0D1799379FF
:1047E0001B0443EA0163517943EA01231479016808
:1047F000234301EB0C11C1F88C31D17893781B0461
:1048000043EA0163517843EA0123117802680B43BC
:1048100002EB0C12C2F8883102680CF1180C4FEA56
:104820000C1C52F80C3043F0010342F80C3000200D
:104830001DE04C6843EAC403CC6823430CF1180420
:10484000240105682B51BFE7036803EB0E13596879
:1048500041F480715960C1E7436A43F40013436235
:10486000012004E0436A43F480234362012030BD09
:1048700090F820C00CF1FF3C5FFA8CFCBCF1010FFA
:1048800000F2998030B451B90468E46814F0030F61
:1048900010D1436A43F40013436201207BE00468B3
:1048A000246914F0030F05D1436A43F400134362F3
:1048B000012070E001F11B04240105682C5904F06B
:1048C00004049460002C68D101F11B0424010568E4
:1048D0002C59640D1460046801F11B0C4FEA0C1C88
:1048E00054F80C4004F00204D46004686444646822
:1048F00004F00F041461046864446468C4F307247A
:104900009461046864446468240C5461026802EB96
:104910000112D2F8B8211A70026802EB0112D2F823
:10492000B821C2F307225A70026802EB0112D2F8D2
:10493000B821C2F307429A70026802EB0112D2F862
:10494000B821120EDA70026802EB0112D2F8BC2113
:104950001A71026802EB0112D2F8BC21C2F30722DD
:104960005A71026802EB0112D2F8BC21C2F307426D
:104970009A71026802EB0112D2F8BC21120EDA71B0
:1049800099B90268D36843F02003D360436A23F4E3
:1049900000134362002030BC704701F11B04240166
:1049A00005682C59E408546095E70268136943F0E0
:1049B00020031361EAE7436A43F480234362012042
:1049C000704770477047704770477047704770472F
:1049D0007047704770477047704770472DE9F84F30
:1049E000054603685C69D3F804809F68D3F80CB06F
:1049F000D3F810A0D3F8189014F001063BD017F0AC
:104A0000010616D001229A6017F0020F08D117F0A4
:104A1000040F0CD117F0080606D04FF4805608E0BA
:104A2000FFF7CFFF002604E0FFF7CEFF01E04FF4D1
:104A3000006617F4807F0DD02B684FF480729A6067
:104A400017F4007F40F0868017F4806F00F08680B6
:104A500046F4005617F4803F0DD02B684FF4803297
:104A60009A6017F4003F40F0838017F4802F00F025
:104A7000838046F4004614F0080F07D01BF0100F97
:104A800004D046F400762B681022DA6014F0040F8C
:104A900002D01BF0080F79D114F0020F04D02B685C
:104AA000DB6813F0030F78D114F0400F07D01AF031
:104AB000100F04D046F480662B6810221A6114F09F
:104AC000200F02D01AF0080F6BD114F0100F04D091
:104AD0002B681B6913F0030F6AD114F4003F02D056
:104AE00018F0100F68D114F4803F02D018F0080FAE
:104AF00069D114F4004F7AD018F0040F74D014F474
:104B0000807F04D019F0010F01D046F0010614F4A3
:104B1000007F04D019F0020F01D046F0020614F411
:104B2000806F04D019F0040F01D046F0040614F48D
:104B3000006F59D019F0700956D0B9F1400F65D007
:104B400058D8B9F1200F5ED0B9F1300F42D146F0FC
:104B5000200644E02846FFF735FF7BE717F4006F97
:104B600002D046F4804675E72846FFF72EFF71E72E
:104B70002846FFF728FF7EE717F4002F02D046F4FF
:104B8000803678E72846FFF721FF74E72B68082274
:104B9000DA602846FFF71CFF7EE72846FFF717FF7D
:104BA00082E72B6808221A612846FFF713FF8CE77B
:104BB0002846FFF70EFF90E72B6810225A60284620
:104BC000FFF709FF8FE72B6808225A602846FFF796
:104BD00003FF8EE7B9F1100F01D146F008062A68ED
:104BE000936923F0700393612B6804225A609EB985
:104BF000BDE8F88FB9F1500F0BD0B9F1600FEED1CD
:104C000046F48076EBE746F01006E8E746F040060B
:104C1000E5E746F08006E2E76B6A1E436E622846CF
:104C2000FFF7DBFEE4E70000002800F0E08170B54C
:104C300082B00446036813F0010F3BD09F4B9B6882
:104C400003F00C03042B2CD09C4B9B6803F00C034B
:104C5000082B21D06368B3F5803F4FD0B3F5A02F68
:104C600052D0964B1A6822F480321A601A6822F4E5
:104C700080221A606368002B50D000F00BFF0546BD
:104C80008E4B1B6813F4003F14D100F003FF401B50
:104C90006428F5D90320B1E1884B5B6813F4800FD9
:104CA000D8D0864B1B6813F4003F03D06368002BF9
:104CB00000F09F81236813F0020F54D07F4B9B6854
:104CC00013F00C0F3ED07D4B9B6803F00C03082BB8
:104CD00033D0E368002B68D0794B01221A6000F0D2
:104CE000D9FE0546754B1B6813F0020F54D100F036
:104CF000D1FE401B0228F5D903207FE16F4A1368DB
:104D000043F480331360B5E76C4B1A6842F4802299
:104D10001A601A6842F480321A60ABE700F0BAFEFB
:104D20000546664B1B6813F4003FC3D000F0B2FE8B
:104D3000401B6428F5D9032060E1604B5B6813F4E5
:104D4000800FC6D15D4B1B6813F0020F03D0E368E0
:104D5000012B40F05081594A136823F0F803216970
:104D600043EAC1031360236813F0080F42D063695C
:104D70006BB3534B0122C3F8802E00F08BFE054627
:104D80004E4B5B6F13F0020F34D100F083FE401BDB
:104D90000228F5D9032031E1484A136823F0F803CB
:104DA000216943EAC1031360DDE7454B00221A6025
:104DB00000F070FE0546414B1B6813F0020FD2D085
:104DC00000F068FE401B0228F5D9032016E13C4B99
:104DD0000022C3F8802E00F05DFE0546374B5B6F66
:104DE00013F0020F06D000F055FE401B0228F5D943
:104DF000032003E1236813F0040F77D02F4B1B6CC3
:104E000013F0805F33D1002301932C4B1A6C42F0D6
:104E100080521A641B6C03F080530193019B01259F
:104E2000284B1B6813F4807F23D0A368012B34D058
:104E3000052B38D0214B1A6F22F001021A671A6F26
:104E400022F004021A67A368002B3DD000F022FE76
:104E500006461A4B1B6F13F0020F46D100F01AFEE4
:104E6000801B41F288339842F3D90320C6E0002525
:104E7000D6E7144A136843F48073136000F00AFE07
:104E80000646104B1B6813F4807FCED100F002FE63
:104E9000801B0228F5D90320B0E0084A136F43F0C5
:104EA00001031367CFE7054B1A6F42F004021A673C
:104EB0001A6F42F001021A67C5E700BF00380240CE
:104EC000000047420070004000F0E4FD0646524BEF
:104ED0001B6F13F0020F08D000F0DCFD801B41F2C5
:104EE00088339842F3D9032088E0EDB9A369002BF9
:104EF00000F08380484A926802F00C02082A51D0E0
:104F0000022B17D0454B00221A6600F0C3FD044661
:104F1000414B1B6813F0007F42D000F0BBFD001B2B
:104F20000228F5D9032069E03B4A136C23F0805333
:104F30001364DBE7394B00221A6600F0ABFD05462F
:104F4000354B1B6813F0007F06D000F0A3FD401B1B
:104F50000228F5D9032051E0E369226A1343626A0B
:104F600043EA8213A26A5208013A43EA0243E26A20
:104F700043EA0263284A5360284B01221A6600F074
:104F800089FD0446244B1B6813F0007F06D100F016
:104F900081FD001B0228F5D903202FE000202DE021
:104FA00000202BE0012B2BD01B4B5B6803F480010E
:104FB000E269914226D103F03F02216A8A4223D15D
:104FC000616A47F6C0721A40B2EB811F1ED103F42A
:104FD0004031A26A5208013AB1EB024F18D103F0F6
:104FE0007063E26AB3EB026F14D1002006E0012087
:104FF0007047012002E0012000E0002002B070BDF7
:105000000120FBE70120F9E70120F7E70120F5E7A0
:105010000120F3E70120F1E7003802400000474299
:1050200008B5314B9B6803F00C03042B57D0082BB9
:1050300057D12D4B5A6802F03F025B6813F4800F82
:105040002AD0294B5968C1F3881C4FEA4C11B1EBA7
:105050000C006EEB0E0E4FEA8E1343EA9063810153
:10506000091A63EB0E03DB0043EA5173C90011EB2D
:105070000C0C43F10003590200234FEA4C2041EA93
:10508000DC51FBF7E1FB184B5B68C3F301430133D1
:105090005B00B0FBF3F025E0134B5968C1F3881CAB
:1050A0004FEA4C11B1EB0C006EEB0E0E4FEA8E1373
:1050B00043EA90638101091A63EB0E03DB0043EAC4
:1050C0005173C90011EB0C0C43F10003990200234A
:1050D0004FEA8C2041EA9C51FBF7B6FBD3E703482B
:1050E00000E0034808BD00BF0038024000127A000B
:1050F0000024F400002800F09B8070B50D460446A3
:105100004F4B1B6803F007038B4208D2CBB24C4ACB
:105110001370136803F007038B4240F08B80236801
:1051200013F0020F17D013F0040F04D0454A936810
:1051300043F4E0539360236813F0080F04D0414A0E
:10514000936843F4604393603E4A936823F0F0030E
:10515000A1680B439360236813F0010F32D063689A
:10516000012B21D09A1E012A25D9364A126812F045
:10517000020F61D033498A6822F0030213438B6027
:1051800000F088FC06462F4B9B6803F00C03626816
:10519000B3EB820F16D000F07DFC801B41F2883308
:1051A0009842F0D9032042E0264A126812F4003FE8
:1051B000E0D101203BE0234A126812F0007FD9D1F0
:1051C000012034E01E4B1B6803F00703AB4207D9F4
:1051D000EAB21B4B1A701B6803F00703AB422DD1D8
:1051E000236813F0040F06D0164A936823F4E053A3
:1051F000E1680B439360236813F0080F07D0114A4E
:10520000936823F46043216943EAC1039360FFF785
:1052100007FF0C4B9B68C3F303130B4AD35CD840C6
:105220000A4B18600A4B186803F028FA002070BD7A
:10523000012070470120FAE70120F8E70120F6E796
:10524000003C024000380240BC420208240000201A
:1052500020000020014B1868704700BF2400002088
:1052600008B5FFF7F7FF044B9B68C3F38223034A9B
:10527000D35CD84008BD00BF00380240CC420208D1
:1052800008B5FFF7E7FF044B9B68C3F34233034ABB
:10529000D35CD84008BD00BF00380240CC420208B1
:1052A0000F2303600B4B9A6802F0030242609A6876
:1052B00002F0F00282609A6802F4E052C2609B68D9
:1052C000DB0803F4E0530361034B1B6803F007039F
:1052D0000B60704700380240003C024000230F2B57
:1052E00000F2E48070B582B060E085685E0003245F
:1052F000B44025EA0405CC68B4402C43846045687A
:1053000025EA02054C68C4F300129A402A43426021
:105310005AE0DC08083450F8246003F007029500D6
:105320000F22AA4026EA020E0A69AA4042EA0E02A9
:1053300040F824205CE0072200E0002202FA0EF28E
:105340002A4302345A4D45F824205A4A94686FEA99
:105350000C0224EA0C054E6816F4801F01D04CEABA
:105360000405544CA560E46802EA04054E6816F48E
:10537000001F01D04CEA04054E4CE560646802EA67
:1053800004054E6816F4003F01D04CEA0405494C70
:105390006560246822404D6815F4803F01D04CEAD6
:1053A0000402444C226001330F2B7DD801229A4025
:1053B0000C6804EA020C32EA0404F4D14C6804F0EC
:1053C0000304013C012C90D94A6802F00302032A2D
:1053D00009D0C4685D000322AA4024EA02048A6856
:1053E000AA402243C2604A6802F00302022A90D017
:1053F00004684FEA430E032202FA0EF224EA020482
:105400004A6802F0030202FA0EF2224302604A687E
:1054100012F4403FC7D000220192274A546C44F452
:1054200080445464526C02F480420192019A9C08B8
:10543000A51C1F4A52F8255003F003024FEA820EC2
:105440000F2202FA0EF225EA02051C4A90423FF4AE
:1054500074AF02F5806290421AD002F580629042E9
:1054600018D002F58062904216D002F58062904218
:1054700014D002F58062904212D002F58062904210
:1054800010D002F5806290423FF455AF082255E7F4
:10549000012253E7022251E703224FE704224DE79E
:1054A00005224BE7062249E702B070BD704700BFF6
:1054B00000380140003C014000380240000002403A
:1054C0000AB18161704709048161704730B4056891
:1054D0002C6824F480242C60046863608368402B6B
:1054E00005D0036899600368DA6030BC70470368D0
:1054F0009A600368D960F8E710B40368D9B210392C
:105500000C4AA2FB014212090B4CA25CC2655F2946
:1055100009D923F47F7323F0030304338365806D7B
:105520005DF8044B704723F47F7323F00303836516
:10553000F5E700BFABAAAAAAB4420208836A82694F
:1055400092B9012B0AD0022B02D00BB10020704778
:10555000C36A13F0807F28D100207047C36AB3F17B
:10556000C07F24D000207047B2F5005F09D0022B25
:1055700025D9032B25D1C36A13F0807F23D10020C6
:105580007047032B03D8DFE803F01404140A00204B
:105590007047C36A13F0807F0DD100207047C36A43
:1055A000B3F1C07F09D0002070470120704701206F
:1055B000704701207047012070470120704701208B
:1055C00070470020704701207047000070B5044606
:1055D00000F060FA002C5BD00546022384F83530D9
:1055E000002384F834302268136823F00103136029
:1055F00023681A6812F0010F0AD000F04BFA431B1F
:10560000052BF5D920236365032084F8350070BD90
:105610001A68204810406168A2680A43E1680A439A
:1056200021690A4361690A43A1690A43E1690A439E
:10563000216A0A430243616A04291ED01A6026685F
:10564000756925F00705636A1D43042B07D1A36A1A
:105650001D43E36A1BB12046FFF770FF90B97561E7
:105660002046FFF749FFE26D3F239340836000200F
:105670006065012384F83530C9E7E16A206B014396
:105680000A43DBE740236365012084F83500BEE769
:105690000120BCE73F8010F038B50446856D90F8D6
:1056A000340001282BD0012084F8340094F8350010
:1056B000C0B2012804D0002384F83430022038BD61
:1056C000022084F83500002060652046FFF7FEFECA
:1056D000E26D3F239340AB602268136843F01603EA
:1056E0001360236C23B12268136843F0080313602E
:1056F0002268136843F0010313600020DFE70220F3
:10570000DDE770B50446866D00F0C4F994F83530D5
:10571000DBB2022B06D080236365002384F834308B
:10572000012070BD05462268136823F0160313603C
:105730002268536923F080035361236CE3B122682C
:10574000136823F0080313602268136823F0010331
:10575000136023681B6813F0010F11D000F09AF951
:10576000431B052BF5D920236365032084F83500FE
:10577000002384F83430D4E7A36C002BDFD1E3E7B7
:10578000E26D3F239340B360012384F8353000205D
:1057900084F83400C5E790F83530DBB2022B03D033
:1057A0008023436501207047052380F83530026867
:1057B000136823F00103136000207047F0B583B035
:1057C000044600230193724B1D68724BA3FB053501
:1057D000AD0A876D3E68C26D08239340334210D0F6
:1057E00003681A6812F0040F0BD01A6822F0040242
:1057F0001A60C26D08239340BB60436D43F0010300
:105800004365E26D01239340334209D02268526917
:1058100012F0800F04D0BB60636D43F00203636538
:10582000E26D04239340334209D02268126812F0DB
:10583000020F04D0BB60636D43F004036365E26D47
:1058400010239340334224D02268126812F0080FCC
:105850001FD0BB6023681A6812F4802F0DD01B681C
:1058600013F4002F04D1236C9BB12046984710E01D
:10587000A36C73B1204698470BE01A6812F4807F3E
:1058800003D11A6822F008021A60236C0BB120467B
:105890009847E26D20239340334255D02268126826
:1058A00012F0100F50D0BB6094F83530DBB2052BEE
:1058B0000ED023681A6812F4802F33D01B6813F4BB
:1058C000002F2AD1636C002B3ED0204698473BE046
:1058D0002268136823F0160313602268536923F0CB
:1058E00080035361236CA3B12268136823F008037B
:1058F0001360E26D3F239340BB60012384F8353091
:10590000002384F83430236D002B3FD02046984785
:105910003CE0A36C002BE7D1EBE7E36BA3B120469F
:10592000984711E01A6812F4807F09D11A6822F0B2
:1059300010021A60012384F83530002384F83430D3
:10594000E36B0BB120469847636DFBB1636D13F0B9
:10595000010F17D0052384F835302268136823F02F
:1059600001031360019B01330193AB4204D8236808
:105970001B6813F0010FF5D1012384F835300023A3
:1059800084F83430E36C0BB12046984703B0F0BD87
:1059900024000020B5814E1B074AD36823F4E0633E
:1059A0001B041B0C000200F4E060034343F0BF63E0
:1059B00043F40033D360704700ED00E000B5194BAD
:1059C000DB68C3F30223C3F1070CBCF1040F28BF4B
:1059D0004FF0040C03F1040EBEF1060F18D9033B7F
:1059E0004FF0FF3E0EFA0CFC21EA0C0199400EFA32
:1059F00003F322EA0303194300280BDB0901C9B2B0
:105A000000F1604000F5614080F800135DF804FB90
:105A10000023E5E700F00F000901C9B2024B195459
:105A2000F4E700BF00ED00E014ED00E0002807DB24
:105A300000F01F02400901239340024A42F820303F
:105A4000704700BF00E100E008B50B4B1A6842F454
:105A500000721A601A6842F480621A601A6842F48E
:105A600080721A600320FFF797FF0F2002F006FEF6
:105A7000FEF78EFC002008BD003C0240034A11687E
:105A8000034B1B780B441360704700BF0850002085
:105A90001C000020014B1868704700BF0850002010
:105AA000002800F0CC8070B5044690F83D30002B03
:105AB00077D0242384F83D302268136823F0010353
:105AC00013602268136843F400431360226813686C
:105AD00023F400431360FFF7C3FB62685A4B9A42FA
