:020000040800F2
:100000000000022059AE0008F3650008F5650008FD
:10001000F7650008F9650008FB65000800000000AE
:1000200000000000000000000000000021A6000801
:10003000FD65000800000000C1A60008BDA1000881
:10004000A9AE0008A9AE0008A9AE0008A9AE000834
:10005000A9AE0008A9AE0008A9AE0008A9AE000824
:10006000A9AE0008A9AE0008A9AE0008A9AE000814
:10007000A9AE0008A9AE0008A9AE0008A9AE000804
:100080000166000811660008A9AE0008A9AE0008C4
:1000900021660008A9AE0008A9AE0008A9AE0008B4
:1000A000A9AE000831660008A9AE0008A9AE000894
:1000B000A9AE0008A9AE0008A9AE0008A9AE0008C4
:1000C000A9AE0008A9AE0008A9AE0008A9AE0008B4
:1000D000A9AE0008A9AE000841660008A9AE000854
:1000E000A9AE0008A9AE0008A9AE0008A9AE000894
:1000F000A9AE0008A9AE0008A9AE0008A9AE000884
:10010000A9AE0008A9AE0008A9AE0008A9AE000873
:10011000A9AE0008A9AE0008A9AE0008A9AE000863
:10012000A9AE0008A9AE0008A9AE0008A9AE000853
:10013000A9AE0008A9AE0008A9AE0008A9AE000843
:10014000A9AE0008A9AE0008A9AE0008A9AE000833
:10015000A9AE0008A9AE0008A9AE0008A9AE000823
:10016000A9AE0008A9AE0008A9AE0008A9AE000813
:10017000A9AE0008A9AE0008A9AE00080000000062
:08018000A9AE0008A9AE0008B9
:1001C0000348044B834202D0034B03B118477047E6
:1001D000880300208803002000000000054806492D
:1001E0000B1AD90F01EBA301491002D0034B03B145
:1001F0001847704788030020880300200000000093
:1002000010B5064C237843B9FFF7DAFF044B13B15E
:100210000448AFF300800123237010BD8803002041
:10022000000000002422020808B5044B1BB1044959
:100230000448AFF30080BDE80840CFE700000000AD
:100240008C03002024220208014B1868704700BF6D
:100250000000002070B50D4E0D4D761BB61006D077
:100260000024013455F8043B9847A642F9D1094EC1
:10027000094D761B21F0D6FFB61006D000240134BC
:1002800055F8043B9847A642F9D170BD243B0208BB
:10029000243B0208283B0208243B0208024B01468B
:1002A000186800F04BB900BF00000020024B014667
:1002B000186800F0EDB800BF00000020844641EA55
:1002C000000313F003036DD1403A41D351F8043BCE
:1002D00040F8043B51F8043B40F8043B51F8043B20
:1002E00040F8043B51F8043B40F8043B51F8043B10
:1002F00040F8043B51F8043B40F8043B51F8043B00
:1003000040F8043B51F8043B40F8043B51F8043BEF
:1003100040F8043B51F8043B40F8043B51F8043BDF
:1003200040F8043B51F8043B40F8043B51F8043BCF
:1003300040F8043B51F8043B40F8043B51F8043BBF
:1003400040F8043B51F8043B40F8043B403ABDD22E
:10035000303211D351F8043B40F8043B51F8043BD0
:1003600040F8043B51F8043B40F8043B51F8043B8F
:1003700040F8043B103AEDD20C3205D351F8043B5F
:1003800040F8043B043AF9D2043208D0D2071CBF2B
:1003900011F8013B00F8013B01D30B880380604654
:1003A000704700BF082A13D38B078DD010F00303CA
:1003B0008AD0C3F10403D21ADB071CBF11F8013B3A
:1003C00000F8013B80D331F8023B20F8023B7BE789
:1003D000043AD9D3013A11F8013B00F8013BF9D2B4
:1003E0000B7803704B7843708B788370604670474E
:1003F000F0B4860746D0541E002A3CD0CAB2034649
:1004000002E014F1FF3436D303F8012B9D07F8D135
:10041000032C29D9CDB245EA05250F2C45EA05451F
:1004200033D9A4F11006360903F1200707EB0617AC
:1004300003F1100242E9045542E902551032BA4272
:10044000F8D1721C14F00C0F03EB021204F00F062B
:1004500013D0331F23F003030433134442F8045B27
:100460009342FBD106F003042CB1C9B21C4403F83B
:10047000011B9C42FBD1F0BC704734461346002C54
:10048000F3D1F8E714460346C2E71A462646E0E7EA
:1004900000293CD038B551F8043C0C1F002BB8BFE4
:1004A000E418054600F04CFA234B1A682AB1A24220
:1004B0000DD921686018824223D0626028461C60F2
:1004C000BDE8384000F03EBAA34203D81A4653684C
:1004D000002BF9D111685018A04219D024D82168F6
:1004E0006018834206D0636054602846BDE83840F7
:1004F00000F028BAD3E9000301446360216054602E
:10050000F3E7D2E90002014462602160D6E7704758
:1005100020680144501883421160E6D1D3E90003FA
:10052000014453601160E0E70C232B602846BDE8CE
:10053000384000F007BA00BFA4030020F8B5CD1C76
:1005400025F0030508350C2D38BF0C25002D064677
:1005500033DBA94231D82A4F00F0F2F93A6852B1A0
:1005600013685B1B04D43FE023685B1B29D522463C
:100570005468002CF8D1796800293BD029463046D0
:1005800000F074F8431C28D0C41C24F00304A042DB
:1005900005D0211A304600F069F801301DD02560E1
:1005A000304600F0CFF904F10B0020F00700231DC6
:1005B000C21A01D01B1AA350F8BD0C2232600020D1
:1005C000F8BD0B2B05D8A242636811D05360E7E752
:1005D000144623601C442560E2E70C233046336058
:1005E00000F0B0F90020F8BD0B2BF1D85368144689
:1005F0003B60D5E7304600F039F87860BEE700BFD1
:10060000A40300200EB410B5044683B008B183697A
:1006100063B106A803460190059AA168204600F040
:10062000D7F903B0BDE8104003B0704700F018F9E7
:10063000EFE700BF0FB410B50B4B1C6882B00CB1D4
:10064000A36963B105A803460190049AA1682046F6
:1006500000F0BEF902B0BDE8104004B0704720467B
:1006600000F0FEF8EEE700BF0000002038B5074CB0
:10067000002305460846236006F03AF8431C00D0E4
:1006800038BD2368002BFBD02B6038BD80F10020E3
:1006900000207047014900F029B900BF3D1400084F
:1006A0000020704770B54A1E682505FB02F50E460E
:1006B00005F17401FFF742FF044640B100210C3000
:1006C000666005F168022160A060FFF791FE204698
:1006D00070BD00BF1E4B70B51D68AB69064643B3C5
:1006E0004835D5E90134013B05D51EE0013B5A1CD4
:1006F00004F1680419D0B4F90C20002AF6D10025C1
:10070000144B6566C4E90055A560C4E90455A561AC
:100710002946E360082204F15C00FFF769FEC4E9A2
:100720000D55C4E91255204670BD2C682CB12546E4
:10073000D7E7284600F010F8D2E704213046FFF74B
:10074000B1FF044628600028F1D10C233360EAE7AA
:10075000402202080100FFFF2DE9F84F334B3449D6
:100760001A68816290424FF00003C0E912330365BA
:1007700004BF012383610546FFF7ACFF686028468C
:10078000FFF7A8FFA8602846FFF7A4FF6E68E8609F
:1007900000240423F3607466C6E90044B460C6E92B
:1007A0000444B461214606F15C000822FFF720FEF4
:1007B000DFF888B0AF68DFF888A0DFF88890DFF84E
:1007C00088801C4BC6F83080C6E9086BC6E90AA9C8
:1007D0002146FB6008227C66C7E90044BC60C7E98B
:1007E0000444BC6107F15C00FFF702FEEE68124BA7
:1007F000C7F83080C7E9087BC7E90AA92146F3603A
:100800007466C6E90044B460C6E90444B46106F104
:100810005C000822FFF7ECFD0123C6E9086BC6E97E
:100820000AA9C6F83080AB61BDE8F88F4022020803
:10083000950600080900010012000200711000086E
:1008400099100008D9100008F9100008024B03495C
:10085000186800F04BB800BF402202083D140008A1
:10086000836903B978E77047704700BF704700BFDE
:10087000704700BF704700BF024B0349186800F083
:100880000FB800BF0000002091060008024B03498A
:10089000186800F005B800BF00000020A10600089D
:1008A0002DE9F04110F148071BD088460026D7E912
:1008B0000154013D0FD4A389012B05F1FF3506D961
:1008C000B4F90E300133204601D0C04706436B1CFB
:1008D00004F16804EFD13F68002FE8D13046BDE84D
:1008E000F0813E463046BDE8F08100BF2DE9F84377
:1008F00010F148071FD0884606464FF00009D7E997
:100900000154013D11D4A389012B05F1FF3508D90C
:10091000B4F90E3001332146304602D0C04749EACF
:1009200000096B1C04F16804EDD13F68002FE6D18B
:100930004846BDE8F883B9464846BDE8F88300BF9D
:10094000704700BF704700BF9368013B002B936066
:1009500011DA10B49469A34209DB0A2907D013689D
:10096000581C1060197008465DF8044B70475DF81C
:10097000044B00F0C5BB1368581C10601970084682
:10098000704700BF9BB1F8B513440F4606465D1E85
:10099000541E01E0AC4208D03A4614F8011F30461C
:1009A000FFF7D2FF431CF5D1F8BD0020F8BD0020B1
:1009B000704700BF936810B5144613B953601846CA
:1009C00010BD00F07DFD0023C4E9013310BD00BF60
:1009D0002DE9F04F9FB08B4690461C46039018B10E
:1009E0008369002B00F0B780A24B9B4500F0B980D3
:1009F000A14B9B4500F0C780A04B9B4504BF039BC8
:100A0000D3F80CB0BBF80C30180740F1B280DBF81B
:100A10001030002B00F0AD8030238DF8323098F884
:100A200000300594002120220B918DF83120944E46
:100A30000127002B00F08780252B00F0158145460B
:100A400003E0252B00F0A38025466B786C1C002B5F
:100A5000F7D1B4EB080A76D042465346594603987C
:100A6000FFF790FF01306ED00B9B6A7853440B93D5
:100A7000002A68D000234FF0FF3201340693CDE9FD
:100A800008338DF85B301C93079205E0069A07FA4D
:100A900003F313432C4606932546052215F8011B44
:100AA000304600F025FFAA46831B0028EED1069BA6
:100AB000D90644BF20228DF85B2021781A0744BF55
:100AC0002B228DF85B202A2966D1059A1168043201
:100AD00000290592C0F29D8009916178A51C2E29FC
:100AE00073D0684C0322204600F002FF002800F07B
:100AF0008680001B069B402404FA00F00343069303
:100B000005F10108297860488DF83010062200F0C0
:100B1000EFFE002800F083805C4B002B72D005AB09
:100B200000935A465A4B039806A9AFF300808146BA
:100B3000B9F1FF3F07D00B9B4B440B9398F8003063
:100B4000002B7FF479AFBBF80C305B0618D40B9800
:100B50001FB0BDE8F08FFFF783FE464B9B457FF447
:100B600047AF039BD3F804B0BBF80C3018073FF530
:100B70004EAF5946039800F039FB00283FF44CAFC4
:100B80004FF0FF30E4E7039BD3F808B03AE7B4EB4B
:100B9000080A3FF46FAF5FE7A1F13002092A88BF6E
:100BA000A2469CD8099B01E02C460135297803EB2D
:100BB000830302EB4303A1F13002092AAA46F3D9C9
:100BC0002E2904F1020509938BD19AF801102A29E4
:100BD0002FD1059B9AF802101A6807920433002A55
:100BE00005930AF103050AF1020338DB254C0322C1
:100BF00020469A4600F07CFE00287FF47AAFA84693
:100C000055467FE7059B073323F007030833059319
:100C100091E7494243F00203099106935DE705AB72
:100C200000935A461A4B039806A900F0D5F881465E
:100C30007EE7A1F130020023092A079301D915E0CC
:100C40005546697803EB830302EB4303A1F13002BD
:100C5000092A05F1010AF3D90235079341E74FF05C
:100C6000FF329A4607923CE7444603E7AA4601351D
:100C700037E700BF842202086422020844220208E7
:100C800070350208783502087C3502080000000043
:100C90008509000810B4044C13460A460146206832
:100CA0005DF8044BFFF794BE000000202DE9F047EB
:100CB0000C4691460A698968DDF820808A42B8BFEF
:100CC0000A46C9F8002094F8431006461F4611B1A1
:100CD0000132C9F80020236899065CD5D9F80020B4
:100CE0000232C9F80020236813F0060F19461DD1FF
:100CF000E1688A1A002AD8BF194617DD04F1190ADB
:100D0000002505E0E368D9F800209B1AAB420CDD12
:100D10000123524639463046C047013005F10105EE
:100D2000F0D14FF0FF30BDE8F087216894F84330F0
:100D3000003318BF01238A060AD5E1185A1C302057
:100D400081F84300224494F8451082F8431002339E
:100D500004F1430239463046C0470130E1D02368F0
:100D6000A268216903F00603042B1DD08A4226DD08
:100D70004FF00009521A91441A34002501E04D4504
:100D80001DDA0123224639463046C047013005F1BD
:100D90000105F4D1C5E713F0060F13D094F84330E2
:100DA000003318BF0123D3E7D9F80000E3688A4273
:100DB000A3EB000323EAE379DCDC002BDCDC00207E
:100DC000BDE8F087E168D9F800208A1A002AD8BF68
:100DD000194693DCAAE700BF2DE9F0430C46097ED3
:100DE00085B06E29064617460C98984604F1430EC6
:100DF0006DD039D9732900F0F68044D9752900F0F7
:100E00000481782940F0118178232268DFF858C2E4
:100E100084F845300168150651F8043B016040F143
:100E2000A180D10744BF42F020022260002B00F0D5
:100E300093801022002184F843106068A06000288D
:100E4000C0F2C880216821F004012160002B40F02D
:100E5000A380002840F0C0807546082A00F0AC80CE
:100E6000AEEB0503236141E0632900F0E5801AD869
:100E7000002938D0582940F0D88084F845102268DD
:100E8000DFF8E8C1C6E76F2900F0BF80702940F0A5
:100E9000CC802268DFF8D0C142F0200278232260A3
:100EA00084F84530B6E7642902D0692940F0BD8056
:100EB00022680368110603F1040557D51968056017
:100EC0000B46002959DBDFF8A4C10A22B5E7036805
:100ED000226861691D1D056015061B6802D4500655
:100EE00000F1BD801960002375462361CDF80080B4
:100EF0003B4603AA21463046FFF7D8FE013020D0FA
:100F00002A46236939463046C047013019D0226845
:100F10000398E368920719D51A1A002A16DD04F11E
:100F20001909002504E0E36803981A1AAA420DDDA6
:100F300001234A4639463046C047013005F10105D4
:100F4000F1D14FF0FF3005B0BDE8F0839842B8BF53
:100F5000184605B0BDE8F083226822F02002226026
:100F6000102267E7500648BF9BB25AE75106A5D545
:100F7000B3F9003005601946A3E76168A1602D2030
:100F80000029C3F1000384F8430002DB22F00402CD
:100F90002260DFF8D8C00A22754600E00B46B3FB9A
:100FA000F2F102FB113093421CF8000005F8010D2C
:100FB000F4D2082A7FF454AF2368DB077FF550AFE3
:100FC000626823699A423FF74BAF302305F8013C32
:100FD000013D45E7002BDFD19CF8003084F842301A
:100FE00004F1420539E703686268191D01601D6854
:100FF0000021284600F07CFC002832D0401B6060B5
:101000002061002384F8433070E72268036812F0FF
:10101000800F03F104051AD01B6805606F290CBF0F
:1010200008220A22DFF844C004E7012384F84210B2
:10103000236104F14205E4E703681A68191D0123DE
:10104000016004F1420584F842202361D9E712F0DF
:10105000400F0DBF1B6805601B880560DEE7198027
:1010600041E76068CCE700BF983502088435020884
:1010700010B50C46B1F90E1000F018FD002803DB86
:10108000636D0344636510BDA38923F48053A3817A
:1010900010BD00BF002070472DE9F0411646B1F9A0
:1010A0000C201F46D3050C460546B1F90E1009D495
:1010B00022F48052A2813B4632462846BDE8F041E8
:1010C00000F07EB80022022300F07EFBB4F90C2071
:1010D000B4F90E10ECE700BF10B50C46B1F90E10D4
:1010E00000F072FBA389421C0EBF23F4805343F42B
:1010F00080536065A38110BDB1F90E1000F0F6B801
:10110000F8B50D461446064608B1836943B3254B2E
:101110009C422AD0244B9C4229D0244B9C4208BF9D
:10112000F468A389A269A2601A0722D5236903B3D0
:1011300022686169D31AEDB299422F4629DD013345
:10114000A168501C0139A1602060157062699A4243
:1011500016D0A389DB0701D50A2D11D03846F8BD7A
:10116000FFF77EFB0F4B9C42D4D17468D9E7B4687B
:10117000D7E72146304600F039F838B92369D7E778
:101180002146304600F05AF90028E7D04FF0FF37EB
:10119000E4E72146304600F051F90028F6D12268F4
:1011A0000123CDE7842202086422020844220208B7
:1011B000024B0A4601461868FFF7A2BF0000002054
:1011C00070B50D46084C114606461A4628460023BF
:1011D000236005F07FFA431C00D070BD2368002B0C
:1011E000FBD0336070BD00BF80F100203B4B70B579
:1011F0001D6806460C460DB1AB69DBB1384B9C420D
:101200001ED0384B9C424AD0374B9C4208BFEC68FA
:10121000B4F90C2093B2190718D5206908B313F05C
:1012200001022CD0636900225B42A361A26060B31B
:10123000002070BD2846FFF713FB294B9C42E0D1EC
:101240006C68B4F90C2093B21907E6D4DD063CD5DE
:10125000580726D4206942F00803A3819BB20028D6
:10126000DDD103F42072B2F5007FD8D0304621469C
:1012700000F0EEFAA389206913F00102D2D1990798
:1012800058BF6269A2600028D2D1B4F90C301A06A6
:10129000CFD543F04003A3814FF0FF3070BDAC6861
:1012A000B6E7616B51B104F14403994204D0304672
:1012B000FFF7EEF8B4F90C200023636300232069E4
:1012C000636022F024022060C5E742F04002092357
:1012D00033604FF0FF30A28170BD00BF00000020DE
:1012E00084220208642202084422020838B5074C0E
:1012F000002305460846236005F020FA431C00D071
:1013000038BD2368002BFBD02B6038BD80F1002056
:101310008B891A072DE9F0410C46804641D44A6872
:10132000002A59DDE66A002E53D00022D8F800507A
:10133000216AC8F8002013F4805251D1012340469D
:10134000B047431C5FD0A389E66A216A5F0705D5D1
:101350006268636B801A0BB1236CC01A02460023CB
:101360004046B047461C45D1D8F80030B4F90C20AF
:10137000002B55D01D2B01D0162B5AD123690022EA
:10138000C4E90032616BC8F8005011B304F14403A2
:10139000994202D04046FFF77BF800206063BDE829
:1013A000F0810E69AEB10D680E6099070CBF6369DC
:1013B0000023AD1BA3600AE02B463246A76A216AD0
:1013C0004046B8470028A5EB000506440ADD002D7D
:1013D000F2DC0020BDE8F0810A6C002AA2DCF8E70C
:1013E000606DB3E7A38943F04003A3814FF0FF3062
:1013F000BDE8F0812269A389226000226260DA04DC
:10140000C0D56065BEE7D8F80030002B9BD01D2BFF
:101410000CD0162B0AD0A38943F04003A381D9E74F
:101420002169C4E90013D304ACD5EAE7C8F8005039
:10143000CFE742F04002A281CCE700BF0B6923B3A3
:1014400010B5044682B008B18369BBB1104B994214
:1014500012D0104B994216D00F4B994208BFE16849
:10146000B1F90C302BB1204602B0BDE81040FFF7B7
:101470004FBF002002B010BD6168F1E70191FFF796
:10148000EFF90199E2E7A168EAE70020704700BFA1
:1014900084220208642202084422020820B1054B7B
:1014A00001461868FFF7CABF034B04491868FFF7E5
:1014B0001DBA00BF00000020402202083D140008B1
:1014C0009368002B00F002812DE9F04FB1F90C3048
:1014D0009BB20C46190783B08246904635D52269E7
:1014E0009AB313F00202D8F800603DD00027D4F878
:1014F00028B0D4F820C0DFF8CC923D464D452B46AD
:101500003A4628BF4B4661465046D5B1D8470028D9
:1015100040F3D280D8F808301B1A07442D1AC8F8B7
:101520000830002B00F0B780D4F820C0D4F828B0E1
:101530004D452B463A4628BF4B4661465046002D46
:10154000E4D1D6E900750836D8E721465046FFF7C2
:101550004DFE002840F03081B4F90C30D8F800601E
:101560009BB213F00202C1D113F0010940F0B08028
:10157000A76820684D46002D54D09A0540F1BC80E4
:10158000AF42BB4600F2E78013F4906F2FD0D4E94E
:10159000041707EB4707A0EB010B07EBD777681C95
:1015A0007F105844B8423A4684BF07463A465B0526
:1015B00040F1E98011465046FEF7C0FF002800F0D8
:1015C000F5805A4621690190FEF778FEA289019BB9
:1015D00022F4906242F08002A281A7EB0B0203EB9F
:1015E0000B00676123612060A2602F46AB465A461C
:1015F000494600F0CDF9A2682368D21B5B442F4610
:10160000A26023600025D8F80830DB1BB944C8F875
:101610000830002B3FD0B4F90C30A76820689BB28B
:10162000002DAAD1D6E900950836A4E70BF10803EE
:1016300053E902679B460833002FF9D03A460A2146
:10164000304600F055F9002853D00130A0EB0609D0
:101650004B46D4E904122068BB4228BF3B4688426F
:1016600003D9A5681544AB4219DC9A427DDC1346C8
:10167000A56A216A32465046A847051E1CDDB9EB13
:1016800005096BD00120D8F808305B1B2E447F1B66
:10169000C8F8083013BB002003B0BDE8F08F314616
:1016A0002A4600F075F923682B44236021465046F2
:1016B000FFF7C4FE0028E2D0B4F90C3043F0400339
:1016C0004FF0FF30A38103B0BDE8F08F00207047DA
:1016D00033469146104617464E469B46002FA5D0EE
:1016E0000028B5D13A460A21304600F001F9002819
:1016F000ABD17B1C9946ACE72369834215D3616962
:10170000A94212D82E4BA76A9D4294BF2B466FF078
:1017100000434A4693FBF1F3504601FB03F3216A71
:10172000B847071EC8DDED1B6DE7AF4228BF2F4647
:101730003A46494600F02CF9A3682268DB1B3A447C
:10174000A3602260002BEED121465046FFF776FEC3
:101750000028E8D0B0E72F46AB4648E72146504680
:10176000FFF76CFE00288ED0A6E71A46314601939B
:1017700000F00EF9019BA1682268C91A1A44A16001
:1017800022601D467BE7504600F06AF903460028B8
:101790007FF423AF21695046FEF77AFEB4F90C308E
:1017A0000C2223F08003CAF8002087E70C23CAF834
:1017B0000030B4F90C3081E74FF0FF306CE700BF28
:1017C000FEFFFF7F00FCFF7F70B50D46084C114601
:1017D00006461A4628460023236004F0B9FF431C3E
:1017E00000D070BD2368002BFBD0336070BD00BFFC
:1017F00080F1002070B50C46B1F90E10002996B0AA
:1018000016461D4613DB6A4600F066F900280EDB1B
:10181000019A02F47042A2F50052B2FA82F2520921
:101820004FF4806300202A60336016B070BDA38936
:1018300000221B062A6004D540230020336016B026
:1018400070BD4FF480630020336016B070BD00BFE0
:101850008A8992070B4606D501F1470201211A60D9
:10186000C3E90421704770B582B001AB6A460C46EB
:101870000646FFF7BFFF009905463046FEF75EFEBD
:10188000B4F90C3070B11649B162019A0099206028
:1018900043F08003A381C4E904018AB92B43A381E7
:1018A00002B070BD9A05FBD423F0030304F1470294
:1018B00043F002030121A3812260C4E90421EFE780
:1018C0003046B4F90E1000F01BF910B9B4F90C3021
:1018D000E4E7A38923F0030343F001031BB2DDE730
:1018E0009506000800000000000000000000000055
:1018F00001F0FF01102A2BDB10F0070F08D010F8C1
:10190000013B013A8B422DD010F0070F42B3F6D1C4
:10191000F0B441EA012141EA014122F007047FF0DD
:1019200000070023F0E80256083C85EA010586EA34
:10193000010685FA47F5A3FA87F586FA47F6A5FA70
:1019400087F68EB9EED1F0BC01F0FF0102F007027C
:1019500032B110F8013B013A83EA010313B1F8D127
:101960000020704701387047002D06BF3546033808
:10197000073815F0010F07D1013015F4807F02BF41
:10198000013015F4C03F0130F0BC0138704700BF92
:101990008842F0B40DD98B1883420AD9841832B129
:1019A000224613F8014D02F8014D9942F9D1F0BCDD
:1019B00070470F2A0ED80346541E002AF7D0013470
:1019C0000C44013B11F8012B03F8012FA142F9D17E
:1019D000F0BC704740EA01039B073BD1A2F110071E
:1019E0003F0901F1200606EB071601F1100300F193
:1019F000100453F8105C44F8105C53F80C5C44F885
:101A00000C5C53F8085C44F8085C53F8045C44F838
:101A1000045C1033B34204F11004EAD17B1C1B01B7
:101A200012F00C0F194402F00F05034415D0043DC9
:101A3000AD0803EB850C1C1F0E4656F8047B44F8DA
:101A4000047F6445F9D10135AD002B44294402F0EF
:101A50000302B1E7541E0346B1E72A46ACE700BFD4
:101A600009B3F8B51446CAB106460D4600F05AF857
:101A7000A04202D32F463846F8BD21463046FEF735
:101A80005DFD07460028F6D022462946FEF716FCE3
:101A900030462946FEF7FCFC3846F8BD2746FEF7DF
:101AA000F7FC3846F8BD1146FEF748BD70B50D4647
:101AB000084C114606461A4628460023236004F0C7
:101AC000F9FD431C00D070BD2368002BFBD03360B0
:101AD00070BD00BF80F1002038B50B46074C0546AD
:101AE000114618460023236004F02BFE431C00D04F
:101AF00038BD2368002BFBD02B6038BD80F100205F
:101B000038B5074C002305460846236004F01EFE46
:101B1000431C00D038BD2368002BFBD02B6038BDA0
:101B200080F1002051F8043C181F002BBCBF0B585B
:101B3000C01870474FF0FF3C06E000BF4FF0010CAB
:101B400002E000BF4FF0010C4DF804CD4FEA410C0C
:101B50007FEA6C5C4FEA430C18BF7FEA6C5C1BD0D9
:101B600001B050EA410C0CBF52EA430C91EA030F5A
:101B700002BF90EA020F0020704710F1000F91EAB7
:101B8000030F58BF994208BF90422CBFD8176FEA85
:101B9000E37040F0010070474FEA410C7FEA6C5C53
:101BA00002D150EA013C07D14FEA430C7FEA6C5C5A
:101BB000D6D152EA033CD3D05DF8040B704700BF86
:101BC0008446104662468C461946634600E000BFD4
:101BD00001B5FFF7B7FF002848BF10F1000F01BDA6
:101BE0004DF808EDFFF7F4FF0CBF012000205DF871
:101BF00008FB00BF4DF808EDFFF7EAFF34BF0120F6
:101C000000205DF808FB00BF4DF808EDFFF7E0FF8E
:101C100094BF012000205DF808FB00BF4DF808EDDF
:101C2000FFF7CEFF94BF012000205DF808FB00BF46
:101C30004DF808EDFFF7C4FF34BF012000205DF828
:101C400008FB00BF7BB972B90029BEBF00204FF06E
:101C5000004106E008BF00281CBF6FF000414FF0B4
:101C6000FF3001F05FB9ADF1080C6DE904CE002939
:101C700009DB002B1ADB00F04DF8DDF804E0DDE9AC
:101C8000022304B07047404261EB4101002B1BDB93
:101C900000F040F8DDF804E0DDE9022304B0404242
:101CA00061EB4101524263EB43037047524263EBE5
:101CB000430300F02FF8DDF804E0DDE9022304B06F
:101CC000404261EB41017047524263EB430300F035
:101CD00021F8DDF804E0DDE9022304B0524263EBB1
:101CE0004303704753B94AB9002908BF00281CBFF5
:101CF0004FF0FF314FF0FF3001F014B9ADF1080C97
:101D00006DE904CE00F006F8DDF804E0DDE9022319
:101D100004B070472DE9F047089D04468C46002B1F
:101D200040F083808A42174647D9B2FA82F242B124
:101D3000C2F1200024FA00F09140974040EA010CE3
:101D400094404FEA1748230CBCFBF8F61FFA87FEB5
:101D500008FB16C143EA014306FB0EF1994209D97B
:101D6000FB1806F1FF3080F01981994240F216818C
:101D7000023E3B445B1AA4B2B3FBF8F008FB1033FD
:101D800044EA034400FB0EFEA64509D93C1900F1C4
:101D9000FF3380F00581A64540F2028102383C44C1
:101DA00040EA0640A4EB0E0400261DB1D4400023F7
:101DB000C5E900433146BDE8F08702B9FFDEB2FA5B
:101DC00082F2002A50D1CB1B4FEA174E1FFA87F838
:101DD0000126B3FBFEFC210C0EFB1C3341EA034140
:101DE00008FB0CF38B4207D979180CF1FF3002D2B3
:101DF0008B4200F2E9808446C91AA3B2B1FBFEF01F
:101E00000EFB101143EA014408FB00F8A04507D976
:101E10003C1900F1FF3302D2A04500F2D9801846E8
:101E2000A4EB080440EA0C40BFE78B4209D9002D1F
:101E300000F0B1800026C5E9000130463146BDE81A
:101E4000F087B3FA83F6002E4AD18B4202D3824246
:101E500000F2B880841A61EB030101208C46002D4A
:101E6000A8D0C5E9004CA5E7C2F1200320FA03F68B
:101E7000974001FA02F04FEA174ED9403043030C65
:101E8000B1FBFEF61FFA87F80EFB161143EA014379
:101E900006FB08F1994204FA02F409D9FB1806F18D
:101EA000FF3C80F08D80994240F28A80023E3B44A4
:101EB0005B1A81B2B3FBFEF00EFB103341EA034123
:101EC00000FB08F38B4207D9791800F1FF3C73D26D
:101ED0008B4271D902383944CB1A40EA064678E77A
:101EE000C6F1200C03FA06F422FA0CF31C4320FA84
:101EF0000CF701FA06F34FEA144E21FA0CF11F43D6
:101F00003B0CB1FBFEF91FFA84F80EFB191143EAF2
:101F1000014109FB08FA8A4502FA06F200FA06F3C3
:101F200008D9611809F1FF3048D28A4546D9A9F18C
:101F300002092144A1EB0A01BFB2B1FBFEF00EFB86
:101F4000101147EA014700FB08F8B84507D9E7191F
:101F500000F1FF312ED2B8452CD90238274440EA8F
:101F60000940A7EB0807A0FB02894F45C646494632
:101F70001AD317D05DB1B3EB0E0267EB010707FA76
:101F80000CFCF2404CEA0202F740C5E900270026AB
:101F90003146BDE8F0872E4628460BE70646E9E6BF
:101FA0001846FDE64345E5D2B8EB020E69EB0401A5
:101FB0000138DFE70846D2E760468DE78146B9E79A
:101FC000664675E730464AE7ACF1020C394413E740
:101FD00002383C4424E700BF03685A004CBF43F07A
:101FE000004323F000431844704700BF2DE9F84335
:101FF00029B34F1E044615463E464FF0000808EB35
:10200000060101EBD171491004EBC1094846FFF705
:10201000E3FF0346C80008308F42204409D0AB429A
:1020200009D8FFF7D9FF0138A8420AD201F1010807
:10203000E5E7AB4205D9884501D04E1EDFE74FF0FA
:1020400000094846BDE8F883012807D0022807D0D8
:10205000044B00280CBF1846002070470248704708
:10206000024870470D2700081127000815270008AF
:1020700030B5234B83B004468D1E3BB301A92846DF
:10208000AFF30080E8B101992A46FFF7AFFF0146A0
:10209000B8B1FFF7A1FF4B68A064012B2BD0002B38
:1020A00001F1040023DBFFF797FF0023C4E91303CA
:1020B0000368002B10DBFFF78FFF2061002003B0C7
:1020C00030BD00230920236103B030BD0D490E4807
:1020D000091AC9100191D7E7C3F30360FFF7B4FFF2
:1020E0000028206114BF0020092003B030BD012367
:1020F000C4E91303DCE7002323610520DFE700BF09
:1021000000000000243B02085C3A02080368DA077A
:1021100010B5044606D49B0700F1480009D500F02D
:102120004BFC2368590709D51A070ED5DB0613D5D2
:1021300010BD00F039FC23685907F5D404F1D00034
:1021400000F042FC23681A07F0D404F5A87000F0F0
:1021500043FC2368DB06EBD404F5E870BDE81040CF
:1021600000F07EBC0346006800B11844704700BF11
:1021700009207047704700BF70B504460E46316CA9
:102180002046FFF775FF054688B9336C6361324618
:1021900023692146012098470828F0D0072806D156
:1021A0002846316CFFF7E6FF301D00F0F1FB00F030
:1021B000BBFE00BF2DE9F0470D1D064614460FCDAE
:1021C000ADF5727D0DF10C0CACE80F000FCDACE855
:1021D0000F000FCDACE80F0095E80F0002ADF768D7
:1021E000D6F818808CE80F0000232B6021E02B6CC0
:1021F00073614FF4F07229467AA8FEF75FF83369ED
:102200007AAA314650469847889BCDE90058214626
:102210006B648146334632460120B8470446E8B92C
:102220004FF4F0727AA92846FEF748F8B9F1080F82
:102230001BD1296C3046FFF71BFF09345FFA84FA83
:1022400081460028D3D0AB6B4AF01001CDE900588D
:1022500032466B6401203346B84708B14FF0090994
:1022600048460DF5727DBDE8F087B9F1070FF5D14D
:102270002046296CFFF77EFF03A800F089FB00BF12
:10228000406C7047F0B5CB6B0B640E1D0F460546D6
:102290000FCEF9B001AC0FC40FCE0FC40FCE0FC4D8
:1022A00096E80F004FF0FF3684E80F00009606E036
:1022B0002B696A46294698470828044608D1109990
:1022C0002846FFF7D5FE0028F2D0092079B0F0BDEE
:1022D0006846FFF71BFF062CF7D139462846FFF763
:1022E0004BFF00BF30B4DD6BC160826119461D64D5
:1022F000002230BC5EE700BF70B5C66843690B645E
:10230000AEB903690A4604460D46014602209847C5
:10231000072805D008280FD129462046FFF72CFFB3
:102320003046296CFFF726FF281D00F031FB012203
:10233000FFF740FF00F0F8FD00F0F6FDC2681AB1AB
:10234000CA6B0A64002235E79CE700BF704700BFF4
:10235000836801460BB1012018477047012912D04C
:1023600009D873B90F2A0CD800EB820218465368BB
:10237000009A136070470339012994BF012002209D
:102380007047022070470846704700BF10B584B000
:10239000002303AC0A4600941946FFF7DFFF0398B9
:1023A00004B010BD012912D009D873B90F2A0CD876
:1023B00000EB8200009A12684260184670470339A9
:1023C000012994BF0120022070470220704708466F
:1023D000704700BF10B584B0002303AC0392009493
:1023E0000A461946FFF7DEFF04B010BDF0B5D36B07
:1023F0001364151D8C4606460FCDADF50F7D17AC49
:102400000FC40FCD0FC40FCD0FC495E80F004FF0D0
:10241000FF3784E80F006546169710E0FFF7DAFFF4
:10242000294616A8B047034616AA6946082083B96C
:10243000049B9847052804460CD0092809D0269902
:102440006846FFF715FE03466A460C2116A8002BC6
:10245000E4D0092416A8FFF759FE20460DF50F7D9C
:10246000F0BD00BF2DE9F04FCC6C89B00D4654F89B
:10247000041B0694174600F003081E46002B79D073
:102480000B0CDAB209048DF81D30022304EB820430
:1024900005918DF81C302B6DB8F1020F08BFAC6BA5
:1024A00013F001030CD0384605A900F073FB18B9EE
:1024B000082009B0BDE8F08F092009B0BDE8F08F11
:1024C000D4F800A0BAF1000FEDD0019300F008039A
:1024D0000293022E4AD0B4F800A0B4F8029004345B
:1024E000AA6C29F0010B0F2138469344FFF74EFFE9
:1024F000834539D82AF001025A44824294BF002011
:1025000001204FEA490303F002030AF0010A43EAFB
:102510000A03012B49D0022B32D0002BCCD1B8F1C9
:10252000000F02D0002840F0CD800434D4F800A081
:10253000BAF1000FCDD105A9384600F02BFB0028D9
:10254000BAD1019B002BB3D00F213846FFF71EFFF5
:102550000E2102463846FFF73DFF38466A4A0F21F2
:10256000FFF738FF0720A8E70020CAE7D4F8049057
:102570000834B5E7090203230591ADF81C308AE75A
:10258000236823F0004BB8F1000F45D128B1029A1F
:10259000002A5CD0BBF1000F74D0002B00DA0434A9
:1025A0000BF1010B04EB8B04C0E7B8F1000F19D15C
:1025B000B0B1D4E90023991C4FEAD2723FF47CAF4A
:1025C00005F158010133049100F09080201DFFF7C0
:1025D000C9FD04AB01462846AFF3008000285BD15B
:1025E0000834A3E70D213846D5F82090FFF7CEFE3A
:1025F0008145F5D1AB6A9C42F2D12046FFF7ECFC55
:102600000F2102463846FFF7E5FE38462A460021EC
:10261000FFF7E0FE072050E70D213846D5F820905F
:10262000FFF7B4FE814501D02368B6E7AB6A9C4250
:10263000FAD104220021C5E90B12A318C5F828B06D
:102640006B6323688B4259DB01230193A8E705F1F3
:102650005803CDF80C8004F1040AB04691461E469A
:102660000DE00496FFF77EFD04AB014600222846EC
:10267000AFF3008009F101090AF1040AE8B9D9456C
:102680005046EED138460D21FFF780FE049B2862AC
:10269000C5E90934062010E781460D213846FFF7C9
:1026A00075FEB9F1020F286225D12B46049A43F832
:1026B0002C2F6B62AC620620FFE646462368DDF8ED
:1026C0000C806AE72046FFF787FC04340246AC63BF
:1026D00028461446AFF3008000283FF4EDAE38469C
:1026E00022460F21FFF776FE0720E6E638460D2149
:1026F000FFF74CFE2862049B6B62DBE70BF10100E5
:1027000004EB80007AE700BF000000000023A9E688
:102710000123A7E60223A5E62DE9F0430646C3B050
:1027200015461C46042900F2B980DFE801F09A53EF
:10273000B7290300002C40F0B180102A00F2AE80CF
:102740000368D80600F1F38020AF384600F092F914
:10275000B06B0023012404FA03F22A42014604D09C
:1027600051F8042B47F8232008460133042BF2D1FB
:10277000B063384600F074F9002043B0BDE8F08340
:10278000032C40F08B8094B204EB1243102B4FEAE1
:10279000124500F2838003681F0700F1D08020AF4C
:1027A000384600F03BF907EBC501B56B54B10B4659
:1027B000E81A01EBC401E4001A5843F8042B8B42D9
:1027C000FAD125443846B56300F006F9002043B03D
:1027D000BDE8F083012C4FEA124895B25AD0052C7F
:1027E0005CD108EB0509B9F1200F57D8B8F10F0FEC
:1027F00077D9A946002D40F08880B36B6DB320AF28
:102800004FF0000907EBC807043F03EBC50553F879
:10281000041B47F8041FAB42F9D1B9F1000F0FD0E8
:102820006F464146102938BF102107EBC10184399A
:1028300003EBC90553F8040B41F8040FAB42F9D17F
:10284000012C00F08480B8F10F0FB56345D9B9F1C0
:10285000000F02D0684600F0B7F8002043B0BDE892
:10286000F083DCB9876B2346012094B206F1040C97
:1028700000FA03F22242394604D051F8042B4CF8F6
:1028800023200F460133102BF2D115F40050E4D170
:10289000B76304E008EB0503102B03D9022043B013
:1028A000BDE8F083B8F10F0FF8D83368DA0706D522
:1028B000304623F0030340F8483B00F079F820AF9E
:1028C000384600F075F8B36B002D99D11D460435DC
:1028D000B563384600F068F8BFE720A800F06CF850
:1028E000B5E7B9F1100F40D9A9F110093368D9073C
:1028F00008D523F00103304643F0020340F8483B7B
:1029000000F05EF8B9F1000F32D033685A0720D4D6
:10291000B8F10F0F25D96F463846C8F1100500F001
:1029200057F8002DB36B7FF77CAF20AF6AE723F039
:102930001003336006F5E87000F09CF804E723F01C
:102940000803036000F5A87000F068F827E720AFDF
:10295000BDE7304623F0040340F8D03B00F038F8E0
:10296000D6E720A800F02CF8D5E74FF00009BDE726
:10297000B8F10F0F3FF641AF20AF384600F020F816
:10298000B36B002D7FF43CAF384600F015F864E7D8
:1029900000F1340191E838009C46A6464CF8045DED
:1029A00090E8FF0FE54600BD90EC210B704700BF9B
:1029B00080EC210B704700BF90EC200B704700BFEC
:1029C00080EC200B704700BFD0EC200B704700BF9D
:1029D000C0EC200B704700BFF0EC0201F0EC0211DC
:1029E000F0EC0221F0EC0231F0EC0241F0EC02518B
:1029F000F0EC0261F0EC0271F0EC0281F0EC02917B
:102A0000F0EC02A1F0EC02B1F0EC02C1F0EC02D16A
:102A1000F0EC02E1F0EC02F1704700BFE0EC0201E3
:102A2000E0EC0211E0EC0221E0EC0231E0EC0241CA
:102A3000E0EC0251E0EC0261E0EC0271E0EC0281BA
:102A4000E0EC0291E0EC02A1E0EC02B1E0EC02C1AA
:102A5000E0EC02D1E0EC02E1E0EC02F1704700BFF3
:102A6000B0FC0181B0FC0191B0FC01A1B0FC01B14E
:102A7000704700BFA0FC0181A0FC0191A0FC01A156
:102A8000A0FC01B1704700BFEC4600B52DE9005035
:102A90002DE9FF1F4FF000032DE90C0001A9FFF7FE
:102AA000F1FBDDF840E012B0704700BFEC4600B526
:102AB0002DE900502DE9FF1F4FF000032DE90C0018
:102AC00001A9FFF719FCDDF840E012B0704700BF24
:102AD000EC4600B52DE900502DE9FF1F4FF0000333
:102AE0002DE90C0001A9FFF729FCDDF840E012B048
:102AF000704700BFEC4600B52DE900502DE9FF1FDF
:102B00004FF000032DE90C0001ABFFF7EBFBDDF804
:102B100040E012B0704700BFEC4600B52DE9005010
:102B20002DE9FF1F4FF000032DE90C0001AAFFF76C
:102B30005DFCDDF840E012B0704700BF027A7AB960
:102B4000437AA3B14268013B10B443721368032176
:102B5000141D01721A024460026010BC180E704706
:102B60000368013A02721A020260180E7047B02020
:102B7000704700BF00B585B003AA00230092194634
:102B80000C22FFF7EBFB039805B05DF804FB00BFD8
:102B9000F0E700BF2DE9F043054685B00E464FF043
:102BA00000083046FFF7CAFFB028044600F0B280A4
:102BB000070620D500F0F003802B4DD0902B36D0A7
:102BC000A02B60D0B02B74D0C02B00F08B8000F015
:102BD000F803D02B0BD100F00702013242F400229F
:102BE000052301212846FFF797FD0028D9D00920A9
:102BF00005B0BDE8F0830DF10C09002319468700EC
:102C0000CDF800900D222846FFF7A8FBFFB2039BEA
:102C1000CDF80090043760064CBFDF1BFF1800237F
:102C200019460D2228460397FFF7BCFBB9E700F0D1
:102C30000D030D2BDBD003AF002300F00F0219466C
:102C400000972846FFF78AFB0023009719460D22BC
:102C50002846FFF7A7FBA4E73046FFF76FFF2402E3
:102C60002043B0F5004FC2D004010023A2B21946A0
:102C70002846FFF751FD0028B9D114F4004F18BFC2
:102C80004FF001088DE7C24302F007034FF47F6263
:102C90001A41010702F47F624FF0000348BF42F47B
:102CA000804219462846FFF737FD00283FF479AFE8
:102CB0009DE7B12833D0B22800F08B80B32839D0FB
:102CC00000F0FC03B42B92D000F007020132012384
:102CD00042F4002219462846FFF71EFD00283FF463
:102CE00060AF84E7C62842D0C7284CD000F0F80374
:102CF000C02B5BD0C82860D0C9287FF478AF30469D
:102D0000FFF71CFF020300F00F0002F470220130F5
:102D1000024365E7B8F1000F18D0002068E730469D
:102D2000FFF70CFF024600283FF461AF10F0F003FC
:102D3000D0D05CE73046FFF701FF010300F00F0041
:102D400001F47021421C01230A43C3E703AC43464C
:102D50000E22414600942846FFF700FB00942846C7
:102D600043460F224146FFF71DFB404640E73046F1
:102D7000FFF7E4FE010300F00F0001F47021421C94
:102D800003230A43A6E73046FFF7D8FE0246002891
:102D90003FF42DAF10F0F0037FF429AF0421284653
:102DA000FFF7BAFC00283FF4FCAE20E700F00F026A
:102DB0000132032342F420228CE73046FFF7BEFEA7
:102DC00000F0F00200F00F031032013343EA023248
:102DD00006E700230DF10C090D221946CDF80090ED
:102DE0002846FFF7BBFA3046FFF7A8FE02064FF071
:102DF00002070CD5039B00F07F00B8400344304627
:102E00000393FFF79BFE030607F10707F2D4039B2A
:102E1000CDF8009000F07F0403F50172BC40002360
:102E2000144419460D2228460394FFF7BBFAB8E66E
:102E300010B5C26C84B0536803248DF80C401B029B
:102E400002F108040846D279019301A902948DF891
:102E50000D20FFF79FFE04B010BD00BF08B5FFF7BF
:102E600097FE806C08BD00BF08B5FFF791FEC06CEF
:102E7000C379023300EB830008BD00BF0020704718
:102E800070B545680668042D04460FD8301DFDF75F
:102E900005FA0346F8B1E16800600433324618468B
:102EA000A1B1FDF70BFA0346184670BDA81903300F
:102EB000FDF7F4F978B1EB1C03446D422B40324628
:102EC00043F8040CE16818460029EAD1FDF790FAAE
:102ED0000346184670BD00F027F800BF10B5044641
:102EE000FFF7CCFF38B9A06800B110BD2046FFF74E
:102EF000C7FFA06010BD00F017F800BF10B4046851
:102F00008C4202D200240160C4604468944238BFFD
:102F100042601BB102688A4208BFC3605DF8044B7F
:102F2000704700BF704700BF08B5062000F0F4F9F5
:102F3000012003F0B9FB00BF00B50A4C2668054626
:102F400085B01C46F06852B1074B0091CDE90132C3
:102F500006492B46224600F029F8FFF7E5FF044B0F
:102F60001A46F2E700000020B8390208C839020802
:102F7000C439020808B513460022FFF7DDFF00BF81
:102F8000024B0A460146186800F0B0B80000002065
:102F90000CB400B583B004AB53F8042B0193FDF7D8
:102FA00017FD03B05DF804EB02B070470EB410B526
:102FB00083B005AB064C53F8042B019301462068FF
:102FC000FDF706FD03B0BDE8104003B0704700BF39
:102FD00000000020024B0A460146186800F010B8B5
:102FE0000000002000B5054B83B0014601AA186817
:102FF00000F006F803B05DF804FB00BF00000020FD
:103000002DE9F0471C4F0E469146804601F084F8AA
:103010003D68F5B134785CB13D2C18BF344602D11F
:1030200017E03D2B15D014F8013F002BF9D1A41B5C
:10303000286870B12246314600F0D0FC28B92868D3
:10304000035D3D2B00EB040A09D055F8040F00285E
:10305000F0D1404601F062F80020BDE8F0873B68FF
:10306000ED1AAD104046C9F8005001F057F80AF1CA
:103070000100BDE8F08700BF7400002000B583B0F8
:1030800001AAFFF7BDFF03B05DF804FB032A70B48B
:1030900012D940EA0105AD0704460B4620D1194676
:1030A000204653F8045B54F8046BAE4218D1043A3E
:1030B000032A20461946F2D8541E72B103780A78C2
:1030C0009A4208BF241806D00CE010F8013F11F80E
:1030D000012F934206D1A042F7D1002070BC704767
:1030E000541EEBE7981A70BC704700BF38B502FB5E
:1030F00001F42146FDF722FA054618B122460021C7
:10310000FDF776F9284638BD38B5124B1C68A26B1E
:1031100005461AB10023C2E9045338BD1820FDF753
:10312000BDF80246A06378B1012000210A4B13606C
:10313000C2E904010B230948094993810023C2E92C
:103140000101C2E9045338BD064B07484221FFF78D
:10315000F3FE00BF000000200E33CDAB34126DE64D
:10316000ECDE0500F8390208103A020838B51A4BAF
:103170001C68A26B92B1146918495369184801FB85
:1031800004F100FB0313A4FB0045611C1D4445F141
:10319000000323F00040C2E9041338BD1820FDF7F6
:1031A0007DF80246A06388B101200021C2E9040134
:1031B0000A480C4C0C4B0D490D4D146053600B2408
:1031C000034695609481C2E9041338BD094B0A484F
:1031D0004E21FFF7B1FE00BF000000202DF4515832
:1031E0002D7F954C0E33CDAB34126DE62E7F954C72
:1031F000ECDE0500F8390208103A0208024B0A46D4
:1032000001461868FEF72CBC0000002010B5802194
:103210000446FDF793F9606440B1031F00227C303F
:1032200043F8042F8342FBD1002010BD4FF0FF3044
:1032300010BD00BF436C0BB100207047E6E700BF34
:103240001F2970B5054608D8436C16460C464BB18D
:1032500053F8240043F8246070BD162202604FF03A
:10326000FF3070BDFFF7D2FF08B96B6CF0E74FF08D
:10327000FF3070BD1F2938B521D8426C05460C4679
:103280006AB152F8213053B1012B16D0591C10D01D
:103290000025204642F824509847284638BD284645
:1032A00000F070F8224601462846BDE8384000F09C
:1032B00055B816230360012038BD002038BD162301
:1032C00003604FF0FF3038BD1F2921D838B5436C5B
:1032D00005460C4683B153F8242003EB84034AB11E
:1032E000511C10D0012A0CD0002520461D609047AB
:1032F000284638BD012038BDFFF788FF28B96B6C20
:10330000E9E7032038BD022038BD4FF0FF3038BD5B
:103310004FF0FF30704700BF024B01461868FFF7BF
:10332000A9BF00BF00000020024B0A4601461868F2
:10333000FFF786BF00000020034B1868436C0BB1F9
:103340000020704762E700BF00000020024B0146EA
:103350001868FFF7B9BF00BF0000002038B50B4662
:10336000074C0546114618460023236003F094F9E4
:10337000431C00D038BD2368002BFBD02B6038BD28
:1033800080F1002003F086B908B430B5002A9CB063
:10339000044635DB4FF4027302910691ADF8143008
:1033A00020A918D0013A0B460492079201911F9A66
:1033B0004FF6FF7502A9ADF8165000F08DFF421CC4
:1033C00001DA8B232360029B00221A701CB0BDE837
:1033D000304001B070470B460492079201914FF6BE
:1033E000FF751F9AADF8165002A900F075FF431C37
:1033F00001DA8B2323601CB0BDE8304001B0704778
:103400008B2202604FF0FF30F5E700BF0CB430B5FF
:10341000204B00299DB01C6837DB4FF402730290EB
:103420000690ADF8143021A819D001390346209A2E
:103430000491079101904FF6FF7502A92046ADF85F
:10344000165000F049FF421C01DA8B232360029BD7
:1034500000221A701DB0BDE8304002B0704703462C
:103460000491079101904FF6FF75209AADF8165020
:1034700002A9204600F030FF431C01DA8B232360B1
:103480001DB0BDE8304002B070478B2323604FF081
:10349000FF30F5E700000020C9B200F00303002967
:1034A00035D07BB10378002B57D0994252D0431CC2
:1034B00005E013F8012B002A4DD08A424AD09A0722
:1034C0001846F6D170B441EA0126046846EA064679
:1034D00001E050F8044F86EA0405A5F10132A4F199
:1034E000013322EA050223EA0403134313F0803F69
:1034F000EFD0037843B1994202D106E08B4204D069
:1035000010F8013F002BF9D1184670BC70474BB141
:103510000378FBB1431C02E002780133D2B1990772
:103520001846F9D10268A2F1013323EA020313F02D
:10353000803F08D150F8042FA2F1013323EA02039F
:1035400013F0803FF6D0037823B110F8013F002B31
:10355000FBD170477047104670471846704700BF50
:10356000A2EB0300704700BF02780B78012A28BF46
:103570009A42F5D16DE9044540EA0104CDE90267BC
:103580006FF0000C4FEA447212B380EA010414F0A9
:10359000070F6AD100F0070420F0070004F00305CC
:1035A00021F007014FEAC505F0E8042314F0040FE9
:1035B000F1E804670CFA05F462EA040266EA04061C
:1035C0000AD063EA0403624667EA0407664603E03A
:1035D000F0E80423F1E8046782FA4CF582EA060475
:1035E000A4FA8CF46CBB83FA4CF583EA0705A5FAC0
:1035F0008CF595B950E9022351E9026782FA4CF53E
:1036000082EA0604A4FA8CF483FA4CF583EA0705EF
:10361000A5FA8CF52543DBD09CB92DBAB5FA85F413
:1036200024F0070427FA04F1DDE9026723FA04F322
:1036300003F0FF0001F0FF01FDE80445A0EB0100ED
:10364000704724BAB4FA84F424F0070426FA04F18B
:10365000DDE9026722FA04F202F0FF0001F0FF0147
:10366000FDE80445A0EB0100704714F0030F3CD1C6
:1036700010F0030428D150F8082B51F8083B82FAC7
:103680004CF582EA0305A5FA8CF55DB950F8042CD7
:1036900051F8043C82FA4CF582EA0305A5FA8CF550
:1036A000002DE8D02DBAB5FA85F424F0070423FAEA
:1036B00004F122FA04F202F0FF0001F0FF01FDE83C
:1036C0000445A0EB010070474FEAC40420F003005A
:1036D00050F8082B21F0030151F8083B0CFA04F4D0
:1036E00062EA040263EA0403C9E710F003041AD093
:1036F000A1EB040120F00300E40750F8042B06D0EE
:103700000FD28B785FFAA2F4E41A06D12BB1CB78F2
:103710005FFAB2F4E41A00D11BB920465DF8104BF1
:10372000704701F1040150F8042BCC0721F003018C
:1037300051F8043B48D824D222F07F4482FA4CF559
:1037400094EA1325A5FA8CF50AD165B951F8043B22
:1037500084EA0204B4EB036F0ED150F8042BEBE7BC
:103760004FEA132355E035F07F454DD10878FDE849
:103770000445C0F1000070474FEA126203F0FF03F6
:1037800047E002EA1C4482FA4CF594EA1345A5FA94
:103790008CF50AD165B951F8043B84EA0204B4EB14
:1037A000034F0CD150F8042BEBE74FEA134330E002
:1037B00015EA1C4528D10B884FEA124229E04FEA4E
:1037C000124203EA1C4324E002F0FF0482FA4CF5A3
:1037D00094EA1365A5FA8CF50AD165B951F8043B52
:1037E00084EA0204B4EB032F09D150F8042BEBE771
:1037F0004FEA13630DE015F0FF0F05D10B684FEA98
:10380000122223F07F4304E04FF00000FDE804455E
:10381000704712BA1BBA82FA4CF482EA0304A4FA83
:103820008CF5B5FA85F402FA04F203FA04F34FEAD0
:103830001260FDE80445A0EB1360704780EA0102C6
:10384000844612F0030F4FD111F0030F32D14DF81F
:10385000044D11F0040F51F8043B0BD0A3F10132D9
:103860009A4312F0803F04BF4CF8043B51F8043BEC
:1038700016D100BF51F8044BA3F101329A4312F064
:10388000803FA4F101320BD14CF8043BA24312F06B
:10389000803F04BF51F8043B4CF8044BEAD0234668
:1038A0000CF8013B13F0FF0F4FEA3323F8D15DF81A
:1038B000044B704711F0010F06D011F8012B0CF8E2
:1038C000012B002A08BF704711F0020FBFD031F85A
:1038D000022B12F0FF0F16BF2CF8022B8CF80020E1
:1038E00012F47F4FB3D1704711F8012B0CF8012B64
:1038F000002AF9D1704700BF00000000000000005E
:1039000090F800F06DE9024520F007016FF0000C1F
:1039100010F0070491F820F040F049804FF00004C7
:103920006FF00700D1E9002391F840F000F10800A2
:1039300082FA4CF2A4FA8CF283FA4CF3A2FA8CF3DA
:103940004BBBD1E9022382FA4CF200F10800A4FA41
:103950008CF283FA4CF3A2FA8CF3E3B9D1E9042395
:1039600082FA4CF200F10800A4FA8CF283FA4CF3CC
:10397000A2FA8CF37BB9D1E9062301F1200182FA86
:103980004CF200F10800A4FA8CF283FA4CF3A2FA8C
:103990008CF3002BC6D0002A04BF04301A4612BA9A
:1039A000B2FA82F2FDE8024500EBD2007047D1E99D
:1039B000002304F00305C4F100004FEAC50514F02C
:1039C000040F91F840F00CFA05F562EA05021CBFFD
:1039D00063EA050362464FF00004A9E7002A46D0D7
:1039E00040EA010313F00303F0B425D1032A23D9DD
:1039F00004680D68AC423CD1043A35D0A4F10135DD
:103A000025EA040414F0803F2ED1071D0D1D0DE0A2
:103A100057F8043B0E68A3F10134B34224EA0304CF
:103A200027D1043A20D014F0803F1DD1032A294623
:103A3000384605F10405EBD803780D789D4202F174
:103A4000FF360ED186B17BB1044602E082180BD05E
:103A500053B114F8013F11F8015FAB42A6EB040229
:103A6000F4D0581BF0BC70470020F0BC70471046E3
:103A7000704703780D789D4202F1FF36E3D0F0E7FE
:103A8000C9B10278CAB1431C014499421A4616D002
:103A900010B41478013334B199421A4607D014781F
:103AA0000133002CF8D1101A5DF8044B7047081A46
:103AB0005DF8044B70470846704710467047081A77
:103AC000704700BF2DE9F04F012425468846164671
:103AD000AE462A46ADF21C4D07461C4600214FF06B
:103AE000FF3553189C4206EB05000ED9805C16F892
:103AF00003C0844580F0CC8019460122A3EB050E5B
:103B000053189C4206EB0500F0D8CDF80CE04FF0BE
:103B1000010E724600214FF0FF3053189C4206EB15
:103B2000000C0FD91CF802C016F80390E14540F2D2
:103B3000B68019460122A3EB000E53189C4206EBF7
:103B4000000CEFD86B1C01309842029328BFCDE9DE
:103B5000020E05AB0DF2144243F8044F9342FBD121
:103B6000631E0093002C00F01681009B06AD721EB0
:103B70009819019512F8011FD3432344334482421C
:103B800045F82130F6D1DDE902233046F118FFF780
:103B90007DFA002840F09680029B013B0593F318C4
:103BA00082468146049307EB090E009B019A1EF89A
:103BB000033052F82330EBB1BAF1000F03D0039A6F
:103BC000934238BFA31A99444FF0000AA8EB0403AC
:103BD0004B45E8D207EB080044F40061FFF750FFC3
:103BE0008044A8EB04034B45DDD200200DF21C4DB0
:103BF000BDE8F08F029B534538BF53461D46009BDE
:103C00009D4218D205EB0902715DB85C88423A44C6
:103C100006EB050334D1A4F1020CB444C6F1010B48
:103C200005E013F8010F12F8011F884228D19C45C6
:103C30000BEB0305F5D1029B9A4580F0A980059B0B
:103C4000049A4B441178FA5C91423B4440F0A080C6
:103C50000AEB09053D44049A05E012F8010D13F83A
:103C6000011D884203D1AB42A3EB0E0CF5D10AF142
:103C7000010AE2457DD8039B9944A4EB030AA5E71A
:103C8000029BC3F101039944A9444FF0000A9DE748
:103C90000CD04FF0010E0D467246714421E70BD057
:103CA0004FF0010E08467246714436E7724512BF66
:103CB00001321946012214E7724512BF013219463A
:103CC00001222AE7029AA31A934238BF1346511ED3
:103CD00001330593731804910393002506EB020B3F
:103CE00007EB050E009A01991EF8023051F82330B7
:103CF00083B11D44A8EB04039D42F1D907EB0800F2
:103D000044F40061FFF7BCFE8044A8EB04039D422D
:103D1000E6D96AE7029B934217D2EA189BF8003073
:103D2000B95C99423A4429D1A4F1020CB4445B46EF
:103D3000C6F1010905E013F8010F12F8011F8842CE
:103D40001ED1634509EB030AF5D1049B5A1C10D020
:103D5000EA18039BB95C1B7899423A4416D1039B3D
:103D600005E013F8010D12F8011D88420ED1B3428F
:103D7000F7D170460DF21C4DBDE8F08FDDF808A0BC
:103D8000029BC3F101031D445544B3E7059BB0E713
:103D9000DDF808C06BE706AB0193F4E62DE9F041CE
:103DA0000E46097890B00446002958D07278002A4F
:103DB00000F08D80B078002855D0F378002B00F00B
:103DC0008D803379002B5FD03046FFF799FD804618
:103DD00040F400712046FFF753FE804572D8B8F1D9
:103DE000FE0F00F29280A0EB0807402208F10101CB
:103DF00068462744FCF7FCFAB8F1000F10D0731E98
:103E000003EB08055FFA88F013F8012F10A902F000
:103E10003F020A44F11A0144AB4202F8401CF3D1BC
:103E2000013C10AA14F8083003F03F03134413F8C0
:103E3000403C1C44A74203D238E02C44A74235D36F
:103E400014F8085010AB05F03F051D4442463146BA
:103E5000204615F8405CFFF719F90028EDD12046FF
:103E600010B0BDE8F081237842EA014253B3601CF0
:103E7000617800E0204641EA0343441C11B39A42B2
:103E80004178F7D1441EEAE72278DAB1306800BA07
:103E900002E0834208D00C4642EA03236278611CA8
:103EA000002AF6D183420DD1033CD8E717F8083039
:103EB00007EB080033B14FF40061FFF7E1FD074461
:103EC000A742ADD20024204610B0BDE8F081FFF734
:103ED000E3FA0446204610B0BDE8F08112042378CE
:103EE00042EA016242EA0022002BEBD01B02601C76
:103EF000617800E020460B431B02441C0029E1D0FE
:103F00009A424178F6D1841EA9E7014643462046ED
:103F10003246FFF7D7FD0446A1E700BF2DE9F04781
:103F20000F464C4D00E06746BC461CF8014B2E5D29
:103F300016F00806F7D12D2C58D02B2C0ABF9CF870
:103F40000050254607F1020CF3B3102B54D04FF06C
:103F5000FF38B8FBF3F803FB08FA6FEA0A0A994640
:103F60000027BE4607E0C64513D828D009FB0E4EF1
:103F700001271CF8015BA5F13004092C05D9A5F136
:103F80004104192C08D8A5F13704A3420CDD002FF9
:103F9000E9DA4FF0FF37ECE7A5F16104192C03D8FB
:103FA000A5F15704A342F2DC002F16DB0EB1CEF1CF
:103FB000000E0AB1BFB911607046BDE8F0875445E4
:103FC000D4DD4FF0FF37D4E7302D29D00A239946AE
:103FD0004FF0050ADFF88080C2E7222303604FF02C
:103FE000FF3E002AE8D00CF1FF31E4E79CF80050D6
:103FF000012607F1020CA7E7302D24D19CF80040E0
:1040000004F0DF04582C18D14FF010099CF801502F
:104010004B464FF00F0A0CF1020C6FF070489FE70F
:104020009CF8003003F0DF03582BEDD008239946AD
:104030004FF0070A6FF0604892E799466FF07048BA
:104040004FF00F0A8CE74FF00F0A6FF07048994657
:1040500086E700BF61330208999999195EE700BFAE
:1040600010B4044C13460A46014620685DF8044B20
:1040700054E700BF0000002010B4044C13460A4669
:10408000014620685DF8044B48E700BF00000020AF
:1040900070B5141E9AB005462BDB1A464FF4027316
:1040A00000910491ADF80C3013D0013C4FF6FF762F
:1040B0001E9B029469460594ADF80E6000F00CF961
:1040C000421C01DA8B232B60009B00221A701AB06D
:1040D00070BD1E9B02944FF6FF7669460594ADF8BD
:1040E0000E6000F0F9F8431C01DA8B232B601AB044
:1040F00070BD8B2303604FF0FF30F8E710B5054C1F
:1041000082B0009313460A4601462068FFF7C0FFBD
:1041100002B010BD00000020704700BF704700BF14
:104120002DE9F0478E681D46AE420C460B681746D7
:1041300036D88046888910F4906F0ED135461846DF
:104140002A463946FDF724FCA2682368961B2B44B7
:10415000A66023600020BDE8F087D1E9041606EBD5
:104160004606A3EB010906EBD6766B1C76104B4492
:10417000B342324684BF1E463246430512D511462D
:104180004046FCF7DBF9824600B34A462169FCF75A
:1041900095F8A38923F4906343F08003A38106E09C
:1041A0002E46CCE74046FDF75BFC824650B1A6EBBD
:1041B00009020AEB09036661C4F810A02360A2603B
:1041C0002E46BCE721694046FCF762F90C23C8F88B
:1041D0000030A38943F04003A3814FF0FF30BAE7DA
:1041E0002DE9F04F936883B09046002B6DD017688F
:1041F0008D6882460C460868083743E0A38913F4AB
:10420000906F2ED0D4E9041505EB4505A0EB010B0A
:1042100005EBD5750BEB06006D100130A8422A4660
:1042200084BF05462A465B0536D511465046FCF745
:1042300085F900283AD05A4621690190FCF73EF8EA
:10424000A289019B22F4906242F08002A281A5EB38
:104250000B0203EB0B00656123612060A260354611
:10426000B3465A464946FDF793FBD8F80830A26892
:104270002068551B58449E1BA5602060C8F8086044
:104280001EB3083757E90296AB46002EF9D0AE426E
:10429000B4D23546B346E4E75046FDF7E1FB0346AA
:1042A0000028D4D121695046FCF7F2F80C23CAF853
:1042B0000030A389002243F040034FF0FF30A38178
:1042C000C8E9012203B0BDE8F08F0020C8F804005F
:1042D00003B0BDE8F08F00BF2DE9F04F90468A890A
:1042E0009FB014068B46029003D50A69002A00F09D
:1042F0000B81059330238DF8323098F800308E4EC4
:10430000002120220B918DF831200127002B00F095
:104310008480252B00F0F680454603E0252B00F035
:10432000868025466B786C1C002BF7D1B4EB080A0D
:1043300073D04246534659460298FFF7F1FE0130CA
:104340006BD00B9B6A7853440B93002A65D00023F3
:104350004FF0FF3201340693CDE908338DF85B301E
:104360001C93079205E0069A07FA03F313432C46C1
:1043700006932546052215F8011B3046FDF7B8FACD
:10438000AA46831B0028EED1069BD90644BF2022F3
:104390008DF85B2021781A0744BF2B228DF85B2013
:1043A0002A2948D1059A11680432002905927EDB3A
:1043B00009916178A51C2E2956D0604C0322204615
:1043C000FDF796FA002868D0001B069B402404FAEB
:1043D00000F00343069305F10108297858488DF849
:1043E00030100622FDF784FA002866D0554B002BCA
:1043F00056D005AB00935A46534B029806A9AFF32B
:1044000000808146B9F1FF3F07D00B9B4B440B93D3
:1044100098F80030002B7FF47CAFBBF80C305B06C3
:1044200054BF0B984FF0FF301FB0BDE8F08FB4EBD6
:10443000080A8CD07DE7A1F13002092A88BFA24684
:10444000B9D8099B01E02C460135297803EB830399
:1044500002EB4303A1F13002092AAA46F3D92E291F
:1044600004F102050993A8D19AF801102A292ED146
:10447000059B9AF802101A6807920433002A0593E4
:104480000AF103050AF1020337DB2C4C0322204614
:104490009A46FDF72DFA002896D1A84655469CE786
:1044A000059B073323F0070308330593ADE7494223
:1044B00043F00203099106937BE705AB00935A464C
:1044C000214B029806A9FCF787FC81469AE7A1F1E7
:1044D00030020023092A079301D923E05546697861
:1044E00003EB830302EB4303A1F13002092A05F138
:1044F000010AF3D9023507935FE74FF0FF329A467E
:1045000007925AE7444622E740210393FCF716F846
:10451000039BCBF80000CBF8100030B14022CBF861
:104520001420E6E6AA46013547E7029A0C231360F9
:104530004FF0FF3078E700BF703502087835020889
:104540007C350208000000002141000810B506E09B
:10455000184A92F84E3043F0040382F84E30154C5E
:10456000022384F84C3023460022114604F1140043
:1045700009F011F9606590B10F4C204609F0ACF9D3
:1045800020640028E4D0A4F11403042283F84C2012
:1045900093F84E2042F0040283F84E20ECE7054BDE
:1045A000032283F84C2093F84E2022F0040283F873
:1045B0004E2010BD0C95002020950020F0B58FB046
:1045C0000146284C012084F84C00274B0193274BCF
:1045D0000093274B274A0AF097FC206560B104221C
:1045E00084F84C2094F84E2042F0010284F84E20CA
:1045F000002528460FB0F0BD1A4A92F84E3023F03D
:10460000010382F84E3009A809F054FB1A4B0993B4
:104610001A4B0A931A4B0B931A4B0C9309A809F0E7
:104620005DFB054650B90F4B042283F84C2093F8EC
:104630004E2042F0020283F84E20DAE7094F02A82A
:1046400009F072FB3E4602AC0FCC0FC62368336004
:1046500097F84E3023F0020387F84E30FFF776FFCD
:10466000C7E700BF0C950020E1AD0008A3AD00082E
:1046700095AD00087DAD00080DAC000831AC000818
:1046800051AC000891AC000808B5FFF797FF40B1A6
:1046900000F01AFB044808F0C7FF00F061FB00209F
:1046A00008BD4FF0FF30FBE7B095002010B50C4B74
:1046B000022283F84C2000F053FB0A4C204609F0FC
:1046C0000BF9206418B1642005F012FEF5E7FFF73E
:1046D0003DFF00F0F9FA044808F0A6FF10BD00BF46
:1046E0000C95002020950020B095002008B50A46C2
:1046F0000146024800F0CEFC08BD00BF1CEF0020C0
:1047000038B50D46154B1B780BB9002221E001F09E
:1047100023F9FAE702EB420018444FF6FF7125F83F
:1047200010100133022B13DC0C4909780029F1D059
:104730000B49096851F822104FF4947404FB0314D8
:1047400002EB42001844B4F98C1025F81010E8E789
:104750000132032A01DC0023E4E738BD40A0002039
:1047600044A0002038B50D46154B1B780BB900222C
:1047700021E001F045F9FAE702EB420018444FF658
:10478000FF7125F810100133022B13DC0C49097856
:104790000029F1D00B49096851F822104FF49474A4
:1047A00004FB031402EB42001844B4F98C1025F802
:1047B0001010E8E70132032A01DC0023E4E738BDEA
:1047C00040A0002044A0002070B5002800F0F88030
:1047D0007D4B1B78002B00F0F3807C4B1D682C6810
:1047E00094F82531012B0BD0794E88340FCC0FC6AD
:1047F0000FCC0FC60FCC0FC694E80F0086E80F0051
:104800002C6894F84D32012B0CD0724E04F5D874FC
:104810000FCC0FC60FCC0FC60FCC0FC694E80F00FD
:1048200086E80F002C6894F84D32012B0CD06A4EAC
:1048300004F536740FCC0FC60FCC0FC60FCC0FC6C5
:1048400094E80F0086E80F006C6894F82531012B7E
:104850000BD0624E88340FCC0FC60FCC0FC60FCCD6
:104860000FC694E80F0086E80F006C6894F84D328C
:10487000012B0CD05A4E04F5D8740FCC0FC60FCCB8
:104880000FC60FCC0FC694E80F0086E80F006C68C7
:1048900094F87533012B0CD0524E04F536740FCCBE
:1048A0000FC60FCC0FC60FCC0FC694E80F0086E8DA
:1048B0000F00AC6894F82531012B0BD04A4E883498
:1048C0000FCC0FC60FCC0FC60FCC0FC694E80F004D
:1048D00086E80F00AC6894F84D32012B0CD0434EA3
:1048E00004F5D8740FCC0FC60FCC0FC60FCC0FC673
:1048F00094E80F0086E80F00AC6894F87533012B3C
:104900000CD03B4E04F536740FCC0FC60FCC0FC63F
:104910000FCC0FC694E80F0086E80F00EC6894F8FF
:104920002531012B0BD0334E88340FCC0FC60FCC62
:104930000FC60FCC0FC694E80F0086E80F00EC6896
:1049400094F84D32012B0CD02B4E04F5D8740FCCBB
:104950000FC60FCC0FC60FCC0FC694E80F0086E829
:104960000F00EC6894F87533012B0CD0234D04F53F
:1049700036740FCC0FC50FCC0FC50FCC0FC594E804
:104980000F0085E80F00124C00222146A4F1080018
:1049900006F0F8FFC4F8080338B9194AB2F8923A99
:1049A00023F00203A2F8923A0DE0A4F5F062B2F807
:1049B000923A43F00203A2F8923AFFF777FE02E040
:1049C0001048FBF737FE70BD40A0002044A0002037
:1049D000289D0020689D0020A89D0020E89D0020C3
:1049E000289E0020689E0020A89E0020E89E0020AF
:1049F000289F0020689F0020A89F0020E89F00209B
:104A0000A89500206434020810B582B0254C264BCE
:104A1000C4F88C301BF065FC0246D4F88C3021467B
:104A200004F1880009F074F8C4F8900020B304225F
:104A300084F8902AB4F8922A42F48062A4F8922A68
:104A40001A4C1B4B00932346A4F5CC62A4F5CE610F
:104A5000A4F5DE6008F0BEF8A4F5DF64C4F89000A9
:104A6000A8B1042284F8902AB4F8922A42F4806211
:104A7000A4F8922A02B010BD0A4B012283F8902AB2
:104A8000B3F8922A22F48062A3F8922AD8E7054B61
:104A9000012283F8902AB3F8922A22F48062A3F8C4
:104AA000922AE7E7A895002074340208A09C002011
:104AB000ED46000810B582B0254C264BC4F82437CB
:104AC0001BF008FC0246D4F82437214604F5E460C4
:104AD00009F01EF8C4F8280718B3042284F8902AB5
:104AE000B4F8922A42F40062A4F8922A1A4C1B4BA2
:104AF00000932346A21EA4F11201A4F22A7008F02A
:104B000069F844F80A0CB8B1A4F23273042283F8AD
:104B1000902AB3F8922A42F40062A3F8922A02B0D3
:104B200010BD0B4B012283F8902AB3F8922A22F48D
:104B30000062A3F8922AD9E7054B012283F8902A54
:104B4000B3F8922A22F40062A3F8922AE7E700BFA2
:104B5000A895002084340208DA9C00200147000850
:104B600010B582B0254C264BC4F850371BF0ABFB78
:104B70000246D4F85037214604F24C7008F0C8FFC2
:104B8000C4F8540718B3042284F8902AB4F8922A7F
:104B900042F40062A4F8922A1A4C1B4B009323465D
:104BA000A21EA4F11201A4F2567008F013F844F802
:104BB0000A0CB8B1A4F25E73042283F8902AB3F809
:104BC000922A42F40062A3F8922A02B010BD0B4B65
:104BD000012283F8902AB3F8922A22F40062A3F803
:104BE000922AD9E7054B012283F8902AB3F8922A3A
:104BF00022F40062A3F8922AE7E700BFA8950020FC
:104C000098340208069D00206547000810B582B060
:104C10001BF052FB0246274C274B214604F5EF6060
:104C200008F018FFC4F8880AD0B9224AB2F8923ABC
:104C300023F00203A2F8923A1E4C204BC4F88C3A9F
:104C40001F4AC4F8842A00931D4A00231D4904F515
:104C5000286008F0BBFFC4F8880A68B102B010BD34
:104C6000042284F8902AB4F8922A42F00202A4F8AE
:104C7000922AFFF71BFDDFE704F528642146A4F61E
:104C8000782007F041FFA06058B1A4F52863042202
:104C900083F8902AB3F8922A42F00202A3F8922AEB
:104CA000DCE7044AB2F8923A23F00203A2F8923AFF
:104CB000D4E700BFA8950020AC340208C94700081B
:104CC000809698002095002030B5A1B01F4C01239C
:104CD00084F8903A1E4B1F4A1F49204608F037FEC1
:104CE000C4F8940A68B1194B042283F8902AB3F8E7
:104CF000922A42F00102A3F8922AFFF7D7FC21B0D2
:104D000030BDB4F8923A23F00103A4F8923A684611
:104D100007F0D2FD04F10805802269462846FBF71A
:104D2000CDFA0E4B042203F11801284607F0D8FDF6
:104D3000C4F8940A0028E0D1FFF768FFFFF764FE8B
:104D4000FFF7B8FEFFF70CFFD9E700BFA8950020DA
:104D500020950020C4390208BC3402080C950020BC
:104D600010B51F4C204607F08BFE083CC4F8940A8F
:104D700004F5286007F0A6FBD4F8943A0344C4F87D
:104D8000943A214604F5EF6006F084FDD4F8943A95
:104D90000344C4F8943A214604F1880006F0B9FFB0
:104DA000D4F8943A0344C4F8943A214604F5E460F4
:104DB00006F0AFFFD4F8943A0344C4F8943A21467D
:104DC00004F24C7006F0A5FFD4F8943A0344C4F8FA
:104DD000943A204606F096FAC4F8940A10BD00BF33
:104DE000B09500202DE9F04F83B00446D0E902676A
:104DF000D0E90489424609F1004330463946FCF7C0
:104E0000EFFE002873D00025D4E906AB94ED087BB3
:104E10008DED007B51EC170B17EE102A01F10043CA
:104E200050465946FCF7DCFE08B945F0040500225F
:104E30000023D4E90A01FCF7D3FE40B900222D4B30
:104E4000D4E90C01FCF7CCFE08B945F008050022B6
:104E50000023D4E90E01FCF7C3FE40B90022264B23
:104E6000D4E91001FCF7BCFE08B945F01005D4E9FF
:104E70001401024601F10043D4E91201FCF7B0FE2F
:104E800008B945F02005D4E9162330463946FCF729
:104E9000CFFE30B9D4E9182340464946FCF7AAFEB4
:104EA00008B145F04005D4E91A2350465946FCF7AD
:104EB000BFFE30B9D4E91C23DDE90001FCF79AFEFE
:104EC00008B145F0800500220C4BD4E91E01FCF727
:104ED00091FE30B900220A4BD4E92001FCF7A8FE6C
:104EE00008B145F48075284603B0BDE8F08F02256F
:104EF0008AE700BF00407F400000144000001CC053
:104F000000001C4038B50446C0F8F810284BC0F823
:104F1000FC30284B1B7813B32378C4F808310023E6
:104F2000C4F810310822C4F81821C4F81431D4F898
:104F3000F8305B6A012B28D094F8243143F0020347
:104F400084F82431B4F88C3023F00203A4F88C30B8
:104F5000002384F88A30012084F8250138BD0846F2
:104F60001349CB6301220A644B628B6240F6FF75E2
:104F7000CD620B634B634A64243101F091FC00283D
:104F8000CAD10C4B01221A70C6E794F8243123F0E1
:104F9000020384F82431B4F88C3043F00203A4F8FF
:104FA0008C30012384F88A3084F825310020D5E73D
:104FB00048A0002041A00020F8B51020FBF76EF9B2
:104FC000314B1860002408E02F4B1D684FF45E70D1
:104FD000FBF764F945F824000134032CF4DD0022CA
:104FE0004AE0294B196851F822004FF4947303FBEF
:104FF00006F3C4180020A4F88C0051F822401C4489
:1050000084F8880051F822401C4484F8890051F843
:1050100022401C4484F88A0051F822401C4484F841
:10502000A00051F82240E71800240025C7E92A45CE
:1050300051F822701F44C7E92C4551F822701F44D3
:10504000C7E92E4551F822701F44C7E9304551F891
:1050500022401C440D4DC4F8905051F822401C448D
:10506000C825C4F8985051F822100B44C3F8940096
:105070000136022EB5DD0132032A01DC0026F8E7F5
:105080000120034B1870F8BD44A00020C439020869
:1050900040A000202DE9F04106460D461446C34BC2
:1050A0001B78002B00F0CA812846FFF79BFE00B258
:1050B0002080002800F0C781BD4B1B681A680121C1
:1050C00082F88A101968B1F88C2042F00102A1F828
:1050D0008C20196891F8242122F0010281F8242102
:1050E0001B68002283F82521B14B1B681B6893F9CC
:1050F0002531237605F18800FFF774FE00B2608049
:10510000002800F0C781AA4B1B681A68012182F8A9
:10511000B2111968B1F8B42142F00102A1F8B4212A
:10512000196891F84C2222F0010281F84C221B6888
:10513000002283F84D229E4B1F683B6893F94D3245
:10514000637605F58870FFF74DFE00B2A080002859
:1051500000F0CB813B68012283F8DA223A68B2F88A
:10516000DC3243F00103A2F8DC323A6892F874337F
:1051700023F0010382F874333B68002283F875231F
:105180008B4B1F683B6893F97533A37605F5CC709C
:10519000FFF728FE00B2E080002800F0D0817B6895
:1051A000012283F88A207A68B2F88C3043F0010338
:1051B000A2F88C307A6892F8243123F0010382F847
:1051C00024317B68002283F82521794B1F687B6896
:1051D00093F92531E37605F50870FFF703FE00B279
:1051E0002081002800F0D3817B68012283F8B2215E
:1051F0007A68B2F8B43143F00103A2F8B4317A68A6
:1052000092F84C3223F0010382F84C327B68002282
:1052100083F84D22664B1F687B6893F94D322377E4
:1052200005F52A70FFF7DEFD00B26081002800F06E
:10523000D8817B68012283F8DA227A68B2F8DC32FE
:1052400043F00103A2F8DC327A6892F8743323F059
:10525000010382F874337B68002283F87523544B72
:105260001F687B6893F97533637705F54C70FFF71A
:10527000B9FD00B2A081002800F0DD81BB680122E9
:1052800083F88A20BA68B2F88C3043F00103A2F8A0
:105290008C30BA6892F8243123F0010382F824316B
:1052A000BB68002283F82521414B1F68BB6893F936
:1052B0002531A37705F56E70FFF794FD00B2E0810C
:1052C000002800F0E081BB68012283F8B221BA68AF
:1052D000B2F8B43143F00103A2F8B431BA6892F8DD
:1052E0004C3223F0010382F84C32BB68002283F871
:1052F0004D222F4B1F68BB6893F94D32E37705F5BC
:105300008860FFF76FFD00B22082002800F0E8817E
:10531000BB68012283F8DA22BA68B2F8DC3243F0C3
:105320000103A2F8DC32BA6892F8743323F0010367
:1053300082F87433BB68002283F875231C4B1F6806
:10534000BB6893F9753384F8203005F599684046B9
:10535000FFF748FD00B26082002800F0EB81FB6897
:10536000012283F88A20FA68B2F88C3043F00103F6
:10537000A2F88C30FA6892F8243123F0010382F805
:105380002431FB68002283F82521094B1F68FB6844
:1053900093F9253184F821304046FFF723FD00B210
:1053A000A082002800F0ED8104E000BF40A00020B2
:1053B00044A00020FB68012283F8B221FA68B2F809
:1053C000B43143F00103A2F8B431FA6892F84C32D8
:1053D00023F0010382F84C32FB68002283F84D224F
:1053E000BE4B1F68FB6893F94D3284F8223040466B
:1053F000FFF7F8FC00B2E082002800F0EC81FB68C7
:10540000012283F8DA22FA68B2F8DC3243F00103B1
:10541000A2F8DC32FA6892F8743323F0010382F8C0
:105420007433FB68002283F87523AC4B1B68DB6880
:1054300093F9753384F82330BDE8F081A74B1868E1
:10544000FFF7BAFD30E6A54F3B6888222946186869
:10545000FAF734FF3B681A68002182F88A1019684D
:1054600091F8242142F0010281F824213146186884
:10547000FFF748FD00283FF437AE3A681168B1F8ED
:105480008C3023F00103A1F88C301368012283F8DB
:10549000252129E6914B1F6838688822A91800F554
:1054A0009470FAF70BFF3B68002283F8B2213A6848
:1054B00092F84C3243F0010382F84C32386831469E
:1054C00000F59470FFF71EFD00283FF434AE834BC7
:1054D0001A681168B1F8B43123F00103A1F8B431AE
:1054E0001368012283F84D2225E63868882205F5E5
:1054F000887100F51470FAF7E1FE3B68002283F82A
:10550000DA223A6892F8743343F0010382F8743374
:105510003868314600F51470FFF7F4FC00283FF4BA
:105520002FAE6E4B1A681168B1F8DC3223F001031C
:10553000A1F8DC321368012283F8752320E6882263
:1055400005F5CC717868FAF7B9FE644B1B685A68A8
:10555000002182F88A10596891F8242142F0010252
:1055600081F8242131465868FFF7CCFC00283FF42D
:105570002CAE5A4B1A685168B1F88C3023F00103F5
:10558000A1F88C305368012283F825211DE6786844
:10559000882205F5087100F59470FAF78FFE7B6894
:1055A000002283F8B2217A6892F84C3243F001036A
:1055B00082F84C327868314600F59470FFF7A2FC0F
:1055C00000283FF427AE454B1A685168B1F8B43152
:1055D00023F00103A1F8B4315368012283F84D226E
:1055E00018E67868882205F52A7100F51470FAF734
:1055F00065FE7B68002283F8DA227A6892F87433B9
:1056000043F0010382F874337868314600F5147072
:10561000FFF778FC00283FF422AE304B1A6851683F
:10562000B1F8DC3223F00103A1F8DC325368012227
:1056300083F8752313E6882205F54C71B868FAF7EC
:105640003DFE264B1B689A68002182F88A109968F3
:1056500091F8242142F0010281F824213146986812
:10566000FFF750FC00283FF41FAE1C4B1A689168EE
:10567000B1F88C3023F00103A1F88C30936801223B
:1056800083F8252110E6B868882205F56E7100F5CB
:105690009470FAF713FEBB68002283F8B221BA684F
:1056A00092F84C3243F0010382F84C32B86831462C
:1056B00000F59470FFF726FC00283FF41AAE074B64
:1056C0001A689168B1F8B43123F00103A1F8B4313C
:1056D0009368012283F84D220BE600BF44A000200E
:1056E000B868882205F5886100F51470FAF7E6FDC0
:1056F000BB68002283F8DA22BA6892F8743343F068
:10570000010382F87433B868314600F51470FFF76E
:10571000F9FB00283FF412AE444B1A689168B1F8C7
:10572000DC3223F00103A1F8DC329368012283F814
:10573000752303E688224146F868FAF7BFFD3B4B24
:105740001B68DA68002182F88A10D96891F8242150
:1057500042F0010281F824213146D868FFF7D2FBDC
:1057600000283FF412AE314B1A68D168B1F88C3082
:1057700023F00103A1F88C30D368012283F825219E
:1057800003E6F868882205F5AA6100F59470FAF737
:1057900095FDFB68002283F8B221FA6892F84C323A
:1057A00043F0010382F84C32F868314600F59470FA
:1057B000FFF7A8FB00283FF413AE1C4B1A68D16812
:1057C000B1F8B43123F00103A1F8B431D368012258
:1057D00083F84D2204E6F868882205F5BB6100F5E0
:1057E0001470FAF76BFDFB68002283F8DA22FA687E
:1057F00092F8743343F0010382F87433F868314649
:1058000000F51470FFF77EFB00283FF40EAE074B47
:105810001A68D168B1F8DC3223F00103A1F8DC3258
:10582000D368012283F87523FFE500BF44A0002060
:1058300010B582B0044604F5907304F5807204F547
:105840008471D4F8F80001F0F1F878BB022004F07C
:105850004FFDD4F8FC206B4608320021D4F8F80044
:1058600001F05AF988B99DF8002023789A422BD08C
:10587000D4F8F8305B6A012B30D094F8263101332C
:10588000DBB284F82631052BD5D9002084F88800B6
:10589000012384F88A30B4F88C3043F00403A4F870
:1058A0008C30042384F8253102B010BD012384F824
:1058B0008A30B4F88C3043F00203A4F88C3006230D
:1058C00084F825310020EFE7D4F8FC300098186008
:1058D000BDF804209A80002384F82631012084F842
:1058E0008800002384F88A30B4F88C3023F0040355
:1058F0001BB223F00203A4F88C30D5E710B50446A0
:10590000144B03CBC4F80001C4F804112046FFF780
:105910008FFF60B194F888309BB9B4F88C3023F0D5
:105920004003A4F88C30032384F8253110BD94F88B
:10593000883053B9B4F88C3043F04003A4F88C306D
:10594000F4E7012384F88930E7E7002384F88930FD
:10595000F0E700BF6C00002070B50E4B1E78B6B9A2
:10596000304670BD0C4B1B6853F825304FF49470D3
:1059700000FB0430FFF7C2FF022004F0B9FC013441
:10598000022CEFDD0135032DEADC0024F8E70025C9
:10599000F9E700BF40A0002044A0002038B504462D
:1059A000164B03CBC4F80001C4F804112046FFF7DE
:1059B0003FFF054650B994F88830DBB9B4F88C3015
:1059C00043F08003A4F88C30284638BD022004F050
:1059D0008FFC94F888304BB9B4F88C3023F08003F6
:1059E000A4F88C30022384F82531EDE7002384F8F5
:1059F0008930F1E7012384F88930DFE76400002073
:105A000038B5002510E00B4B1B6853F825304FF4D8
:105A1000947000FB0430FFF7C1FF022004F068FC23
:105A20000134022CEFDD0135032D01DC0024F8E701
:105A300038BD00BF44A000202DE9F04107460C46C8
:105A400015461E46DFF8608100224FF400514046A3
:105A500001F078FE00224FF48051404601F072FEC2
:105A600000224FF48041404601F06CFE00224FF4CA
:105A70000041404601F066FEF81E032826D8DFE804
:105A800000F002274B6F00224FF40051464801F00E
:105A900059FE002714E0DFF8108101224FF4005175
:105AA000404601F04FFE284604F022FC00224FF44D
:105AB0000051404601F046FE304604F019FC013723
:105AC000A742E8DB4FF47A7004F012FCBDE8F081E5
:105AD00000224FF48051344801F034FE002714E0D6
:105AE000DFF8C48001224FF48051404601F02AFEC5
:105AF000284604F0FDFB00224FF48051404601F09F
:105B000021FE304604F0F4FB0137A742E8DB4FF4F6
