:020000040800F2
:1000000000000220A5860008F73D0008F93D000821
:10001000FB3D0008FD3D0008FF3D0008000000001A
:10002000000000000000000000000000717E0008D9
:10003000013E000800000000117F00080B7A000854
:10004000F5860008F5860008F5860008F5860008A4
:10005000F5860008F5860008F5860008F586000894
:10006000F5860008F5860008F5860008F586000884
:10007000F5860008F5860008F5860008F586000874
:10008000053E0008153E0008F5860008F5860008C4
:10009000253E0008F5860008F5860008F58600086C
:1000A000F5860008353E0008F5860008F58600084C
:1000B000F5860008F5860008F5860008F586000834
:1000C000F5860008F5860008F5860008F586000824
:1000D000F5860008F5860008453E0008F58600080C
:1000E000F5860008F5860008F5860008F586000804
:1000F000F5860008F5860008F5860008F5860008F4
:10010000F5860008F5860008F5860008F5860008E3
:10011000F5860008F5860008F5860008F5860008D3
:10012000F5860008F5860008F5860008F5860008C3
:10013000F5860008F5860008F5860008F5860008B3
:10014000F5860008F5860008F5860008F5860008A3
:10015000F5860008F5860008F5860008F586000893
:10016000F5860008F5860008F5860008F586000883
:10017000F5860008F5860008F586000800000000F6
:08018000F5860008F586000871
:1001900010B5054C237833B9044B13B10448AFF3C1
:1001A00000800123237010BDC80200200000000061
:1001B0007C7A010808B5034B1BB103490348AFF330
:1001C000008008BD00000000CC0200207C7A0108FD
:1001D000034613F8012B002AFBD1181A0138704787
:1001E00001F0FF01102A2BDB10F0070F08D010F8E8
:1001F000013B013A8B422DD010F0070F42B3F6D1EC
:10020000F0B441EA012141EA014122F007047FF004
:1002100000070023F0E80256083C85EA010586EA5B
:10022000010685FA47F5A3FA87F586FA47F6A5FA97
:1002300087F68EB9EED1F0BC01F0FF0102F00702A3
:1002400032B110F8013B013A83EA010313B1F8D14E
:100250000020704701387047002D06BF354603382F
:10026000073815F0010F07D1013015F4807F02BF68
:10027000013015F4C03F0130F0BC0138704700BFB9
:100280004FF0FF3C06E000BF4FF0010C02E000BF62
:100290004FF0010C4DF804CD4FEA410C7FEA6C5C45
:1002A0004FEA430C18BF7FEA6C5C1BD001B050EAE8
:1002B000410C0CBF52EA430C91EA030F02BF90EAD3
:1002C000020F0020704710F1000F91EA030F58BF92
:1002D000994208BF90422CBFD8176FEAE37040F0F4
:1002E000010070474FEA410C7FEA6C5C02D150EA92
:1002F000013C07D14FEA430C7FEA6C5CD6D152EA4D
:10030000033CD3D05DF8040B704700BF8446104611
:1003100062468C461946634600E000BF01B5FFF710
:10032000B7FF002848BF10F1000F01BD4DF808EDE0
:10033000FFF7F4FF0CBF012000205DF808FB00BFB1
:100340004DF808EDFFF7EAFF34BF012000205DF80B
:1003500008FB00BF4DF808EDFFF7E0FF94BF012058
:1003600000205DF808FB00BF4DF808EDFFF7CEFF59
:1003700094BF012000205DF808FB00BF4DF808ED98
:10038000FFF7C4FF34BF012000205DF808FB00BF69
:100390007BB972B90029BEBF00204FF0004106E0D2
:1003A00008BF00281CBF6FF000414FF0FF3001F084
:1003B00029B9ADF1080C6DE904CE002909DB002B49
:1003C0001ADB00F04DF8DDF804E0DDE9022304B0AB
:1003D0007047404261EB4101002B1BDB00F040F80D
:1003E000DDF804E0DDE9022304B0404261EB4101A5
:1003F000524263EB43037047524263EB430300F006
:100400002FF8DDF804E0DDE9022304B0404261EB9F
:1004100041017047524263EB430300F021F8DDF8DD
:1004200004E0DDE9022304B0524263EB430370476A
:1004300053B94AB9002908BF00281CBF4FF0FF314B
:100440004FF0FF3001F0DEB8ADF1080C6DE904CEDD
:1004500000F006F8DDF804E0DDE9022304B070479F
:100460002DE9F047089D04468E46002B4DD18A4267
:10047000944669D9B2FA82F252B101FA02F3C2F19A
:10048000200120FA01F10CFA02FC41EA030E94402B
:100490004FEA1C48210CBEFBF8F61FFA8CF708FB4C
:1004A00016E341EA034306FB07F199420AD91CEB24
:1004B000030306F1FF3080F01F81994240F21C8156
:1004C000023E63445B1AA4B2B3FBF8F008FB10339E
:1004D00044EA034400FB07F7A7420AD91CEB0404D3
:1004E00000F1FF3380F00A81A74240F207816444A3
:1004F000023840EA0640E41B00261DB1D440002328
:10050000C5E900433146BDE8F0878B4209D9002D8B
:1005100000F0EF800026C5E9000130463146BDE815
:10052000F087B3FA83F6002E4AD18B4202D382427F
:1005300000F2F980841A61EB030301209E46002D2E
:10054000E0D0C5E9004EDDE702B9FFDEB2FA82F283
:10055000002A40F09280A1EB0C014FEA1C471FFAE1
:100560008CFE0126200CB1FBF7F307FB131140EAC8
:1005700001410EFB03F0884208D91CEB010103F195
:10058000FF3802D2884200F2CB804346091AA4B257
:10059000B1FBF7F007FB101144EA01440EFB00FE2B
:1005A000A64508D91CEB040400F1FF3102D2A64590
:1005B00000F2BB800846A4EB0E0440EA03409CE72F
:1005C000C6F12007B34022FA07FC4CEA030C20FADC
:1005D00007F401FA06F31C43F9404FEA1C4900FAFC
:1005E00006F3B1FBF9F8200C1FFA8CFE09FB181179
:1005F00040EA014108FB0EF0884202FA06F20BD9EC
:100600001CEB010108F1FF3A80F08880884240F23B
:100610008580A8F102086144091AA4B2B1FBF9F07F
:1006200009FB101144EA014100FB0EFE8E4508D97A
:100630001CEB010100F1FF346CD28E456AD90238FF
:10064000614440EA0840A0FB0294A1EB0E01A142E4
:10065000C846A64656D353D05DB1B3EB080261EB52
:100660000E0101FA07F722FA06F3F1401F43C5E92C
:10067000007100263146BDE8F087C2F12003D84062
:100680000CFA02FC21FA03F3914001434FEA1C47A4
:100690001FFA8CFEB3FBF7F007FB10360B0C43EA96
:1006A000064300FB0EF69E4204FA02F408D91CEB46
:1006B000030300F1FF382FD29E422DD90238634444
:1006C0009B1B89B2B3FBF7F607FB163341EA0341E4
:1006D00006FB0EF38B4208D91CEB010106F1FF3833
:1006E00016D28B4214D9023E6144C91A46EA00462A
:1006F00038E72E46284605E70646E3E61846F8E6BC
:100700004B45A9D2B9EB020864EB0C0E0138A3E704
:100710004646EAE7204694E74046D1E7D0467BE7E5
:10072000023B614432E7304609E76444023842E75D
:1007300003685A004CBF43F0004323F000431844C1
:10074000704700BF2DE9F84329B34F1E04461546F4
:100750003E464FF0000808EB060101EBD17149104D
:1007600004EBC1094846FFF7E3FF0346C800083021
:100770008F42204409D0AB4209D8FFF7D9FF013896
:10078000A8420AD201F10108E5E7AB4205D9884544
:1007900001D04E1EDFE74FF000094846BDE8F88360
:1007A000012807D0022807D0044B00280CBF1846A8
:1007B000002070470248704702487047790E0008D1
:1007C0007D0E0008810E000830B5234B83B004462F
:1007D0008D1E3BB301A92846AFF30080E8B1019913
:1007E0002A46FFF7AFFF0146B8B1FFF7A1FF4B68FC
:1007F000A064012B2CD0002B01F1040024DBFFF7B7
:1008000097FF0023C4E913030368002B11DBFFF7F4
:100810008FFF2061002003B030BD00230920236139
:1008200003B030BD0D4B0E49C91AC91018460191CD
:10083000D6E7C3F30360FFF7B3FF0028206114BFBE
:100840000020092003B030BD0123C4E91303DBE716
:10085000002323610520DEE70000000018A4010842
:10086000E0A401080368DA0710B5044606D49B0724
:1008700000F1480009D500F05BFC2368590709D551
:100880001A070ED5DB0613D510BD00F049FC23680E
:100890005907F5D404F1D00000F052FC23681A0780
:1008A000F0D404F5A87000F053FC2368DB06EBD409
:1008B00004F5E870BDE8104000F08EBC09207047D8
:1008C0000346006800B11844704700BF704700BF7E
:1008D00070B504460E46316C2046FFF775FF05469D
:1008E00088B9326C626123693246214601209847FB
:1008F0000828F0D0072806D12846316CFFF7E6FF1C
:10090000301D00F001FC16F0D1FC00BF2DE9F047CE
:100910000D1DD0F80C80D0F81890074614460FCD66
:10092000ADF5727D0DF10C0CACE80F000FCDACE80D
:100930000F000FCDACE80F0095E80F0002AE4FF0AE
:10094000000E8CE80F00C6F800E020E0336C7B61FD
:100950004FF4F07231467AA807F008FF3B697AAA93
:10096000394650469847889B73642146CDE9006913
:1009700005463B463A460120C0470446E0B94FF4DD
:10098000F0727AA9304607F0F1FE082D1AD1316CC9
:100990003846FFF719FF09345FFA84FA0546002844
:1009A000D4D0B36B73643A46CDE900693B464AF054
:1009B00010010120C04700B1092528460DF5727DC0
:1009C000BDE8F087072DF7D12046316CFFF77EFF99
:1009D00003A800F099FB00BF406C7047F0B5CB6BEB
:1009E0000B6401F1040C0E460546BCE80F00F9B09B
:1009F00001AC0FC4BCE80F000FC4BCE80F000FC46B
:100A00009CE80F004FF0FF3784E80F00009706E0E6
:100A10002B696A46294698470828044608D1109948
:100A20002846FFF7D1FE0028F2D0092079B0F0BDAA
:100A30006846FFF717FF062CF7D131462846FFF727
:100A400047FF00BFC160D96B82611964002219465B
:100A50005CE700BF70B5C66843690B64AEB9036953
:100A60000A4604460D46014602209847072805D04D
:100A700008280FD129462046FFF72AFF3046296C67
:100A8000FFF724FF281D00F03FFB0122FFF73EFF88
:100A900016F00CFC16F00AFCC2681AB1CA6B0A64A4
:100AA000002233E79AE700BF704700BF8368014622
:100AB0000BB1012018477047012912D009D873B92A
:100AC0000F2A0CD800EB820218465368009A136074
:100AD00070470339012994BF01200220704702208A
:100AE00070470846704700BF00B585B00A4600232E
:100AF00003A900911946FFF7DFFF039805B05DF8E1
:100B000004FB00BF012912D009D873B90F2A0CD8F1
:100B100000EB8200009A1268426018467047033961
:100B2000012994BF01200220704702207047084627
:100B3000704700BF10B584B0002303AC039200944B
:100B40000A461946FFF7DEFF04B010BD70B5D36B3F
:100B5000136402F1040C05460C46BCE80F00ADF529
:100B60000E7D0DF15C0EAEE80F00BCE80F00AEE8A4
:100B70000F00BCE80F00AEE80F009CE80F004FF03C
:100B8000FF368EE80F00169610E0FFF7D3FF2146E0
:100B900016A8A847034616AA6946082083B9049BED
:100BA0009847052806460CD0092809D0269968469A
:100BB000FFF70AFE03466A460C2116A8002BE4D074
:100BC000092616A8FFF74EFE30460DF50E7D70BDC6
:100BD0002DE9F04FCC6C89B01E4654F8043B0694C6
:100BE0000D46174600F00308002E79D01A0C1B049E
:100BF00005938DF81D200223D2B204EB82048DF8F8
:100C00001C302B6DB8F1020F08BFAC6B13F0010361
:100C10000CD005A9384600F079FB18B9082009B0B6
:100C2000BDE8F08F092009B0BDE8F08FD4F800A02E
:100C3000BAF1000FEDD0019300F008030293022EE9
:100C40004AD0B4F800A0B4F802900434AB6C29F098
:100C5000010B0F2138469B44FFF746FF834539D8E7
:100C60002AF001039B44834594BF002001204FEAF2
:100C7000490303F002030AF0010A43EA0A03012BC5
:100C800049D0022B32D0002BCCD1B8F1000F02D0CA
:100C9000002840F0CD800434D4F800A0BAF1000F51
:100CA000CDD105A9384600F031FB0028BAD1019B0F
:100CB000002BB3D00F213846FFF716FF0E21024656
:100CC0003846FFF737FF38466A4A0F21FFF732FFF1
:100CD0000720A8E70020CAE7D4F804900834B5E755
:100CE0001B0205930323ADF81C308AE7236823F029
:100CF000004BB8F1000F45D128B1029A002A5CD010
:100D0000BBF1000F74D0002B00DA04340BF1010B9F
:100D100004EB8B04C0E7B8F1000F19D1B0B16368E0
:100D20002268991C4FEAD2723FF47CAF05F158015A
:100D30000133049100F09080201DFFF7C1FD04AB4A
:100D400001462846AFF3008000285BD10834A3E7B2
:100D50000D213846D5F82090FFF7C6FE8145F5D124
:100D6000AB6A9C42F2D12046FFF7E2FC0F2102461B
:100D70003846FFF7DFFE38462A460021FFF7DAFE45
:100D8000072050E70D213846D5F82090FFF7ACFE3C
:100D9000814501D02368B6E7AB6A9C42FAD10423AF
:100DA0000022C5E90B23E318C5F828B06B6323685C
:100DB000002B59DB01230193A8E705F15803CDF877
:100DC0000C8004F1040AB04691461E460EE05046DF
:100DD0000496FFF775FD0022014604AB284609F191
:100DE00001090AF1040AAFF30080E0B9D945EED158
:100DF0000D213846FFF778FE049BAC62C5E9080375
:100E0000062010E781460D213846FFF76DFEB9F147
:100E1000020F286225D12B46049A43F82C2F6B62CF
:100E2000AC620620FFE646462368DDF80C806AE7E0
:100E30002046FFF77DFC04340246AC632846144686
:100E4000AFF3008000283FF4EDAE384622460F2174
:100E5000FFF770FE0720E6E60D213846FFF744FE57
:100E60002862049B6B62DBE70BF1010004EB80005E
:100E70007AE700BF000000000023A9E60123A7E6EF
:100E80000223A5E62DE9F0430646C3B015461C46ED
:100E9000042900F2BF80DFE801F09E57BD2D03005A
:100EA000002C40F0B780102A00F2B4800368D80606
:100EB00000F1F98020AF384600F098F9B46B39465C
:100EC00000234FF0010C0CFA03F22A42204603F1F2
:100ED000010303D050F8042B0A600446042B01F1EF
:100EE0000401F0D13846B46300F076F9002043B035
:100EF000BDE8F083032C40F08D8094B204EB1243E4
:100F0000102B4FEA124500F2858003681F0700F19D
:100F1000D28020AF384600F03DF9B26B07EBC50137
:100F200054B10B46D01A01EBC401E4001D5843F83C
:100F3000045B8B42FAD122443846B26300F008F9D0
:100F4000002043B0BDE8F083012C4FEA124895B26F
:100F50005CD0052C5ED108EB0509B9F1200F59D8FA
:100F6000B8F10F0F79D9A946002D40F08A80B36BF4
:100F70006DB320AF4FF0000907EBC807043F03EB48
:100F8000C50553F8041B47F8041FAB42F9D1B9F16A
:100F9000000F0FD06F464146102938BF102107EBD4
:100FA000C101843903EBC90553F8040B41F8040F60
:100FB000AB42F9D1012C00F08680B8F10F0FB56378
:100FC00047D9B9F1000F02D0684600F0B9F8002007
:100FD00043B0BDE8F083ECB9806B23461FFA82FC76
:100FE0000124371D04FA03F212EA0C0F014604D063
:100FF00051F8042B47F8232008460133102BF1D178
:1010000015F40055E3D1B063284604E008EB05036E
:10101000102B03D9022043B0BDE8F083B8F10F0FC5
:10102000F8D83368DA0706D5304623F0030340F8D2
:10103000483B00F079F820AF384600F075F8B36B04
:10104000002D97D11D460435B563384600F068F889
:10105000BDE720A800F06CF8B3E7B9F1100F40D954
:10106000A9F110093368D90708D523F001033046E8
:1010700043F0020340F8483B00F05EF8B9F1000F7E
:1010800032D033685A0720D4B8F10F0F25D96F46F4
:101090003846C8F1100500F057F8002DB36B7FF704
:1010A0007AAF20AF68E723F01003336006F5E870ED
:1010B00000F09CF8FEE623F00803036000F5A8703A
:1010C00000F068F825E720AFBDE7304623F00403C1
:1010D00040F8D03B00F038F8D6E720A800F02CF814
:1010E000D5E74FF00009BDE7B8F10F0F3FF63FAF6E
:1010F00020AF384600F020F8B36B002D7FF43AAFF4
:10110000384600F015F862E700F1340191E8380044
:101110009C46A6464CF8045D90E8FF0FE54600BDEE
:1011200090EC210B704700BF80EC210B704700BF93
:1011300090EC200B704700BF80EC200B704700BF85
:10114000D0EC200B704700BFC0EC200B704700BFF5
:10115000F0EC0201F0EC0211F0EC0221F0EC0231B3
:10116000F0EC0241F0EC0251F0EC0261F0EC0271A3
:10117000F0EC0281F0EC0291F0EC02A1F0EC02B193
:10118000F0EC02C1F0EC02D1F0EC02E1F0EC02F183
:10119000704700BFE0EC0201E0EC0211E0EC02213C
:1011A000E0EC0231E0EC0241E0EC0251E0EC0261E3
:1011B000E0EC0271E0EC0281E0EC0291E0EC02A1D3
:1011C000E0EC02B1E0EC02C1E0EC02D1E0EC02E1C3
:1011D000E0EC02F1704700BFB0FC0181B0FC01916E
:1011E000B0FC01A1B0FC01B1704700BFA0FC0181BF
:1011F000A0FC0191A0FC01A1A0FC01B1704700BFBF
:10120000EC4600B52DE900502DE9FF1F4FF000031B
:101210002DE90C0001A9FFF7E1FBDDF840E012B079
:10122000704700BFEC4600B52DE900502DE9FF1FC7
:101230004FF000032DE90C0001A9FFF70BFCDDF8CE
:1012400040E012B0704700BFEC4600B52DE90050F9
:101250002DE9FF1F4FF000032DE90C0001A9FFF756
:101260001BFCDDF840E012B0704700BFEC4600B553
:101270002DE900502DE9FF1F4FF000032DE90C0070
:1012800001ABFFF7DFFBDDF840E012B0704700BFB5
:10129000EC4600B52DE900502DE9FF1F4FF000038B
:1012A0002DE90C0001AAFFF751FCDDF840E012B077
:1012B000704700BF027A03467AB9427AA2B1416808
:1012C000013A10B44272086803220C1D1A7202021D
:1012D0005C60000E10BC1A6070470068013A1A7218
:1012E00002021A60000E7047B020704700B585B04A
:1012F000002303AA009219460C22FFF7DDFB039896
:1013000005B05DF804FB00BFF0E700BF2DE9F04336
:10131000054685B00E464FF000083046FFF7CAFF7D
:10132000B028044600F0BA80070620D500F0F0038C
:10133000802B4DD0902B36D0A02B60D0B02B74D00A
:10134000C02B00F08B8000F0F803D02B0BD100F005
:1013500007020132052342F4002201212846FFF74B
:1013600091FD0028D9D0092005B0BDE8F0838300A5
:10137000DBB21F1D0DF10C0900231946CDF80090BA
:101380000D222846FFF798FB039BCDF800906006DE
:101390004CBFDF1BFF1800230D2219462846039778
:1013A000FFF7B0FBB9E700F00D030D2BDBD003AF67
:1013B000002300F00F02194600972846FFF77CFB38
:1013C000002300970D2219462846FFF79BFBA4E750
:1013D0003046FFF76FFF24022043B0F5004FC2D024
:1013E00004010023A2B219462846FFF74BFD00284E
:1013F000B9D114F4004F18BF4FF001088DE7C24374
:1014000002F007034FF47F621A41010702F47F6282
:101410004FF0000348BF42F4804219462846FFF7C8
:1014200031FD00283FF479AF9DE7B1283BD0B228C9
:1014300000F09380B32841D000F0FC03B42B92D08D
:1014400000F007020132012342F400221946284627
:10145000FFF718FD00283FF460AF84E7C6284AD0A4
:10146000C72854D000F0F803C02B63D0C82868D038
:10147000C9287FF478AF3046FFF71CFF020300F065
:101480000F0002F470220130024301210523284697
:10149000FFF7F8FC00283FF440AF64E7B8F1000F15
:1014A00018D0002060E73046FFF704FF024600280E
:1014B0003FF459AF10F0F003C8D054E73046FFF7BF
:1014C000F9FE020300F00F03013302F470221A4305
:1014D0000123BBE703AC43460E2241460094284655
:1014E000FFF7EAFA009443460F2241462846FFF7E9
:1014F00009FB404638E73046FFF7DCFE020300F008
:101500000F03013302F470221A4303239EE730468F
:10151000FFF7D0FE024600283FF425AF10F0F0039D
:101520007FF421AF04212846FFF7ACFC00283FF4EC
:10153000F4AE18E700F00F020132032342F4202238
:1015400084E73046FFF7B6FE00F0F00200F00F032C
:101550001032013343EA023297E700230DF10C0900
:101560000D221946CDF800902846FFF7A5FA30461F
:10157000FFF7A0FE02064FF002040CD5039B00F01B
:101580007F00A040184403903046FFF793FE030607
:1015900004F10704F2D4039BCDF8009000F07F0221
:1015A000A24003F501731A440023039219460D2249
:1015B0002846FFF7A7FAB0E610B5C26C536884B0AE
:1015C0004FF0030C08321C0208461B0E01A90194BF
:1015D00002928DF80CC08DF80D30FFF797FE04B025
:1015E00010BD00BF08B5FFF78FFE806C08BD00BFBF
:1015F00008B5FFF789FEC06CC379023300EB8300A6
:1016000008BD00BF704700BF10F8012B11F8013B67
:10161000012A28BF9A42F7D0D01A704710B517E0B8
:10162000042284F84C2094F84E2042F0040284F8FE
:101630004E20144C04F1140009F038FC60650028B9
:10164000EED1104A92F84E3043F0040382F84E3047
:101650000C4C022384F84C3023460022114604F13E
:10166000140009F0D5FB60650028E2D1054B032288
:1016700083F84C2093F84E2022F0040283F84E2089
:1016800010BD00BFE402002070B58EB00146294CA9
:10169000012084F84C00284B0193284B0093284BE1
:1016A000284A0AF04BFA206560B1042284F84C20E5
:1016B00094F84E2042F0010284F84E20002528467E
:1016C0000EB070BD1B4A92F84E3023F0010382F831
:1016D0004E3009A809F0F6FC1B4B09931B4B0A93EB
:1016E0001B4B0B931B4B0C9309A809F0F9FC054607
:1016F00050B9104B042283F84C2093F84E2042F04E
:10170000020283F84E20DAE70A4E02A809F008FD2B
:10171000B44602AC0FCCACE80F002368CCF8003024
:1017200096F84E3023F0020386F84E30FFF776FF2E
:10173000C5E700BFE40200202D860008EF85000801
:10174000E1850008C98500086184000885840008D7
:10175000A5840008E584000808B5FFF795FF40B1AF
:1017600000F0A2FA044809F019FB00F0E7FA0020A3
:1017700008BD4FF0FF30FBE74803002010B50D4BCC
:10178000022283F84C2000F0D9FA02E0642006F02F
:10179000D5F9084C04F1140009F088FB60650028B5
:1017A000F4D1FFF73BFF00F07FFA034809F0F6FAA7
:1017B00010BD00BFE40200204803002008B50A461F
:1017C0006423CB600146024800F01CFD08BD00BF49
:1017D0006C5C002030B5FFB00C464FF4FA73CB6060
:1017E000037873B901AD002101914FF4F87202A89A
:1017F00006F0CAFF2846FEF7EBFCA06065607FB0EC
:1018000030BD01F003FDEDE738B5002800F01F8181
:10181000914B1B78002B00F01A81904B1C682368B9
:1018200093F82521012A0FD08D4D03F1880CBCE8D7
:101830000F000FC5BCE80F000FC5BCE80F000FC5B7
:101840009CE80F0085E80F00236893F84D22012AD9
:101850000FD0844D03F5D87CBCE80F000FC5BCE861
:101860000F000FC5BCE80F000FC59CE80F0085E80E
:101870000F00236893F84D22012A0FD07A4D03F50B
:10188000367CBCE80F000FC5BCE80F000FC5BCE8F4
:101890000F000FC59CE80F0085E80F00636893F800
:1018A0002521012A0FD0714D03F1880CBCE80F00EF
:1018B0000FC5BCE80F000FC5BCE80F000FC59CE8C2
:1018C0000F0085E80F00636893F84D22012A0FD0BE
:1018D000674D03F5D87CBCE80F000FC5BCE80F00CE
:1018E0000FC5BCE80F000FC59CE80F0085E80F008E
:1018F000636893F87523012A0FD05E4D03F5367C9B
:10190000BCE80F000FC5BCE80F000FC5BCE80F0016
:101910000FC59CE80F0085E80F00A36893F8252108
:10192000012A0FD0544D03F1880CBCE80F000FC5FD
:10193000BCE80F000FC5BCE80F000FC59CE80F0006
:1019400085E80F00A36893F84D22012A0FD04B4D74
:1019500003F5D87CBCE80F000FC5BCE80F000FC52D
:10196000BCE80F000FC59CE80F0085E80F00A368D6
:1019700093F87523012A0FD0414D03F5367CBCE85E
:101980000F000FC5BCE80F000FC5BCE80F000FC566
:101990009CE80F0085E80F00E36893F82521012AF1
:1019A0000FD0384D03F1880CBCE80F000FC5BCE820
:1019B0000F000FC5BCE80F000FC59CE80F0085E8BD
:1019C0000F00E36893F84D22012A0FD02E4D03F546
:1019D000D87CBCE80F000FC5BCE80F000FC5BCE801
:1019E0000F000FC59CE80F0085E80F00E36893F82F
:1019F0007523012A0FD0254C03F5367CBCE80F0077
:101A00000FC4BCE80F000FC4BCE80F000FC49CE873
:101A10000F0084E80F001E4C002204F5E76104F576
:101A2000E66008F001FAC4F8400A38B9184AB2F87A
:101A30004A3A23F00203A2F84A3A0BE0B4F84A3AD1
:101A400043F00203A4F84A3AFFF798FE02E0114877
:101A500006F082FF38BD00BFE40D0020E00D00203D
:101A6000780A0020B80A0020F80A0020380B00206D
:101A7000780B0020B80B0020F80B0020380C002059
:101A8000780C0020B80C0020F80C0020380D002045
:101A9000400300209095010810B582B0264C274BDA
:101AA000C4F88C3013F02AFD0246D4F88C3021465D
:101AB00004F1880009F09CFAC4F8900030B30422C5
:101AC00084F8482AB4F84A2A42F48062A4F84A2AE0
:101AD000194C6423C4F80437194B009304F5DF63F1
:101AE00004F1980204F1880104F1080008F0A4FF51
:101AF000C4F89000A8B1042284F8482AB4F84A2A0D
:101B000042F48062A4F84A2A02B010BD0A4B0122B6
:101B100083F8482AB3F84A2A22F48062A3F84A2AB2
:101B2000D6E7054B012283F8482AB3F84A2A22F463
:101B30008062A3F84A2AE7E740030020A095010845
:101B4000BD17000810B582B0264C274BC4F80C37DF
:101B500013F0CDFC0246D4F80C37214604F5E160C1
:101B600009F046FAC4F8100730B3042284F8482A72
:101B7000B4F84A2A42F40062A4F84A2A194C6423B1
:101B8000C4F82837194B009304F21C7304F5E36280
:101B900004F5E16104F1080008F04EFFC4F81007F5
:101BA000A8B1042284F8482AB4F84A2A42F4006210
:101BB000A4F84A2A02B010BD0A4B012283F8482A31
:101BC000B3F84A2A22F40062A3F84A2AD6E7054B62
:101BD000012283F8482AB3F84A2A22F40062A3F8C3
:101BE0004A2AE7E740030020B0950108D51700080E
:101BF00010B582B013F074FC0246264C264B2146E9
:101C000004F5E66009F0C0F9C4F8400AD0B9214AE9
:101C1000B2F84A3A23F00203A2F84A3A1D4C1F4B8D
:101C2000C4F8443A1E4AC4F83C2A00931C4A0023D4
:101C30001C4904F6382009F00FFAC4F8400A68B1CC
:101C400002B010BD042284F8482AB4F84A2A42F0AF
:101C50000202A4F84A2AFFF791FDDFE704F63821D3
:101C600004F1080008F0BCFEC4F8400A48B10422A0
:101C700084F8482AB4F84A2A42F00202A4F84A2A10
:101C8000DEE7044AB2F84A3A23F00203A2F84A3ADD
:101C9000D6E700BF40030020C495010809180008DA
:101CA00080969800F802002030B5A1B01E4C0123A8
:101CB00084F8483A1D4B1E4A1E49204609F028F96F
:101CC000C4F84C0A68B1184B042283F8482AB3F8C8
:101CD0004A2A42F00102A3F84A2AFFF74FFD21B039
:101CE00030BDB4F84A3A23F00103A4F84A3A6846F2
:101CF00008F0C4FD04F1080580226946284606F074
:101D000035FD0D4B032203F11801284608F0C0FDF4
:101D1000C4F84C0A0028E0D1FFF76AFFFFF7BCFEC9
:101D2000FFF710FFDBE700BF40030020F8020020B0
:101D300038960108D4950108E402002010B51A4C29
:101D400004F1080008F018FEC4F84C0A04F6382024
:101D500008F06AFBD4F84C3A0344C4F84C3A2146E4
:101D600004F5E66008F012F8D4F84C3A0344C4F8DD
:101D70004C3A214604F1880008F05AF9D4F84C3A5C
:101D80000344C4F84C3A214604F5E16008F050F9E8
:101D9000D4F84C3A0344C4F84C3A204607F066FEA7
:101DA000C4F84C0A10BD00BF40030020F0B5FFB0DE
:101DB00006460C46002101914FF4F87202A806F085
:101DC000E3FC01233370D4E90401024601F100432E
:101DD000D4E90201FEF7AAFA002800F09E80D4E9B7
:101DE0000801024601F10043D4E90601FEF79EFA1C
:101DF000002800F0AC8000220023D4E90A01FEF79D
:101E000095FA40B90022844BD4E90C01FEF78EFA12
:101E1000002800F0B78000220023D4E90E01FEF76D
:101E200085FA40B900227D4BD4E91001FEF77EFA15
:101E3000002800F0BF80D4E91401024601F10043FC
:101E4000D4E91201FEF772FA002800F0CB80D4E941
:101E50000223D4E91601FEF773FA30B9D4E904235A
:101E6000D4E91801FEF78AFA50B10023337001A8B3
:101E7000FEF7AEF945226A4901AB184406F076FC3C
:101E8000D4E90623D4E91A01FEF75AFA30B9D4E9A5
:101E90000823D4E91C01FEF771FA50B10023337016
:101EA00001A8FEF795F942225E4901AB184406F0FD
:101EB0005DFC00225C4BD4E91E01FEF741FA30B90B
:101EC00000225A4BD4E92001FEF758FAE0B1002372
:101ED000337001A8FEF77CF9554D01AB1C1805F1D4
:101EE0003007AC46BCE80F0020606160A260E36090
:101EF00065461034BC45F4D107CD20606160A26016
:101F00002A88AB78A281A37301AC2046FEF760F962
:101F1000B060746030467FB0F0BD0023337001A81C
:101F2000FEF756F9DFF810C101AB1D180CF1200EB9
:101F300067460FCF28606960AA60EB60BC46103529
:101F40007745F5D1BCE803002860696047E70023C6
:101F5000337001A8FEF73CF9364F01AB1D1807F1AD
:101F6000200EBC46BCE80F0028606960AA60EB60E8
:101F700067461035F445F4D103CF286069603B789B
:101F80002B7238E70023337001A8FEF721F9DFF840
:101F9000ACC001AB1D180CF1200E67460FCF2860B6
:101FA0006960AA60EB60BC4610357745F5D13B7897
:101FB0002B7030E70023337001A8FEF709F9DFF832
:101FC00080C001AB1D180CF1200E67460FCF2860B2
:101FD0006960AA60EB60BC4610357745F5D13B7867
:101FE0002B7028E70023337001A8FEF7F1F8DFF823
:101FF00054C001AB1D180CF1200E67460FCF2860AE
:102000006960AA60EB60BC4610357745F5D13A8827
:10201000BB782A80AB701AE700407F400000144074
:10202000A8960108F096010800001CC000001C40A2
:102030003497010810960108E89501083C960108BC
:10204000609601088496010838B50446C0F8F81077
:10205000284BC0F8FC30284B1B7813B32378C4F806
:1020600008310023C4F810310822C4F81821C4F83C
:102070001431D4F8F8305B6A012B28D094F824315D
:1020800043F0020384F82431B4F88C3023F00403C5
:10209000A4F88C30002384F88A30012084F82501CC
:1020A00038BD08461349CB6301220A644B628B6238
:1020B00040F6FF75CD620B634B634A64243101F037
:1020C000F1FF0028CAD10C4B01221A70C6E794F820
:1020D000243123F0020384F82431B4F88C3043F027
:1020E0000403A4F88C30012384F88A3084F8253165
:1020F0000020D5E7900D0020DC0D0020000000003E
:1021000038B5102006F022FB3B4B1860002408E095
:10211000394B1D684FF45E7006F018FB45F824003B
:102120000134032CF4DD002257E0334B196851F8D9
:1021300022004FF4947303FB0CF300EB030E00201A
:10214000AEF88C0051F8224004EB030E8EF88800A4
:1021500051F8224004EB030E8EF8890051F822401A
:1021600004EB030E8EF88A0051F8224004EB030EB4
:102170008EF8A00051F8224004EB030E9FED1C7B6B
:102180008EED2A7B51F8224004EB030E8EED2C7B62
:1021900051F8224004EB030E8EED2E7B51F82240C5
:1021A00004EB030E8EED307B51F8224004EB030E5E
:1021B000124CCEF8904051F8224004EB030EC82494
:1021C000CEF8984051F822100B44C3F894000CF15B
:1021D000010CBCF1020FA8DD0132032A02DC4FF032
:1021E000000CF6E70120064B187038BDAFF30080F5
:1021F0000000000000000000E00D002038960108FB
:10220000E40D00202DE9F047ADF50A7D06460D46A8
:102210001446B94B1B786BB3294682A8FFF7C6FD5D
:102220009DF80832002B59D0B44F3B6888222946CC
:10223000186806F09BFA3B681A68002182F88A1039
:10224000196891F8242142F0010281F824213146D5
:102250001868FFF7F9FE90B13A681168B1F88C3050
:1022600023F00103A1F88C301268012382F8253194
:10227000237066E0A14B1868FFF742FFCCE74FF0F0
:10228000000E84F800E005AF9D4BBC460FCBACE8D8
:102290000700ACF800304FF4F37271460DF12200E4
:1022A00006F072FA3846FDF793FF804607EB000E02
:1022B000DFF854C2BCE80F0047F80800CEF804105D
:1022C000CEF80820CEF80C30BCE80700CEF810009D
:1022D000CEF81410CEF81820676032E04FF00009F5
:1022E00084F800900DF11408854B47460FCB07C7C3
:1022F0003B804FF4F37249460DF1220006F044FA98
:102300008399404606F050FBC4F804804046FDF730
:102310005FFFA060794B1B681A68012182F88A1060
:102320001968B1F88C2042F00102A1F88C201968DC
:1023300091F8242122F0010281F824211B6883F8FE
:1023400025916F4605F188013846FFF72FFD0DF501
:10235000027C97E80F008CE80F009DF80832002BF4
:102360005AD0664B1F6838688822A91800F5947007
:1023700006F0FCF93B68002283F8B2213A6892F833
:102380004C3243F0010382F84C323868314600F594
:102390009470FFF759FE68B1584B1A681168B1F88C
:1023A000B43123F00103A1F8B4311368012283F89A
:1023B0004D2267E04FF0000E84F800E005AFBC4608
:1023C000504B0FCBACE807002CF8023B1B0C8CF8F1
:1023D000003040F2E51271460DF1230006F0D4F909
:1023E0003846FDF7F5FE804607EB000EDFF81CC10E
:1023F000BCE80F0047F80800CEF80410CEF808201B
:10240000CEF80C30BCE80700CEF81000CEF814105F
:10241000CEF81820676035E04FF0000984F800908E
:102420000DF114084746374B0FCB07C727F8023B7F
:102430001B0C3B7040F2E51249460DF1230006F0FB
:10244000A3F98399404606F0AFFAC4F804804046E9
:10245000FDF7BEFEA060294B1B681A68012182F8B7
:10246000B2111968B1F8B42142F00102A1F8B42107
:10247000196891F84C2222F0010281F84C221B6865
:1024800083F84D926F4605F588713846FFF78EFC4C
:102490000DF5027C97E80F008CE80F009DF80832DC
:1024A000002B62D0154B1F683868882205F58871AB
:1024B00000F5147006F05AF93B68002283F8DA221E
:1024C0003A6892F8743343F0010382F87433386841
:1024D000314600F51470FFF7B7FDC8B1074B1A6815
:1024E0001168B1F8DC3223F00103A1F8DC32136883
:1024F000012283F8752369E0E40D0020E00D00203F
:10250000987A01088C7C010874970108909701085B
:102510004FF0000C84F800C005AF3B46AD4A07CA37
:1025200003C31A804FF4F57261460DF11E0006F0E8
:102530002BF93846FDF74CFE804607EB000EDFF81E
:10254000A4C2BCE80F0047F80800CEF80410CEF88B
:102550000820CEF80C30BCE80700CEF81000CEF80A
:102560001410CEF81820676030E04FF0000884F8AF
:10257000008005AF3B46974A07CA03C31A804FF451
:10258000F57241460DF11E0006F0FEF883993846BB
:1025900006F00AFA67603846FDF71AFEA0608E4B17
:1025A0001B681A68012182F8DA121968B1F8DC2276
:1025B00042F00102A1F8DC22196891F8742322F09C
:1025C000010281F874231B6883F875836F4605F553
:1025D000CC713846FFF7EAFB0DF5027C97E80F0057
:1025E0008CE80F009DF80832002B54D07A4F3B68DE
:1025F000882205F5CC71586806F0B8F83B685A682F
:10260000002182F88A10596891F8242142F00102D1
:1026100081F8242131465868FFF716FD60B13A6809
:102620005168B1F88C3023F00103A1F88C30536865
:10263000012283F8252161E04FF0000E84F800E0CC
:1026400005AFBC46654B0FCBACE80700ACF80030DB
:102650004FF4F37271460DF1220006F095F83846FA
:10266000FDF7B6FD804607EB000EDFF87CC1BCE845
:102670000F0047F80800CEF80410CEF80820CEF876
:102680000C30BCE80700CEF81000CEF81410CEF8DD
:102690001820676032E04FF0000984F800900DF1D7
:1026A000140847464D4B0FCB07C73B804FF4F372DE
:1026B00049460DF1220006F067F88399404606F07E
:1026C00073F9C4F804804046FDF782FDA060424BD8
:1026D0001B685A68012182F88A105968B1F88C2069
:1026E00042F00102A1F88C20596891F8242122F0CF
:1026F000010281F824215B6883F825916F4605F576
:1027000008713846FFF752FB0DF5027C97E80F0081
:102710008CE80F009DF80832002B67D02E4B1F6805
:102720007868882205F5087100F5947006F01EF8A7
:102730007B68002283F8B2217A6892F84C3243F029
:10274000010382F84C327868314600F59470FFF747
:102750007BFC68B1204B1A685168B1F8B43123F0A2
:102760000103A1F8B4315368012283F84D2273E0CC
:102770004FF0000E84F800E005AFBC46184B0FCBBD
:10278000ACE807002CF8023B1B0C8CF8003040F240
:10279000E51271460DF1230005F0F6FF3846FDF70E
:1027A00017FD804607EB000EDFF83CC0BCE80F00C9
:1027B00047F80800CEF80410CEF80820CEF80C3008
:1027C000BCE80700CEF81000CEF81410CEF81820A0
:1027D000676041E0807E0108E00D00207480010800
:1027E0006882010890970108749701084FF000096A
:1027F00084F800900DF114084746984B0FCB07C79B
:1028000027F8023B1B0C3B7040F2E51249460DF1E4
:10281000230005F0B9FF8399404606F0C5F8C4F8D7
:1028200004804046FDF7D4FCA0608D4B1B685A68BD
:10283000012182F8B2115968B1F8B42142F00102C5
:10284000A1F8B421596891F84C2222F0010281F8D4
:102850004C225B6883F84D926F4605F52A71384625
:10286000FFF7A4FA0DF5027C97E80F008CE80F0043
:102870009DF80832002B56D0794B1F687868882263
:1028800005F52A7100F5147005F070FF7B680022D1
:1028900083F8DA227A6892F8743343F0010382F8FD
:1028A00074337868314600F51470FFF7CDFB68B1DA
:1028B0006B4B1A685168B1F8DC3223F00103A1F8C0
:1028C000DC325368012283F875235DE04FF0000C81
:1028D00084F800C005AF3B46624A07CA03C31A80AA
:1028E0004FF4F57261460DF11E0005F04DFF3846BC
:1028F000FDF76EFC804607EB000EDFF870C1BCE808
:102900000F0047F80800CEF80410CEF80820CEF8E3
:102910000C30BCE80700CEF81000CEF81410CEF84A
:102920001820676030E04FF0000884F8008005AFA1
:102930003B464C4A07CA03C31A804FF4F57241461E
:102940000DF11E0005F020FF8399384606F02CF8A3
:1029500067603846FDF73CFCA060414B1B685A6835
:10296000012182F8DA125968B1F8DC2242F0010242
:10297000A1F8DC22596891F8742322F0010281F851
:1029800074235B6883F8758305F54C786F46414680
:102990003846FFF70BFA0DF5027C97E80F008CE83C
:1029A0000F00414686A8FFF701FA9DF81832002B68
:1029B00060D02B4F3B6888224146986805F0D6FED0
:1029C0003B689A68002182F88A10996891F824215E
:1029D00042F0010281F8242131469868FFF734FB68
:1029E00060B13A689168B1F88C3023F00103A1F826
:1029F0008C309368012283F825216EE04FF0000EA1
:102A000084F800E005AFBC46174B0FCBACE80700DD
:102A1000ACF800304FF4F37271460DF1220005F06E
:102A2000B3FE3846FDF7D4FB804607EB000EDFF817
:102A300040C0BCE80F0047F80800CEF80410CEF8FC
:102A40000820CEF80C30BCE80700CEF81000CEF815
:102A50001410CEF8182067603FE000BF68820108BC
:102A6000E00D00205C840108508601089097010861
:102A7000749701084FF0000984F800900DF11408D4
:102A800047469A4B0FCB07C73B804FF4F37249463A
:102A90000DF1220005F078FE8399404605F084FF91
:102AA000C4F804804046FDF793FBA060904B1B6880
:102AB0009A68012182F88A109968B1F88C2042F056
:102AC0000102A1F88C20996891F8242122F00102DA
:102AD00081F824219B6883F825916F4605F56E7176
:102AE0003846FFF763F90DF5027C97E80F008CE894
:102AF0000F009DF80832002B5BD07D4B1F68B86833
:102B0000882205F56E7100F5947005F02FFEBB6804
:102B1000002283F8B221BA6892F84C3243F00103E4
:102B200082F84C32B868314600F59470FFF78CFAA1
:102B300068B16F4B1A689168B1F8B43123F00103A2
:102B4000A1F8B4319368012283F84D2267E04FF079
:102B5000000E84F800E005AFBC46664B0FCBACE836
:102B600007002CF8023B1B0C8CF8003040F2E512F9
:102B700071460DF1230005F007FE3846FDF728FBEE
:102B8000804607EB000EDFF874C1BCE80F0047F881
:102B90000800CEF80410CEF80820CEF80C30BCE8BF
:102BA0000700CEF81000CEF81410CEF81820676099
:102BB00035E04FF0000984F800900DF11408474605
:102BC0004C4B0FCB07C727F8023B1B0C3B7040F266
:102BD000E51249460DF1230005F0D6FD83994046E4
:102BE00005F0E2FEC4F804804046FDF7F1FAA0606B
:102BF0003F4B1B689A68012182F8B2119968B1F8BD
:102C0000B42142F00102A1F8B421996891F84C2254
:102C100022F0010281F84C229B6883F84D926F46A6
:102C200005F588613846FFF7C1F80DF5027C97E895
:102C30000F008CE80F009DF80832002B60D02C4B61
:102C40001F68B868882205F5886100F5147005F0E2
:102C50008DFDBB68002283F8DA22BA6892F87433DB
:102C600043F0010382F87433B868314600F51470FC
:102C7000FFF7EAF968B11E4B1A689168B1F8DC32C7
:102C800023F00103A1F8DC329368012283F8752355
:102C900067E04FF0000C84F800C005AF3B46164AD1
:102CA00007CA03C31A804FF4F57261460DF11E0086
:102CB00005F06AFD3846FDF78BFA804607EB000EFB
:102CC000DFF838C0BCE80F0047F80800CEF8041061
:102CD000CEF80820CEF80C30BCE80700CEF8100083
:102CE000CEF81410CEF8182067603AE0508601083C
:102CF000E00D002044880108388A010890970108F7
:102D00004FF0000884F8008005AF3B46CE4A07CA62
:102D100003C31A804FF4F57241460DF11E0005F011
:102D200033FD8399384605F03FFE67603846FDF76E
:102D30004FFAA060C54B1B689A68012182F8DA122D
:102D40009968B1F8DC2242F00102A1F8DC2299680E
:102D500091F8742322F0010281F874239B6883F8B0
:102D6000758305F599686F4641463846FFF71EF8AA
:102D70000DF5027C97E80F008CE80F009DF80832F3
:102D8000002B53D0B14F3B6888224146D86805F0EC
:102D9000EDFC3B68DA68002182F88A10D96891F866
:102DA000242142F0010281F824213146D868FFF73E
:102DB0004BF960B13A68D168B1F88C3023F0010367
:102DC000A1F88C30D368012283F8252161E04FF00F
:102DD000000E84F800E005AFBC469D4B0FCBACE87D
:102DE0000700ACF800304FF4F37271460DF1220089
:102DF00005F0CAFC3846FDF7EBF9814607EB000EFB
:102E0000DFF854C2BCE80F0047F80900CEF8041000
:102E1000CEF80820CEF80C30BCE80700CEF8100041
:102E2000CEF81410CEF81820676032E04FF0000A98
:102E300084F800A00DF114094F46854B0FCB07C74E
:102E40003B804FF4F37251460DF1220005F09CFCDB
:102E50008399484605F0A8FDC4F804904846FDF75C
:102E6000B7F9A060794B1B68DA68012182F88A10F3
:102E7000D968B1F88C2042F00102A1F88C20D96801
:102E800091F8242122F0010281F82421DB6883F8E3
:102E900025A16F4641463846FEF788FF0DF5027CB6
:102EA00097E80F008CE80F009DF80832002B5BD0EC
:102EB000664B1F68F868882205F5AA6100F59470D2
:102EC00005F054FCFB68002283F8B221FA6892F8FE
:102ED0004C3243F0010382F84C32F868314600F579
:102EE0009470FFF7B1F868B1584B1A68D168B1F81F
:102EF000B43123F00103A1F8B431D368012283F87F
:102F00004D2267E04FF0000E84F800E005AFBC46AC
:102F1000504B0FCBACE807002CF8023B1B0C8CF895
:102F2000003040F2E51271460DF1230005F02CFC53
:102F30003846FDF74DF9814607EB000EDFF818C162
:102F4000BCE80F0047F80900CEF80410CEF80820BE
:102F5000CEF80C30BCE80700CEF81000CEF8141004
:102F6000CEF81820676035E04FF0000A84F800A022
:102F70000DF114094F46374B0FCB07C727F8023B1B
:102F80001B0C3B7040F2E51251460DF1230005F099
:102F9000FBFB8399484605F007FDC4F804904846BA
:102FA000FDF716F9A060294B1B68DA68012182F849
:102FB000B211D968B1F8B42142F00102A1F8B421EC
:102FC000D96891F84C2222F0010281F84C22DB688A
:102FD00083F84DA26F4641463846FEF7E7FE0DF5F1
:102FE000027C97E80F008CE80F009DF80832002B58
:102FF00055D0164B1F68F868882205F5BB6100F5AF
:10300000147005F0B3FBFB68002283F8DA22FA683B
:1030100092F8743343F0010382F87433F868314650
:1030200000F51470FFF710F8C0B1084B1A68D168AA
:10303000B1F8DC3223F00103A1F8DC32D3680122BD
:1030400083F875235AE000BF388A0108E00D00209C
:103050002C8C0108208E010890970108002525700E
:1030600005AF3B46274A07CA03C31A804FF4F572DF
:1030700029460DF11E0005F087FB3846FDF7A8F83C
:1030800084463E18204D0FCD47F80C007160B260A9
:10309000F36007CD30617161B26167602EE0002698
:1030A000267005AD2B46174A07CA03C31A804FF492
:1030B000F57231460DF11E0005F066FB8399284636
:1030C00005F072FC65602846FDF782F8A0600F4BA2
:1030D0001B68DA68012182F8DA12D968B1F8DC22BB
:1030E00042F00102A1F8DC22D96891F8742322F0A1
:1030F000010281F87423DB6883F875630DF50A7D9E
:10310000BDE8F0871490010890970108E00D0020B9
:1031100010B582B0044604F5907304F5807204F58E
:103120008471D4F8F80001F087F8002842D1022019
:1031300004F004FDD4F8FC206B4608320021D4F8DA
:10314000F80001F0F7F8A8BB9DF8002023789A4218
:1031500017D0D4F8F8305B6A012B1CD094F82631D4
:103160000133DBB284F82631052BD4D9B4F88C3086
:1031700043F00803A4F88C30042384F825310020A0
:1031800022E0D4F8FC3000981860BDF804209A8042
:10319000002384F82631012084F88800B4F88C30AC
:1031A00023F008031BB2A4F88C3023F00403A4F826
:1031B0008C3009E0B4F88C3043F00403A4F88C3070
:1031C000062384F82531002002B010BD10B5044656
:1031D0000D4B03CBC4F80001C4F804112046FFF7DF
:1031E00097FF48B1B4F88C3023F08003A4F88C30FA
:1031F000032384F8253110BDB4F88C3043F08003EC
:10320000A4F88C30F7E700BF0000002038B5002597
:1032100010E00B4B1B6853F825304FF4947000FB03
:103220000430FFF7D3FF022004F088FC0134022CA5
:10323000EFDD0135032D01DC0024F8E738BD00BFC8
:10324000E00D00202DE9F04107460C4615461E46CC
:10325000DFF8608100224FF40051404601F092FEF9
:1032600000224FF48051404601F08CFE00224FF4C2
:103270008041404601F086FE00224FF40041404666
:1032800001F080FEF81E032826D8DFE800F00227B0
:103290004B6F00224FF40051464801F073FE0027A7
:1032A00014E0DFF8108101224FF40051404601F094
:1032B00069FE284604F042FC00224FF400514046CB
:1032C00001F060FE304604F039FC0137A742E8DB2C
:1032D0004FF47A7004F032FCBDE8F08100224FF424
:1032E0008051344801F04EFE002714E0DFF8C4801E
:1032F00001224FF48051404601F044FE284604F07C
:103300001DFC00224FF48051404601F03BFE304648
:1033100004F014FC0137A742E8DB4FF47A7004F0A4
:103320000DFCD9E700224FF48041224801F02AFE2B
:10333000002714E0DFF87C8001224FF480414046F2
:1033400001F020FE284604F0F9FB00224FF48041F2
:10335000404601F017FE304604F0F0FB0137A7426B
:10336000E8DB4FF47A7004F0E9FBB5E700224FF494
:103370000041104801F006FE002714E0DFF8348019
:1033800001224FF40041404601F0FCFD284604F0C4
:10339000D5FB00224FF40041404601F0F3FD3046DA
:1033A00004F0CCFB0137A742E8DB4FF47A7004F05D
:1033B000C5FB91E7000C024008B57EE1C8231A4620
:1033C00001210320FFF73EFF20E0C8231A46022117
:1033D0000320FFF737FF19E0C8231A4603210846E8
:1033E000FFF730FF12E0A94C00224FF400512046B5
:1033F00001F0C8FD642004F0A1FB01224FF400514C
:10340000204601F0BFFD642004F098FBA04B93F828
:103410002030DBB2052B40F03D819C4C00224FF464
:103420000051204601F0AEFD00224FF480512046AD
:1034300001F0A8FD00224FF48041204601F0A2FDDA
:1034400000224FF40041204601F09CFD4FF4FA7039
:1034500004F074FB8E4B5B6A13F0010F06D0C82397
:103460001A4601210520FFF7EDFE26E1884B5B6A35
:1034700013F0020F7DD1864B5B6A13F4001F7FD1DE
:10348000834B5B6A13F0040F40F08180804B5B6AD2
:1034900013F0080F40F082807D4B5B6A13F0100F31
:1034A00040F083807A4B5B6A13F0200F40F08480F9
:1034B000774B5B6A13F0400F40F08580744B5B6A7A
:1034C00013F0800F40F08680714B5B6A13F4807FAD
:1034D00040F087806E4B5B6A13F4007F40F0888079
:1034E0006B4B5B6A13F4806F40F08980684B5B6ABA
:1034F00013F4006F40F08A80654B5B6A13F4805FC1
:1035000040F08B80624B5B6A13F4005F40F08C806C
:103510005F4B5B6A13F4804F40F08D805C4B5B6ABD
:1035200013F4004F40F08E80594B5B6A13F4803FD8
:1035300040F08F80564B5B6A13F4003F40F0908060
:10354000534B5B6A13F4802F40F09180504B5B6AC1
:1035500013F4002F40F092804D4B5B6A13F4801FF0
:1035600000F0AB80C8231A4616210520FFF76AFE3B
:10357000A3E0C8231A4602210520FFF763FE9CE062
:10358000C8231A4603210520FFF75CFE95E0C823F7
:103590001A4604210520FFF755FE8EE0C8231A467F
:1035A00005210846FFF74EFE87E0C8231A4606218C
:1035B0000520FFF747FE80E0C8231A4607210520B3
:1035C000FFF740FE79E0C8231A4608210520FFF7DF
:1035D00039FE72E0C8231A4609210520FFF732FEA2
:1035E0006BE0C8231A460A210520FFF72BFE64E092
:1035F000C8231A460B210520FFF724FE5DE0C823EF
:103600001A460C210520FFF71DFE56E0C8231A4676
:103610000D210520FFF716FE4FE0C8231A460E21A4
:103620000520FFF70FFE48E0C8231A460F210520AA
:10363000FFF708FE41E0C8231A4610210520FFF7D6
:1036400001FE3AE0C8231A4611210520FFF7FAFDD2
:1036500033E0C8231A4612210520FFF7F3FD2CE0C2
:10366000C8231A4613210520FFF7ECFD25E0C823E7
:103670001A4614210520FFF7E5FD1EE0C8231A466F
:1036800015210520FFF7DEFD17E000BF000C02400A
:103690006C5C0020274C00224FF48041204601F052
:1036A00071FC642004F04AFA01224FF48041204664
:1036B00001F068FC642004F041FA1F4B93F84C3091
:1036C000032B3FF490AE1B4C00224FF400512046D8
:1036D00001F058FC00224FF48051204601F052FCCA
:1036E00000224FF48041204601F04CFC00224FF4B0
:1036F0000041204601F046FC4FF4FA7004F01EFA37
:103700000D4B93F84E3013F0010F7FF457AE13F0CA
:10371000020F7FF45AAE13F0040F7FF45DAE13F086
:10372000080F3FF473AEC8231A4604210320FFF7A5
:1037300089FD6BE6000C0240E402002008B5026837
:10374000034B9A4200D008BD01F0FAFEFBE700BF30
:103750000000014072B6FEE700B595B030220021AE
:1037600008A805F011F8002303930493059306932A
:1037700007930193214A116C41F080511164126C3E
:1037800002F080520192019A02931D4B1A6842F492
:1037900080421A601B6803F480430293029B01235A
:1037A00008934FF48033099302230E934FF4800261
:1037B0000F92082210924FF4A872119212930723CD
:1037C000139308A800F092FF98B90F2303930223E4
:1037D0000493002305934FF4A05306934FF48053B2
:1037E0000793052103A801F0E7F920B915B05DF8AA
:1037F00004FBFFF7AFFFFFF7ADFF00BF003802404B
:103800000070004008B501F081FEFFF7A5FF00F051
:1038100019F800F085F900F0A5F900F0F9F900F0C9
:103820004DFA00F0E7FA00F025F9054800F0D6FC63
:1038300004F0F8F800F002F904F006F9FEE700BF22
:103840006C5C00202DE9F04F8DB0002407940894A3
:1038500009940A940B9401946C4B1A6B42F0100279
:103860001A631A6B02F010020192019A02941A6B09
:1038700042F004021A631A6B02F004020292029AE6
:1038800003941A6B42F080021A631A6B02F08002F2
:103890000392039A04941A6B42F001021A631A6BA2
:1038A00002F001020492049A05941A6B42F002029B
:1038B0001A631A6B02F002020592059A06941A6BBB
:1038C00042F008021A631B6B03F008030693069B81
:1038D000DFF8449122460821484601F053FBDFF807
:1038E0003C8101221146404601F04CFBDFF830A13B
:1038F00022464FF21001504601F044FB082507957F
:103900000126089609940A9407A9484601F048FA46
:103910000796089609940A9407A9404601F040FAD0
:1039200007950225089509940A944FF0050BCDF8E8
:103930002CB007A9404601F033FA07964FF49013D4
:1039400008930994324F07A9384601F029FA102349
:103950000793089509940A9406230B9307A9384600
:1039600001F01EFA042307930894099407A9294833
:1039700001F016FA4FF480630793089509940A94AE
:10398000CDF82CB007A9234801F00AFA4FF2100332
:103990000793089609940A9407A9504601F000FA83
:1039A0004FF4A4530793089509940A9406230B93A4
:1039B00007A9404601F0F4F94FF400730793089407
:1039C000099407A9384601F0EBF94FF4E053079347
:1039D000089509940A940A230B9307A9384601F025
:1039E000DFF9202307930894099407A9504601F0B2
:1039F000D7F907954FF490130893099407A94846FF
:103A000001F0CEF90DB0BDE8F08F00BF00380240E4
:103A10000000024000040240001002400008024082
:103A2000000C024008B50248FDF796FE08BD00BF35
:103A3000005E002008B5FFF7BFFC08BD08B5074AC7
:103A40000021074804F01CF8064B1860064A0021C4
:103A5000064804F015F8064B186008BDCC9701081D
:103A6000253A0008645C0020F0970108353A000808
:103A7000685C002008B50D480D4B036003234360CC
:103A800000238360C3604FF4A02202614FF4C002A0
:103A90004261037643768376C3760377437700F0FB
:103AA0005BFA00B908BDFFF755FEFBE76C5C002030
:103AB0000064004000B589B000230393049305938C
:103AC000069307930268144B9A4202D009B05DF83E
:103AD00004FB0021019103F5EA331A6C42F00072F5
:103AE0001A641A6C02F000720192019A02911A6B28
:103AF00042F008021A631B6B03F008030293029B57
:103B0000032303930222049206930923079303A934
:103B1000024801F045F9D9E700640040000C02407A
:103B200010B582B0002401940D4B1A6B42F40012C0
:103B30001A631B6B03F400130193019B22460521BA
:103B4000102001F09DFC102001F0D2FC224605213E
:103B5000112001F095FC112001F0CAFC02B010BD4B
:103B60000038024008B50B480B4B03600B4B436019
:103B700000238360C3604FF480420261436183612C
:103B8000C361036201F0EEFC00B908BDFFF7E2FD7E
:103B9000FBE700BF945C002000540040A0860100B9
:103BA00030B589B0002303930493059306930793DC
:103BB0000268144B9A4201D009B030BD002501952E
:103BC000114C236B43F002032363236B03F00203C6
:103BD0000193019B4FF41073039312230493012369
:103BE00005930423079303A9084801F0D9F8029527
:103BF000236C43F400132364236C03F40013029337
:103C0000029BD9E700540040003802400004024003
:103C100008B50D480D4B03604FF4827343600023D9
:103C20008360C360036143614FF400728261C361CA
:103C30000362436283620A23C36201F071FD00B92B
:103C400008BDFFF787FDFBE7E85C0020003001407E
:103C500000B589B00023039304930593069307935B
:103C60000268144B9A4202D009B05DF804FB0021AF
:103C7000019103F584335A6C42F480525A645A6CB1
:103C800002F480520192019A02911A6B42F00102F1
:103C90001A631B6B03F001030293029BE02303935F
:103CA000022304930523079303A9034801F078F83E
:103CB000DAE700BF003001400000024008B50A48C2
:103CC0000A4B03604FF46123436000238360C360A9
:103CD00003610C2242618361C36102F00FF800B9F5
:103CE00008BDFFF737FDFBE7005E00200044004001
:103CF00030B589B00023039304930593069307938B
:103D00000268364B9A4201D009B030BD0446002506
:103D1000019503F5FA331A6C42F400321A641A6CF6
:103D200002F400320192019A02951A6B42F00102EC
:103D30001A631B6B03F001030293029B0C23039392
:103D400002230493032306930723079303A924481C
:103D500001F026F82348244B03604FF000634360D2
:103D60008560C5604FF480630361456185614FF4F0
:103D70008073C3614FF440330362456201F088F9F8
:103D800028BB184BA3639C631848194B03604FF082
:103D900000634360402383600023C3604FF480626C
:103DA000026143618361C3614FF440320262436246
:103DB00001F06EF970B90D4B63639C63002205211D
:103DC000262001F05DFB262001F092FB9CE7FFF727
:103DD000C1FCD6E7FFF7BEFCEDE700BF00440040A2
:103DE00000000240405D002088600240A05D00208D
:103DF000A06002407047FEE7FEE7FEE7FEE7FEE751
:103E00007047000008B5024801F03AFA08BD00BF4B
:103E1000405D002008B5024801F032FA08BD00BF3D
:103E2000A05D002008B5024800F03AFB08BD00BFC5
:103E30006C5C002008B5024801F01AFD08BD00BF07
:103E4000A0A7002008B5024802F0FCF808BD00BF9A
:103E5000005E002000B583B0002200920D4B596C2B
:103E600041F480415964596C01F4804100910099FA
:103E70000192196C41F0805119641B6C03F080535E
:103E80000193019B0F216FF0010001F0F9FA03B0DB
:103E90005DF804FB003802400120704708B504F0CB
:103EA0002BFC162303604FF0FF3008BD08B54FF020
:103EB000FF31FFF7F3FFFEE770B50C46164600250D
:103EC00006E0AFF30080214601F8010B01350C46F6
:103ED000B542F6DB304670BD70B50C46164600257F
:103EE00004E014F8010BAFF300800135B542F8DBB4
:103EF000304670BD08B503460D4A12685AB10C4AE7
:103F0000106803440B4A11780B4A521A934206D8A0
:103F1000074A136008BD064A08491160EFE700BE72
:103F200004F0EAFB0C2303604FF0FF30F2E700BF20
:103F3000485E00200004000000000220103901202B
:103F40004FF0FF3070474FF400534B600020704734
:103F50000120704700207047002800F0A18038B58C
:103F6000044690F82030D3B12268136843F001036F
:103F7000136001F0F1FA054623685A6812F0010F48
:103F800010D101F0E9FA401B0A28F5D9636A43F41D
:103F900000336362052384F82030012038BDFFF729
:103FA00089FDE1E71A6822F002021A6001F0D4FAF2
:103FB000054623685A6812F0020F0DD001F0CCFAC2
:103FC000401B0A28F5D9636A43F400336362052372
:103FD00084F820300120E1E7227E012A3DD01A68D2
:103FE00022F080021A60637E012B3BD022681368A6
:103FF00023F040031360A37E012B39D0226813689D
:1040000023F020031360E37E012B37D0226813686E
:1040100043F010031360237F012B35D0226813680F
:1040200023F008031360637F012B33D022681368E9
:1040300023F004031360A368E26813432269134367
:10404000626913436268013A21681343CB6100201F
:104050006062012384F82030A0E71A6842F08002F1
:104060001A60C0E72268136843F040031360C2E798
:104070002268136843F020031360C4E722681368C2
:1040800023F010031360C6E72268136843F00803A7
:104090001360C8E72268136843F004031360CAE79B
:1040A0000120704790F82030013BDBB2012B05D98D
:1040B000436A43F4802343620120704730B5464B86
:1040C000D3F8002242F00102C3F80022D3F8002204
:1040D00022F47C52C3F80022D3F80022486A42EA54
:1040E0000022C3F800224A6902F01F02012000FAF0
:1040F00002F2D3F81C026FEA020C20EA0200C3F8B5
:104100001C02CB69C3B9344BD3F80C020CEA000093
:10411000C3F80C028C884869CD6844EA05444830ED
:1041200043F830408C68088840EA04404C6904F148
:10413000480E03EBCE035860CB69012B1ED08B6970
:10414000002B33D12448D0F804320CEA0303C0F822
:1041500004320B698BBB2048D0F814320CEA0303FD
:10416000C0F814320B6A012B2ED01B4AD2F8003251
:1041700023F00103C2F80032002030BD164BD3F803
:104180000C021043C3F80C028C8848690D6844EA9D
:104190000544483043F8304088894C698D6840EACE
:1041A0000540483403EBC4035860C8E70A48D0F818
:1041B00004321343C0F80432CBE70748D0F8143276
:1041C0001343C0F81432CDE70349D1F81C321A4327
:1041D000C1F81C22C9E700BF0064004070B5044666
:1041E00090F82050EDB2012D06D0436A43F400232D
:1041F00043620125284670BD022380F82030026802
:10420000136823F00103136001F0A6F90646236842
:104210005B6813F0010F0CD001F09EF9831B0A2B91
:10422000F5D9636A43F400336362052384F82030D0
:10423000E0E700256562DDE730B590F820C004684E
:10424000A4680CF1FF3C5FFA8CFCBCF1010F6BD849
:1042500014F0E05F62D0C4F3016CBCF1020F05D929
:10426000436A43F400034362012062E0012404FA3C
:104270000CF41C608B68002B3DD10D68CB68046882
:1042800043EA45550CF118031B01E55003680C691E
:104290000CF1180E03EB0E135C600B7D012B35D077
:1042A000D17993791B0443EA0163517943EA0123ED
:1042B00014790168234301EB0C11C1F88C31D178DA
:1042C00093781B0443EA0163517843EA0123117890
:1042D00002680B4302EB0C12C2F8883102680CF141
:1042E000180C4FEA0C1C52F80C3043F0010342F852
:1042F0000C3000201DE04C6843EAC403CC68234323
:104300000CF11804240105682B51BFE7036803EB87
:104310000E13596841F480715960C1E7436A43F450
:1043200000134362012004E0436A43F480234362A4
:10433000012030BD90F820C00CF1FF3C5FFA8CFCEE
:10434000BCF1010F00F2998030B451B90468E468FF
:1043500014F0030F10D1436A43F4001343620120A9
:104360007BE00468246914F0030F05D1436A43F429
:1043700000134362012070E001F11B042401056871
:104380002C5904F004049460002C68D101F11B0442
:10439000240105682C59640D1460046801F11B0C9C
:1043A0004FEA0C1C54F80C4004F00204D46004687A
:1043B0006444646804F00F0414610468644464682D
:1043C000C4F307249461046864446468240C546151
:1043D000026802EB0112D2F8B8211A70026802EBEF
:1043E0000112D2F8B821C2F307225A70026802EB18
:1043F0000112D2F8B821C2F307429A70026802EBA8
:104400000112D2F8B821120EDA70026802EB011222
:10441000D2F8BC211A71026802EB0112D2F8BC2159
:10442000C2F307225A71026802EB0112D2F8BC21D2
:10443000C2F307429A71026802EB0112D2F8BC2162
:10444000120EDA7199B90268D36843F02003D36081
:10445000436A23F400134362002030BC704701F12B
:104460001B04240105682C59E408546095E7026890
:10447000136943F020031361EAE7436A43F480239E
:10448000436201207047704770477047704770471C
:104490007047704770477047704770477047704764
:1044A0002DE9F84F054603685C69D3F804809F68DE
:1044B000D3F80CB0D3F810A0D3F8189014F001067C
:1044C0003BD017F0010616D001229A6017F0020FB8
:1044D00008D117F0040F0CD117F0080606D04FF4DE
:1044E000805608E0FFF7CFFF002604E0FFF7CEFF7D
:1044F00001E04FF4006617F4807F0DD02B684FF475
:1045000080729A6017F4007F40F0868017F4806F05
:1045100000F0868046F4005617F4803F0DD02B68DB
:104520004FF480329A6017F4003F40F0838017F414
:10453000802F00F0838046F4004614F0080F07D067
:104540001BF0100F04D046F400762B681022DA60BE
:1045500014F0040F02D01BF0080F79D114F0020FF1
:1045600004D02B68DB6813F0030F78D114F0400FF0
:1045700007D01AF0100F04D046F480662B68102282
:104580001A6114F0200F02D01AF0080F6BD114F04A
:10459000100F04D02B681B6913F0030F6AD114F4B9
:1045A000003F02D018F0100F68D114F4803F02D001
:1045B00018F0080F69D114F4004F7AD018F0040FE6
:1045C00074D014F4807F04D019F0010F01D046F0AC
:1045D000010614F4007F04D019F0020F01D046F058
:1045E000020614F4806F04D019F0040F01D046F0D5
:1045F000040614F4006F59D019F0700956D0B9F1BF
:10460000400F65D058D8B9F1200F5ED0B9F1300F06
:1046100042D146F0200644E02846FFF735FF7BE70D
:1046200017F4006F02D046F4804675E72846FFF77E
:104630002EFF71E72846FFF728FF7EE717F4002FCB
:1046400002D046F4803678E72846FFF721FF74E76A
:104650002B680822DA602846FFF71CFF7EE7284611
:10466000FFF717FF82E72B6808221A612846FFF739
:1046700013FF8CE72846FFF70EFF90E72B68102208
:104680005A602846FFF709FF8FE72B6808225A6017
:104690002846FFF703FF8EE7B9F1100F01D146F06E
:1046A00008062A68936923F0700393612B6804223B
:1046B0005A609EB9BDE8F88FB9F1500F0BD0B9F12F
:1046C000600FEED146F48076EBE746F01006E8E79F
:1046D00046F04006E5E746F08006E2E76B6A1E43D7
:1046E0006E622846FFF7DBFEE4E70000002800F0DA
:1046F000E08170B582B00446036813F0010F3BD02F
:104700009F4B9B6803F00C03042B2CD09C4B9B68A5
:1047100003F00C03082B21D06368B3F5803F4FD022
:10472000B3F5A02F52D0964B1A6822F480321A604B
:104730001A6822F480221A606368002B50D000F0BF
:104740000BFF05468E4B1B6813F4003F14D100F09D
:1047500003FF401B6428F5D90320B1E1884B5B6857
:1047600013F4800FD8D0864B1B6813F4003F03D09E
:104770006368002B00F09F81236813F0020F54D070
:104780007F4B9B6813F00C0F3ED07D4B9B6803F072
:104790000C03082B33D0E368002B68D0794B01223F
:1047A0001A6000F0D9FE0546754B1B6813F0020F26
:1047B00054D100F0D1FE401B0228F5D903207FE13F
:1047C0006F4A136843F480331360B5E76C4B1A6883
:1047D00042F480221A601A6842F480321A60ABE711
:1047E00000F0BAFE0546664B1B6813F4003FC3D0C9
:1047F00000F0B2FE401B6428F5D9032060E1604B55
:104800005B6813F4800FC6D15D4B1B6813F0020F79
:1048100003D0E368012B40F05081594A136823F01C
:10482000F803216943EAC1031360236813F0080FFA
:1048300042D063696BB3534B0122C3F8802E00F062
:104840008BFE05464E4B5B6F13F0020F34D100F028
:1048500083FE401B0228F5D9032031E1484A136842
:1048600023F0F803216943EAC1031360DDE7454BF8
:1048700000221A6000F070FE0546414B1B6813F0E1
:10488000020FD2D000F068FE401B0228F5D90320A9
:1048900016E13C4B0022C3F8802E00F05DFE054679
:1048A000374B5B6F13F0020F06D000F055FE401B34
:1048B0000228F5D9032003E1236813F0040F77D011
:1048C0002F4B1B6C13F0805F33D1002301932C4BD3
:1048D0001A6C42F080521A641B6C03F080530193EF
:1048E000019B0125284B1B6813F4807F23D0A3680C
:1048F000012B34D0052B38D0214B1A6F22F0010246
:104900001A671A6F22F004021A67A368002B3DD0C1
:1049100000F022FE06461A4B1B6F13F0020F46D121
:1049200000F01AFE801B41F288339842F3D903202D
:10493000C6E00025D6E7144A136843F48073136079
:1049400000F00AFE0646104B1B6813F4807FCED1A0
:1049500000F002FE801B0228F5D90320B0E0084ACF
:10496000136F43F001031367CFE7054B1A6F42F053
:1049700004021A671A6F42F001021A67C5E700BF06
:1049800000380240000047420070004000F0E4FDA3
:104990000646524B1B6F13F0020F08D000F0DCFDEF
:1049A000801B41F288339842F3D9032088E0EDB9A7
:1049B000A369002B00F08380484A926802F00C0241
:1049C000082A51D0022B17D0454B00221A6600F05E
:1049D000C3FD0446414B1B6813F0007F42D000F03A
:1049E000BBFD001B0228F5D9032069E03B4A136C8C
:1049F00023F080531364DBE7394B00221A6600F082
:104A0000ABFD0546354B1B6813F0007F06D000F068
:104A1000A3FD401B0228F5D9032051E0E369226A77
:104A20001343626A43EA8213A26A5208013A43EAD4
:104A30000243E26A43EA0263284A5360284B012298
:104A40001A6600F089FD0446244B1B6813F0007FB2
:104A500006D100F081FD001B0228F5D903202FE0CC
:104A600000202DE000202BE0012B2BD01B4B5B689E
:104A700003F48001E269914226D103F03F02216AEA
:104A80008A4223D1616A47F6C0721A40B2EB811F95
:104A90001ED103F44031A26A5208013AB1EB024F31
:104AA00018D103F07063E26AB3EB026F14D10020F7
:104AB00006E001207047012002E0012000E0002014
:104AC00002B070BD0120FBE70120F9E70120F7E704
:104AD0000120F5E70120F3E70120F1E7003802406B
:104AE0000000474208B5314B9B6803F00C03042BD0
:104AF00057D0082B57D12D4B5A6802F03F025B6804
:104B000013F4800F2AD0294B5968C1F3881C4FEA4F
:104B10004C11B1EB0C006EEB0E0E4FEA8E1343EA14
:104B200090638101091A63EB0E03DB0043EA5173C2
:104B3000C90011EB0C0C43F10003590200234FEAAA
:104B40004C2041EADC51FBF773FC184B5B68C3F364
:104B5000014301335B00B0FBF3F025E0134B5968D0
:104B6000C1F3881C4FEA4C11B1EB0C006EEB0E0E3A
:104B70004FEA8E1343EA90638101091A63EB0E0337
:104B8000DB0043EA5173C90011EB0C0C43F1000345
:104B9000990200234FEA8C2041EA9C51FBF748FC24
:104BA000D3E7034800E0034808BD00BF00380240D7
:104BB00000127A000024F400002800F09B8070B5F9
:104BC0000D4604464F4B1B6803F007038B4208D287
:104BD000CBB24C4A1370136803F007038B4240F0CA
:104BE0008B80236813F0020F17D013F0040F04D04A
:104BF000454A936843F4E0539360236813F0080F29
:104C000004D0414A936843F4604393603E4A9368FA
:104C100023F0F003A1680B439360236813F0010FA6
:104C200032D06368012B21D09A1E012A25D9364A39
:104C3000126812F0020F61D033498A6822F0030231
:104C400013438B6000F088FC06462F4B9B6803F0F3
:104C50000C036268B3EB820F16D000F07DFC801B62
:104C600041F288339842F0D9032042E0264A126884
:104C700012F4003FE0D101203BE0234A126812F019
:104C8000007FD9D1012034E01E4B1B6803F00703DD
:104C9000AB4207D9EAB21B4B1A701B6803F007033B
:104CA000AB422DD1236813F0040F06D0164A936847
:104CB00023F4E053E1680B439360236813F0080F7B
:104CC00007D0114A936823F46043216943EAC10382
:104CD0009360FFF707FF0C4B9B68C3F303130B4A6A
:104CE000D35CD8400A4B18600A4B186803F026FAC8
:104CF000002070BD012070470120FAE70120F8E78D
:104D00000120F6E7003C0240003802401C980108F0
:104D10001400002010000020014B1868704700BFED
:104D20001400002008B5FFF7F7FF044B9B68C3F39E
:104D30008223034AD35CD84008BD00BF003802403C
:104D40002C98010808B5FFF7E7FF044B9B68C3F3F5
:104D50004233034AD35CD84008BD00BF003802404C
:104D60002C9801080F2303600B4B9A6802F0030292
:104D700042609A6802F0F00282609A6802F4E0529F
:104D8000C2609B68DB0803F4E0530361034B1B68BC
:104D900003F007030B60704700380240003C0240FC
:104DA00000230F2B00F2E48070B582B060E08568CC
:104DB0005E000324B44025EA0405CC68B4402C43CB
:104DC0008460456825EA02054C68C4F300129A40E5
:104DD0002A4342605AE0DC08083450F8246003F0AB
:104DE000070295000F22AA4026EA020E0A69AA408D
:104DF00042EA0E0240F824205CE0072200E0002294
:104E000002FA0EF22A4302345A4D45F824205A4A37
:104E100094686FEA0C0224EA0C054E6816F4801FB1
:104E200001D04CEA0405544CA560E46802EA04058C
:104E30004E6816F4001F01D04CEA04054E4CE560A4
:104E4000646802EA04054E6816F4003F01D04CEA9B
:104E50000405494C6560246822404D6815F4803F84
:104E600001D04CEA0402444C226001330F2B7DD860
:104E700001229A400C6804EA020C32EA0404F4D1DC
:104E80004C6804F00304013C012C90D94A6802F0FC
:104E90000302032A09D0C4685D000322AA4024EA61
:104EA00002048A68AA402243C2604A6802F00302F0
:104EB000022A90D004684FEA430E032202FA0EF24F
:104EC00024EA02044A6802F0030202FA0EF22243C4
:104ED00002604A6812F4403FC7D000220192274A7C
:104EE000546C44F480445464526C02F48042019245
:104EF000019A9C08A51C1F4A52F8255003F0030292
:104F00004FEA820E0F2202FA0EF225EA02051C4A2F
:104F100090423FF474AF02F5806290421AD002F5DD
:104F20008062904218D002F58062904216D002F55D
:104F30008062904214D002F58062904212D002F555
:104F40008062904210D002F5806290423FF455AFEB
:104F5000082255E7012253E7022251E703224FE7D7
:104F600004224DE705224BE7062249E702B070BD57
:104F7000704700BF00380140003C0140003802404B
:104F8000000002400AB181617047090481617047E5
:104F900030B405682C6824F480242C6004686360B5
:104FA0008368402B05D0036899600368DA6030BCE1
:104FB000704703689A600368D960F8E710B4036823
:104FC000D9B210390C4AA2FB014212090B4CA25C67
:104FD000C2655F2909D923F47F7323F003030433E7
:104FE0008365806D5DF8044B704723F47F7323F075
:104FF00003038365F5E700BFABAAAAAA14980108CA
:10500000836A826992B9012B0AD0022B02D00BB1BC
:1050100000207047C36A13F0807F28D100207047BA
:10502000C36AB3F1C07F24D000207047B2F5005F9F
:1050300009D0022B25D9032B25D1C36A13F0807F19
:1050400023D100207047032B03D8DFE803F01404BA
:10505000140A00207047C36A13F0807F0DD100202E
:105060007047C36AB3F1C07F09D0002070470120A8
:1050700070470120704701207047012070470120D0
:1050800070470120704700207047012070470000E2
:1050900070B5044600F060FA002C5BD00546022390
:1050A00084F83530002384F834302268136823F004
:1050B0000103136023681A6812F0010F0AD000F090
:1050C0004BFA431B052BF5D920236365032084F895
:1050D000350070BD1A68204810406168A2680A4314
:1050E000E1680A4321690A4361690A43A1690A43E5
:1050F000E1690A43216A0A430243616A04291ED016
:105100001A602668756925F00705636A1D43042B3C
:1051100007D1A36A1D43E36A1BB12046FFF770FF66
:1051200090B975612046FFF749FFE26D3F23934038
:10513000836000206065012384F83530C9E7E16AA7
:10514000206B01430A43DBE740236365012084F8B9
:105150003500BEE70120BCE73F8010F038B50446BB
:10516000856D90F8340001282BD0012084F834009C
:1051700094F83500C0B2012804D0002384F83430FC
:10518000022038BD022084F83500002060652046EA
:10519000FFF7FEFEE26D3F239340AB602268136889
:1051A00043F016031360236C23B12268136843F0A5
:1051B000080313602268136843F0010313600020A2
:1051C000DFE70220DDE770B50446866D00F0C4F924
:1051D00094F83530DBB2022B06D0802363650023C0
:1051E00084F83430012070BD05462268136823F02E
:1051F000160313602268536923F080035361236C04
:10520000E3B12268136823F008031360226813686F
:1052100023F00103136023681B6813F0010F11D002
:1052200000F09AF9431B052BF5D920236365032071
:1052300084F83500002384F83430D4E7A36C002BC5
:10524000DFD1E3E7E26D3F239340B360012384F8AD
:105250003530002084F83400C5E790F83530DBB2F3
:10526000022B03D08023436501207047052380F87B
:1052700035300268136823F0010313600020704783
:10528000F0B583B0044600230193724B1D68724B46
:10529000A3FB0535AD0A876D3E68C26D08239340B8
:1052A000334210D003681A6812F0040F0BD01A684A
:1052B00022F004021A60C26D08239340BB60436D64
:1052C00043F001034365E26D01239340334209D06B
:1052D0002268526912F0800F04D0BB60636D43F006
:1052E00002036365E26D04239340334209D02268D0
:1052F000126812F0020F04D0BB60636D43F0040328
:105300006365E26D10239340334224D02268126813
:1053100012F0080F1FD0BB6023681A6812F4802FA8
:105320000DD01B6813F4002F04D1236C9BB12046D1
:10533000984710E0A36C73B1204698470BE01A68B9
:1053400012F4807F03D11A6822F008021A60236CDD
:105350000BB120469847E26D20239340334255D04D
:105360002268126812F0100F50D0BB6094F83530EC
:10537000DBB2052B0ED023681A6812F4802F33D0CD
:105380001B6813F4002F2AD1636C002B3ED02046FB
:1053900098473BE02268136823F0160313602268E5
:1053A000536923F080035361236CA3B1226813680F
:1053B00023F008031360E26D3F239340BB60012399
:1053C00084F83530002384F83430236D002B3FD02F
:1053D000204698473CE0A36C002BE7D1EBE7E36B5A
:1053E000A3B12046984711E01A6812F4807F09D1D2
:1053F0001A6822F010021A60012384F83530002365
:1054000084F83430E36B0BB120469847636DFBB1F1
:10541000636D13F0010F17D0052384F8353022682F
:10542000136823F001031360019B01330193AB4226
:1054300004D823681B6813F0010FF5D1012384F809
:105440003530002384F83430E36C0BB120469847A4
:1054500003B0F0BD14000020B5814E1B074AD3688D
:1054600023F4E0631B041B0C000200F4E060034320
:1054700043F0BF6343F40033D360704700ED00E0B6
:1054800000B5194BDB68C3F30223C3F1070CBCF171
:10549000040F28BF4FF0040C03F1040EBEF1060FF9
:1054A00018D9033B4FF0FF3E0EFA0CFC21EA0C0129
:1054B00099400EFA03F322EA0303194300280BDB99
:1054C0000901C9B200F1604000F5614080F80013A5
:1054D0005DF804FB0023E5E700F00F000901C9B205
:1054E000024B1954F4E700BF00ED00E014ED00E0BA
:1054F000002807DB00F01F02400901239340024A05
:1055000042F82030704700BF00E100E008B50B4BC7
:105510001A6842F400721A601A6842F480621A60D3
:105520001A6842F480721A600320FFF797FF0F2079
:1055300002F004FEFEF78EFC002008BD003C024095
:10554000034A1168034B1B780B441360704700BF7C
:105550004C5E00200C000020014B1868704700BF13
:105560004C5E0020002800F0CC8070B5044690F816
:105570003D30002B77D0242384F83D302268136817
:1055800023F0010313602268136843F4004313609F
:105590002268136823F400431360FFF7C3FB6268BB
:1055A0005A4B9A4264D85A4B98428CBF002301232D
:1055B000002B40F0A8805749A1FB00318B0C2568D7
:1055C0006A6822F03F0242EA91426A6021680A6AF0
:1055D00022F03F0266684D4DAE424FD8013313436F
:1055E0000B622168CA6922F44F4222F0FF0266680A
:1055F000464B9E424CD8431E7600B3FBF6F3013374
:1056000040F6FC70034278D0C3F30B031343CB6125
:1056100021680B6823F0C003E269206A0243134348
:105620000B6021688B6823F4034323F0FF03226996
:10563000E068024313438B602168CB6823F0FF03CB
:105640006269A06902431343CB602268136843F088
:105650000103136000202064202384F83D30206380
:1056600084F83E0070BD80F83C30FEF799FA82E77E
:10567000294B98428CBF0023012399E74FF496757C
:1056800005FB03F3254DA5FB03539B090133A6E757
:10569000A368BBB9451E06EB460CB5FBFCF501350E
:1056A000C5F30B05B5FA85F56D0945BBC3B90138DE
:1056B00006EB4603B0FBF3F30133C3F30B0343F4F0
:1056C0000043A3E7451E06EB860C0CEB8C0CB5FBE8
:1056D000FCF50135C5F30B05B5FA85F56D09E4E771
:1056E000013806EB860303EB8303B0FBF3F30133CE
:1056F000C3F30B0343F4404388E7042386E7012305
:1057000084E7012070470120ACE700BFA0860100BC
:105710007F841E0083DE1B43FF083D00D34D6210D3
:1057200000285AD010B50446436A33B94368B3F52C
:10573000827F05D00023C36102E00023036143613F
:105740000023A36294F85130002B40D0022384F848
:1057500051302268136823F040031360636803F438
:105760008273A26802F404421343E26802F4006206
:105770001343226902F002021343626902F001023C
:105780001343A26902F400721343E26902F0380283
:105790001343226A02F080021343A26A02F4005209
:1057A000216813430B60638B03F00403626A02F009
:1057B0001002216813434B602268D36923F400630D
:1057C000D36100206065012384F8513010BD84F856
:1057D00050302046FEF73CFAB8E70120704770478A
:1057E00090F83D30DBB2012B37D1022380F83D30F9
:1057F0000268D36843F00103D3600368194A9342F7
:1058000020D0B3F1804F1DD0A2F57C42934219D035
:1058100002F58062934215D002F58062934211D066
:1058200002F5784293420DD002F57052934209D0AE
:10583000A2F59432934205D01A6842F001021A6030
:10584000002070479A6802F00702062A07D01A68FB
:1058500042F001021A6000207047012070470020CA
:10586000704700BF000001407047704770477047A5
:1058700010B5044603681A6912F0020F11D0DA68F5
:1058800012F0020F0DD06FF002021A6101230377AC
:1058900003689B6913F0030F70D0FFF7E6FF002346
:1058A000237723681A6912F0040F12D0DA6812F015
:1058B000040F0ED06FF004021A61022323772368CD
:1058C0009B6913F4407F5FD02046FFF7CEFF002393
:1058D000237723681A6912F0080F12D0DA6812F0E1
:1058E000080F0ED06FF008021A6104232377236893
:1058F000DB6913F0030F4ED02046FFF7B6FF0023FD
:10590000237723681A6912F0100F12D0DA6812F0A8
:10591000100F0ED06FF010021A610823237723684E
:10592000DB6913F4407F3DD02046FFF79EFF002344
:10593000237723681A6912F0010F03D0DA6812F096
:10594000010F36D123681A6912F0800F03D0DA688C
:1059500012F0800F34D123681A6912F0400F03D07F
:10596000DA6812F0400F32D123681A6912F0200F62
:1059700003D0DA6812F0200F30D110BDFFF774FFAA
:105980002046FFF773FF8AE72046FFF76DFF2046AA
:10599000FFF76CFF9BE72046FFF766FF2046FFF707
:1059A00065FFACE72046FFF75FFF2046FFF75EFF8D
:1059B000BDE76FF001021A612046FDF7BFFEC1E7A7
:1059C0006FF080021A61204600F0A1F8C3E76FF083
:1059D00040021A612046FFF74AFFC5E76FF0200238
:1059E0001A61204600F092F8C7E700000368304AC9
:1059F000904212D0B0F1804F0FD0A2F57C4290427D
:105A00000BD002F58062904207D002F5806290428E
:105A100003D002F57842904203D123F070034A6824
:105A20001343234A90422AD0B0F1804F27D0A2F5E9
:105A30007C42904223D002F5806290421FD002F552
:105A4000806290421BD002F57842904217D002F556
:105A50007052904213D002F5806290420FD002F54E
:105A6000806290420BD0A2F59832904207D002F5A6
:105A70008062904203D002F58062904203D123F409
:105A80004073CA68134323F080034A6913430360D9
:105A90008B68C3620B688362054B984203D003F5A1
:105AA0008063984201D10B6903630123436170470E
:105AB0000000014040B310B5044690F83D30F3B10A
:105AC000022384F83D30214651F8040BFFF78EFF86
:105AD000012384F8463084F83E3084F83F3084F85F
