:020000040800F2
:100000000000022019A10008B7580008B9580008DC
:10001000BB580008BD580008BF5800080000000089
:10002000000000000000000000000000E19800084F
:10003000C158000800000000819900088194000860
:1000400069A1000869A1000869A1000869A1000868
:1000500069A1000869A1000869A1000869A1000858
:1000600069A1000869A1000869A1000869A1000848
:1000700069A1000869A1000869A1000869A1000838
:10008000C5580008D558000869A1000869A10008F2
:10009000E558000869A1000869A1000869A10008E5
:1000A00069A10008F558000869A1000869A10008C5
:1000B00069A1000869A1000869A1000869A10008F8
:1000C00069A1000869A1000869A1000869A10008E8
:1000D00069A1000869A100080559000869A1000884
:1000E00069A1000869A1000869A1000869A10008C8
:1000F00069A1000869A1000869A1000869A10008B8
:1001000069A1000869A1000869A1000869A10008A7
:1001100069A1000869A1000869A1000869A1000897
:1001200069A1000869A1000869A1000869A1000887
:1001300069A1000869A1000869A1000869A1000877
:1001400069A1000869A1000869A1000869A1000867
:1001500069A1000869A1000869A1000869A1000857
:1001600069A1000869A1000869A1000869A1000847
:1001700069A1000869A1000869A100080000000049
:0801800069A1000869A1000853
:1001C0000348044B834202D0034B03B118477047E6
:1001D00028010020280100200000000005480649F1
:1001E0000B1AD90F01EBA301491002D0034B03B145
:1001F0001847704728010020280100200000000057
:1002000010B5064C237843B9FFF7DAFF044B13B15E
:100210000448AFF300800123237010BD28010020A3
:10022000000000006460010808B5044B1BB10449DC
:100230000448AFF30080BDE80840CFE700000000AD
:100240002C01002064600108014B1868704700BF52
:100250000000002070B50D4E0D4D761BB61006D077
:100260000024013455F8043B9847A642F9D1094EC1
:10027000094D761B15F0F6FEB61006D000240134A9
:1002800055F8043B9847A642F9D170BD4C6E010861
:100290004C6E0108506E01084C6E0108844641EA1C
:1002A000000313F003036DD1403A41D351F8043BEE
:1002B00040F8043B51F8043B40F8043B51F8043B40
:1002C00040F8043B51F8043B40F8043B51F8043B30
:1002D00040F8043B51F8043B40F8043B51F8043B20
:1002E00040F8043B51F8043B40F8043B51F8043B10
:1002F00040F8043B51F8043B40F8043B51F8043B00
:1003000040F8043B51F8043B40F8043B51F8043BEF
:1003100040F8043B51F8043B40F8043B51F8043BDF
:1003200040F8043B51F8043B40F8043B403ABDD24E
:10033000303211D351F8043B40F8043B51F8043BF0
:1003400040F8043B51F8043B40F8043B51F8043BAF
:1003500040F8043B103AEDD20C3205D351F8043B7F
:1003600040F8043B043AF9D2043208D0D2071CBF4B
:1003700011F8013B00F8013B01D30B880380604674
:10038000704700BF082A13D38B078DD010F00303EA
:100390008AD0C3F10403D21ADB071CBF11F8013B5A
:1003A00000F8013B80D331F8023B20F8023B7BE7A9
:1003B000043AD9D3013A11F8013B00F8013BF9D2D4
:1003C0000B7803704B7843708B788370604670476E
:1003D000F0B4860746D0541E002A3CD0CAB2034669
:1003E00002E014F1FF3436D303F8012B9D07F8D156
:1003F000032C29D9CDB245EA05250F2C45EA054540
:1004000033D9A4F11006360903F1200707EB0617CC
:1004100003F1100242E9045542E902551032BA4292
:10042000F8D1721C14F00C0F03EB021204F00F064B
:1004300013D0331F23F003030433134442F8045B47
:100440009342FBD106F003042CB1C9B21C4403F85B
:10045000011B9C42FBD1F0BC704734461346002C74
:10046000F3D1F8E714460346C2E71A462646E0E70A
:100470000EB410B5044683B008B1836963B106A811
:1004800003460190059AA168204600F025FA03B0C2
:10049000BDE8104003B0704700F006F9EFE700BF79
:1004A0000FB410B50B4B1C6882B00CB1A36963B1DB
:1004B00005A803460190049AA168204600F00CFAB2
:1004C00002B0BDE8104004B07047204600F0ECF8E0
:1004D000EEE700BF0000002000207047014900F057
:1004E00029B900BF691300080020704770B54A1E83
:1004F000682505FB02F50E4605F1740100F044F98C
:10050000044640B100210C30666005F168022160AC
:10051000A060FFF75DFF204670BD00BF1E4B70B5A9
:100520001D68AB69064643B34835D5E90134013B44
:1005300005D51EE0013B5A1C04F1680419D0B4F93A
:100540000C20002AF6D10025144B6566C4E900553D
:10055000A560C4E90455A5612946E360082204F1B9
:100560005C00FFF735FFC4E90D55C4E9125520467C
:1005700070BD2C682CB12546D7E7284600F010F84E
:10058000D2E704213046FFF7B1FF04462860002877
:10059000F1D10C233360EAE7806001080100FFFF1E
:1005A0002DE9F84F334B34491A68816290424FF07D
:1005B0000003C0E91233036504BF012383610546CC
:1005C000FFF7ACFF68602846FFF7A8FFA860284641
:1005D000FFF7A4FF6E68E86000240423F3607466EC
:1005E000C6E90044B460C6E90444B461214606F19A
:1005F0005C000822FFF7ECFEDFF888B0AF68DFF898
:1006000088A0DFF88890DFF888801C4BC6F830801F
:10061000C6E9086BC6E90AA92146FB6008227C6688
:10062000C7E90044BC60C7E90444BC6107F15C0051
:10063000FFF7CEFEEE68124BC7F83080C7E9087BA3
:10064000C7E90AA92146F3607466C6E90044B460AC
:10065000C6E90444B46106F15C000822FFF7B8FE65
:100660000123C6E9086BC6E90AA9C6F83080AB6168
:10067000BDE8F88F80600108DD0400080900010072
:10068000120002009D0F0008C50F000805100008A9
:1006900025100008024B0349186800F04BB800BF52
:1006A0008060010869130008836903B978E770471F
:1006B000704700BF704700BF704700BF704700BF62
:1006C000024B0349186800F00FB800BF000000207B
:1006D000D9040008024B0349186800F005B800BFB0
:1006E00000000020E90400082DE9F04110F148075E
:1006F0001BD088460026D7E90154013D0FD4A389B9
:10070000012B05F1FF3506D9B4F90E30013320462F
:1007100001D0C04706436B1C04F16804EFD13F6869
:10072000002FE8D13046BDE8F0813E463046BDE8B6
:10073000F08100BF2DE9F84310F148071FD088462B
:1007400006464FF00009D7E90154013D11D4A389B1
:10075000012B05F1FF3508D9B4F90E3001332146DC
:10076000304602D0C04749EA00096B1C04F1680416
:10077000EDD13F68002FE6D14846BDE8F883B94681
:100780004846BDE8F88300BFF8B5CD1C25F0030549
:1007900008350C2D38BF0C25002D064633DBA94249
:1007A00031D82A4F01F0ECF83A6852B113685B1B5C
:1007B00004D43FE023685B1B29D522465468002CF3
:1007C000F8D1796800293BD02946304600F0D4FBA7
:1007D000431C28D0C41C24F00304A04205D0211AD5
:1007E000304600F0C9FB01301DD02560304601F0D5
:1007F000C9F804F10B0020F00700231DC21A01D034
:100800001B1AA350F8BD0C2232600020F8BD0B2B40
:1008100005D8A242636811D05360E7E7144623600D
:100820001C442560E2E70C233046336001F0AAF84F
:100830000020F8BD0B2BF1D8536814463B60D5E778
:10084000304600F099FB7860BEE700BF440100200D
:100850009368013B002B936011DA10B49469A342B2
:1008600009DB0A2907D01368581C10601970084664
:100870005DF8044B70475DF8044B00F0D7BB13687C
:10088000581C106019700846704700BF9BB1F8B53E
:1008900013440F4606465D1E541E01E0AC4208D0CC
:1008A0003A4614F8011F3046FFF7D2FF431CF5D13A
:1008B000F8BD0020F8BD0020704700BF936810B558
:1008C000144613B95360184610BD00F08FFD002385
:1008D000C4E9013310BD00BF2DE9F04F9FB08B4636
:1008E00090461C46039018B18369002B00F0B78036
:1008F000A24B9B4500F0B980A14B9B4500F0C780FF
:10090000A04B9B4504BF039BD3F80CB0BBF80C3045
:10091000180740F1B280DBF81030002B00F0AD80FA
:1009200030238DF8323098F80030059400212022D1
:100930000B918DF83120944E0127002B00F0878019
:10094000252B00F01581454603E0252B00F0A38000
:1009500025466B786C1C002BF7D1B4EB080A76D0D7
:100960004246534659460398FFF790FF01306ED038
:100970000B9B6A7853440B93002A68D000234FF0F6
:10098000FF3201340693CDE908338DF85B301C93B8
:10099000079205E0069A07FA03F313432C460693E1
:1009A0002546052215F8011B304600F031FFAA4606
:1009B000831B0028EED1069BD90644BF20228DF868
:1009C0005B2021781A0744BF2B228DF85B202A294F
:1009D00066D1059A1168043200290592C0F29D8003
:1009E00009916178A51C2E2973D0684C03222046FA
:1009F00000F00EFF002800F08680001B069B4024BC
:100A000004FA00F00343069305F1010829786048D1
:100A10008DF83010062200F0FBFE002800F08380E5
:100A20005C4B002B72D005AB00935A465A4B03988F
:100A300006A9AFF300808146B9F1FF3F07D00B9BB9
:100A40004B440B9398F80030002B7FF479AFBBF840
:100A50000C305B0618D40B981FB0BDE8F08FFFF781
:100A600023FE464B9B457FF447AF039BD3F804B06E
:100A7000BBF80C3018073FF54EAF5946039800F00D
:100A80004BFB00283FF44CAF4FF0FF30E4E7039BF3
:100A9000D3F808B03AE7B4EB080A3FF46FAF5FE76A
:100AA000A1F13002092A88BFA2469CD8099B01E027
:100AB0002C460135297803EB830302EB4303A1F1B4
:100AC0003002092AAA46F3D92E2904F10205099316
:100AD0008BD19AF801102A292FD1059B9AF8021080
:100AE0001A6807920433002A05930AF103050AF1F4
:100AF000020338DB254C032220469A4600F088FE8C
:100B000000287FF47AAFA84655467FE7059B073358
:100B100023F007030833059391E7494243F00203AA
:100B2000099106935DE705AB00935A461A4B03986B
:100B300006A900F0D5F881467EE7A1F13002002336
:100B4000092A079301D915E05546697803EB830319
:100B500002EB4303A1F13002092A05F1010AF3D99E
:100B60000235079341E74FF0FF329A4607923CE780
:100B7000444603E7AA46013537E700BFC4600108D1
:100B8000A460010884600108206401082864010849
:100B90002C640108000000008D08000810B4044C0B
:100BA00013460A46014620685DF8044BFFF794BEE1
:100BB000000000202DE9F0470C4691460A6989683B
:100BC000DDF820808A42B8BF0A46C9F8002094F8B0
:100BD000431006461F4611B10132C9F800202368B0
:100BE00099065CD5D9F800200232C9F800202368A4
:100BF00013F0060F19461DD1E1688A1A002AD8BFE2
:100C0000194617DD04F1190A002505E0E368D9F853
:100C100000209B1AAB420CDD012352463946304678
:100C2000C047013005F10105F0D14FF0FF30BDE8BC
:100C3000F087216894F84330003318BF01238A06F7
:100C40000AD5E1185A1C302081F84300224494F858
:100C5000451082F84310023304F14302394630460E
:100C6000C0470130E1D02368A268216903F0060380
:100C7000042B1DD08A4226DD4FF00009521A914400
:100C80001A34002501E04D451DDA0123224639467C
:100C90003046C047013005F10105F4D1C5E713F036
:100CA000060F13D094F84330003318BF0123D3E765
:100CB000D9F80000E3688A42A3EB000323EAE37952
:100CC000DCDC002BDCDC0020BDE8F087E168D9F833
:100CD00000208A1A002AD8BF194693DCAAE700BF71
:100CE0002DE9F0430C46097E85B06E29064617466D
:100CF0000C98984604F1430E6DD039D9732900F051
:100D0000F68044D9752900F00481782940F01181DA
:100D100078232268DFF858C284F845300168150648
:100D200051F8043B016040F1A180D10744BF42F07B
:100D300020022260002B00F093801022002184F812
:100D400043106068A0600028C0F2C880216821F0CC
:100D500004012160002B40F0A380002840F0C080F7
:100D60007546082A00F0AC80AEEB0503236141E034
:100D7000632900F0E5801AD8002938D0582940F0BE
:100D8000D88084F845102268DFF8E8C1C6E76F29EB
:100D900000F0BF80702940F0CC802268DFF8D0C11D
:100DA00042F020027823226084F84530B6E76429B7
:100DB00002D0692940F0BD8022680368110603F162
:100DC000040557D5196805600B46002959DBDFF883
:100DD000A4C10A22B5E70368226861691D1D056088
:100DE00015061B6802D4500600F1BD80196000236F
:100DF00075462361CDF800803B4603AA2146304664
:100E0000FFF7D8FE013020D02A4623693946304604
:100E1000C047013019D022680398E368920719D5BA
:100E20001A1A002A16DD04F11909002504E0E36806
:100E300003981A1AAA420DDD01234A463946304664
:100E4000C047013005F10105F1D14FF0FF3005B089
:100E5000BDE8F0839842B8BF184605B0BDE8F083FE
:100E6000226822F020022260102267E7500648BF65
:100E70009BB25AE75106A5D5B3F900300560194673
:100E8000A3E76168A1602D200029C3F1000384F865
:100E9000430002DB22F004022260DFF8D8C00A22FD
:100EA000754600E00B46B3FBF2F102FB11309342B2
:100EB0001CF8000005F8010DF4D2082A7FF454AFA5
:100EC0002368DB077FF550AF626823699A423FF7DA
:100ED0004BAF302305F8013C013D45E7002BDFD146
:100EE0009CF8003084F8423004F1420539E7036889
:100EF0006268191D01601D680021284600F088FC09
:100F0000002832D0401B60602061002384F8433009
:100F100070E72268036812F0800F03F104051AD00D
:100F20001B6805606F290CBF08220A22DFF844C045
:100F300004E7012384F84210236104F14205E4E749
:100F400003681A68191D0123016004F1420584F841
:100F500042202361D9E712F0400F0DBF1B680560E6
:100F60001B880560DEE7198041E76068CCE700BFB9
:100F7000486401083464010838B5074C002305466D
:100F80000846236004F016FD431C00D038BD2368DA
:100F9000002BFBD02B6038BD00D1002010B50C46D3
:100FA000B1F90E1000F06CFD002803DB636D034403
:100FB000636510BDA38923F48053A38110BD00BFD6
:100FC000002070472DE9F0411646B1F90C201F466C
:100FD000D3050C460546B1F90E1009D422F480520F
:100FE000A2813B4632462846BDE8F04100F07EB87B
:100FF0000022022300F07EFBB4F90C20B4F90E109D
:10100000ECE700BF10B50C46B1F90E1000F072FB12
:10101000A389421C0EBF23F4805343F480536065C0
:10102000A38110BDB1F90E1000F0F6B8F8B50D4669
:101030001446064608B1836943B3254B9C422AD027
:10104000244B9C4229D0244B9C4208BFF468A389BE
:10105000A269A2601A0722D5236903B322686169D5
:10106000D31AEDB299422F4629DD0133A168501CF5
:101070000139A1602060157062699A4216D0A38977
:10108000DB0701D50A2D11D03846F8BDFFF70CFB60
:101090000F4B9C42D4D17468D9E7B468D7E7214696
:1010A000304600F039F838B92369D7E72146304691
:1010B00000F05AF90028E7D04FF0FF37E4E7214667
:1010C000304600F051F90028F6D122680123CDE71F
:1010D000C4600108A460010884600108024B0A464C
:1010E00001461868FFF7A2BF0000002070B50D464A
:1010F000084C114606461A4628460023236004F091
:101100004BFC431C00D070BD2368002BFBD0336028
:1011100070BD00BF00D100203B4B70B51D68064676
:101120000C460DB1AB69DBB1384B9C421ED0384B3D
:101130009C424AD0374B9C4208BFEC68B4F90C2063
:1011400093B2190718D5206908B313F001022CD007
:10115000636900225B42A361A26060B3002070BD9E
:101160002846FFF7A1FA294B9C42E0D16C68B4F9FC
:101170000C2093B21907E6D4DD063CD5580726D4D7
:10118000206942F00803A3819BB20028DDD103F45B
:101190002072B2F5007FD8D03046214600F0EEFA3A
:1011A000A389206913F00102D2D1990758BF62695F
:1011B000A2600028D2D1B4F90C301A06CFD543F082
:1011C0004003A3814FF0FF3070BDAC68B6E7616BA0
:1011D00051B104F14403994204D0304600F0D4FBED
:1011E000B4F90C200023636300232069636022F0BC
:1011F00024022060C5E742F04002092333604FF02B
:10120000FF30A28170BD00BF00000020C460010853
:10121000A46001088460010838B5074C0023054626
:101220000846236004F0ECFB431C00D038BD236863
:10123000002BFBD02B6038BD00D100208B891A0712
:101240002DE9F0410C46804641D44A68002A59DD18
:10125000E66A002E53D00022D8F80050216AC8F860
:10126000002013F4805251D101234046B047431C63
:101270005FD0A389E66A216A5F0705D56268636B60
:10128000801A0BB1236CC01A024600234046B047B7
:10129000461C45D1D8F80030B4F90C20002B55D0AD
:1012A0001D2B01D0162B5AD123690022C4E900322C
:1012B000616BC8F8005011B304F14403994202D0A5
:1012C000404600F061FB00206063BDE8F0810E69DC
:1012D000AEB10D680E6099070CBF63690023AD1BAA
:1012E000A3600AE02B463246A76A216A4046B84707
:1012F0000028A5EB000506440ADD002DF2DC0020E5
:10130000BDE8F0810A6C002AA2DCF8E7606DB3E763
:10131000A38943F04003A3814FF0FF30BDE8F08183
:101320002269A389226000226260DA04C0D5606568
:10133000BEE7D8F80030002B9BD01D2B0CD0162B0D
:101340000AD0A38943F04003A381D9E72169C4E906
:101350000013D304ACD5EAE7C8F80050CFE742F059
:101360004002A281CCE700BF0B6923B310B504464D
:1013700082B008B18369BBB1104B994212D0104BB7
:10138000994216D00F4B994208BFE168B1F90C3071
:101390002BB1204602B0BDE81040FFF74FBF002040
:1013A00002B010BD6168F1E70191FFF77DF9019985
:1013B000E2E7A168EAE70020704700BFC4600108C7
:1013C000A46001088460010820B1054B014618683B
:1013D000FFF7CABF034B04491868FFF7ABB900BF5A
:1013E0000000002080600108691300089368002B4A
:1013F00000F002812DE9F04FB1F90C309BB20C46A0
:10140000190783B08246904635D522699AB313F006
:101410000202D8F800603DD00027D4F828B0D4F8F4
:1014200020C0DFF8CC923D464D452B463A4628BFBA
:101430004B4661465046D5B1D847002840F3D2808C
:10144000D8F808301B1A07442D1AC8F80830002BAA
:1014500000F0B780D4F820C0D4F828B04D452B4612
:101460003A4628BF4B4661465046002DE4D1D6E9A6
:1014700000750836D8E721465046FFF74DFE002894
:1014800040F03081B4F90C30D8F800609BB213F012
:101490000202C1D113F0010940F0B080A7682068B2
:1014A0004D46002D54D09A0540F1BC80AF42BB465A
:1014B00000F2E78013F4906F2FD0D4E9041707EB04
:1014C0004707A0EB010B07EBD777681C7F10584448
:1014D000B8423A4684BF07463A465B0540F1E98088
:1014E00011465046FFF750F9002800F0F5805A46A3
:1014F00021690190FEF7D2FEA289019B22F490623D
:1015000042F08002A281A7EB0B0203EB0B006761A4
:1015100023612060A2602F46AB465A46494600F040
:10152000C7F9A2682368D21B5B442F46A2602360E0
:101530000025D8F80830DB1BB944C8F80830002B68
:101540003FD0B4F90C30A76820689BB2002DAAD117
:10155000D6E900950836A4E70BF1080353E90267C2
:101560009B460833002FF9D03A460A21304600F056
:101570004FF9002853D00130A0EB06094B46D4E9BF
:1015800004122068BB4228BF3B46884203D9A568A5
:101590001544AB4219DC9A427DDC1346A56A216AE8
:1015A00032465046A847051E1CDDB9EB05096BD035
:1015B0000120D8F808305B1B2E447F1BC8F8083088
:1015C00013BB002003B0BDE8F08F31462A4600F07F
:1015D0006FF923682B44236021465046FFF7C4FE71
:1015E0000028E2D0B4F90C3043F040034FF0FF3054
:1015F000A38103B0BDE8F08F0020704733469146C9
:10160000104617464E469B46002FA5D00028B5D160
:101610003A460A21304600F0FBF80028ABD17B1C8B
:101620009946ACE72369834215D36169A94212D870
:101630002E4BA76A9D4294BF2B466FF000434A464B
:1016400093FBF1F3504601FB03F3216AB847071EF1
:10165000C8DDED1B6DE7AF4228BF2F463A4649462D
:1016600000F026F9A3682268DB1B3A44A3602260DD
:10167000002BEED121465046FFF776FE0028E8D039
:10168000B0E72F46AB4648E721465046FFF76CFED1
:1016900000288ED0A6E71A463146019300F008F9DB
:1016A000019BA1682268C91A1A44A16022601D46E4
:1016B0007BE7504600F0BEF9034600287FF423AFD5
:1016C0002169504600F060F9B4F90C300C2223F087
:1016D0008003CAF8002087E70C23CAF80030B4F969
:1016E0000C3081E74FF0FF306CE700BFFEFFFF7F5B
:1016F00000FCFF7F70B50D46084C114606461A46A1
:1017000028460023236004F085F9431C00D070BDF7
:101710002368002BFBD0336070BD00BF00D10020D8
:1017200070B50C46B1F90E10002996B016461D464C
:1017300013DB6A4600F0BAF900280EDB019A02F4C6
:101740007042A2F50052B2FA82F252094FF480635D
:1017500000202A60336016B070BDA38900221B06EA
:101760002A6004D540230020336016B070BD4FF4CA
:1017700080630020336016B070BD00BF8A89920775
:101780000B4606D501F1470201211A60C3E9042185
:10179000704770B582B001AB6A460C460646FFF74B
:1017A000BFFF009905463046FEF7EEFFB4F90C3056
:1017B00070B11649B162019A0099206043F080032C
:1017C000A381C4E904018AB92B43A38102B070BD8F
:1017D0009A05FBD423F0030304F1470243F002030C
:1017E0000121A3812260C4E90421EFE73046B4F966
:1017F0000E1000F06FF910B9B4F90C30E4E7A389CA
:1018000023F0030343F001031BB2DDE7DD0400080E
:1018100001F0FF01102A2BDB10F0070F08D010F8A1
:10182000013B013A8B422DD010F0070F42B3F6D1A5
:10183000F0B441EA012141EA014122F007047FF0BE
:1018400000070023F0E80256083C85EA010586EA15
:10185000010685FA47F5A3FA87F586FA47F6A5FA51
:1018600087F68EB9EED1F0BC01F0FF0102F007025D
:1018700032B110F8013B013A83EA010313B1F8D108
:101880000020704701387047002D06BF35460338E9
:10189000073815F0010F07D1013015F4807F02BF22
:1018A000013015F4C03F0130F0BC0138704700BF73
:1018B0008842F0B40DD98B1883420AD9841832B10A
:1018C000224613F8014D02F8014D9942F9D1F0BCBE
:1018D00070470F2A0ED80346541E002AF7D0013451
:1018E0000C44013B11F8012B03F8012FA142F9D15F
:1018F000F0BC704740EA01039B073BD1A2F11007FF
:101900003F0901F1200606EB071601F1100300F173
:10191000100453F8105C44F8105C53F80C5C44F865
:101920000C5C53F8085C44F8085C53F8045C44F819
:10193000045C1033B34204F11004EAD17B1C1B0198
:1019400012F00C0F194402F00F05034415D0043DAA
:10195000AD0803EB850C1C1F0E4656F8047B44F8BB
:10196000047F6445F9D10135AD002B44294402F0D0
:101970000302B1E7541E0346B1E72A46ACE700BFB5
:10198000704700BF704700BF00293CD038B551F800
:10199000043C0C1F002BB8BFE4180546FFF7F0FF0E
:1019A000234B1A682AB1A2420DD9216860188242DD
:1019B00023D0626028461C60BDE83840FFF7E2BFD4
:1019C000A34203D81A465368002BF9D11168501866
:1019D000A04219D024D821686018834206D06360E1
:1019E00054602846BDE83840FFF7CCBFD3E9000378
:1019F0000144636021605460F3E7D2E900020144CE
:101A000062602160D6E77047206801445018834225
:101A10001160E6D1D3E90003014453601160E0E7AF
:101A20000C232B602846BDE83840FFF7ABBF00BF52
:101A30004401002009B3F8B51446CAB106460D4664
:101A400000F05AF8A04202D32F463846F8BD21468E
:101A50003046FEF799FE07460028F6D02246294672
:101A6000FEF71CFC30462946FFF78EFF3846F8BDCE
:101A70002746FFF789FF3846F8BD1146FEF784BEBA
:101A800070B50D46084C114606461A4628460023F6
:101A9000236003F071FF431C00D070BD2368002B4E
:101AA000FBD0336070BD00BF00D1002038B50B46BD
:101AB000074C0546114618460023236003F0A3FF98
:101AC000431C00D038BD2368002BFBD02B6038BDF1
:101AD00000D1002038B5074C002305460846236096
:101AE00003F096FF431C00D038BD2368002BFBD0C9
:101AF0002B6038BD00D1002051F8043C181F002B8A
:101B0000BCBF0B58C01870477BB972B90029BEBF63
:101B100000204FF0004106E008BF00281CBF6FF016
:101B200000414FF0FF3001F00BB9ADF1080C6DE949
:101B300004CE002909DB002B1ADB00F04DF8DDF89C
:101B400004E0DDE9022304B07047404261EB41014B
:101B5000002B1BDB00F040F8DDF804E0DDE9022398
:101B600004B0404261EB4101524263EB43037047D2
:101B7000524263EB430300F02FF8DDF804E0DDE9A7
:101B8000022304B0404261EB41017047524263EBD3
:101B9000430300F021F8DDF804E0DDE9022304B09E
:101BA000524263EB4303704753B94AB9002908BF57
:101BB00000281CBF4FF0FF314FF0FF3001F0C0B8DC
:101BC000ADF1080C6DE904CE00F006F8DDF804E094
:101BD000DDE9022304B070472DE9F047089D044673
:101BE0008C46002B40F083808A42174647D9B2FAD0
:101BF00082F242B1C2F1200024FA00F091409740F5
:101C000040EA010C94404FEA1748230CBCFBF8F65D
:101C10001FFA87FE08FB16C143EA014306FB0EF1DB
:101C2000994209D9FB1806F1FF3080F019819942D9
:101C300040F21681023E3B445B1AA4B2B3FBF8F0BB
:101C400008FB103344EA034400FB0EFEA64509D905
:101C50003C1900F1FF3380F00581A64540F2028176
:101C600002383C4440EA0640A4EB0E0400261DB1B5
:101C7000D4400023C5E900433146BDE8F08702B9EE
:101C8000FFDEB2FA82F2002A50D1CB1B4FEA174E88
:101C90001FFA87F80126B3FBFEFC210C0EFB1C3358
:101CA00041EA034108FB0CF38B4207D979180CF188
:101CB000FF3002D28B4200F2E9808446C91AA3B2F7
:101CC000B1FBFEF00EFB101143EA014408FB00F8E3
:101CD000A04507D93C1900F1FF3302D2A04500F21C
:101CE000D9801846A4EB080440EA0C40BFE78B42B9
:101CF00009D9002D00F0B1800026C5E90001304669
:101D00003146BDE8F087B3FA83F6002E4AD18B4204
:101D100002D3824200F2B880841A61EB03010120F1
:101D20008C46002DA8D0C5E9004CA5E7C2F12003E0
:101D300020FA03F6974001FA02F04FEA174ED94015
:101D40003043030CB1FBFEF61FFA87F80EFB1611A9
:101D500043EA014306FB08F1994204FA02F409D967
:101D6000FB1806F1FF3C80F08D80994240F28A809A
:101D7000023E3B445B1A81B2B3FBFEF00EFB103314
:101D800041EA034100FB08F38B4207D9791800F1BF
:101D9000FF3C73D28B4271D902383944CB1A40EAE6
:101DA000064678E7C6F1200C03FA06F422FA0CF393
:101DB0001C4320FA0CF701FA06F34FEA144E21FAFD
:101DC0000CF11F433B0CB1FBFEF91FFA84F80EFB2C
:101DD000191143EA014109FB08FA8A4502FA06F2A1
:101DE00000FA06F308D9611809F1FF3048D28A4594
:101DF00046D9A9F102092144A1EB0A01BFB2B1FB06
:101E0000FEF00EFB101147EA014700FB08F8B84549
:101E100007D9E71900F1FF312ED2B8452CD9023885
:101E2000274440EA0940A7EB0807A0FB02894F4579
:101E3000C64649461AD317D05DB1B3EB0E0267EB25
:101E4000010707FA0CFCF2404CEA0202F740C5E930
:101E5000002700263146BDE8F0872E4628460BE7CE
:101E60000646E9E61846FDE64345E5D2B8EB020E24
:101E700069EB04010138DFE70846D2E760468DE7E9
:101E80008146B9E7664675E730464AE7ACF1020C91
:101E9000394413E702383C4424E700BF03685A0082
:101EA0004CBF43F0004323F000431844704700BF89
:101EB0002DE9F84329B34F1E044615463E464FF020
:101EC000000808EB060101EBD171491004EBC109D0
:101ED0004846FFF7E3FF0346C80008308F4220441E
:101EE00009D0AB4209D8FFF7D9FF0138A8420AD27E
:101EF00001F10108E5E7AB4205D9884501D04E1E46
:101F0000DFE74FF000094846BDE8F883012807D015
:101F1000022807D0044B00280CBF18460020704749
:101F20000248704702487047D1250008D5250008AF
:101F3000D925000830B5234B83B004468D1E3BB332
:101F400001A92846AFF30080E8B101992A46FFF7BE
:101F5000AFFF0146B8B1FFF7A1FF4B68A064012BAA
:101F60002BD0002B01F1040023DBFFF797FF0023A8
:101F7000C4E913030368002B10DBFFF78FFF206118
:101F8000002003B030BD00230920236103B030BD21
:101F90000D490E48091AC9100191D7E7C3F3036030
:101FA000FFF7B4FF0028206114BF0020092003B010
:101FB00030BD0123C4E91303DCE7002323610520BE
:101FC000DFE700BF000000004C6E0108846D0108CF
:101FD0000368DA0710B5044606D49B0700F14800F1
:101FE00009D500F04BFC2368590709D51A070ED50F
:101FF000DB0613D510BD00F039FC23685907F5D472
:1020000004F1D00000F042FC23681A07F0D404F574
:10201000A87000F043FC2368DB06EBD404F5E870FD
:10202000BDE8104000F07EBC0346006800B11844D3
:10203000704700BF09207047704700BF70B5044665
:102040000E46316C2046FFF775FF054688B9336CA4
:102050006361324623692146012098470828F0D061
:10206000072806D12846316CFFF7E6FF301D00F047
:10207000F1FB00F067FE00BF2DE9F0470D1D06469D
:1020800014460FCDADF5727D0DF10C0CACE80F00D0
:102090000FCDACE80F000FCDACE80F0095E80F00B6
:1020A00002ADF768D6F818808CE80F0000232B608B
:1020B00021E02B6C73614FF4F07229467AA8FEF789
:1020C000EDF833697AAA314650469847889BCDE9A6
:1020D000005821466B648146334632460120B8479A
:1020E0000446E8B94FF4F0727AA92846FEF7D6F80C
:1020F000B9F1080F1BD1296C3046FFF71BFF0934DB
:102100005FFA84FA81460028D3D0AB6B4AF0100105
:10211000CDE9005832466B6401203346B84708B118
:102120004FF0090948460DF5727DBDE8F087B9F119
:10213000070FF5D12046296CFFF77EFF03A800F0BA
:1021400089FB00BF406C7047F0B5CB6B0B640E1D74
:102150000F4605460FCEF9B001AC0FC40FCE0FC429
:102160000FCE0FC496E80F004FF0FF3684E80F0043
:10217000009606E02B696A462946984708280446D7
:1021800008D110992846FFF7D5FE0028F2D0092083
:1021900079B0F0BD6846FFF71BFF062CF7D1394632
:1021A0002846FFF74BFF00BF30B4DD6BC160826192
:1021B00019461D64002230BC5EE700BF70B5C668DA
:1021C00043690B64AEB903690A4604460D460146ED
:1021D00002209847072805D008280FD12946204615
:1021E000FFF72CFF3046296CFFF726FF281D00F073
:1021F00031FB0122FFF740FF00F0A4FD00F0A2FD3B
:10220000C2681AB1CA6B0A64002235E79CE700BFB6
:10221000704700BF836801460BB101201847704723
:10222000012912D009D873B90F2A0CD800EB820209
:1022300018465368009A136070470339012994BF08
:10224000012002207047022070470846704700BFF7
:1022500010B584B0002303AC0A4600941946FFF77A
:10226000DFFF039804B010BD012912D009D873B95B
:102270000F2A0CD800EB8200009A126842601846C0
:1022800070470339012994BF0120022070470220C2
:1022900070470846704700BF10B584B0002303ACF8
:1022A000039200940A461946FFF7DEFF04B010BD02
:1022B000F0B5D36B1364151D8C4606460FCDADF5F6
:1022C0000F7D17AC0FC40FCD0FC40FCD0FC495E811
:1022D0000F004FF0FF3784E80F006546169710E0B7
:1022E000FFF7DAFF294616A8B047034616AA694643
:1022F000082083B9049B9847052804460CD0092878
:1023000009D026996846FFF715FE03466A460C2158
:1023100016A8002BE4D0092416A8FFF759FE204682
:102320000DF50F7DF0BD00BF2DE9F04FCC6C89B0ED
:102330000D4654F8041B0694174600F003081E4689
:10234000002B79D00B0CDAB209048DF81D30022372
:1023500004EB820405918DF81C302B6DB8F1020F4F
:1023600008BFAC6B13F001030CD0384605A900F090
:1023700073FB18B9082009B0BDE8F08F092009B037
:10238000BDE8F08FD4F800A0BAF1000FEDD00193B2
:1023900000F008030293022E4AD0B4F800A0B4F86B
:1023A00002900434AA6C29F0010B0F2138469344A3
:1023B000FFF74EFF834539D82AF001025A44824282
:1023C00094BF002001204FEA490303F002030AF002
:1023D000010A43EA0A03012B49D0022B32D0002B19
:1023E000CCD1B8F1000F02D0002840F0CD800434E9
:1023F000D4F800A0BAF1000FCDD105A9384600F0FD
:102400002BFB0028BAD1019B002BB3D00F213846FB
:10241000FFF71EFF0E2102463846FFF73DFF384604
:102420006A4A0F21FFF738FF0720A8E70020CAE714
:10243000D4F804900834B5E7090203230591ADF8F8
:102440001C308AE7236823F0004BB8F1000F45D118
:1024500028B1029A002A5CD0BBF1000F74D0002B87
:1024600000DA04340BF1010B04EB8B04C0E7B8F184
:10247000000F19D1B0B1D4E90023991C4FEAD272F0
:102480003FF47CAF05F158010133049100F09080D6
:10249000201DFFF7C9FD04AB01462846AFF30080BD
:1024A00000285BD10834A3E70D213846D5F82090E9
:1024B000FFF7CEFE8145F5D1AB6A9C42F2D12046B2
:1024C000FFF7ECFC0F2102463846FFF7E5FE3846E1
:1024D0002A460021FFF7E0FE072050E70D2138468D
:1024E000D5F82090FFF7B4FE814501D02368B6E708
:1024F000AB6A9C42FAD104220021C5E90B12A31851
:10250000C5F828B06B6323688B4259DB0123019324
:10251000A8E705F15803CDF80C8004F1040AB04691
:1025200091461E460DE00496FFF77EFD04AB014682
:1025300000222846AFF3008009F101090AF1040ADC
:10254000E8B9D9455046EED138460D21FFF780FE57
:10255000049B2862C5E90934062010E781460D2155
:102560003846FFF775FEB9F1020F286225D12B46D8
:10257000049A43F82C2F6B62AC620620FFE64646B5
:102580002368DDF80C806AE72046FFF787FC0434F7
:102590000246AC6328461446AFF3008000283FF49F
:1025A000EDAE384622460F21FFF776FE0720E6E61D
:1025B00038460D21FFF74CFE2862049B6B62DBE777
:1025C0000BF1010004EB80007AE700BF000000007F
:1025D0000023A9E60123A7E60223A5E62DE9F0439F
:1025E0000646C3B015461C46042900F2B980DFE850
:1025F00001F09A53B7290300002C40F0B180102A53
:1026000000F2AE800368D80600F1F38020AF3846B0
:1026100000F092F9B06B0023012404FA03F22A427D
:10262000014604D051F8042B47F823200846013313
:10263000042BF2D1B063384600F074F9002043B0A7
:10264000BDE8F083032C40F08B8094B204EB12437E
:10265000102B4FEA124500F2838003681F0700F138
:10266000D08020AF384600F03BF907EBC501B56BD1
:1026700054B10B46E81A01EBC401E4001A5843F8C0
:10268000042B8B42FAD125443846B56300F006F995
:10269000002043B0BDE8F083012C4FEA124895B208
:1026A0005AD0052C5CD108EB0509B9F1200F57D899
:1026B000B8F10F0F77D9A946002D40F08880B36B91
:1026C0006DB320AF4FF0000907EBC807043F03EBE1
:1026D000C50553F8041B47F8041FAB42F9D1B9F103
:1026E000000F0FD06F464146102938BF102107EB6D
:1026F000C101843903EBC90553F8040B41F8040FF9
:10270000AB42F9D1012C00F08480B8F10F0FB56312
:1027100045D9B9F1000F02D0684600F0B7F80020A3
:1027200043B0BDE8F083DCB9876B2346012094B247
:1027300006F1040C00FA03F22242394604D051F8A3
:10274000042B4CF823200F460133102BF2D115F443
:102750000050E4D1B76304E008EB0503102B03D964
:10276000022043B0BDE8F083B8F10F0FF8D833680A
:10277000DA0706D5304623F0030340F8483B00F063
:1027800079F820AF384600F075F8B36B002D99D179
:102790001D460435B563384600F068F8BFE720A849
:1027A00000F06CF8B5E7B9F1100F40D9A9F11009A4
:1027B0003368D90708D523F00103304643F00203FC
:1027C00040F8483B00F05EF8B9F1000F32D03368B2
:1027D0005A0720D4B8F10F0F25D96F463846C8F1F3
:1027E000100500F057F8002DB36B7FF77CAF20AFDA
:1027F0006AE723F01003336006F5E87000F09CF8F8
:1028000004E723F00803036000F5A87000F068F8FF
:1028100027E720AFBDE7304623F0040340F8D03B64
:1028200000F038F8D6E720A800F02CF8D5E74FF0F4
:102830000009BDE7B8F10F0F3FF641AF20AF3846B2
:1028400000F020F8B36B002D7FF43CAF384600F069
:1028500015F864E700F1340191E838009C46A6467B
:102860004CF8045D90E8FF0FE54600BD90EC210BAD
:10287000704700BF80EC210B704700BF90EC200B2D
:10288000704700BF80EC200B704700BFD0EC200BDE
:10289000704700BFC0EC200B704700BFF0EC020196
:1028A000F0EC0211F0EC0221F0EC0231F0EC02410C
:1028B000F0EC0251F0EC0261F0EC0271F0EC0281FC
:1028C000F0EC0291F0EC02A1F0EC02B1F0EC02C1EC
:1028D000F0EC02D1F0EC02E1F0EC02F1704700BF45
:1028E000E0EC0201E0EC0211E0EC0221E0EC02314C
:1028F000E0EC0241E0EC0251E0EC0261E0EC02713C
:10290000E0EC0281E0EC0291E0EC02A1E0EC02B12B
:10291000E0EC02C1E0EC02D1E0EC02E1E0EC02F11B
:10292000704700BFB0FC0181B0FC0191B0FC01A177
:10293000B0FC01B1704700BFA0FC0181A0FC019177
:10294000A0FC01A1A0FC01B1704700BFEC4600B59E
:102950002DE900502DE9FF1F4FF000032DE90C0079
:1029600001A9FFF7F1FBDDF840E012B0704700BFAE
:10297000EC4600B52DE900502DE9FF1F4FF0000394
:102980002DE90C0001A9FFF719FCDDF840E012B0B9
:10299000704700BFEC4600B52DE900502DE9FF1F40
:1029A0004FF000032DE90C0001A9FFF729FCDDF829
:1029B00040E012B0704700BFEC4600B52DE9005072
:1029C0002DE9FF1F4FF000032DE90C0001ABFFF7CD
:1029D000EBFBDDF840E012B0704700BFEC4600B5FD
:1029E0002DE900502DE9FF1F4FF000032DE90C00E9
:1029F00001AAFFF75DFCDDF840E012B0704700BFB0
:102A0000027A7AB9437AA3B14268013B10B44372A7
:102A100013680321141D01721A024460026010BC85
:102A2000180E70470368013A02721A020260180E0B
:102A30007047B020704700BF00B585B003AA0023DF
:102A4000009219460C22FFF7EBFB039805B05DF8E6
:102A500004FB00BFF0E700BF2DE9F043054685B059
:102A60000E464FF000083046FFF7CAFFB028044674
:102A700000F0B280070620D500F0F003802B4DD087
:102A8000902B36D0A02B60D0B02B74D0C02B00F090
:102A90008B8000F0F803D02B0BD100F0070201323D
:102AA00042F40022052301212846FFF797FD002864
:102AB000D9D0092005B0BDE8F0830DF10C09002341
:102AC00019468700CDF800900D222846FFF7A8FB95
:102AD000FFB2039BCDF80090043760064CBFDF1BAC
:102AE000FF18002319460D2228460397FFF7BCFB69
:102AF000B9E700F00D030D2BDBD003AF002300F08E
:102B00000F02194600972846FFF78AFB002300971B
:102B100019460D222846FFF7A7FBA4E73046FFF72A
:102B20006FFF24022043B0F5004FC2D00401002300
:102B3000A2B219462846FFF751FD0028B9D114F476
:102B4000004F18BF4FF001088DE7C24302F00703A2
:102B50004FF47F621A41010702F47F624FF00003D5
:102B600048BF42F4804219462846FFF737FD002847
:102B70003FF479AF9DE7B12833D0B22800F08B80C5
:102B8000B32839D000F0FC03B42B92D000F0070238
:102B90000132012342F4002219462846FFF71EFDA8
:102BA00000283FF460AF84E7C62842D0C7284CD045
:102BB00000F0F803C02B5BD0C82860D0C9287FF490
:102BC00078AF3046FFF71CFF020300F00F0002F45D
:102BD00070220130024365E7B8F1000F18D00020E1
:102BE00068E73046FFF70CFF024600283FF461AF6C
:102BF00010F0F003D0D05CE73046FFF701FF01038F
:102C000000F00F0001F47021421C01230A43C3E7C6
:102C100003AC43460E22414600942846FFF700FBD2
:102C20000094284643460F224146FFF71DFB4046CD
:102C300040E73046FFF7E4FE010300F00F0001F427
:102C40007021421C03230A43A6E73046FFF7D8FE53
:102C5000024600283FF42DAF10F0F0037FF429AFB7
:102C600004212846FFF7BAFC00283FF4FCAE20E719
:102C700000F00F020132032342F420228CE7304699
:102C8000FFF7BEFE00F0F00200F00F031032013338
:102C900043EA023206E700230DF10C090D22194622
:102CA000CDF800902846FFF7BBFA3046FFF7A8FEA4
:102CB00002064FF002070CD5039B00F07F00B840DE
:102CC000034430460393FFF79BFE030607F1070713
:102CD000F2D4039BCDF8009000F07F0403F501725D
:102CE000BC400023144419460D2228460394FFF7E4
:102CF000BBFAB8E610B5C26C84B0536803248DF8F3
:102D00000C401B0202F108040846D279019301A984
:102D100002948DF80D20FFF79FFE04B010BD00BF98
:102D200008B5FFF797FE806C08BD00BF08B5FFF738
:102D300091FEC06CC379023300EB830008BD00BF75
:102D4000704700BF08B5062000F08EF9012002F0A0
:102D50000DFE00BF024B0A460146186800F06EB82F
:102D600000000020024B0A460146186800F010B827
:102D70000000002000B5054B83B0014601AA186889
:102D800000F006F803B05DF804FB00BF000000206F
:102D90002DE9F0471C4F0E469146804601F07EF823
:102DA0003D68F5B134785CB13D2C18BF344602D192
:102DB00017E03D2B15D014F8013F002BF9D1A41BCF
:102DC000286870B12246314600F0C8FC28B928684E
:102DD000035D3D2B00EB040A09D055F8040F0028D1
:102DE000F0D1404601F05CF80020BDE8F0873B6878
:102DF000ED1AAD104046C9F8005001F051F80AF143
:102E00000100BDE8F08700BF6C00002000B583B072
:102E100001AAFFF7BDFF03B05DF804FB024B0146BA
:102E20001868FDF7B1BC00BF00000020024B01464E
:102E30001868FEF7A9BD00BF0000002038B502FBEE
:102E400001F42146FDF7A0FC054618B122460021F9
:102E5000FDF7BEFA284638BD38B5124B1C68A26B88
:102E600005461AB10023C2E9045338BD1820FFF704
:102E7000D5FF0246A06378B1012000210A4B136000
:102E8000C2E904010B230948094993810023C2E9DF
:102E90000101C2E9045338BD064B0748422100F046
:102EA000D9FF00BF000000200E33CDAB34126DE619
:102EB000ECDE0500E06C0108F86C010838B51A4B2F
:102EC0001C68A26B92B1146918495369184801FB38
:102ED00004F100FB0313A4FB0045611C1D4445F1F4
:102EE000000323F00040C2E9041338BD1820FFF7A7
:102EF00095FF0246A06388B101200021C2E90401C8
:102F00000A480C4C0C4B0D490D4D146053600B24BA
:102F1000034695609481C2E9041338BD094B0A4801
:102F20004E2100F097FF00BF000000202DF4515803
:102F30002D7F954C0E33CDAB34126DE62E7F954C24
:102F4000ECDE0500E06C0108F86C0108024B0A4653
:102F500001461868FEF76EBD0000002010B5802104
:102F60000446FDF711FC606440B1031F00227C3071
:102F700043F8042F8342FBD1002010BD4FF0FF30F7
:102F800010BD00BF436C0BB100207047E6E700BFE7
:102F90001F2970B5054608D8436C16460C464BB140
:102FA00053F8240043F8246070BD162202604FF0ED
:102FB000FF3070BDFFF7D2FF08B96B6CF0E74FF040
:102FC000FF3070BD1F2938B521D8426C05460C462C
:102FD0006AB152F8213053B1012B16D0591C10D0D0
:102FE0000025204642F824509847284638BD2846F8
:102FF00000F070F8224601462846BDE8384000F04F
:1030000055B816230360012038BD002038BD1623B3
:1030100003604FF0FF3038BD1F2921D838B5436C0D
:1030200005460C4683B153F8242003EB84034AB1D0
:10303000511C10D0012A0CD0002520461D6090475D
:10304000284638BD012038BDFFF788FF28B96B6CD2
:10305000E9E7032038BD022038BD4FF0FF3038BD0E
:103060004FF0FF30704700BF024B01461868FFF772
:10307000A9BF00BF00000020024B0A4601461868A5
:10308000FFF786BF00000020034B1868436C0BB1AC
:103090000020704762E700BF00000020024B01469D
:1030A0001868FFF7B9BF00BF0000002038B50B4615
:1030B000074C0546114618460023236002F04EFCDB
:1030C000431C00D038BD2368002BFBD02B6038BDDB
:1030D00000D1002002F040BC08B430B5002A9CB0FA
:1030E000044635DB4FF4027302910691ADF81430BB
:1030F00020A918D0013A0B460492079201911F9A19
:103100004FF6FF7502A9ADF8165000F0F9FF421C0A
:1031100001DA8B232360029B00221A701CB0BDE8E9
:10312000304001B070470B460492079201914FF670
:10313000FF751F9AADF8165002A900F0E1FF431C7D
:1031400001DA8B2323601CB0BDE8304001B070472A
:103150008B2202604FF0FF30F5E700BF0CB430B5B2
:10316000204B00299DB01C6837DB4FF4027302909E
:103170000690ADF8143021A819D001390346209AE1
:103180000491079101904FF6FF7502A92046ADF812
:10319000165000F0B5FF421C01DA8B232360029B1E
:1031A00000221A701DB0BDE8304002B070470346DF
:1031B0000491079101904FF6FF75209AADF81650D3
:1031C00002A9204600F09CFF431C01DA8B232360F8
:1031D0001DB0BDE8304002B070478B2323604FF034
:1031E000FF30F5E700000020C9B200F0030300291A
:1031F00035D07BB10378002B57D0994252D0431C75
:1032000005E013F8012B002A4DD08A424AD09A07D4
:103210001846F6D170B441EA0126046846EA06462B
:1032200001E050F8044F86EA0405A5F10132A4F14B
:10323000013322EA050223EA0403134313F0803F1B
:10324000EFD0037843B1994202D106E08B4204D01B
:1032500010F8013F002BF9D1184670BC70474BB1F4
:103260000378FBB1431C02E002780133D2B1990725
:103270001846F9D10268A2F1013323EA020313F0E0
:10328000803F08D150F8042FA2F1013323EA020352
:1032900013F0803FF6D0037823B110F8013F002BE4
:1032A000FBD170477047104670471846704700BF03
:1032B000000000000000000000000000000000000E
:1032C000A2EB0300704700BF02780B78012A28BFE9
:1032D0009A42F5D16DE9044540EA0104CDE902675F
:1032E0006FF0000C4FEA447212B380EA010414F04C
:1032F000070F6AD100F0070420F0070004F003056F
:1033000021F007014FEAC505F0E8042314F0040F8B
:10331000F1E804670CFA05F462EA040266EA0406BE
:103320000AD063EA0403624667EA0407664603E0DC
:10333000F0E80423F1E8046782FA4CF582EA060417
:10334000A4FA8CF46CBB83FA4CF583EA0705A5FA62
:103350008CF595B950E9022351E9026782FA4CF5E0
:1033600082EA0604A4FA8CF483FA4CF583EA070592
:10337000A5FA8CF52543DBD09CB92DBAB5FA85F4B6
:1033800024F0070427FA04F1DDE9026723FA04F3C5
:1033900003F0FF0001F0FF01FDE80445A0EB010090
:1033A000704724BAB4FA84F424F0070426FA04F12E
:1033B000DDE9026722FA04F202F0FF0001F0FF01EA
:1033C000FDE80445A0EB0100704714F0030F3CD169
:1033D00010F0030428D150F8082B51F8083B82FA6A
:1033E0004CF582EA0305A5FA8CF55DB950F8042C7A
:1033F00051F8043C82FA4CF582EA0305A5FA8CF5F3
:10340000002DE8D02DBAB5FA85F424F0070423FA8C
:1034100004F122FA04F202F0FF0001F0FF01FDE8DE
:103420000445A0EB010070474FEAC40420F00300FC
:1034300050F8082B21F0030151F8083B0CFA04F472
:1034400062EA040263EA0403C9E710F003041AD035
:10345000A1EB040120F00300E40750F8042B06D090
:103460000FD28B785FFAA2F4E41A06D12BB1CB7895
:103470005FFAB2F4E41A00D11BB920465DF8104B94
:10348000704701F1040150F8042BCC0721F003012F
:1034900051F8043B48D824D222F07F4482FA4CF5FC
:1034A00094EA1325A5FA8CF50AD165B951F8043BC5
:1034B00084EA0204B4EB036F0ED150F8042BEBE75F
:1034C0004FEA132355E035F07F454DD10878FDE8EC
:1034D0000445C0F1000070474FEA126203F0FF0399
:1034E00047E002EA1C4482FA4CF594EA1345A5FA37
:1034F0008CF50AD165B951F8043B84EA0204B4EBB7
:10350000034F0CD150F8042BEBE74FEA134330E0A4
:1035100015EA1C4528D10B884FEA124229E04FEAF0
:10352000124203EA1C4324E002F0FF0482FA4CF545
:1035300094EA1365A5FA8CF50AD165B951F8043BF4
:1035400084EA0204B4EB032F09D150F8042BEBE713
:103550004FEA13630DE015F0FF0F05D10B684FEA3A
:10356000122223F07F4304E04FF00000FDE8044501
:10357000704712BA1BBA82FA4CF482EA0304A4FA26
:103580008CF5B5FA85F402FA04F203FA04F34FEA73
:103590001260FDE80445A0EB1360704780EA010269
:1035A000844612F0030F4FD111F0030F32D14DF8C2
:1035B000044D11F0040F51F8043B0BD0A3F101327C
:1035C0009A4312F0803F04BF4CF8043B51F8043B8F
:1035D00016D100BF51F8044BA3F101329A4312F007
:1035E000803FA4F101320BD14CF8043BA24312F00E
:1035F000803F04BF51F8043B4CF8044BEAD023460B
:103600000CF8013B13F0FF0F4FEA3323F8D15DF8BC
:10361000044B704711F0010F06D011F8012B0CF884
:10362000012B002A08BF704711F0020FBFD031F8FC
:10363000022B12F0FF0F16BF2CF8022B8CF8002083
:1036400012F47F4FB3D1704711F8012B0CF8012B06
:10365000002AF9D1704700BF000000000000000000
:10366000000000000000000000000000000000005A
:10367000000000000000000000000000000000004A
:1036800090F800F06DE9024520F007016FF0000CA2
:1036900010F0070491F820F040F049804FF000044A
:1036A0006FF00700D1E9002391F840F000F1080025
:1036B00082FA4CF2A4FA8CF283FA4CF3A2FA8CF35D
:1036C0004BBBD1E9022382FA4CF200F10800A4FAC4
:1036D0008CF283FA4CF3A2FA8CF3E3B9D1E9042318
:1036E00082FA4CF200F10800A4FA8CF283FA4CF34F
:1036F000A2FA8CF37BB9D1E9062301F1200182FA09
:103700004CF200F10800A4FA8CF283FA4CF3A2FA0E
:103710008CF3002BC6D0002A04BF04301A4612BA1C
:10372000B2FA82F2FDE8024500EBD2007047D1E91F
:10373000002304F00305C4F100004FEAC50514F0AE
:10374000040F91F840F00CFA05F562EA05021CBF7F
:1037500063EA050362464FF00004A9E7002A46D059
:1037600040EA010313F00303F0B425D1032A23D95F
:1037700004680D68AC423CD1043A35D0A4F101355F
:1037800025EA040414F0803F2ED1071D0D1D0DE025
:1037900057F8043B0E68A3F10134B34224EA030452
:1037A00027D1043A20D014F0803F1DD1032A2946A6
:1037B000384605F10405EBD803780D789D4202F1F7
:1037C000FF360ED186B17BB1044602E082180BD0E1
:1037D00053B114F8013F11F8015FAB42A6EB0402AC
:1037E000F4D0581BF0BC70470020F0BC7047104666
:1037F000704703780D789D4202F1FF36E3D0F0E781
:103800002DE9F04F0124254688461646AE462A4645
:10381000ADF21C4D07461C4600214FF0FF355318F2
:103820009C4206EB05000ED9805C16F803C0844567
:1038300080F0CC8019460122A3EB050E53189C4260
:1038400006EB0500F0D8CDF80CE04FF0010E724603
:1038500000214FF0FF3053189C4206EB000C0FD9AB
:103860001CF802C016F80390E14540F2B6801946F4
:103870000122A3EB000E53189C4206EB000CEFD87C
:103880006B1C01309842029328BFCDE9020E05ABB4
:103890000DF2144243F8044F9342FBD1631E009390
:1038A000002C00F01681009B06AD721E9819019540
:1038B00012F8011FD34323443344824245F8213098
:1038C000F6D1DDE902233046F11800F00DFB0028A7
:1038D00040F09680029B013B0593F3188246814697
:1038E000049307EB090E009B019A1EF8033052F86F
:1038F0002330EBB1BAF1000F03D0039A934238BFE3
:10390000A31A99444FF0000AA8EB04034B45E8D2F0
:1039100007EB080044F4006100F02CFD8044A8EBA4
:1039200004034B45DDD200200DF21C4DBDE8F08FA5
:10393000029B534538BF53461D46009B9D4218D2FB
:1039400005EB0902715DB85C88423A4406EB050359
:1039500034D1A4F1020CB444C6F1010B05E013F814
:10396000010F12F8011F884228D19C450BEB03057B
:10397000F5D1029B9A4580F0A980059B049A4B449F
:103980001178FA5C91423B4440F0A0800AEB0905B3
:103990003D44049A05E012F8010D13F8011D884218
:1039A00003D1AB42A3EB0E0CF5D10AF1010AE245BB
:1039B0007DD8039B9944A4EB030AA5E7029BC3F1BE
:1039C00001039944A9444FF0000A9DE70CD04FF041
:1039D000010E0D467246714421E70BD04FF0010EE7
:1039E00008467246714436E7724512BF01321946E5
:1039F000012214E7724512BF0132194601222AE75B
:103A0000029AA31A934238BF1346511E01330593FD
:103A1000731804910393002506EB020B07EB050EC8
:103A2000009A01991EF8023051F8233083B11D44E9
:103A3000A8EB04039D42F1D907EB080044F40061B0
:103A400000F098FC8044A8EB04039D42E6D96AE7A5
:103A5000029B934217D2EA189BF80030B95C994256
:103A60003A4429D1A4F1020CB4445B46C6F10109E1
:103A700005E013F8010F12F8011F88421ED16345BB
:103A800009EB030AF5D1049B5A1C10D0EA18039BDA
:103A9000B95C1B7899423A4416D1039B05E013F8B0
:103AA000010D12F8011D88420ED1B342F7D17046C4
:103AB0000DF21C4DBDE8F08FDDF808A0029BC3F1AC
:103AC00001031D445544B3E7059BB0E7DDF808C08A
:103AD0006BE706AB0193F4E62DE9F0410E46097859
:103AE00090B00446002958D07278002A00F08D80EA
:103AF000B078002855D0F378002B00F08D80337912
:103B0000002B5FD03046FFF7BBFD804640F40071CC
:103B1000204600F02FFC804572D8B8F1FE0F00F26D
:103B20009280A0EB0807402208F101016846274473
:103B3000FCF74EFCB8F1000F10D0731E03EB080524
:103B40005FFA88F013F8012F10A902F03F020A442F
:103B5000F11A0144AB4202F8401CF3D1013C10AA17
:103B600014F8083003F03F03134413F8403C1C449E
:103B7000A74203D238E02C44A74235D314F80850AA
:103B800010AB05F03F051D4442463146204615F86E
:103B9000405C00F0A9F90028EDD1204610B0BDE846
:103BA000F081237842EA014253B3601C617800E05F
:103BB000204641EA0343441C11B39A424178F7D1AD
:103BC000441EEAE72278DAB1306800BA02E08342A4
:103BD00008D00C4642EA03236278611C002AF6D121
:103BE00083420DD1033CD8E717F8083007EB0800F3
:103BF00033B14FF4006100F0BDFB0744A742ADD2E2
:103C00000024204610B0BDE8F081FFF7EDFA04462D
:103C1000204610B0BDE8F0811204237842EA016228
:103C200042EA0022002BEBD01B02601C617800E00E
:103C300020460B431B02441C0029E1D09A424178E4
:103C4000F6D1841EA9E70146434620463246FFF7D7
:103C5000D7FD0446A1E700BF2DE9F0470F464C4DC4
:103C600000E06746BC461CF8014B2E5D16F00806C6
:103C7000F7D12D2C58D02B2C0ABF9CF8005025468C
:103C800007F1020CF3B3102B54D04FF0FF38B8FB00
:103C9000F3F803FB08FA6FEA0A0A99460027BE46C2
:103CA00007E0C64513D828D009FB0E4E01271CF8A3
:103CB000015BA5F13004092C05D9A5F14104192CAB
:103CC00008D8A5F13704A3420CDD002FE9DA4FF044
:103CD000FF37ECE7A5F16104192C03D8A5F15704CF
:103CE000A342F2DC002F16DB0EB1CEF1000E0AB1BA
:103CF000BFB911607046BDE8F0875445D4DD4FF080
:103D0000FF37D4E7302D29D00A2399464FF0050A12
:103D1000DFF88080C2E7222303604FF0FF3E002AD5
:103D2000E8D00CF1FF31E4E79CF80050012607F1E0
:103D3000020CA7E7302D24D19CF8004004F0DF04EA
:103D4000582C18D14FF010099CF801504B464FF0F9
:103D50000F0A0CF1020C6FF070489FE79CF80030DE
:103D600003F0DF03582BEDD0082399464FF0070AE4
:103D70006FF0604892E799466FF070484FF00F0A75
:103D80008CE74FF00F0A6FF07048994686E700BF46
:103D900001620108999999195EE700BF10B4044CBB
:103DA00013460A46014620685DF8044B54E700BFFD
:103DB0000000002010B4044C13460A460146206857
:103DC0005DF8044B48E700BF0000002070B5141EEA
:103DD0009AB005462BDB1A464FF40273009104910A
:103DE000ADF80C3013D0013C4FF6FF761E9B0294C9
:103DF00069460594ADF80E6000F082F9421C01DAC4
:103E00008B232B60009B00221A701AB070BD1E9B82
:103E100002944FF6FF7669460594ADF80E6000F007
:103E20006FF9431C01DA8B232B601AB070BD8B2312
:103E300003604FF0FF30F8E710B5054C82B00093F7
:103E400013460A4601462068FFF7C0FF02B010BDC6
:103E50000000002000B50A4C2668054685B01C46C7
:103E6000F06852B1074B0091CDE9013206492B466B
:103E7000224600F025F8FEF765FF044B1A46F2E7EC
:103E8000000000202C6D01083C6D01081C63010836
:103E900008B513460022FFF7DDFF00BF704700BFE3
:103EA000704700BF0CB400B583B004AB53F8042BCB
:103EB0000193FCF711FD03B05DF804EB02B070470D
:103EC0000EB410B583B005AB064C53F8042B019328
:103ED00001462068FCF700FD03B0BDE8104003B0C8
:103EE000704700BF00000020032A70B412D940EAD6
:103EF0000105AD0704460B4620D11946204653F86C
:103F0000045B54F8046BAE4218D1043A032A2046ED
:103F10001946F2D8541E72B103780A789A4208BF43
:103F2000241806D00CE010F8013F11F8012F93423D
:103F300006D1A042F7D1002070BC7047541EEBE7B9
:103F4000981A70BC704700BF2DE9F0478E681D4677
:103F5000AE420C460B68174636D88046888910F466
:103F6000906F0ED1354618462A463946FDF7A0FC1B
:103F7000A2682368961B2B44A66023600020BDE83E
:103F8000F087D1E9041606EB4606A3EB010906EB20
:103F9000D6766B1C76104B44B342324684BF1E4625
:103FA0003246430512D511464046FCF7EDFB8246EA
:103FB00000B34A462169FCF771F9A38923F49063A1
:103FC00043F08003A38106E02E46CCE74046FDF790
:103FD00031FD824650B1A6EB09020AEB0903666186
:103FE000C4F810A02360A2602E46BCE721694046B9
:103FF000FDF7CAFC0C23C8F80030A38943F0400346
:10400000A3814FF0FF30BAE72DE9F04F936883B0FA
:104010009046002B6DD017688D6882460C46086864
:10402000083743E0A38913F4906F2ED0D4E9041528
:1040300005EB4505A0EB010B05EBD5750BEB060079
:104040006D100130A8422A4684BF05462A465B050A
:1040500036D511465046FCF797FB00283AD05A4611
:1040600021690190FCF71AF9A289019B22F4906260
:1040700042F08002A281A5EB0B0203EB0B0065610D
:1040800023612060A2603546B3465A464946FDF793
:104090000FFCD8F80830A2682068551B58449E1BB6
:1040A000A5602060C8F808601EB3083757E902967B
:1040B000AB46002EF9D0AE42B4D23546B346E4E763
:1040C0005046FDF7B7FC03460028D4D1216950467D
:1040D000FDF75AFC0C23CAF80030A389002243F0F4
:1040E00040034FF0FF30A381C8E9012203B0BDE8CF
:1040F000F08F0020C8F8040003B0BDE8F08F00BFC7
:104100002DE9F04F90468A899FB014068B460290A5
:1041100003D50A69002A00F00B81059330238DF83E
:10412000323098F800308E4E002120220B918DF80D
:1041300031200127002B00F08480252B00F0F68031
:10414000454603E0252B00F0868025466B786C1CE5
:10415000002BF7D1B4EB080A73D0424653465946B8
:104160000298FFF7F1FE01306BD00B9B6A78534445
:104170000B93002A65D000234FF0FF3201340693E1
:10418000CDE908338DF85B301C93079205E0069A61
:1041900007FA03F313432C4606932546052215F828
:1041A000011B3046FDF734FBAA46831B0028EED1E5
:1041B000069BD90644BF20228DF85B2021781A0780
:1041C00044BF2B228DF85B202A2948D1059A11681B
:1041D0000432002905927EDB09916178A51C2E2905
:1041E00056D0604C03222046FDF712FB002868D011
:1041F000001B069B402404FA00F00343069305F1DC
:104200000108297858488DF830100622FDF700FB88
:10421000002866D0554B002B56D005AB00935A466C
:10422000534B029806A9AFF300808146B9F1FF3FD6
:1042300007D00B9B4B440B9398F80030002B7FF476
:104240007CAFBBF80C305B0654BF0B984FF0FF30CF
:104250001FB0BDE8F08FB4EB080A8CD07DE7A1F168
:104260003002092A88BFA246B9D8099B01E02C4632
:104270000135297803EB830302EB4303A1F13002FC
:10428000092AAA46F3D92E2904F102050993A8D1D7
:104290009AF801102A292ED1059B9AF802101A6863
:1042A00007920433002A05930AF103050AF1020379
:1042B00037DB2C4C032220469A46FDF7A9FA00284A
:1042C00096D1A84655469CE7059B073323F0070384
:1042D00008330593ADE7494243F002030991069381
:1042E0007BE705AB00935A46214B029806A9FCF7E1
:1042F000F7FC81469AE7A1F130020023092A0793CF
:1043000001D923E05546697803EB830302EB4303AD
:10431000A1F13002092A05F1010AF3D90235079308
:104320005FE74FF0FF329A4607925AE7444622E78A
:1043300040210393FCF728FA039BCBF80000CBF84D
:10434000100030B14022CBF81420E6E6AA46013531
:1043500047E7029A0C2313604FF0FF3078E700BF65
:1043600020640108286401082C6401080000000092
:10437000493F0008C9B10278CAB1431C01449942BF
:104380001A4616D010B41478013334B199421A4643
:1043900007D014780133002CF8D1101A5DF8044BC3
:1043A0007047081A5DF8044B70470846704710467E
:1043B0007047081A704700BF10B506E0184A92F817
:1043C0004E3043F0040382F84E30154C022384F83B
:1043D0004C3023460022114604F1140006F02CFD57
:1043E000606590B10F4C204606F074FD20640028F3
:1043F000E4D0A4F11403042283F84C2093F84E2057
:1044000042F0040283F84E20ECE7054B032283F8C8
:104410004C2093F84E2022F0040283F84E2010BD69
:10442000089000201C900020F0B58FB00146284C69
:10443000012084F84C00274B0193274B0093274B16
:10444000274A07F0B9FA206560B1042284F84C20AD
:1044500094F84E2042F0010284F84E2000252846B0
:104460000FB0F0BD1A4A92F84E3023F0010382F8E3
:104470004E3009A806F006FE1A4B09931A4B0A9310
:104480001A4B0B931A4B0C9309A806F009FE05462C
:1044900050B90F4B042283F84C2093F84E2042F081
:1044A000020283F84E20DAE7094F02A806F018FE50
:1044B0003E4602AC0FCC0FC62368336097F84E30EF
:1044C00023F0020387F84E30FFF776FFC7E700BFFF
:1044D00008900020A1A0000863A0000855A00008D3
:1044E0003DA00008CD9E0008F19E0008119F000825
:1044F000519F00080000000010B504461648FBF765
:10450000CFFF0CB3154C012384F8A83010A3D3E9D6
:104510000023C4E92C23002204F1900104F1880057
:1045200006F01EF9C4F89C0330B1B4F89A3343F096
:104530000203A4F89A3310BD084AB2F89A3323F064
:104540000203A2F89A33F6E70548FBF7A9FFF2E762
:10455000E923F8F8E796F33F04630108A0900020F0
:104560002063010810B582B011F02EF80246254CE8
:10457000254B214604F1880006F01AFDC4F89C037F
:10458000D0B1032284F89823B4F89A2342F00202AF
:10459000A4F89A231B4C1D4BC4F894331C4B009376
:1045A0001A4A00231B4904F5647006F035FDC4F86F
:1045B0009C0348B102B010BD124AB2F89A3323F0FE
:1045C0000203A2F89A33E5E704F564742146A4F5E2
:1045D000627006F051FAE06058B1A4F564730322EA
:1045E00083F89823B3F89A2342F00202A3F89A239F
:1045F000E0E7044AB2F89A3323F00203A2F89A33B0
:10460000D8E700BFA0900020306301088096980092
:10461000F94400081C90002010B5164C012384F8C2
:104620009833154B154A1649204606F085FCC4F808
:104630009C0350B10F4B032283F89823B3F89A23BD
:1046400042F00102A3F89A2310BDB4F89A3323F084
:104650000103A4F89A330B4B012203F1180104F172
:10466000080006F095F9C4F89C030028ECD1FFF788
:1046700079FFE9E7A09000201C9000201C6301084E
:1046800040630108089000202DE9F04107460C46E0
:1046900015461E46DFF8608100224FF40051404667
:1046A00002F0B2F900224FF48051404602F0ACF91A
:1046B00000224FF48041404602F0A6F900224FF458
:1046C0000041404602F0A0F9F81E032826D8DFE892
:1046D00000F002274B6F00224FF40051464802F0D1
:1046E00093F9002714E0DFF8108101224FF4005104
:1046F000404602F089F9284604F05CFF00224FF49E
:104700000051404602F080F9304604F053FF013773
:10471000A742E8DB4FF47A7004F04CFFBDE8F0816B
:1047200000224FF48051344802F06EF9002714E063
:10473000DFF8C48001224FF48051404602F064F952
:10474000284604F037FF00224FF48051404602F023
:104750005BF9304604F02EFF0137A742E8DB4FF447
:104760007A7004F027FFD9E700224FF480412248F5
:1047700002F04AF9002714E0DFF87C8001224FF4B0
:104780008041404602F040F9284604F013FF002221
:104790004FF48041404602F037F9304604F00AFFFA
:1047A0000137A742E8DB4FF47A7004F003FFB5E766
:1047B00000224FF40041104802F026F9002714E0CF
:1047C000DFF8348001224FF40041404602F01CF92A
:1047D000284604F0EFFE00224FF40041404602F06C
:1047E00013F9304604F0E6FE0137A742E8DB4FF448
:1047F0007A7004F0DFFE91E7000C024038B568E201
:10480000C8231A4601210320FFF73EFF20E0C823FA
:104810001A4602210320FFF737FF19E0C8231A4682
:1048200003210846FFF730FF12E0B84C00224FF496
:104830000051204602F0E8F8642004F0BBFE01229B
:104840004FF40051204602F0DFF8642004F0B2FE7D
:10485000AF4B93F82030DBB2052B1CD0AB4C0022C1
:104860004FF48041204602F0CFF8642004F0A2FE0D
:1048700001224FF48041204602F0C6F8642004F083
:1048800099FEA34B93F82030DBB2052B00F00E828B
:104890000024214646E19D4C00224FF40051204661
:1048A00002F0B2F800224FF48051204602F0ACF83A
:1048B00000224FF48041204602F0A6F800224FF477
:1048C0000041204602F0A0F84FF4FA7004F072FEA6
:1048D0008F4B5B6A13F0010F40F085808C4B5B6A55
:1048E00013F0020F40F08680894B5B6A13F4001FBF
:1048F00040F08780864B5B6A13F0040F40F088809D
:10490000834B5B6A13F0080F40F08980804B5B6A31
:1049100013F0100F40F08A807D4B5B6A13F0200F7C
:1049200040F08B807A4B5B6A13F0400F40F08C8034
:10493000774B5B6A13F0800F40F08D80744B5B6A9D
:1049400013F4807F40F08E80714B5B6A13F4007F1C
:1049500040F08F806E4B5B6A13F4806F40F0908064
:104960006B4B5B6A13F4006F40F09180684B5B6A9D
:1049700013F4805F40F09280654B5B6A13F4005F34
:1049800040F09380624B5B6A13F4804F40F0948058
:104990005F4B5B6A13F4004F40F095805C4B5B6AA1
:1049A00013F4803F40F09680594B5B6A13F4003F4C
:1049B00040F09780564B5B6A13F4802F40F098804C
:1049C000534B5B6A13F4002F40F09980504B5B6AA5
:1049D00013F4801F3FF455AFC8231A461621052053
:1049E000FFF752FE4DE7C8231A4601210520FFF7C5
:1049F0004BFE46E7C8231A4602210520FFF744FE76
:104A00003FE7C8231A4603210520FFF73DFE38E79C
:104A1000C8231A4604210520FFF736FE31E7C823D4
:104A20001A4605210846FFF72FFE2AE7C8231A4633
:104A300006210520FFF728FE23E7C8231A46072191
:104A40000520FFF721FE1CE7C8231A460821052090
:104A5000FFF71AFE15E7C8231A4609210520FFF7BC
:104A600013FE0EE7C8231A460A210520FFF70CFEA5
:104A700007E7C8231A460B210520FFF705FE00E7CC
:104A8000C8231A460C210520FFF7FEFDF9E6C823CE
:104A90001A460D210520FFF7F7FDF2E6C8231A4656
:104AA0000E210520FFF7F0FDEBE6C8231A460F2183
:104AB0000520FFF7E9FDE4E6C8231A46102105208A
:104AC000FFF7E2FDDDE6C8231A4611210520FFF7B6
:104AD000DBFDD6E6C8231A4612210520FFF7D4FDD8
:104AE000CFE6C8231A4613210520FFF7CDFDC8E6FF
:104AF000C8231A4614210520FFF7C6FDC1E6C823C6
:104B00001A4615210520FFF7BFFDBAE6000C02404A
:104B10009CCE0020C8231A4601210620FFF7B4FDD1
:104B2000012101340B2C00F3AD80884AEC2303FBF8
:104B3000042393F8703013F0010FF2D0EC2303FB41
:104B4000042393F87130032BEBD1814D00224FF4F5
:104B50000051284601F058FF00224FF480512846AA
:104B600001F052FF00224FF48041284601F04CFF33
:104B700000224FF40041284601F046FF4FF4FA703E
:104B800004F018FDC8234FF44872611C0620FFF79B
:104B90007BFD6E4AEC2303FB0423B3F8723013F061
:104BA000010FB7D113F0020F1CD113F0040F21D164
:104BB00013F0080F26D113F0100F2BD113F0200F94
:104BC00030D113F0400F35D113F0800F3AD113F4E8
:104BD000807F3FD113F4007F44D113F4806F49D11B
:104BE00001219EE7C8231A4602210620FFF74CFD4B
:104BF000012196E7C8231A4603210620FFF744FD4A
:104C000001218EE7C8231A4604210620FFF73CFD48
:104C1000012186E7C8231A4605210620FFF734FD47
:104C200001217EE7C8231A4606210846FFF72CFD1E
:104C3000012176E7C8231A4607210620FFF724FD45
:104C400001216EE7C8231A4608210620FFF71CFD44
:104C5000012166E7C8231A4609210620FFF714FD43
:104C600001215EE7C8231A460A210620FFF70CFD42
:104C7000012156E7C8231A460B210620FFF704FD41
:104C800001214EE791B9324C00224FF400412046F9
:104C900001F0BAFE642004F08DFC01224FF40041C3
:104CA000204601F0B1FE642004F084FC284C002270
:104CB0004FF48051204601F0A7FE642004F07AFCF6
:104CC00001224FF48051204601F09EFE642004F042
:104CD00071FC204B93F84C30032B3FF4A6AD1C4CD9
:104CE00000224FF40051204601F08EFE00224FF4C6
:104CF0008051204601F088FE00224FF4804120467A
:104D000001F082FE00224FF40041204601F07CFEBB
:104D10004FF4FA7004F04EFC0E4B93F84E3013F043
:104D2000010F7FF46DAD13F0020F7FF470AD13F03F
:104D3000040F7FF473AD13F0080F3FF489ADC8235F
:104D40001A4604210320FFF79FFC81E540940020D0
:104D5000000C02400890002010B4094AEC2303FB29
:104D600000F01318012483F871400724A3F872405F
:104D70001154012283F870205DF8044B704700BF86
:104D800040940020F1EE407A1C4AEC2303FB002300
:104D9000C3ED017A83ED020AF1EE607AC3ED037A86
:104DA000C3ED040A00225A6183ED061ADA61C3EDED
:104DB000081AF1EE427AC3ED097A83ED0A2ADA6223
:104DC000C3ED0C2A93F8701041F0020183F87010C3
:104DD000B3F8722022F0020292B2A3F872200F29D7
:104DE00000D07047054BEC2101FB003022F001029E
:104DF000A0F87220002380F87130F2E74094002080
:104E0000154AEC2303FB002383ED0E0AC3ED0D0AC4
:104E100083ED101AB1EE411A83ED0F1AC3ED121A89
:104E2000F1EE611AC3ED111A93F8702042F00402FA
:104E300083F870200F2A00D07047074BEC2202FB4A
:104E40000030B0F8723023F00103A0F87230002374
:104E500080F87130F0E700BF409400202DE9F04168
:104E600006460846DFF8CC80EC2707FB06F708EB80
:104E7000070461670025C4F8B4500123C4F8B830B2
:104E8000C4F89C50C4F8A05040F6FF72C4F8A420A7
:104E9000C4F8A850C4F8AC50C4F8BC3007F198016D
:104EA0004144043100F05EFE18F80730C4F8CC30FD
:104EB000C4F8D4500823C4F8DC30C4F8D850636F69
:104EC0005B6A012B19D01B4AEC2303FB062393F8E2
:104ED000702042F0080283F87020B3F8722022F0AC
:104EE0000402A3F87220134AEC2303FB062393F871
:104EF00070300F2B11D0BDE8F08194F8702022F0B3
:104F0000080284F87020B4F8722042F00402A4F879
:104F10007220012284F87120E5E7EC2303FB0626CA
:104F2000B6F8723023F00103A6F87230002386F839
:104F30007130E0E740940020054BEC2202FB00308A
:104F4000B0F8723031EA03030CBF01200020704733
:104F50004094002007EE900AF8EEE77A27EE807A78
:104F600001238B40013B07EE903AF8EEE77AC7EE5B
:104F7000276A36EE800A704770B51A4BEC2404FBA2
:104F8000003494F8790094F87A2094F87B1094F81F
:104F90007C301E0946EA01161D0205F4706594F87E
:104FA0007D301D431021D4ED020A94ED010A42EA3E
:104FB0000020FFF7CFFF84ED180A0C21D4ED040A7E
:104FC00094ED030A3046FFF7C5FF84ED190A0C2162
:104FD000D4ED0A0A94ED090A2846FFF7BBFF84EDD9
:104FE0001A0A70BD4094002030B583B00446EC200E
:104FF00000FB04F505F1C0023A48024405F1E00364
:10500000034405F1C8010144284404330432043147
:10501000406F00F06DFE70B13248EC2303FB0404D6
:10502000B4F8723043F00403A4F87230032384F818
:10503000713003B030BD05F180012A4A50196B462A
:105040000A440021406F00F0C9FE28B99DF80020F5
:10505000244B1B789A421DD0224AEC2303FB0423E5
:105060005B6F5B6A012BE4D01346EC2202FB043237
:1050700092F8E8300133DBB282F8E830052BD8D95A
:10508000B2F8723043F00803A2F87230032382F8BA
:105090007130CEE7134BEC2505FB043502AB13E969
:1050A0000300A867A5F87C102046FFF765FF0023E2
:1050B00085F8E830B5F8723023F008039BB223F08E
:1050C0000403A5F8723095F87130022BB1D001219C
:1050D0002046FFF731FF0028ABD1002385F871305F
:1050E000A7E700BF4094002038B504466021FFF7D1
:1050F00023FF00B138BD144BEC2505FB0435134AE2
:1051000005F1C40392E8030083E803002046FFF79B
:105110006BFF95F8E8304BB9B5F8723023F0800397
:10512000A5F87230022385F87130E3E70648EC23D6
:1051300003FB0400B0F8723043F08003A0F8723033
:10514000032380F87130D5E74094002064000020EC
:1051500008B50268034B9A4200D008BD01F02EFF4B
:10516000FBE700BF0000014072B6FEE700B595B056
:105170003022002108A8FBF72BF9002303930493A6
:105180000593069307930193214A116C41F08051D6
:105190001164126C02F080520192019A02931D4B2D
:1051A0001A6842F480421A601B6803F48043029339
:1051B000029B012308934FF48033099302230E933B
:1051C0004FF480020F92082210924FF4A8721192AD
:1051D00012930723139308A800F0D6FF98B90F2362
:1051E000039302230493002305934FF4A0530693E3
:1051F0004FF480530793052103A801F027FA20B943
:1052000015B05DF804FBFFF7AFFFFFF7ADFF00BF80
:10521000003802400070004008B501F0B5FEFFF70D
:10522000A5FF00F019F800F0D7F900F0F7F900F049
:105230004DFA00F0A3FA00F03DFB00F075F90548C7
:1052400000F028FD04F02AF900F044F904F038F9E0
:10525000FEE700BF9CCE00202DE9F04F8DB000246A
:105260000794089409940A940B9401946C4B1A6B5C
:1052700042F010021A631A6B02F010020192019AB6
:1052800002941A6B42F004021A631A6B02F00402D1
:105290000292029A03941A6B42F080021A631A6B0C
:1052A00002F080020392039A04941A6B42F0010206
:1052B0001A631A6B02F001020492049A05941A6BA5
:1052C00042F002021A631A6B02F002020592059A7A
:1052D00006941A6B42F008021A631B6B03F0080372
:1052E0000693069BDFF8449122460821484601F0C8
:1052F0008BFBDFF83C8101221146404601F084FB24
:10530000DFF830A122464FF21001504601F07CFB3D
:10531000082507950126089609940A9407A9484686
:1053200001F088FA0796089609940A9407A940465E
:1053300001F080FA07950225089509940A944FF028
:10534000050BCDF82CB007A9404601F073FA07967B
:105350004FF4901308930994324F07A9384601F08F
:1053600069FA10230793089509940A9406230B936E
:1053700007A9384601F05EFA0423079308940994BC
:1053800007A9294801F056FA4FF48063079308955E
:1053900009940A94CDF82CB007A9234801F04AFAE1
:1053A0004FF210030793089609940A9407A95046F0
:1053B00001F040FA4FF4A4530793089509940A9416
:1053C00006230B9307A9404601F034FA4FF400730B
:1053D00007930894099407A9384601F02BFA4FF473
:1053E000E0530793089509940A940A230B9307A99D
:1053F000384601F01FFA202307930894099407A95F
:10540000504601F017FA07954FF49013089309944A
:1054100007A9484601F00EFA0DB0BDE8F08F00BFB5
:105420000038024000000240000402400010024028
:1054300000080240000C024008B50748FEF7F4FFE0
:1054400018B9642004F0B6F8F7E7FFF7E5F8034869
:1054500005F0B8FC08BD00BF30D00020A8900020A7
:1054600008B5FFF7CBF908BD08B501210020FFF70B
:1054700073FCDFED132AB3EE022AF1EE041A9FED5E
:10548000111ADFED110AB2EE090A0020FFF77AFCCB
:10549000F2EE0E1AB0EE081AFFEE000A9FED0B0AAC
:1054A0000020FFF7ADFC002209491046FFF7D6FCAB
:1054B0000020FFF719FE0A2004F07CF8F8E700BF8F
:1054C000000020420000FA43000070429A99993F80
:1054D0009CCE002008B50B4A00210B4804F00CF8C4
:1054E0000A4B18600A4A00210A4804F005F80A4BE2
:1054F00018600A4A00210A4803F0FEFF094B1860B1
:1055000008BD00BFA063010839540008509F002067
:10551000C46301086154000894CE00207C63010834
:105520006954000898CE002008B50D480D4B036063
:105530000323436000238360C3604FF4A022026111
:105540004FF4C0024261037643768376C3760377D5
:10555000437700F061FA00B908BDFFF705FEFBE7ED
:105560009CCE00200064004000B589B00023039366
:1055700004930593069307930268154B9A4202D051
:1055800009B05DF804FB0022019203F5EA33196CBF
:1055900041F000711964196C01F0007101910199D9
:1055A0000292196B41F0080119631B6B03F00803A9
:1055B0000293029B03230393022104910592069315
:1055C0000923079303A9034801F034F9D8E700BF82
:1055D00000640040000C024010B582B00024019429
:1055E0000D4B1A6B42F400121A631B6B03F4001389
:1055F0000193019B22460521102001F083FC10201D
:1056000001F0B4FC22460521112001F07BFC1120A1
:1056100001F0ACFC02B010BD0038024008B50B48E8
:105620000B4B03600B4B436000238360C3604FF45C
:105630008042026143618361C361036201F0D0FC77
:1056400000B908BDFFF790FDFBE700BFC4CE002006
:1056500000540040A086010030B589B000230393B8
:1056600004930593069307930268154B9A4201D061
:1056700009B030BD00250195124C236B43F00203A5
:105680002363236B03F002030193019B4FF4107318
:105690000393122304930123059306950423079390
:1056A00003A9094801F0C6F80295236C43F40013DE
:1056B0002364236C03F400130293029BD8E700BF1A
:1056C00000540040003802400004024008B50D4874
:1056D0000D4B03604FF48273436000238360C3600B
:1056E000036143614FF400728261C36103624362EC
:1056F00083620A23C36201F051FD00B908BDFFF7C0
:1057000033FDFBE718CF00200030014000B589B021
:105710000023039304930593069307930268154BA4
:105720009A4202D009B05DF804FB0022019203F511
:105730008433596C41F480515964596C01F480519F
:10574000019101990292196B41F0010119631B6BE0
:1057500003F001030293029BE023039302230493CB
:10576000059206920523079303A9034801F062F806
:10577000D8E700BF003001400000024008B50A48E9
:105780000A4B03604FF46123436000238360C360CE
:1057900003610C2242618361C36101F0F3FF00B930
:1057A00008BDFFF7E1FCFBE730D0002000440040DB
:1057B00030B589B0002303930493059306930793B0
:1057C0000268364B9A4201D009B030BD044600252C
:1057D000019503F5FA331A6C42F400321A641A6C1C
:1057E00002F400320192019A02951A6B42F0010212
:1057F0001A631B6B03F001030293029B0C230393B8
:10580000022304930595032306930723079303A913
:10581000234801F00FF82348234B03604FF0006347
:1058200043608560C5604FF48063036145618561B5
:105830004FF48073C3614FF440330362456201F05B
:1058400069F928BB174BA3639C631848184B036086
:105850004FF000634360402383600023C3604FF434
:105860008062026143618361C3614FF4403202622E
:10587000436201F04FF970B90C4B63639C630022E3
:105880000521262001F03EFB262001F06FFB9BE75F
:10589000FFF76AFCD6E7FFF767FCEDE7004400403E
:1058A0000000024070CF002088600240D0CF00206E
:1058B000A06002407047FEE7FEE7FEE7FEE7FEE776
:1058C0007047000008B5024801F01CFA08BD00BF8F
:1058D00070CF002008B5024801F014FA08BD00BFDF
:1058E000D0CF002008B5024800F029FB08BD00BF5A
:1058F0009CCE002008B5024801F0F8FC08BD00BFAE
:10590000B8D0002008B5024802F0E0F808BD00BF9A
:1059100030D0002000B583B0002200920D4B596CAE
:1059200041F480415964596C01F48041009100991F
:105930000192196C41F0805119641B6C03F0805383
:105940000193019B0F216FF0010001F0DBFA03B01E
:105950005DF804FB003802400120704708B5FAF7F3
:1059600073FC162303604FF0FF3008BD08B54FF0FD
:10597000FF31FFF7F3FFFEE770B50C461646002532
:10598000B54207DAAFF30080214601F8010B01357B
:105990000C46F5E7304670BD70B50C46164600253E
:1059A000B54205DA14F8010BAFF300800135F7E7D3
:1059B000304670BD08B503460D4A12685AB10C4A0C
:1059C000106803440B4A11780B4A521A934206D8C6
:1059D000074A136008BD064A08491160EFE700BE98
:1059E000FAF732FC0C2303604FF0FF30F2E700BF00
:1059F000500100200004000000000220D01A012005
:105A00004FF0FF3070474FF400534B600020704759
:105A10000120704700207047002800F0A18038B5B1
:105A2000044690F82030D3B12268136843F0010394
:105A3000136001F0CFFA054623685A6812F0010F8F
:105A400010D101F0C7FA401B0A28F5D9636A43F464
:105A500000336362052384F82030012038BDFFF74E
:105A600083FDE1E71A6822F002021A6001F0B2FA3F
:105A7000054623685A6812F0020F0DD001F0AAFA09
:105A8000401B0A28F5D9636A43F400336362052397
:105A900084F820300120E1E7227E012A3DD01A68F7
:105AA00022F080021A60637E012B3BD022681368CB
:105AB00023F040031360A37E012B39D022681368C2
:105AC00023F020031360E37E012B37D02268136894
:105AD00043F010031360237F012B35D02268136835
:105AE00023F008031360637F012B33D0226813680F
:105AF00023F004031360A368E2681343226913438D
:105B0000626913436268013A21681343CB61002044
