:020000040800F2
:1000000000000220B9940008534C0008554C000829
:10001000574C0008594C00085B4C000800000000D9
:10002000000000000000000000000000818C0008BB
:100030005D4C000800000000218D00081D880008AC
:100040000995000809950008099500080995000818
:100050000995000809950008099500080995000808
:1000600009950008099500080995000809950008F8
:1000700009950008099500080995000809950008E8
:10008000614C0008714C00080995000809950008AA
:10009000814C000809950008099500080995000899
:1000A00009950008914C0008099500080995000879
:1000B00009950008099500080995000809950008A8
:1000C0000995000809950008099500080995000898
:1000D0000995000809950008A14C00080995000839
:1000E0000995000809950008099500080995000878
:1000F0000995000809950008099500080995000868
:100100000995000809950008099500080995000857
:100110000995000809950008099500080995000847
:100120000995000809950008099500080995000837
:100130000995000809950008099500080995000827
:100140000995000809950008099500080995000817
:100150000995000809950008099500080995000807
:1001600009950008099500080995000809950008F7
:10017000099500080995000809950008000000008D
:0801800009950008099500082B
:1001C0000348044B834202D0034B03B118477047E6
:1001D00028010020280100200000000005480649F1
:1001E0000B1AD90F01EBA301491002D0034B03B145
:1001F0001847704728010020280100200000000057
:1002000010B5064C237843B9FFF7DAFF044B13B15E
:100210000448AFF300800123237010BD28010020A3
:10022000000000006C28010808B5044B1BB104490C
:100230000448AFF30080BDE80840CFE700000000AD
:100240002C0100206C280108014B1868704700BF82
:100250000000002070B50D4E0D4D761BB61006D077
:100260000024013455F8043B9847A642F9D1094EC1
:10027000094D761B12F0FAFAB61006D000240134AC
:1002800055F8043B9847A642F9D170BDD433010814
:10029000D4330108D8330108D4330108024B014696
:1002A000186800F04BB900BF00000020024B014667
:1002B000186800F0EDB800BF00000020844641EA55
:1002C000000313F003036DD1403A41D351F8043BCE
:1002D00040F8043B51F8043B40F8043B51F8043B20
:1002E00040F8043B51F8043B40F8043B51F8043B10
:1002F00040F8043B51F8043B40F8043B51F8043B00
:1003000040F8043B51F8043B40F8043B51F8043BEF
:1003100040F8043B51F8043B40F8043B51F8043BDF
:1003200040F8043B51F8043B40F8043B51F8043BCF
:1003300040F8043B51F8043B40F8043B51F8043BBF
:1003400040F8043B51F8043B40F8043B403ABDD22E
:10035000303211D351F8043B40F8043B51F8043BD0
:1003600040F8043B51F8043B40F8043B51F8043B8F
:1003700040F8043B103AEDD20C3205D351F8043B5F
:1003800040F8043B043AF9D2043208D0D2071CBF2B
:1003900011F8013B00F8013B01D30B880380604654
:1003A000704700BF082A13D38B078DD010F00303CA
:1003B0008AD0C3F10403D21ADB071CBF11F8013B3A
:1003C00000F8013B80D331F8023B20F8023B7BE789
:1003D000043AD9D3013A11F8013B00F8013BF9D2B4
:1003E0000B7803704B7843708B788370604670474E
:1003F000F0B4860746D0541E002A3CD0CAB2034649
:1004000002E014F1FF3436D303F8012B9D07F8D135
:10041000032C29D9CDB245EA05250F2C45EA05451F
:1004200033D9A4F11006360903F1200707EB0617AC
:1004300003F1100242E9045542E902551032BA4272
:10044000F8D1721C14F00C0F03EB021204F00F062B
:1004500013D0331F23F003030433134442F8045B27
:100460009342FBD106F003042CB1C9B21C4403F83B
:10047000011B9C42FBD1F0BC704734461346002C54
:10048000F3D1F8E714460346C2E71A462646E0E7EA
:1004900000293CD038B551F8043C0C1F002BB8BFE4
:1004A000E418054600F0BCFC234B1A682AB1A242AE
:1004B0000DD921686018824223D0626028461C60F2
:1004C000BDE8384000F0AEBCA34203D81A465368DA
:1004D000002BF9D111685018A04219D024D82168F6
:1004E0006018834206D0636054602846BDE83840F7
:1004F00000F098BCD3E900030144636021605460BC
:10050000F3E7D2E90002014462602160D6E7704758
:1005100020680144501883421160E6D1D3E90003FA
:10052000014453601160E0E70C232B602846BDE8CE
:10053000384000F077BC00BF44010020F8B5CD1C66
:1005400025F0030508350C2D38BF0C25002D064677
:1005500033DBA94231D82A4F00F062FC3A6852B12D
:1005600013685B1B04D43FE023685B1B29D522463C
:100570005468002CF8D1796800293BD029463046D0
:1005800000F0B4F8431C28D0C41C24F00304A0429B
:1005900005D0211A304600F0A9F801301DD02560A1
:1005A000304600F03FFC04F10B0020F00700231D53
:1005B000C21A01D01B1AA350F8BD0C2232600020D1
:1005C000F8BD0B2B05D8A242636811D05360E7E752
:1005D000144623601C442560E2E70C233046336058
:1005E00000F020FC0020F8BD0B2BF1D85368144616
:1005F0003B60D5E7304600F079F87860BEE700BF91
:100600004401002083692DE9F04180460E4633B352
:1006100084682F4B9C4230D02E4B9C4239D02E4BBD
:100620009C4208BFD8F80C40A3891B072AD5236930
:1006300043B3013EA36816F8015F013BA3609DB37D
:10064000002B07DAA7699F4222462946404623DC51
:100650000A2D21D023685A1C22601D70EAE700F0A1
:10066000F7FAD8F81830D8F80840002BD1D1404616
:1006700000F0EEFA164B9C42CED1D8F80440A38984
:100680001B07D4D42146404600F0A2F80028D0D061
:1006900006E0D8F80840C7E700F03AF80130C9D1C1
:1006A0004FF0FF30BDE8F081002B09DA22464046CA
:1006B0000A2100F02DF80130F2D00A20BDE8F081C7
:1006C00023680A22591C21601A701046BDE8F08187
:1006D000CC280108AC2801088C280108024B0146EF
:1006E0001868FFF78FBF00BF0000002038B5074C27
:1006F000002305460846236004F02AFB431C00D073
:1007000038BD2368002BFBD02B6038BD88CD00207E
:10071000F8B50D461446064608B1836943B3254B28
:100720009C422AD0244B9C4229D0244B9C4208BF97
:10073000F468A389A269A2601A0722D5236903B3CA
:1007400022686169D31AEDB299422F4629DD01333F
:10075000A168501C0139A1602060157062699A423D
:1007600016D0A389DB0701D50A2D11D03846F8BD74
:1007700000F06EFA0F4B9C42D4D17468D9E7B4688C
:10078000D7E72146304600F023F838B92369D7E788
:100790002146304600F032F90028E7D04FF0FF370D
:1007A000E4E72146304600F029F90028F6D1226816
:1007B0000123CDE7CC280108AC2801088C280108CA
:1007C000024B0A4601461868FFF7A2BF000000204E
:1007D0003B4B70B51D6806460C460DB1AB69DBB1ED
:1007E000384B9C421ED0384B9C424AD0374B9C42DF
:1007F00008BFEC68B4F90C2093B2190718D520692A
:1008000008B313F001022CD0636900225B42A3619C
:10081000A26060B3002070BD284600F019FA294B91
:100820009C42E0D16C68B4F90C2093B21907E6D46D
:10083000DD063CD5580726D4206942F00803A38181
:100840009BB20028DDD103F42072B2F5007FD8D02E
:100850003046214600F09AFAA389206913F001027C
:10086000D2D1990758BF6269A2600028D2D1B4F9E9
:100870000C301A06CFD543F04003A3814FF0FF3070
:1008800070BDAC68B6E7616B51B104F144039942A5
:1008900004D03046FFF7FCFDB4F90C20002363635D
:1008A00000232069636022F024022060C5E742F043
:1008B0004002092333604FF0FF30A28170BD00BFBA
:1008C00000000020CC280108AC2801088C28010871
:1008D0008B891A072DE9F0410C46804641D44A68BD
:1008E000002A59DDE66A002E53D00022D8F80050C5
:1008F000216AC8F8002013F4805251D101234046E8
:10090000B047431C5FD0A389E66A216A5F0705D51B
:100910006268636B801A0BB1236CC01A0246002315
:100920004046B047461C45D1D8F80030B4F90C20F9
:10093000002B55D01D2B01D0162B5AD12369002234
:10094000C4E90032616BC8F8005011B304F14403EC
:10095000994202D04046FFF79BFD00206063BDE84E
:10096000F0810E69AEB10D680E6099070CBF636926
:100970000023AD1BA3600AE02B463246A76A216A1A
:100980004046B8470028A5EB000506440ADD002DC7
:10099000F2DC0020BDE8F0810A6C002AA2DCF8E756
:1009A000606DB3E7A38943F04003A3814FF0FF30AC
:1009B000BDE8F0812269A389226000226260DA0426
:1009C000C0D56065BEE7D8F80030002B9BD01D2B4A
:1009D0000CD0162B0AD0A38943F04003A381D9E79A
:1009E0002169C4E90013D304ACD5EAE7C8F8005084
:1009F000CFE742F04002A281CCE700BF0B6923B3EE
:100A000010B5044682B008B18369BBB1104B99425E
:100A100012D0104B994216D00F4B994208BFE16893
:100A2000B1F90C302BB1204602B0BDE81040FFF701
:100A30004FBF002002B010BD6168F1E7019100F0E6
:100A400007F90199E2E7A168EAE70020704700BFD3
:100A5000CC280108AC2801088C28010820B1054BDE
:100A600001461868FFF7CABF034B0449186800F035
:100A700035B900BF0000002088280108FD090008E2
:100A800000207047014900F029B900BFFD090008A6
:100A90000020704770B54A1E682505FB02F50E461A
:100AA00005F17401FFF74AFD044640B100210C3006
:100AB000666005F168022160A060FFF799FC20469E
:100AC00070BD00BF1E4B70B51D68AB69064643B3D1
:100AD0004835D5E90134013B05D51EE0013B5A1CE0
:100AE00004F1680419D0B4F90C20002AF6D10025CD
:100AF000144B6566C4E90055A560C4E90455A561B9
:100B00002946E360082204F15C00FFF771FCC4E9A8
:100B10000D55C4E91255204670BD2C682CB12546F0
:100B2000D7E7284600F010F8D2E704213046FFF757
:100B3000B1FF044628600028F1D10C233360EAE7B6
:100B4000882801080100FFFF2DE9F84F334B344995
:100B50001A68816290424FF00003C0E912330365C6
:100B600004BF012383610546FFF7ACFF6860284698
:100B7000FFF7A8FFA8602846FFF7A4FF6E68E860AB
:100B800000240423F3607466C6E90044B460C6E937
:100B90000444B461214606F15C000822FFF728FCFA
:100BA000DFF888B0AF68DFF888A0DFF88890DFF85A
:100BB00088801C4BC6F83080C6E9086BC6E90AA9D4
:100BC0002146FB6008227C66C7E90044BC60C7E997
:100BD0000444BC6107F15C00FFF70AFCEE68124BAD
:100BE000C7F83080C7E9087BC7E90AA92146F36046
:100BF0007466C6E90044B460C6E90444B46106F111
:100C00005C000822FFF7F4FB0123C6E9086BC6E984
:100C10000AA9C6F83080AB61BDE8F88F88280108C2
:100C2000850A00080900010012000200290E0008D0
:100C3000510E0008910E0008B10E0008024B034946
:100C4000186800F04BB800BF88280108FD090008AB
:100C5000836903B978E77047704700BF704700BFEA
:100C6000704700BF704700BF024B0349186800F08F
:100C70000FB800BF00000020810A0008024B0349A2
:100C8000186800F005B800BF00000020910A0008B5
:100C90002DE9F04110F148071BD088460026D7E91E
:100CA0000154013D0FD4A389012B05F1FF3506D96D
:100CB000B4F90E300133204601D0C04706436B1C07
:100CC00004F16804EFD13F68002FE8D13046BDE859
:100CD000F0813E463046BDE8F08100BF2DE9F84383
:100CE00010F148071FD0884606464FF00009D7E9A3
:100CF0000154013D11D4A389012B05F1FF3508D919
:100D0000B4F90E3001332146304602D0C04749EADB
:100D100000096B1C04F16804EDD13F68002FE6D197
:100D20004846BDE8F883B9464846BDE8F88300BFA9
:100D300070B50C46B1F90E10002996B016461D4646
:100D400013DB6A4600F0E0F800280EDB019A02F49B
:100D50007042A2F50052B2FA82F252094FF4806357
:100D600000202A60336016B070BDA38900221B06E4
:100D70002A6004D540230020336016B070BD4FF4C4
:100D800080630020336016B070BD00BF8A8992076F
:100D90000B4606D501F1470201211A60C3E904217F
:100DA000704770B582B001AB6A460C460646FFF745
:100DB000BFFF009905463046FFF7C0FBB4F90C3081
:100DC00070B11649B162019A0099206043F0800326
:100DD000A381C4E904018AB92B43A38102B070BD89
:100DE0009A05FBD423F0030304F1470243F0020306
:100DF0000121A3812260C4E90421EFE73046B4F960
:100E00000E1000F095F810B9B4F90C30E4E7A3899E
:100E100023F0030343F001031BB2DDE7850A00085A
:100E2000704700BF704700BF10B50C46B1F90E10F7
:100E300000F0A6F8002803DB636D0344636510BD72
:100E4000A38923F48053A38110BD00BF0020704705
:100E50002DE9F0411646B1F90C201F46D3050C468A
:100E60000546B1F90E1009D422F48052A2813B4606
:100E700032462846BDE8F04100F01EB800220223A9
:100E800000F068F8B4F90C20B4F90E10ECE700BFDC
:100E900010B50C46B1F90E1000F05CF8A389421CA5
:100EA0000EBF23F4805343F480536065A38110BDCB
:100EB000B1F90E1000F016B870B50D46084C114689
:100EC00006461A4628460023236003F033FF431CDE
:100ED00000D070BD2368002BFBD0336070BD00BF15
:100EE00088CD002038B5074C00230546084623600E
:100EF00003F054FF431C00D038BD2368002BFBD007
:100F00002B6038BD88CD002038B50B46074C054610
:100F1000114618460023236003F043FF431C00D012
:100F200038BD2368002BFBD02B6038BD88CD002056
:100F300038B5074C002305460846236003F036FF0A
:100F4000431C00D038BD2368002BFBD02B6038BD7C
:100F500088CD002070B50D46084C114606461A464D
:100F600028460023236003F023FF431C00D070BDFC
:100F70002368002BFBD0336070BD00BF88CD0020FC
:100F800070B50D46084C114606461A462846002301
:100F9000236003F0BFFE431C00D070BD2368002B0C
:100FA000FBD0336070BD00BF88CD00207BB972B923
:100FB0000029BEBF00204FF0004106E008BF002816
:100FC0001CBF6FF000414FF0FF3000F0B9B9ADF138
:100FD000080C6DE904CE002909DB002B1ADB00F0B8
:100FE0004DF8DDF804E0DDE9022304B0704740422B
:100FF00061EB4101002B1BDB00F040F8DDF804E061
:10100000DDE9022304B0404261EB4101524263EB4F
:1010100043037047524263EB430300F02FF8DDF8BF
:1010200004E0DDE9022304B0404261EB4101704776
:10103000524263EB430300F021F8DDF804E0DDE900
:10104000022304B0524263EB4303704753B94AB9D9
:10105000002908BF00281CBF4FF0FF314FF0FF30C0
:1010600000F06EB9ADF1080C6DE904CE00F006F8A1
:10107000DDF804E0DDE9022304B070472DE9F04714
:10108000089D04468C46002B40F083808A42174618
:1010900047D9B2FA82F242B1C2F1200024FA00F03C
:1010A0009140974040EA010C94404FEA1748230CC6
:1010B000BCFBF8F61FFA87FE08FB16C143EA0143A2
:1010C00006FB0EF1994209D9FB1806F1FF3080F0BA
:1010D0001981994240F21681023E3B445B1AA4B248
:1010E000B3FBF8F008FB103344EA034400FB0EFEA8
:1010F000A64509D93C1900F1FF3380F00581A645CA
:1011000040F2028102383C4440EA0640A4EB0E045F
:1011100000261DB1D4400023C5E900433146BDE897
:10112000F08702B9FFDEB2FA82F2002A50D1CB1B5F
:101130004FEA174E1FFA87F80126B3FBFEFC210C7D
:101140000EFB1C3341EA034108FB0CF38B4207D929
:1011500079180CF1FF3002D28B4200F2E98084460C
:10116000C91AA3B2B1FBFEF00EFB101143EA014411
:1011700008FB00F8A04507D93C1900F1FF3302D263
:10118000A04500F2D9801846A4EB080440EA0C40C0
:10119000BFE78B4209D9002D00F0B1800026C5E9D8
:1011A000000130463146BDE8F087B3FA83F6002EE1
:1011B0004AD18B4202D3824200F2B880841A61EB9A
:1011C000030101208C46002DA8D0C5E9004CA5E7FD
:1011D000C2F1200320FA03F6974001FA02F04FEA29
:1011E000174ED9403043030CB1FBFEF61FFA87F8C7
:1011F0000EFB161143EA014306FB08F1994204FA7B
:1012000002F409D9FB1806F1FF3C80F08D80994269
:1012100040F28A80023E3B445B1A81B2B3FBFEF08F
:101220000EFB103341EA034100FB08F38B4207D960
:10123000791800F1FF3C73D28B4271D902383944DE
:10124000CB1A40EA064678E7C6F1200C03FA06F40A
:1012500022FA0CF31C4320FA0CF701FA06F34FEACA
:10126000144E21FA0CF11F433B0CB1FBFEF91FFA9F
:1012700084F80EFB191143EA014109FB08FA8A457B
:1012800002FA06F200FA06F308D9611809F1FF30F4
:1012900048D28A4546D9A9F102092144A1EB0A01A5
:1012A000BFB2B1FBFEF00EFB101147EA014700FB95
:1012B00008F8B84507D9E71900F1FF312ED2B84533
:1012C0002CD90238274440EA0940A7EB0807A0FBC5
:1012D00002894F45C64649461AD317D05DB1B3EBD4
:1012E0000E0267EB010707FA0CFCF2404CEA02021F
:1012F000F740C5E9002700263146BDE8F0872E46B5
:1013000028460BE70646E9E61846FDE64345E5D2E2
:10131000B8EB020E69EB04010138DFE70846D2E7BB
:1013200060468DE78146B9E7664675E730464AE78D
:10133000ACF1020C394413E702383C4424E700BF07
:10134000704700BF024B0A460146186800F05EB8BD
:1013500000000020024B0A460146186800F010B851
:101360000000002000B5054B83B0014601AA1868B3
:1013700000F006F803B05DF804FB00BF0000002099
:101380002DE9F0471C4F0E469146804600F0A6FF1F
:101390003D68F5B134785CB13D2C18BF344602D1BC
:1013A00017E03D2B15D014F8013F002BF9D1A41BF9
:1013B000286870B12246314600F0F0FB28B9286851
:1013C000035D3D2B00EB040A09D055F8040F0028FB
:1013D000F0D1404600F084FF0020BDE8F0873B6874
:1013E000ED1AAD104046C9F8005000F079FF0AF13F
:1013F0000100BDE8F08700BF6C00002000B583B09D
:1014000001AAFFF7BDFF03B05DF804FB38B502FB8E
:1014100001F42146FFF792F8054618B12246002153
:10142000FEF7E6FF284638BD38B5124B1C68A26BA4
:1014300005461AB10023C2E9045338BD1820FEF74F
:101440002DFF0246A06378B1012000210A4B1360F2
:10145000C2E904010B230948094993810023C2E929
:101460000101C2E9045338BD064B0748422100F090
:1014700011FF00BF000000200E33CDAB34126DE62B
:10148000ECDE0500043301081C33010838B51A4BA3
:101490001C68A26B92B1146918495369184801FB82
:1014A00004F100FB0313A4FB0045611C1D4445F13E
:1014B000000323F00040C2E9041338BD1820FEF7F2
:1014C000EDFE0246A06388B101200021C2E90401BB
:1014D0000A480C4C0C4B0D490D4D146053600B2405
:1014E000034695609481C2E9041338BD094B0A484C
:1014F0004E2100F0CFFE00BF000000202DF4515817
:101500002D7F954C0E33CDAB34126DE62E7F954C6E
:10151000ECDE0500043301081C330108024B0A46C7
:101520000146186800F030BF0000002008B430B554
:10153000002A9CB0044635DB4FF4027302910691F9
:10154000ADF8143020A918D0013A0B460492079246
:1015500001911F9A4FF6FF7502A9ADF8165001F0E0
:1015600015F8421C01DA8B232360029B00221A70BB
:101570001CB0BDE8304001B070470B4604920792A2
:1015800001914FF6FF751F9AADF8165002A900F0B1
:10159000FDFF431C01DA8B2323601CB0BDE8304003
:1015A00001B070478B2202604FF0FF30F5E700BFBB
:1015B0000CB430B5204B00299DB01C6837DB4FF4CC
:1015C000027302900690ADF8143021A819D00139A9
:1015D0000346209A0491079101904FF6FF7502A9E6
:1015E0002046ADF8165000F0D1FF421C01DA8B23E3
:1015F0002360029B00221A701DB0BDE8304002B08B
:10160000704703460491079101904FF6FF75209AA9
:10161000ADF8165002A9204600F0B8FF431C01DACD
:101620008B2323601DB0BDE8304002B070478B2390
:1016300023604FF0FF30F5E700000020C9B200F052
:101640000303002935D07BB10378002B57D0994292
:1016500052D0431C05E013F8012B002A4DD08A42DA
:101660004AD09A071846F6D170B441EA01260468B8
:1016700046EA064601E050F8044F86EA0405A5F163
:101680000132A4F1013322EA050223EA04031343E1
:1016900013F0803FEFD0037843B1994202D106E0C6
:1016A0008B4204D010F8013F002BF9D1184670BCD2
:1016B00070474BB10378FBB1431C02E00278013361
:1016C000D2B199071846F9D10268A2F1013323EA91
:1016D000020313F0803F08D150F8042FA2F1013328
:1016E00023EA020313F0803FF6D0037823B110F809
:1016F000013F002BFBD170477047104670471846DA
:10170000704700BF00000000000000000000000063
:1017100000000000000000000000000000000000C9
:10172000A2EB0300704700BF02780B78012A28BFA4
:101730009A42F5D16DE9044540EA0104CDE902671A
:101740006FF0000C4FEA447212B380EA010414F007
:10175000070F6AD100F0070420F0070004F003052A
:1017600021F007014FEAC505F0E8042314F0040F47
:10177000F1E804670CFA05F462EA040266EA04067A
:101780000AD063EA0403624667EA0407664603E098
:10179000F0E80423F1E8046782FA4CF582EA0604D3
:1017A000A4FA8CF46CBB83FA4CF583EA0705A5FA1E
:1017B0008CF595B950E9022351E9026782FA4CF59C
:1017C00082EA0604A4FA8CF483FA4CF583EA07054E
:1017D000A5FA8CF52543DBD09CB92DBAB5FA85F472
:1017E00024F0070427FA04F1DDE9026723FA04F381
:1017F00003F0FF0001F0FF01FDE80445A0EB01004C
:10180000704724BAB4FA84F424F0070426FA04F1E9
:10181000DDE9026722FA04F202F0FF0001F0FF01A5
:10182000FDE80445A0EB0100704714F0030F3CD124
:1018300010F0030428D150F8082B51F8083B82FA25
:101840004CF582EA0305A5FA8CF55DB950F8042C35
:1018500051F8043C82FA4CF582EA0305A5FA8CF5AE
:10186000002DE8D02DBAB5FA85F424F0070423FA48
:1018700004F122FA04F202F0FF0001F0FF01FDE89A
:101880000445A0EB010070474FEAC40420F00300B8
:1018900050F8082B21F0030151F8083B0CFA04F42E
:1018A00062EA040263EA0403C9E710F003041AD0F1
:1018B000A1EB040120F00300E40750F8042B06D04C
:1018C0000FD28B785FFAA2F4E41A06D12BB1CB7851
:1018D0005FFAB2F4E41A00D11BB920465DF8104B50
:1018E000704701F1040150F8042BCC0721F00301EB
:1018F00051F8043B48D824D222F07F4482FA4CF5B8
:1019000094EA1325A5FA8CF50AD165B951F8043B80
:1019100084EA0204B4EB036F0ED150F8042BEBE71A
:101920004FEA132355E035F07F454DD10878FDE8A7
:101930000445C0F1000070474FEA126203F0FF0354
:1019400047E002EA1C4482FA4CF594EA1345A5FAF2
:101950008CF50AD165B951F8043B84EA0204B4EB72
:10196000034F0CD150F8042BEBE74FEA134330E060
:1019700015EA1C4528D10B884FEA124229E04FEAAC
:10198000124203EA1C4324E002F0FF0482FA4CF501
:1019900094EA1365A5FA8CF50AD165B951F8043BB0
:1019A00084EA0204B4EB032F09D150F8042BEBE7CF
:1019B0004FEA13630DE015F0FF0F05D10B684FEAF6
:1019C000122223F07F4304E04FF00000FDE80445BD
:1019D000704712BA1BBA82FA4CF482EA0304A4FAE2
:1019E0008CF5B5FA85F402FA04F203FA04F34FEA2F
:1019F0001260FDE80445A0EB1360704780EA010225
:101A0000844612F0030F4FD111F0030F32D14DF87D
:101A1000044D11F0040F51F8043B0BD0A3F1013237
:101A20009A4312F0803F04BF4CF8043B51F8043B4A
:101A300016D100BF51F8044BA3F101329A4312F0C2
:101A4000803FA4F101320BD14CF8043BA24312F0C9
:101A5000803F04BF51F8043B4CF8044BEAD02346C6
:101A60000CF8013B13F0FF0F4FEA3323F8D15DF878
:101A7000044B704711F0010F06D011F8012B0CF840
:101A8000012B002A08BF704711F0020FBFD031F8B8
:101A9000022B12F0FF0F16BF2CF8022B8CF800203F
:101AA00012F47F4FB3D1704711F8012B0CF8012BC2
:101AB000002AF9D1704700BF0000000000000000BC
:101AC00090F800F06DE9024520F007016FF0000C7E
:101AD00010F0070491F820F040F049804FF0000426
:101AE0006FF00700D1E9002391F840F000F1080001
:101AF00082FA4CF2A4FA8CF283FA4CF3A2FA8CF339
:101B00004BBBD1E9022382FA4CF200F10800A4FA9F
:101B10008CF283FA4CF3A2FA8CF3E3B9D1E90423F3
:101B200082FA4CF200F10800A4FA8CF283FA4CF32A
:101B3000A2FA8CF37BB9D1E9062301F1200182FAE4
:101B40004CF200F10800A4FA8CF283FA4CF3A2FAEA
:101B50008CF3002BC6D0002A04BF04301A4612BAF8
:101B6000B2FA82F2FDE8024500EBD2007047D1E9FB
:101B7000002304F00305C4F100004FEAC50514F08A
:101B8000040F91F840F00CFA05F562EA05021CBF5B
:101B900063EA050362464FF00004A9E7002A46D035
:101BA00040EA010313F00303F0B425D1032A23D93B
:101BB00004680D68AC423CD1043A35D0A4F101353B
:101BC00025EA040414F0803F2ED1071D0D1D0DE001
:101BD00057F8043B0E68A3F10134B34224EA03042E
:101BE00027D1043A20D014F0803F1DD1032A294682
:101BF000384605F10405EBD803780D789D4202F1D3
:101C0000FF360ED186B17BB1044602E082180BD0BC
:101C100053B114F8013F11F8015FAB42A6EB040287
:101C2000F4D0581BF0BC70470020F0BC7047104641
:101C3000704703780D789D4202F1FF36E3D0F0E75C
:101C40002DE9F04F0124254688461646AE462A4621
:101C5000ADF21C4D07461C4600214FF0FF355318CE
:101C60009C4206EB05000ED9805C16F803C0844543
:101C700080F0CC8019460122A3EB050E53189C423C
:101C800006EB0500F0D8CDF80CE04FF0010E7246DF
:101C900000214FF0FF3053189C4206EB000C0FD987
:101CA0001CF802C016F80390E14540F2B6801946D0
:101CB0000122A3EB000E53189C4206EB000CEFD858
:101CC0006B1C01309842029328BFCDE9020E05AB90
:101CD0000DF2144243F8044F9342FBD1631E00936C
:101CE000002C00F01681009B06AD721E981901951C
:101CF00012F8011FD34323443344824245F8213074
:101D0000F6D1DDE902233046F11800F00DFB002882
:101D100040F09680029B013B0593F3188246814672
:101D2000049307EB090E009B019A1EF8033052F84A
:101D30002330EBB1BAF1000F03D0039A934238BFBE
:101D4000A31A99444FF0000AA8EB04034B45E8D2CC
:101D500007EB080044F4006101F0E6F88044A8EBCA
:101D600004034B45DDD200200DF21C4DBDE8F08F81
:101D7000029B534538BF53461D46009B9D4218D2D7
:101D800005EB0902715DB85C88423A4406EB050335
:101D900034D1A4F1020CB444C6F1010B05E013F8F0
:101DA000010F12F8011F884228D19C450BEB030557
:101DB000F5D1029B9A4580F0A980059B049A4B447B
:101DC0001178FA5C91423B4440F0A0800AEB09058F
:101DD0003D44049A05E012F8010D13F8011D8842F4
:101DE00003D1AB42A3EB0E0CF5D10AF1010AE24597
:101DF0007DD8039B9944A4EB030AA5E7029BC3F19A
:101E000001039944A9444FF0000A9DE70CD04FF01C
:101E1000010E0D467246714421E70BD04FF0010EC2
:101E200008467246714436E7724512BF01321946C0
:101E3000012214E7724512BF0132194601222AE736
:101E4000029AA31A934238BF1346511E01330593D9
:101E5000731804910393002506EB020B07EB050EA4
:101E6000009A01991EF8023051F8233083B11D44C5
:101E7000A8EB04039D42F1D907EB080044F400618C
:101E800001F052F88044A8EB04039D42E6D96AE7CA
:101E9000029B934217D2EA189BF80030B95C994232
:101EA0003A4429D1A4F1020CB4445B46C6F10109BD
:101EB00005E013F8010F12F8011F88421ED1634597
:101EC00009EB030AF5D1049B5A1C10D0EA18039BB6
:101ED000B95C1B7899423A4416D1039B05E013F88C
:101EE000010D12F8011D88420ED1B342F7D17046A0
:101EF0000DF21C4DBDE8F08FDDF808A0029BC3F188
:101F000001031D445544B3E7059BB0E7DDF808C065
:101F10006BE706AB0193F4E62DE9F0410E46097834
:101F200090B00446002958D07278002A00F08D80C5
:101F3000B078002855D0F378002B00F08D803379ED
:101F4000002B5FD03046FFF7BBFD804640F40071A8
:101F5000204600F0E9FF804572D8B8F1FE0F00F28C
:101F60009280A0EB0807402208F10101684627444F
:101F7000FEF73EFAB8F1000F10D0731E03EB080510
:101F80005FFA88F013F8012F10A902F03F020A440B
:101F9000F11A0144AB4202F8401CF3D1013C10AAF3
:101FA00014F8083003F03F03134413F8403C1C447A
:101FB000A74203D238E02C44A74235D314F8085086
:101FC00010AB05F03F051D4442463146204615F84A
:101FD000405C00F0A9F90028EDD1204610B0BDE822
:101FE000F081237842EA014253B3601C617800E03B
:101FF000204641EA0343441C11B39A424178F7D189
:10200000441EEAE72278DAB1306800BA02E083427F
:1020100008D00C4642EA03236278611C002AF6D1FC
:1020200083420DD1033CD8E717F8083007EB0800CE
:1020300033B14FF4006100F077FF0744A742ADD2FF
:102040000024204610B0BDE8F081FFF7F7FA0446FF
:10205000204610B0BDE8F0811204237842EA016204
:1020600042EA0022002BEBD01B02601C617800E0EA
:1020700020460B431B02441C0029E1D09A424178C0
:10208000F6D1841EA9E70146434620463246FFF7B3
:10209000D7FD0446A1E700BF2DE9F0470F464C4DA0
:1020A00000E06746BC461CF8014B2E5D16F00806A2
:1020B000F7D12D2C58D02B2C0ABF9CF80050254668
:1020C00007F1020CF3B3102B54D04FF0FF38B8FBDC
:1020D000F3F803FB08FA6FEA0A0A99460027BE469E
:1020E00007E0C64513D828D009FB0E4E01271CF87F
:1020F000015BA5F13004092C05D9A5F14104192C87
:1021000008D8A5F13704A3420CDD002FE9DA4FF01F
:10211000FF37ECE7A5F16104192C03D8A5F15704AA
:10212000A342F2DC002F16DB0EB1CEF1000E0AB195
:10213000BFB911607046BDE8F0875445D4DD4FF05B
:10214000FF37D4E7302D29D00A2399464FF0050AEE
:10215000DFF88080C2E7222303604FF0FF3E002AB1
:10216000E8D00CF1FF31E4E79CF80050012607F1BC
:10217000020CA7E7302D24D19CF8004004F0DF04C6
:10218000582C18D14FF010099CF801504B464FF0D5
:102190000F0A0CF1020C6FF070489FE79CF80030BA
:1021A00003F0DF03582BEDD0082399464FF0070AC0
:1021B0006FF0604892E799466FF070484FF00F0A51
:1021C0008CE74FF00F0A6FF07048994686E700BF22
:1021D000F9280108999999195EE700BF10B4044CD9
:1021E00013460A46014620685DF8044B54E700BFD9
:1021F0000000002010B4044C13460A460146206833
:102200005DF8044B48E700BF0000002070B5141EC5
:102210009AB005462BDB1A464FF4027300910491E5
:10222000ADF80C3013D0013C4FF6FF761E9B0294A4
:1022300069460594ADF80E6000F0A8F9421C01DA79
:102240008B232B60009B00221A701AB070BD1E9B5E
:1022500002944FF6FF7669460594ADF80E6000F0E3
:1022600095F9431C01DA8B232B601AB070BD8B23C8
:1022700003604FF0FF30F8E710B5054C82B00093D3
:1022800013460A4601462068FFF7C0FF02B010BDA2
:102290000000002000B50A4C2668054685B01C46A3
:1022A000F06852B1074B0091CDE9013206492B4647
:1022B000224600F025F800F059FE044B1A46F2E7DA
:1022C0000000002050330108603301085C3301082E
:1022D00008B513460022FFF7DDFF00BF704700BFBF
:1022E000704700BF0CB400B583B004AB53F8042BA7
:1022F000019300F0C9FA03B05DF804EB02B0704737
:102300000EB410B583B005AB064C53F8042B019303
:102310000146206800F0B8FA03B0BDE8104003B0F1
:10232000704700BF00000020032A70B412D940EAB1
:102330000105AD0704460B4620D11946204653F847
:10234000045B54F8046BAE4218D1043A032A2046C9
:102350001946F2D8541E72B103780A789A4208BF1F
:10236000241806D00CE010F8013F11F8012F934219
:1023700006D1A042F7D1002070BC7047541EEBE795
:10238000981A70BC704700BF09B3F8B51446CAB1BB
:1023900006460D4601F034F8A04202D32F463846D7
:1023A000F8BD21463046FEF7C9F807460028F6D0AA
:1023B00022462946FDF782FF30462946FEF768F897
:1023C0003846F8BD2746FEF763F83846F8BD114693
:1023D000FEF7B4B82DE9F0478E681D46AE420C46B4
:1023E0000B68174636D88046888910F4906F0ED156
:1023F000354618462A46394600F09AFFA2682368F7
:10240000961B2B44A66023600020BDE8F087D1E92D
:10241000041606EB4606A3EB010906EBD6766B1C09
:1024200076104B44B342324684BF1E4632464305C3
:1024300012D511464046FEF781F8824600B34A465F
:102440002169FDF73BFFA38923F4906343F08003E8
:10245000A38106E02E46CCE74046FFF795FF824673
:1024600050B1A6EB09020AEB09036661C4F810A09B
:102470002360A2602E46BCE721694046FEF708F8BB
:102480000C23C8F80030A38943F04003A3814FF028
:10249000FF30BAE72DE9F04F936883B09046002BE8
:1024A0006DD017688D6882460C460868083743E08F
:1024B000A38913F4906F2ED0D4E9041505EB4505DC
:1024C000A0EB010B05EBD5750BEB06006D10013091
:1024D000A8422A4684BF05462A465B0536D51146E2
:1024E0005046FEF72BF800283AD05A462169019051
:1024F000FDF7E4FEA289019B22F4906242F0800283
:10250000A281A5EB0B0203EB0B0065612361206048
:10251000A2603546B3465A46494600F009FFD8F84E
:102520000830A2682068551B58449E1BA560206097
:10253000C8F808601EB3083757E90296AB46002E6C
:10254000F9D0AE42B4D23546B346E4E75046FFF781
:102550001BFF03460028D4D121695046FDF798FFA0
:102560000C23CAF80030A389002243F040034FF047
:10257000FF30A381C8E9012203B0BDE8F08F00203D
:10258000C8F8040003B0BDE8F08F00BF2DE9F04F9C
:1025900090468A899FB014068B46029003D50A693B
:1025A000002A00F00B81059330238DF8323098F823
:1025B00000308E4E002120220B918DF83120012712
:1025C000002B00F08480252B00F0F680454603E0C8
:1025D000252B00F0868025466B786C1C002BF7D1EC
:1025E000B4EB080A73D04246534659460298FFF7A7
:1025F000F1FE01306BD00B9B6A7853440B93002A99
:1026000065D000234FF0FF3201340693CDE9083343
:102610008DF85B301C93079205E0069A07FA03F3E6
:1026200013432C4606932546052215F8011B304618
:1026300000F02EFEAA46831B0028EED1069BD90689
:1026400044BF20228DF85B2021781A0744BF2B223B
:102650008DF85B202A2948D1059A11680432002997
:1026600005927EDB09916178A51C2E2956D0604C1D
:102670000322204600F00CFE002868D0001B069BB9
:10268000402404FA00F00343069305F10108297879
:1026900058488DF83010062200F0FAFD002866D068
:1026A000554B002B56D005AB00935A46534B02981E
:1026B00006A9AFF300808146B9F1FF3F07D00B9B1D
:1026C0004B440B9398F80030002B7FF47CAFBBF8A1
:1026D0000C305B0654BF0B984FF0FF301FB0BDE8C5
:1026E000F08FB4EB080A8CD07DE7A1F13002092A03
:1026F00088BFA246B9D8099B01E02C46013529784C
:1027000003EB830302EB4303A1F13002092AAA463B
:10271000F3D92E2904F102050993A8D19AF80110E2
:102720002A292ED1059B9AF802101A6807920433C1
:10273000002A05930AF103050AF1020337DB2C4C4A
:10274000032220469A4600F0A3FD002896D1A84611
:1027500055469CE7059B073323F007030833059391
:10276000ADE7494243F00203099106937BE705ABCD
:1027700000935A46214B029806A900F089FA814637
:102780009AE7A1F130020023092A079301D923E037
:102790005546697803EB830302EB4303A1F1300252
:1027A000092A05F1010AF3D9023507935FE74FF0D3
:1027B000FF329A4607925AE7444622E740210393A4
:1027C000FDF7BCFE039BCBF80000CBF8100030B146
:1027D0004022CBF81420E6E6AA46013547E7029AE4
:1027E0000C2313604FF0FF3078E700BF90330108EF
:1027F000983301089C33010800000000D52300082D
:102800009368013B002B936011DA10B49469A342E2
:1028100009DB0A2907D01368581C10601970084694
:102820005DF8044B70475DF8044BFDF771BF13680A
:10283000581C106019700846704700BF9BB1F8B56E
:1028400013440F4606465D1E541E01E0AC4208D0FC
:102850003A4614F8011F3046FFF7D2FF431CF5D16A
:10286000F8BD0020F8BD0020704700BF936810B588
:10287000144613B95360184610BD00F07FFB0023C7
:10288000C4E9013310BD00BF2DE9F04F9FB08B4666
:1028900090461C46039018B18369002B00F0B78066
:1028A000A24B9B4500F0B980A14B9B4500F0C7802F
:1028B000A04B9B4504BF039BD3F80CB0BBF80C3076
:1028C000180740F1B280DBF81030002B00F0AD802B
:1028D00030238DF8323098F8003005940021202202
:1028E0000B918DF83120944E0127002B00F087804A
:1028F000252B00F01581454603E0252B00F0A38031
:1029000025466B786C1C002BF7D1B4EB080A76D007
:102910004246534659460398FFF790FF01306ED068
:102920000B9B6A7853440B93002A68D000234FF026
:10293000FF3201340693CDE908338DF85B301C93E8
:10294000079205E0069A07FA03F313432C46069311
:102950002546052215F8011B304600F099FCAA46D1
:10296000831B0028EED1069BD90644BF20228DF898
:102970005B2021781A0744BF2B228DF85B202A297F
:1029800066D1059A1168043200290592C0F29D8033
:1029900009916178A51C2E2973D0684C032220462A
:1029A00000F076FC002800F08680001B069B402487
:1029B00004FA00F00343069305F101082978604802
:1029C0008DF83010062200F063FC002800F08380B0
:1029D0005C4B002B72D005AB00935A465A4B0398C0
:1029E00006A9AFF300808146B9F1FF3F07D00B9BEA
:1029F0004B440B9398F80030002B7FF479AFBBF871
:102A00000C305B0618D40B981FB0BDE8F08FFEF7B2
:102A10001FF9464B9B457FF447AF039BD3F804B0A7
:102A2000BBF80C3018073FF54EAF59460398FDF739
:102A3000CFFE00283FF44CAF4FF0FF30E4E7039B9C
:102A4000D3F808B03AE7B4EB080A3FF46FAF5FE79A
:102A5000A1F13002092A88BFA2469CD8099B01E057
:102A60002C460135297803EB830302EB4303A1F1E4
:102A70003002092AAA46F3D92E2904F10205099346
:102A80008BD19AF801102A292FD1059B9AF80210B0
:102A90001A6807920433002A05930AF103050AF124
:102AA000020338DB254C032220469A4600F0F0FB57
:102AB00000287FF47AAFA84655467FE7059B073389
:102AC00023F007030833059391E7494243F00203DB
:102AD000099106935DE705AB00935A461A4B03989C
:102AE00006A900F0D5F881467EE7A1F13002002367
:102AF000092A079301D915E05546697803EB83034A
:102B000002EB4303A1F13002092A05F1010AF3D9CE
:102B10000235079341E74FF0FF329A4607923CE7B0
:102B2000444603E7AA46013537E700BFCC28010831
:102B3000AC2801088C28010890330108983301085B
:102B40009C330108000000003D28000810B4044C2C
:102B500013460A46014620685DF8044BFFF794BE11
:102B6000000000202DE9F0470C4691460A6989686B
:102B7000DDF820808A42B8BF0A46C9F8002094F8E0
:102B8000431006461F4611B10132C9F800202368E0
:102B900099065CD5D9F800200232C9F800202368D4
:102BA00013F0060F19461DD1E1688A1A002AD8BF12
:102BB000194617DD04F1190A002505E0E368D9F884
:102BC00000209B1AAB420CDD0123524639463046A9
:102BD000C047013005F10105F0D14FF0FF30BDE8ED
:102BE000F087216894F84330003318BF01238A0628
:102BF0000AD5E1185A1C302081F84300224494F889
:102C0000451082F84310023304F14302394630463E
:102C1000C0470130E1D02368A268216903F00603B0
:102C2000042B1DD08A4226DD4FF00009521A914430
:102C30001A34002501E04D451DDA012322463946AC
:102C40003046C047013005F10105F4D1C5E713F066
:102C5000060F13D094F84330003318BF0123D3E795
:102C6000D9F80000E3688A42A3EB000323EAE37982
:102C7000DCDC002BDCDC0020BDE8F087E168D9F863
:102C800000208A1A002AD8BF194693DCAAE700BFA1
:102C90002DE9F0430C46097E85B06E29064617469D
:102CA0000C98984604F1430E6DD039D9732900F081
:102CB000F68044D9752900F00481782940F011810B
:102CC00078232268DFF858C284F845300168150679
:102CD00051F8043B016040F1A180D10744BF42F0AC
:102CE00020022260002B00F093801022002184F843
:102CF00043106068A0600028C0F2C880216821F0FD
:102D000004012160002B40F0A380002840F0C08027
:102D10007546082A00F0AC80AEEB0503236141E064
:102D2000632900F0E5801AD8002938D0582940F0EE
:102D3000D88084F845102268DFF8E8C1C6E76F291B
:102D400000F0BF80702940F0CC802268DFF8D0C14D
:102D500042F020027823226084F84530B6E76429E7
:102D600002D0692940F0BD8022680368110603F192
:102D7000040557D5196805600B46002959DBDFF8B3
:102D8000A4C10A22B5E70368226861691D1D0560B8
:102D900015061B6802D4500600F1BD80196000239F
:102DA00075462361CDF800803B4603AA2146304694
:102DB000FFF7D8FE013020D02A4623693946304635
:102DC000C047013019D022680398E368920719D5EB
:102DD0001A1A002A16DD04F11909002504E0E36837
:102DE00003981A1AAA420DDD01234A463946304695
:102DF000C047013005F10105F1D14FF0FF3005B0BA
:102E0000BDE8F0839842B8BF184605B0BDE8F0832E
:102E1000226822F020022260102267E7500648BF95
:102E20009BB25AE75106A5D5B3F9003005601946A3
:102E3000A3E76168A1602D200029C3F1000384F895
:102E4000430002DB22F004022260DFF8D8C00A222D
:102E5000754600E00B46B3FBF2F102FB11309342E2
:102E60001CF8000005F8010DF4D2082A7FF454AFD5
:102E70002368DB077FF550AF626823699A423FF70A
:102E80004BAF302305F8013C013D45E7002BDFD176
:102E90009CF8003084F8423004F1420539E70368B9
:102EA0006268191D01601D680021284600F0F0F9D4
:102EB000002832D0401B60602061002384F843303A
:102EC00070E72268036812F0800F03F104051AD03E
:102ED0001B6805606F290CBF08220A22DFF844C076
:102EE00004E7012384F84210236104F14205E4E77A
:102EF00003681A68191D0123016004F1420584F872
:102F000042202361D9E712F0400F0DBF1B68056016
:102F10001B880560DEE7198041E76068CCE700BFE9
:102F2000B8330108A4330108C9B10278CAB1431CFF
:102F3000014499421A4616D010B41478013334B1C2
:102F400099421A4607D014780133002CF8D1101A90
:102F50005DF8044B7047081A5DF8044B704708464B
:102F6000704710467047081A704700BF08B5062022
:102F700000F0D4FA012001F0C7FE00BF9368002BD7
:102F800000F002812DE9F04FB1F90C309BB20C46F4
:102F9000190783B08246904635D522699AB313F05B
:102FA0000202D8F800603DD00027D4F828B0D4F849
:102FB00020C0DFF8CC923D464D452B463A4628BF0F
:102FC0004B4661465046D5B1D847002840F3D280E1
:102FD000D8F808301B1A07442D1AC8F80830002BFF
:102FE00000F0B780D4F820C0D4F828B04D452B4667
:102FF0003A4628BF4B4661465046002DE4D1D6E9FB
:1030000000750836D8E721465046FDF7E1FB002859
:1030100040F03081B4F90C30D8F800609BB213F066
:103020000202C1D113F0010940F0B080A768206806
:103030004D46002D54D09A0540F1BC80AF42BB46AE
:1030400000F2E78013F4906F2FD0D4E9041707EB58
:103050004707A0EB010B07EBD777681C7F1058449C
:10306000B8423A4684BF07463A465B0540F1E980DC
:1030700011465046FDF762FA002800F0F5805A46E6
:1030800021690190FDF71AF9A289019B22F490624F
:1030900042F08002A281A7EB0B0203EB0B006761F9
:1030A00023612060A2602F46AB465A46494600F095
:1030B0003FF9A2682368D21B5B442F46A2602360BD
:1030C0000025D8F80830DB1BB944C8F80830002BBD
:1030D0003FD0B4F90C30A76820689BB2002DAAD16C
:1030E000D6E900950836A4E70BF1080353E9026717
:1030F0009B460833002FF9D03A460A21304600F0AB
:10310000C7F8002853D00130A0EB06094B46D4E99C
:1031100004122068BB4228BF3B46884203D9A568F9
:103120001544AB4219DC9A427DDC1346A56A216A3C
:1031300032465046A847051E1CDDB9EB05096BD089
:103140000120D8F808305B1B2E447F1BC8F80830DC
:1031500013BB002003B0BDE8F08F31462A4600F0D3
:10316000E7F823682B44236021465046FDF746FCD0
:103170000028E2D0B4F90C3043F040034FF0FF30A8
:10318000A38103B0BDE8F08F00207047334691461D
:10319000104617464E469B46002FA5D00028B5D1B5
:1031A0003A460A21304600F073F80028ABD17B1C68
:1031B0009946ACE72369834215D36169A94212D8C5
:1031C0002E4BA76A9D4294BF2B466FF000434A46A0
:1031D00093FBF1F3504601FB03F3216AB847071E46
:1031E000C8DDED1B6DE7AF4228BF2F463A46494682
:1031F00000F09EF8A3682268DB1B3A44A3602260BB
:10320000002BEED121465046FDF7F8FB0028E8D010
:10321000B0E72F46AB4648E721465046FDF7EEFBA8
:1032200000288ED0A6E71A463146019300F080F8B8
:10323000019BA1682268C91A1A44A16022601D4638
:103240007BE75046FFF7A0F8034600287FF423AF42
:1032500021695046FDF71CF9B4F90C300C2223F01B
:103260008003CAF8002087E70C23CAF80030B4F9BD
:103270000C3081E74FF0FF306CE700BFFEFFFF7FAF
:1032800000FCFF7F000000000000000000000000C4
:1032900001F0FF01102A2BDB10F0070F08D010F807
:1032A000013B013A8B422DD010F0070F42B3F6D10B
:1032B000F0B441EA012141EA014122F007047FF024
:1032C00000070023F0E80256083C85EA010586EA7B
:1032D000010685FA47F5A3FA87F586FA47F6A5FAB7
:1032E00087F68EB9EED1F0BC01F0FF0102F00702C3
:1032F00032B110F8013B013A83EA010313B1F8D16E
:103300000020704701387047002D06BF354603384E
:10331000073815F0010F07D1013015F4807F02BF87
:10332000013015F4C03F0130F0BC0138704700BFD8
:103330008842F0B40DD98B1883420AD9841832B16F
:10334000224613F8014D02F8014D9942F9D1F0BC23
:1033500070470F2A0ED80346541E002AF7D00134B6
:103360000C44013B11F8012B03F8012FA142F9D1C4
:10337000F0BC704740EA01039B073BD1A2F1100764
:103380003F0901F1200606EB071601F1100300F1D9
:10339000100453F8105C44F8105C53F80C5C44F8CB
:1033A0000C5C53F8085C44F8085C53F8045C44F87F
:1033B000045C1033B34204F11004EAD17B1C1B01FE
:1033C00012F00C0F194402F00F05034415D0043D10
:1033D000AD0803EB850C1C1F0E4656F8047B44F821
:1033E000047F6445F9D10135AD002B44294402F036
:1033F0000302B1E7541E0346B1E72A46ACE700BF1B
:1034000051F8043C181F002BBCBF0B58C018704764
:1034100010B580210446FDF791F8606440B1031FA8
:1034200000227C3043F8042F8342FBD1002010BDE2
:103430004FF0FF3010BD00BF436C0BB10020704750
:10344000E6E700BF1F2970B5054608D8436C16464D
:103450000C464BB153F8240043F8246070BD16228B
:1034600002604FF0FF3070BDFFF7D2FF08B96B6C00
:10347000F0E74FF0FF3070BD1F2938B521D8426CFE
:1034800005460C466AB152F8213053B1012B16D0D3
:10349000591C10D00025204642F824509847284651
:1034A00038BD284600F070F8224601462846BDE89F
:1034B000384000F055B816230360012038BD0020C5
:1034C00038BD162303604FF0FF3038BD1F2921D8C7
:1034D00038B5436C05460C4683B153F8242003EB02
:1034E00084034AB1511C10D0012A0CD0002520467B
:1034F0001D609047284638BD012038BDFFF788FF82
:1035000028B96B6CE9E7032038BD022038BD4FF0C5
:10351000FF3038BD4FF0FF30704700BF024B01460F
:103520001868FFF7A9BF00BF00000020024B0A4641
:1035300001461868FFF786BF00000020034B18689B
:10354000436C0BB10020704762E700BF0000002011
:10355000024B01461868FFF7B9BF00BF000000200A
:1035600038B50B46074C0546114618460023236024
:1035700001F0C2FB431C00D038BD2368002BFBD0F8
:103580002B6038BD88CD002001F0B4BB00B583B0FE
:103590001C4B01931C4B00931C4B1D4A1D490120E1
:1035A00007F072F81C4BC3F8B000C8B91A4B93F877
:1035B000B830022B03D0184B002283F8B820164BEA
:1035C00093F8B92042F0010283F8B92093F8AC20B7
:1035D00022F0010283F8AC20012003B05DF804FB67
:1035E000012283F8B82093F8B92022F0010283F871
:1035F000B92093F8AC2042F0010283F8AC200020FF
:10360000EBE700BF4194000803940008F59300081D
:10361000DD930008B8CC00200890002000B587B0EA
:1036200001A806F0E7FB1B4B01931B4B02931B4BBE
:1036300003931B4B049301A806F0EAFBC0B1194B9E
:1036400093F8B830022B03D0164B002283F8B82031
:10365000144B93F8B92042F0020283F8B92093F892
:10366000AC2022F0020283F8AC2007B05DF804FB26
:103670000C4B012283F8B82093F8B92022F0020203
:1036800083F8B92093F8AC2042F0020283F8AC2012
:10369000EBE700BF6D92000891920008B19200081C
:1036A000F19200080890002010B51F4C05232367F5
:1036B0001420FCF7F3FDA06607F0E0FD02461B4B6B
:1036C00004F14C0104F1540006F058FBC4F8B400B6
:1036D000012817D0144B93F8B830022B03D0124BAB
:1036E000002283F8B820104B93F8B92042F0100262
:1036F00083F8B92093F8AC2022F0100283F8AC20B4
:10370000012010BD012284F8B82094F8B92022F0DD
:10371000100284F8B92094F8AC2042F0100284F82A
:10372000AC200020EDE700BF08900020FC29010834
:1037300010B51B4B93F8B93013F0100F06D1184B8E
:1037400093F8B93013F0080F14D110BD154C214671
:1037500004F1080006F0E4F9A06694F86D3023F057
:10376000100384F86D3094F8603023F0100384F86F
:103770006030E4E70B4C204606F042F8A0660422D5
:1037800084F86C2094F86D2022F0080284F86D20F3
:1037900094F8602022F0080284F86020D5E700BF8A
:1037A000089000205490002010B5244B93F8B930B5
:1037B00013F0100F28D1214B93F8B93013F0080FF4
:1037C00025D11F4C23461F4A1F4904F1380006F03B
:1037D00099FAC4F8A000E8B9184B93F8B830022B56
:1037E00003D0164B002283F8B820144B93F8B9206D
:1037F00042F0080283F8B92093F8AC2022F00802C6
:1038000083F8AC20012010BDFFF792FFD3E7FFF74C
:103810008FFFD6E7A4F11403012283F8B82093F8B0
:10382000B92022F0080283F8B92093F8AC2042F0C6
:10383000080283F8AC200020E5E700BF08900020D4
:103840001C9000205C3301080C2A010810B5FFF71A
:103850006FFF0B4C204606F023FAC4F8A0000022AC
:1038600084F8A42094F8A52022F0040284F8A5206E
:1038700094F8982022F0040284F8982010BD00BF2C
:103880001C90002010B51E4B93F8B93013F0040FB4
:1038900022D11B4C23460022114604F1140006F0ED
:1038A000B1F9C4F8B400D0B9154B93F8B830022B75
:1038B00003D0134B002283F8B820114B93F8B920A2
:1038C00042F0040283F8B92093F8AC2022F00402FD
:1038D00083F8AC20012010BDFFF7B8FFD9E7022222
:1038E00084F8B82094F8B92022F0040284F8B920B2
:1038F00094F8AC2042F0040284F8AC200020EAE7FF
:103900000890002030B587B0FFF740FE08B907B037
:1039100030BDFFF783FE0028F9D0684606F098FA1C
:103920000E4D6C460FCC0FC523682B60FFF7AAFF26
:1039300068B90A4B93F8B93013F0040FE7D1074B7D
:10394000022283F8B820642005F002F8EEE7FFF7C2
:103950002BFF0028DBD0FFF7A7FED8E70890002058
:1039600070B50646274B1A6FDA6643E094F8AC2030
:1039700042F0200284F8AC20022284F8B820FFF73D
:10398000C1FF01350B2D2FDC1F49EC2202FB05F294
:103990008B188A5C07EE902A1A4CA26EF8EE677AB2
:1039A000C2ED007AA26E196E5160A26E596E9160DE
:1039B000A26E996ED160A26EDB6E1361002204F1DB
:1039C000580104F1540006F0F9F8C4F8B4000028D6
:1039D000CCD10C4B032283F8B820D2E7094B02224A
:1039E00083F8B820FFF78EFF0848FCF777FE3046D3
:1039F00004F0AEFF034B93F8B9301F2BEED1002536
:103A0000C0E700BF08900020C8900020182A0108D5
:103A10002DE9F04107460C4615461E46DFF8608149
:103A200000224FF40051404602F0BCF900224FF44E
:103A30008051404602F0B6F900224FF480414046E2
:103A400002F0B0F900224FF40041404602F0AAF91A
:103A5000F81E032826D8DFE800F002274B6F00226B
:103A60004FF40051464802F09DF9002714E0DFF8BA
:103A7000108101224FF40051404602F093F928468C
:103A800004F066FF00224FF40051404602F08AF92C
:103A9000304604F05DFF0137A742E8DB4FF47A704F
:103AA00004F056FFBDE8F08100224FF48051344805
:103AB00002F078F9002714E0DFF8C48001224FF407
:103AC0008051404602F06EF9284604F041FF002282
:103AD0004FF48051404602F065F9304604F038FF5B
:103AE0000137A742E8DB4FF47A7004F031FFD9E7E1
:103AF00000224FF48041224802F054F9002714E0DC
:103B0000DFF87C8001224FF48041404602F04AF900
:103B1000284604F01DFF00224FF48041404602F089
:103B200041F9304604F014FF0137A742E8DB4FF4B7
:103B30007A7004F00DFFB5E700224FF40041104801
:103B400002F030F9002714E0DFF8348001224FF44E
:103B50000041404602F026F9284604F0F9FE002212
:103B60004FF40041404602F01DF9304604F0F0FEEB
:103B70000137A742E8DB4FF47A7004F0E9FE91E7E1
:103B8000000C024038B576E2C8231A460121032012
:103B9000FFF73EFF2EE0C8231A4602210320FFF75D
:103BA00037FF27E0C8231A4603210846FFF730FFF6
:103BB00020E0C8231A4604210320FFF729FF19E05B
:103BC000C8231A4605210320FFF722FF12E0B84C54
:103BD00000224FF40051204602F0E4F8642004F083
:103BE000B7FE01224FF40051204602F0DBF86420BA
:103BF00004F0AEFEAF4B93F82030DBB2052B1CD0A7
:103C0000AB4C00224FF48041204602F0CBF86420F8
:103C100004F09EFE01224FF48041204602F0C2F8DB
:103C2000642004F095FEA34B93F82030DBB2052B03
:103C300000F00E820024214646E19D4C00224FF404
:103C40000051204602F0AEF800224FF48051204689
:103C500002F0A8F800224FF48041204602F0A2F8BA
:103C600000224FF40041204602F09CF84FF4FA7015
:103C700004F06EFE8F4B5B6A13F0010F40F08580FD
:103C80008C4B5B6A13F0020F40F08680894B5B6AB5
:103C900013F4001F40F08780864B5B6A13F0040F1B
:103CA00040F08880834B5B6A13F0080F40F08980F6
:103CB000804B5B6A13F0100F40F08A807D4B5B6A8B
:103CC00013F0200F40F08B807A4B5B6A13F0400FAB
:103CD00040F08C80774B5B6A13F0800F40F08D8052
:103CE000744B5B6A13F4807F40F08E80714B5B6A8B
:103CF00013F4007F40F08F806E4B5B6A13F4806F8B
:103D000040F090806B4B5B6A13F4006F40F0918041
:103D1000684B5B6A13F4805F40F09280654B5B6A8E
:103D200013F4005F40F09380624B5B6A13F4804FA2
:103D300040F094805F4B5B6A13F4004F40F0958035
:103D40005C4B5B6A13F4803F40F09680594B5B6A92
:103D500013F4003F40F09780564B5B6A13F4802FBA
:103D600040F09880534B5B6A13F4002F40F0998029
:103D7000504B5B6A13F4801F3FF455AFC8231A46BB
:103D800016210520FFF744FE4DE7C8231A460121FE
:103D90000520FFF73DFE46E7C8231A46022105200D
:103DA000FFF736FE3FE7C8231A4603210520FFF739
:103DB0002FFE38E7C8231A4604210520FFF728FE06
:103DC00031E7C8231A4605210846FFF721FE2AE7F6
:103DD000C8231A4606210520FFF71AFE23E7C82349
:103DE0001A4607210520FFF713FE1CE7C8231A46D1
:103DF00008210520FFF70CFE15E7C8231A46092104
:103E00000520FFF705FE0EE7C8231A460A21052004
:103E1000FFF7FEFD07E7C8231A460B210520FFF731
:103E2000F7FD00E7C8231A460C210520FFF7F0FD37
:103E3000F9E6C8231A460D210520FFF7E9FDF2E651
:103E4000C8231A460E210520FFF7E2FDEBE6C82342
:103E50001A460F210520FFF7DBFDE4E6C8231A46CA
:103E600010210520FFF7D4FDDDE6C8231A461121F5
:103E70000520FFF7CDFDD6E6C8231A4612210520FE
:103E8000FFF7C6FDCFE6C8231A4613210520FFF72A
:103E9000BFFDC8E6C8231A4614210520FFF7B8FD68
:103EA000C1E6C8231A4615210520FFF7B1FDBAE681
:103EB000000C024024CB0020C8231A460121062012
:103EC000FFF7A6FD012101340B2C00F3AD808C4AD5
:103ED000EC2303FB042393F8703013F0010FF2D0AE
:103EE000EC2303FB042393F87130032BEBD1854DB6
:103EF00000224FF40051284601F054FF00224FF4F5
:103F00008051284601F04EFF00224FF480412846A0
:103F100001F048FF00224FF40041284601F042FF23
:103F20004FF4FA7004F014FDC8234FF44872611C7A
:103F30000620FFF76DFD724AEC2303FB0423B3F860
:103F4000723013F0010FB7D113F0020F1CD113F030
:103F5000040F21D113F0080F26D113F0100F2BD12D
:103F600013F0200F30D113F0400F35D113F0800F34
:103F70003AD113F4807F3FD113F4007F44D113F47E
:103F8000806F49D101219EE7C8231A4602210620ED
:103F9000FFF73EFD012196E7C8231A4603210620BC
:103FA000FFF736FD01218EE7C8231A4604210620BB
:103FB000FFF72EFD012186E7C8231A4605210620BA
:103FC000FFF726FD01217EE7C8231A460621084691
:103FD000FFF71EFD012176E7C8231A4607210620B8
:103FE000FFF716FD01216EE7C8231A4608210620B7
:103FF000FFF70EFD012166E7C8231A4609210620B6
:10400000FFF706FD01215EE7C8231A460A210620B4
:10401000FFF7FEFC012156E7C8231A460B210620B4
:10402000FFF7F6FC01214EE791B9364C00224FF420
:104030000041204601F0B6FE642004F089FC012214
:104040004FF40041204601F0ADFE642004F080FCF6
:104050002C4C00224FF48051204601F0A3FE642036
:1040600004F076FC01224FF48051204601F09AFEC4
:10407000642004F06DFC244B93F8B830032B3FF41C
:10408000A6AD204C00224FF40051204601F08AFEDC
:1040900000224FF48051204601F084FE00224FF4AC
:1040A0008041204601F07EFE00224FF40041204670
:1040B00001F078FE4FF4FA7004F04AFC124B93F8CA
:1040C000AC3013F0010F7FF45FAD13F0020F7FF4FB
:1040D00062AD13F0040F7FF465AD13F0080F7FF4A9
:1040E00068AD13F0100F7FF46BAD13F0200F3FF4A9
:1040F00081ADC8231A4606210320FFF789FC79E524
:10410000C8900020000C02400890002010B4094A1A
:10411000EC2303FB00F01318012483F871400724FB
:10412000A3F872401154012283F870205DF8044B0B
:10413000704700BFC8900020F1EE407A1C4AEC2383
:1041400003FB0023C3ED017A83ED020AF1EE607AEE
:10415000C3ED037AC3ED040A00225A6183ED061A07
:10416000DA61C3ED081AF1EE427AC3ED097A83ED04
:104170000A2ADA62C3ED0C2A93F8701041F00201AA
:1041800083F87010B3F8722022F0020292B2A3F802
:1041900072200F2900D07047054BEC2101FB003045
:1041A00022F00102A0F87220002380F87130F2E7BB
:1041B000C8900020154AEC2303FB002383ED0E0A70
:1041C000C3ED0D0A83ED101AB1EE411A83ED0F1AFB
:1041D000C3ED121AF1EE611AC3ED111A93F87020B3
:1041E00042F0040283F870200F2A00D07047074B7A
:1041F000EC2202FB0030B0F8723023F00103A0F88B
:104200007230002380F87130F0E700BFC8900020C2
:104210002DE9F04106460846DFF8CC80EC2707FB85
:1042200006F708EB070461670025C4F8B4500123C2
:10423000C4F8B830C4F89C50C4F8A05040F6FF72DF
:10424000C4F8A420C4F8A850C4F8AC50C4F8BC30DA
:1042500007F198014144043100F052FE18F807308C
:10426000C4F8CC30C4F8D4500823C4F8DC30C4F807
:10427000D850636F5B6A012B19D01B4AEC2303FBF8
:10428000062393F8702042F0080283F87020B3F8F8
:10429000722022F00402A3F87220134AEC2303FBDD
:1042A000062393F870300F2B11D0BDE8F08194F8FD
:1042B000702022F0080284F87020B4F8722042F0D6
:1042C0000402A4F87220012284F87120E5E7EC23AF
:1042D00003FB0626B6F8723023F00103A6F872300D
:1042E000002386F87130E0E7C8900020054BEC22EF
:1042F00002FB0030B0F8723031EA03030CBF01203A
:1043000000207047C890002007EE900AF8EEE77A88
:1043100027EE807A01238B40013B07EE903AF8EEBE
:10432000E77AC7EE276A36EE800A704770B51A4BF7
:10433000EC2404FB003494F8790094F87A2094F883
:104340007B1094F87C301E0946EA01161D0205F424
:10435000706594F87D301D431021D4ED020A94ED70
:10436000010A42EA0020FFF7CFFF84ED180A0C2172
:10437000D4ED040A94ED030A3046FFF7C5FF84ED3F
:10438000190A0C21D4ED0A0A94ED090A2846FFF710
:10439000BBFF84ED1A0A70BDC890002030B583B011
:1043A0000446EC2000FB04F505F1C0023A48024443
:1043B00005F1E003034405F1C80101442844043336
:1043C00004320431406F00F061FE70B13248EC23DA
:1043D00003FB0404B4F8723043F00403A4F8723011
:1043E000032384F8713003B030BD05F180012A4AFF
:1043F00050196B460A440021406F00F0BDFE28B9F9
:104400009DF80020244B1B789A421DD0224AEC23B1
:1044100003FB04235B6F5B6A012BE4D01346EC22A1
:1044200002FB043292F8E8300133DBB282F8E83064
:10443000052BD8D9B2F8723043F00803A2F87230D5
:10444000032382F87130CEE7134BEC2505FB0435CE
:1044500002AB13E90300A867A5F87C102046FFF71C
:1044600065FF002385F8E830B5F8723023F00803C3
:104470009BB223F00403A5F8723095F87130022B3B
:10448000B1D001212046FFF731FF0028ABD1002336
:1044900085F87130A7E700BFC890002038B5044602
:1044A0006021FFF723FF00B138BD144BEC2505FB5D
:1044B0000435134A05F1C40392E8030083E80300BE
:1044C0002046FFF76BFF95F8E8304BB9B5F872302E
:1044D00023F08003A5F87230022385F87130E3E7FA
:1044E0000648EC2303FB0400B0F8723043F080036D
:1044F000A0F87230032380F87130D5E7C89000200F
:104500006400002008B50268034B9A4200D008BD41
:1045100001F022FFFBE700BF0000014072B6FEE79A
:1045200000B595B03022002108A8FBF761FF0023F9
:10453000039304930593069307930193214A116C07
:1045400041F080511164126C02F080520192019A84
:1045500002931D4B1A6842F480421A601B6803F4F0
:1045600080430293029B012308934FF48033099305
:1045700002230E934FF480020F92082210924FF400
:10458000A872119212930723139308A800F0CAFF90
:1045900098B90F23039302230493002305934FF448
:1045A000A05306934FF480530793052103A801F00D
:1045B0001BFA20B915B05DF804FBFFF7AFFFFFF75A
:1045C000ADFF00BF003802400070004008B501F0A8
:1045D000A9FEFFF7A5FF00F019F800F0CBF900F0F5
:1045E000EBF900F041FA00F097FA00F031FB00F02F
:1045F00069F9054800F01CFD04F01EF900F038F9D7
:1046000004F02CF9FEE700BF24CB00202DE9F04F89
:104610008DB000240794089409940A940B94019493
:104620006C4B1A6B42F010021A631A6B02F0100204
:104630000192019A02941A6B42F004021A631A6BF7
:1046400002F004020292029A03941A6B42F0800272
:104650001A631A6B02F080020392039A04941A6B95
:1046600042F001021A631A6B02F001020492049AEA
:1046700005941A6B42F002021A631A6B02F00202EE
:104680000592059A06941A6B42F008021A631B6B96
:1046900003F008030693069BDFF8449122460821A5
:1046A000484601F07FFBDFF83C810122114640467D
:1046B00001F078FBDFF830A122464FF2100150469E
:1046C00001F070FB082507950126089609940A94C5
:1046D00007A9484601F07CFA0796089609940A94BF
:1046E00007A9404601F074FA079502250895099438
:1046F0000A944FF0050BCDF82CB007A9404601F005
:1047000067FA07964FF4901308930994324F07A95C
:10471000384601F05DFA10230793089509940A942E
:1047200006230B9307A9384601F052FA0423079396
:104730000894099407A9294801F04AFA4FF48063C4
:104740000793089509940A94CDF82CB007A923483B
:1047500001F03EFA4FF210030793089609940A9469
:1047600007A9504601F034FA4FF4A4530793089573
:1047700009940A9406230B9307A9404601F028FAEE
:104780004FF4007307930894099407A9384601F081
:104790001FFA4FF4E0530793089509940A940A23EB
:1047A0000B9307A9384601F013FA202307930894C6
:1047B000099407A9504601F00BFA07954FF490139E
:1047C0000893099407A9484601F002FA0DB0BDE824
:1047D000F08F00BF00380240000002400004024099
:1047E0000010024000080240000C024008B5FFF72C
:1047F00089F80220FFF7B4F808BD08B5FFF7C2F941
:1048000008BD000008B501210020FFF77FFCDFEDA7
:10481000132AB3EE022AF1EE041A9FED111ADFED0E
:10482000110AB2EE090A0020FFF786FCF2EE0E1A1A
:10483000B0EE081AFFEE000A9FED0B0A0020FFF70A
:10484000B9FC002209491046FFF7E2FC0020FFF7FF
:1048500025FE0A2004F07CF8F8E700BF00002042A3
:104860000000FA43000070429A99993F24CB00203F
:1048700008B50B4A00210B4804F00CF80A4B1860ED
:104880000A4A00210A4804F005F80A4B18600A4A4F
:1048900000210A4803F0FEFF094B186008BD00BF65
:1048A000702A0108ED470008D89B0020942A0108CF
:1048B000FB4700081CCB00204C2A010805480008D3
:1048C00020CB002008B50D480D4B03600323436047
:1048D00000238360C3604FF4A02202614FF4C00242
:1048E0004261037643768376C3760377437700F09D
:1048F00061FA00B908BDFFF711FEFBE724CB0020E9
:104900000064004000B589B000230393049305932D
:10491000069307930268154B9A4202D009B05DF8DE
:1049200004FB0022019203F5EA33196C41F0007197
:104930001964196C01F00071019101990292196BCF
:1049400041F0080119631B6B03F008030293029BFB
:1049500003230393022104910592069309230793ED
:1049600003A9034801F034F9D8E700BF0064004010
:10497000000C024010B582B0002401940D4B1A6B5C
:1049800042F400121A631B6B03F400130193019BA2
:1049900022460521102001F083FC102001F0B4FC18
:1049A00022460521112001F07BFC112001F0ACFC16
:1049B00002B010BD0038024008B50B480B4B036035
:1049C0000B4B436000238360C3604FF4804202615D
:1049D00043618361C361036201F0D0FC00B908BD8B
:1049E000FFF79CFDFBE700BF4CCB002000540040CC
:1049F000A086010030B589B000230393049305938A
:104A0000069307930268154B9A4201D009B030BD56
:104A100000250195124C236B43F002032363236BA3
:104A200003F002030193019B4FF4107303931223CD
:104A300004930123059306950423079303A90948CA
:104A400001F0C6F80295236C43F400132364236C31
:104A500003F400130293029BD8E700BF0054004008
:104A6000003802400004024008B50D480D4B0360B9
:104A70004FF48273436000238360C360036143612A
:104A80004FF400728261C3610362436283620A234E
:104A9000C36201F051FD00B908BDFFF73FFDFBE720
:104AA000A0CB00200030014000B589B00023039363
:104AB00004930593069307930268154B9A4202D01C
:104AC00009B05DF804FB0022019203F58433596CB0
:104AD00041F480515964596C01F48051019101995C
:104AE0000292196B41F0010119631B6B03F0010382
:104AF0000293029BE0230393022304930592069200
:104B00000523079303A9034801F062F8D8E700BF23
:104B1000003001400000024008B50A480A4B03601B
:104B20004FF46123436000238360C36003610C2260
:104B300042618361C36101F0F3FF00B908BDFFF773
:104B4000EDFCFBE7B8CC00200044004030B589B054
:104B50000023039304930593069307930268364B4F
:104B60009A4201D009B030BD04460025019503F5F5
:104B7000FA331A6C42F400321A641A6C02F40032EE
:104B80000192019A02951A6B42F001021A631B6BA3
:104B900003F001030293029B0C230393022304936B
:104BA0000595032306930723079303A9234801F0E0
:104BB0000FF82348234B03604FF000634360856088
:104BC000C5604FF480630361456185614FF4807374
:104BD000C3614FF440330362456201F069F928BBB9
:104BE000174BA3639C631848184B03604FF0006396
:104BF0004360402383600023C3604FF480620261FE
:104C000043618361C3614FF440320262436201F049
:104C10004FF970B90C4B63639C6300220521262079
:104C200001F03EFB262001F06FFB9BE7FFF776FCCF
:104C3000D6E7FFF773FCEDE70044004000000240B8
:104C4000F8CB00208860024058CC0020A0600240D1
:104C50007047FEE7FEE7FEE7FEE7FEE7704700006D
:104C600008B5024801F01CFA08BD00BFF8CB0020CF
:104C700008B5024801F014FA08BD00BF58CC002066
:104C800008B5024800F029FB08BD00BF24CB002076
:104C900008B5024801F0F8FC08BD00BF40CD002077
:104CA00008B5024802F0E0F808BD00BFB8CC00200B
:104CB00000B583B0002200920D4B596C41F4804145
:104CC0005964596C01F48041009100990192196C6A
:104CD00041F0805119641B6C03F080530193019BD8
:104CE0000F216FF0010001F0DBFA03B05DF804FB67
:104CF000003802400120704708B5FBF7A5FA1623DB
:104D000003604FF0FF3008BD08B54FF0FF31FFF7EB
:104D1000F3FFFEE770B50C4616460025B54207DAEC
:104D2000AFF30080214601F8010B01350C46F5E791
:104D3000304670BD70B50C4616460025B54205DA02
:104D400014F8010BAFF300800135F7E7304670BD72
:104D500008B503460D4A12685AB10C4A106803445C
:104D60000B4A11780B4A521A934206D8074A13602D
:104D700008BD064A08491160EFE700BEFBF764FA78
:104D80000C2303604FF0FF30F2E700BF500100201A
:104D90000004000000000220581701204FF0FF30EF
:104DA00070474FF400534B6000207047012070475C
:104DB00000207047002800F0A18038B5044690F824
:104DC0002030D3B12268136843F00103136001F06F
:104DD000CFFA054623685A6812F0010F10D101F08E
:104DE000C7FA401B0A28F5D9636A43F400336362AB
:104DF000052384F82030012038BDFFF783FDE1E76B
:104E00001A6822F002021A6001F0B2FA054623681D
:104E10005A6812F0020F0DD001F0AAFA401B0A28BE
:104E2000F5D9636A43F400336362052384F82030C4
:104E30000120E1E7227E012A3DD01A6822F080029B
:104E40001A60637E012B3BD02268136823F0400375
:104E50001360A37E012B39D02268136823F020034E
:104E60001360E37E012B37D02268136843F01003F0
:104E70001360237F012B35D02268136823F00803C9
:104E80001360637F012B33D02268136823F004037F
:104E90001360A368E26813432269134362691343F2
:104EA0006268013A21681343CB61002060620123EC
:104EB00084F82030A0E71A6842F080021A60C0E748
:104EC0002268136843F040031360C2E72268136846
:104ED00043F020031360C4E72268136823F0100333
:104EE0001360C6E72268136843F008031360C8E73D
:104EF0002268136843F004031360CAE70120704777
:104F000090F82030013BDBB2012B05D9436A43F412
:104F1000802343620120704770B4444BD3F80022D1
:104F200042F00102C3F80022D3F8002222F47C529E
:104F3000C3F80022D3F80022486A42EA0022C3F8EC
:104F400000224A6902F01F02012000FA02F2D3F89F
:104F50001C02D44320EA0200C3F81C02CB69B3B997
:104F6000324BD3F80C022040C3F80C02CE688D8877
:104F7000486945EA0645483043F830508E6808884D
:104F80004D6940EA0640483503EBC5035860CB69DC
:104F9000012B1DD08B69002B32D12448D0F804326C
:104FA0002340C0F804320B698BBB204BD3F81402AA
:104FB0000440C3F814420B6A012B2FD01B4AD2F8CD
:104FC000003223F00103C2F80032002070BC7047A9
:104FD000164BD3F80C021043C3F80C020E688D88F0
:104FE000486945EA0645483043F830508E6888895C
:104FF0004D6940EA0640483503EBC5035860C9E7F0
:105000000A48D0F804321343C0F80432CBE707480B
:10501000D0F814321343C0F81432CCE70349D1F866
:105020001C321A43C1F81C22C8E700BF00640040CC
:1050300070B5044690F82050EDB2012D06D0436AB9
:1050400043F4002343620125284670BD022380F803
:1050500020300268136823F00103136001F088F91F
:10506000064623685B6813F0010F0CD001F080F94D
:10507000831B0A2BF5D9636A43F40033636205236B
:1050800084F82030E0E700256562DDE770B490F831
:1050900020400568AD68013CE4B2012C65D815F0EC
:1050A000E05F5CD0C5F30164022C05D9436A43F488
:1050B0000003436201205DE00125A5401D608B686F
:1050C000002B39D10E68CB68056843EA465604F1D7
:1050D00018031B01EE5003680D6904F1180603EB79
:1050E00006135D600B7D012B31D0D17993791B04C0
:1050F00043EA0163517943EA0123157901682B439F
:1051000001EB0411C1F88C31D17893781B0443EA88
:105110000163517843EA0123117802680B4302EBE3
:105120000412C2F88831026818342401135943F07C
:105130000103135100201DE04D6843EAC503CD680B
:1051400006682B4304F118052D017351C3E703686A
:1051500003EB0613596841F480715960C5E7436A4F
:1051600043F400134362012004E0436A43F48023C4
:105170004362012070BC704730B490F82040013C7D
:10518000E4B2012C00F2958051B90468E46814F08F
:10519000030F10D1436A43F40013436201208DE0F2
:1051A0000468246914F0030F05D1436A43F4001323
:1051B0004362012082E0056801F11B0424012C599F
:1051C00004F004049460002C65D1056801F11B040F
:1051D00024012C59640D1460056801F11B0424019D
:1051E0002D5905F00205D560056825446D6805F068
:1051F0000F051561056825446D68C5F307259561A0
:1052000005682C446468240C5461026802EB0112A6
:10521000D2F8B8211A70026802EB0112D2F8B82154
:10522000C2F307225A70026802EB0112D2F8B821C9
:10523000C2F307429A70026802EB0112D2F8B82159
:10524000120EDA70026802EB0112D2F8BC211A7158
:10525000026802EB0112D2F8BC21C2F307225A7194
:10526000026802EB0112D2F8BC21C2F307429A7124
:10527000026802EB0112D2F8BC21120EDA7191B968
:105280000268D36843F02003D360436A23F4001319
:105290004362002012E0056801F11B0424012C592F
:1052A000E408546098E70268136943F0200313612F
:1052B000EBE7436A43F480234362012030BC70472C
:1052C0007047704770477047704770477047704726
:1052D000704770477047704770472DE9F84F054693
:1052E00003685C69D3F804809F68D3F80CB0D3F8E6
:1052F00010A0D3F8189014F001063BD017F0010667
:1053000016D001229A6017F0020F08D117F0040F8F
:105310000CD117F0080606D04FF4805608E0FFF7CE
:10532000CFFF002604E0FFF7CEFF01E04FF4006658
:1053300017F4807F0DD02B684FF480729A6017F4B9
:10534000007F40F0868017F4806F00F0868046F47E
:10535000005617F4803F0DD02B684FF480329A60CE
:1053600017F4003F40F0838017F4802F00F0838013
:1053700046F4004614F0080F07D01BF0100F04D0BD
:1053800046F400762B681022DA6014F0040F02D085
:105390001BF0080F79D114F0020F04D02B68DB68E2
:1053A00013F0030F78D114F0400F07D01AF0100F4C
:1053B00004D046F480662B6810221A6114F0200F86
:1053C00002D01AF0080F6BD114F0100F04D02B6824
:1053D0001B6913F0030F6AD114F4003F02D018F0D8
:1053E000100F68D114F4803F02D018F0080F69D173
:1053F00014F4004F7AD018F0040F74D014F4807FA6
:1054000004D019F0010F01D046F0010614F4007F1A
:1054100004D019F0020F01D046F0020614F4806F98
:1054200004D019F0040F01D046F0040614F4006F04
:1054300059D019F0700956D0B9F1400F65D058D83D
:10544000B9F1200F5ED0B9F1300F42D146F02006FD
:1054500044E02846FFF735FF7BE717F4006F02D0E2
:1054600046F4804675E72846FFF72EFF71E7284689
:10547000FFF728FF7EE717F4002F02D046F48036AE
:1054800078E72846FFF721FF74E72B680822DA60E7
:105490002846FFF71CFF7EE72846FFF717FF82E745
:1054A0002B6808221A612846FFF713FF8CE728466D
:1054B000FFF70EFF90E72B6810225A602846FFF78F
:1054C00009FF8FE72B6808225A602846FFF703FF81
:1054D0008EE7B9F1100F01D146F008062A689369EA
:1054E00023F0700393612B6804225A609EB9BDE8D3
:1054F000F88FB9F1500F0BD0B9F1600FEED146F42F
:105500008076EBE746F01006E8E746F04006E5E770
:1055100046F08006E2E76B6A1E436E622846FFF79C
:10552000DBFEE4E7002800F0DF8170B582B00446BE
:10553000036813F0010F3BD0A64B9B6803F00C03EC
:10554000042B2CD0A34B9B6803F00C03082B21D019
:105550006368B3F5803F4FD0B3F5A02F52D09D4B79
:105560001A6822F480321A601A6822F480221A60C3
:105570006368002B50D000F0FBFE0546954B1B687E
:1055800013F4003F14D100F0F3FE401B6428F5D95A
:105590000320B0E18F4B5B6813F4800FD8D08D4BA4
:1055A0001B6813F4003F03D06368002B00F09E815A
:1055B000236813F0020F54D0864B9B6813F00C0F36
:1055C0003ED0844B9B6803F00C03082B33D0E36878
:1055D000002B67D0804B01221A6000F0C9FE0546FF
:1055E0007C4B1B6813F0020F53D100F0C1FE401B2F
:1055F0000228F5D903207EE1764A136843F480330C
:105600001360B5E7734B1A6842F480221A601A6877
:1056100042F480321A60ABE700F0AAFE05466D4BFB
:105620001B6813F4003FC3D000F0A2FE401B6428A7
:10563000F5D903205FE1674B5B6813F4800FC6D197
:10564000644B1B6813F0020F03D0E368012B40F09A
:105650004F81604A136823F0F803216943EAC103CC
:105660001360236813F0080F40D0636963B35B4B8A
:1056700001221A6000F07CFE0546564B5B6F13F06A
:10568000020F33D100F074FE401B0228F5D903202D
:1056900031E1504A136823F0F803216943EAC1035A
:1056A0001360DEE74C4B00221A6000F061FE0546F5
:1056B000484B1B6813F0020FD3D000F059FE401B7B
:1056C0000228F5D9032016E1444B00221A6000F0AD
:1056D0004FFE05463F4B5B6F13F0020F06D000F004
:1056E00047FE401B0228F5D9032004E1236813F08C
:1056F000040F78D0374B1B6C13F0805F0DD1002363
:105700000193344B1A6C42F080521A641B6C03F004
:1057100080530193019B012500E00025304B1B685D
:1057200013F4807F21D0A368012B32D0052B36D013
:10573000284B1A6F22F001021A671A6F22F0040236
:105740001A67A368002B34D000F012FE0646214BE6
:105750001B6F13F0020F45D100F00AFE801B41F2CF
:1057600088339842F3D90320C5E01D4A136843F4F7
:105770008073136000F0FCFD0646194B1B6813F4A0
:10578000807FD0D100F0F4FD801B0228F5D90320E2
:10579000B1E0104A136F43F001031367D1E70D4BDB
:1057A0001A6F42F004021A671A6F42F001021A6778
:1057B000C7E700F0DDFD0646064B1B6F13F0020F36
:1057C00010D000F0D5FD801B41F288339842F3D908
:1057D000032090E00038024000004742800E47421C
:1057E00000700040EDB9A369002B00F08380494AA6
:1057F000926802F00C02082A51D0022B17D0464BB7
:1058000000221A6000F0B4FD0446424B1B6813F0FE
:10581000007F42D000F0ACFD001B0228F5D9032028
:1058200069E03C4A136C23F080531364DBE73A4B86
:1058300000221A6000F09CFD0546364B1B6813F0F1
:10584000007F06D000F094FD401B0228F5D903200C
:1058500051E0E369226A1343626A43EA8213A26A4F
:105860005208013A43EA0243E26A43EA0263294AE0
:105870005360294B01221A6000F07AFD0446254B43
:105880001B6813F0007F06D100F072FD001B022898
:10589000F5D903202FE000202DE000202BE0012B84
:1058A0002BD01C4B5B6803F48001E269914226D146
:1058B00003F03F02216A8A4223D1616A47F6C0722F
:1058C0001A40B2EB811F1ED103F44031A26A520884
:1058D000013AB1EB024F18D103F07063E26AB3EB07
:1058E000026F14D1002006E001207047012002E081
:1058F000012000E0002002B070BD0120FBE7012084
:10590000F9E70120F7E70120F5E70120F3E701209F
:10591000F1E700BF0038024060004742F8B52F4B66
:105920009B6803F00C03042B53D0082B53D12B4B53
:105930005A6802F03F025B6813F4800F28D0274BAF
:105940005B68C3F3881358010021C01A61F100019C
:105950008E0146EA906687013C1A66EB0105E90074
:1059600041EA5471E000C01841F100014B0243EAE2
:10597000D0534402204619460023FBF767FB174B20
:105980005B68C3F3014301335B00B0FBF3F023E03A
:10599000124B5B68C3F388135C010025E41A65F1C0
:1059A0000005AE0146EA9466A701381B66EB0501C7
:1059B000CC0044EA5074C500E81844F100018B02A1
:1059C00043EA90538402204619460023FBF73EFB2E
:1059D000D5E7034800E00348F8BD00BF00380240A7
:1059E00000127A000024F400002800F09B8070B5BB
:1059F0000D4604464F4B1B6803F007038B4208D249
:105A0000CBB24C4A1370136803F007038B4240F08B
:105A10008B80236813F0020F17D013F0040F04D00B
:105A2000454A936843F4E0539360236813F0080FEA
:105A300004D0414A936843F4604393603E4A9368BC
:105A400023F0F003A1680B439360236813F0010F68
:105A500032D06368012B21D09A1E012A25D9364AFB
:105A6000126812F0020F61D033498A6822F00302F3
:105A700013438B6000F07CFC06462F4B9B6803F0C1
:105A80000C036268B3EB820F16D000F071FC801B30
:105A900041F288339842F0D9032042E0264A126846
:105AA00012F4003FE0D101203BE0234A126812F0DB
:105AB000007FD9D1012034E01E4B1B6803F007039F
:105AC000AB4207D9EAB21B4B1A701B6803F00703FD
:105AD000AB422DD1236813F0040F06D0164A936809
:105AE00023F4E053E1680B439360236813F0080F3D
:105AF00007D0114A936823F46043216943EAC10344
:105B00009360FFF70BFF0C4B9B68C3F303130B4A27
