:020000040800F2
:1000000000000220555B0008CF130008D113000840
:10001000D3130008D5130008D71300080000000010
:100020000000000000000000000000002153000854
:10003000D913000800000000C1530008B34E0008A7
:10004000A55B0008A55B0008A55B0008A55B000890
:10005000A55B0008A55B0008A55B0008A55B000880
:10006000A55B0008A55B0008A55B0008A55B000870
:10007000A55B0008A55B0008A55B0008A55B000860
:10008000DD130008ED130008A55B0008A55B000860
:10009000FD130008A55B0008A55B0008A55B000830
:1000A000A55B00080D140008A55B0008A55B00080F
:1000B000A55B0008A55B0008A55B0008A55B000820
:1000C000A55B0008A55B0008A55B0008A55B000810
:1000D000A55B0008A55B00081D140008A55B0008CF
:1000E000A55B0008A55B0008A55B0008A55B0008F0
:1000F000A55B0008A55B0008A55B0008A55B0008E0
:10010000A55B0008A55B0008A55B0008A55B0008CF
:10011000A55B0008A55B0008A55B0008A55B0008BF
:10012000A55B0008A55B0008A55B0008A55B0008AF
:10013000A55B0008A55B0008A55B0008A55B00089F
:10014000A55B0008A55B0008A55B0008A55B00088F
:10015000A55B0008A55B0008A55B0008A55B00087F
:10016000A55B0008A55B0008A55B0008A55B00086F
:10017000A55B0008A55B0008A55B00080000000067
:08018000A55B0008A55B000867
:1001900010B5054C237833B9044B13B10448AFF3C1
:1001A00000800123237010BD280100200000000002
:1001B0007405010808B5034B1BB103490348AFF3AD
:1001C000008008BD000000002C010020740501081B
:1001D00001F0FF01102A2BDB10F0070F08D010F8F8
:1001E000013B013A8B422DD010F0070F42B3F6D1FC
:1001F000F0B441EA012141EA014122F007047FF015
:1002000000070023F0E80256083C85EA010586EA6B
:10021000010685FA47F5A3FA87F586FA47F6A5FAA7
:1002200087F68EB9EED1F0BC01F0FF0102F00702B3
:1002300032B110F8013B013A83EA010313B1F8D15E
:100240000020704701387047002D06BF354603383F
:10025000073815F0010F07D1013015F4807F02BF78
:10026000013015F4C03F0130F0BC0138704700BFC9
:100270007BB972B90029BEBF00204FF0004106E0F3
:1002800008BF00281CBF6FF000414FF0FF3000F0A6
:10029000BFB9ADF1080C6DE904CE002909DB002BD4
:1002A0001ADB00F04DF8DDF804E0DDE9022304B0CC
:1002B0007047404261EB4101002B1BDB00F040F82E
:1002C000DDF804E0DDE9022304B0404261EB4101C6
:1002D000524263EB43037047524263EB430300F027
:1002E0002FF8DDF804E0DDE9022304B0404261EBC1
:1002F00041017047524263EB430300F021F8DDF8FF
:1003000004E0DDE9022304B0524263EB430370478B
:1003100053B94AB9002908BF00281CBF4FF0FF316C
:100320004FF0FF3000F074B9ADF1080C6DE904CE68
:1003300000F006F8DDF804E0DDE9022304B07047C0
:100340002DE9F047089D04468E46002B4DD18A4288
:10035000944669D9B2FA82F252B101FA02F3C2F1BB
:10036000200120FA01F10CFA02FC41EA030E94404C
:100370004FEA1C48210CBEFBF8F61FFA8CF708FB6D
:1003800016E341EA034306FB07F199420AD91CEB45
:10039000030306F1FF3080F01F81994240F21C8177
:1003A000023E63445B1AA4B2B3FBF8F008FB1033BF
:1003B00044EA034400FB07F7A7420AD91CEB0404F4
:1003C00000F1FF3380F00A81A74240F207816444C4
:1003D000023840EA0640E41B00261DB1D440002349
:1003E000C5E900433146BDE8F0878B4209D9002DAD
:1003F00000F0EF800026C5E9000130463146BDE837
:10040000F087B3FA83F6002E4AD18B4202D38242A0
:1004100000F2F980841A61EB030301209E46002D4F
:10042000E0D0C5E9004EDDE702B9FFDEB2FA82F2A4
:10043000002A40F09280A1EB0C014FEA1C471FFA02
:100440008CFE0126200CB1FBF7F307FB131140EAE9
:1004500001410EFB03F0884208D91CEB010103F1B6
:10046000FF3802D2884200F2CB804346091AA4B278
:10047000B1FBF7F007FB101144EA01440EFB00FE4C
:10048000A64508D91CEB040400F1FF3102D2A645B1
:1004900000F2BB800846A4EB0E0440EA03409CE750
:1004A000C6F12007B34022FA07FC4CEA030C20FAFD
:1004B00007F401FA06F31C43F9404FEA1C4900FA1D
:1004C00006F3B1FBF9F8200C1FFA8CFE09FB18119A
:1004D00040EA014108FB0EF0884202FA06F20BD90D
:1004E0001CEB010108F1FF3A80F08880884240F25D
:1004F0008580A8F102086144091AA4B2B1FBF9F0A1
:1005000009FB101144EA014100FB0EFE8E4508D99B
:100510001CEB010100F1FF346CD28E456AD9023820
:10052000614440EA0840A0FB0294A1EB0E01A14205
:10053000C846A64656D353D05DB1B3EB080261EB73
:100540000E0101FA07F722FA06F3F1401F43C5E94D
:10055000007100263146BDE8F087C2F12003D84083
:100560000CFA02FC21FA03F3914001434FEA1C47C5
:100570001FFA8CFEB3FBF7F007FB10360B0C43EAB7
:10058000064300FB0EF69E4204FA02F408D91CEB67
:10059000030300F1FF382FD29E422DD90238634465
:1005A0009B1B89B2B3FBF7F607FB163341EA034105
:1005B00006FB0EF38B4208D91CEB010106F1FF3854
:1005C00016D28B4214D9023E6144C91A46EA00464B
:1005D00038E72E46284605E70646E3E61846F8E6DD
:1005E0004B45A9D2B9EB020864EB0C0E0138A3E726
:1005F0004646EAE7204694E74046D1E7D0467BE707
:10060000023B614432E7304609E76444023842E77E
:10061000704700BF10F8012B11F8013B012A28BFD9
:100620009A42F7D0D01A7047034613F8012B002ADC
:10063000FBD1181A0138704770B58EB0294B019361
:10064000294B0093294B2A4A2A49012006F08AFFA8
:10065000294B186009A806F055FD284B0993284B33
:100660000A93284B0B93284B0C9309A806F058FDCE
:10067000002831D0254C02A806F072FDA6460DF1E7
:10068000080CBCE80F00AEE80F00DCF80030CEF834
:1006900000301F4E234600221146304606F06CFC07
:1006A0001C4C20601C4D33461C4A1D49284606F050
:1006B000B1FC20601B4E0A23B361282005F09EFA8E
:1006C000306107F093FB0246174B2946174806F0A6
:1006D000DDFC20600EB070BD2621154805F094FBAE
:1006E000C8E700BFDD5A00089F5A0008915A000869
:1006F000795A0008F03C0020C00100201159000880
:100700003559000855590008955900084401002042
:1007100084010020BC01002078010020280B010882
:10072000C405010858010020D005010880010020FF
:100730009C05010810B50446114B00221A601AE00E
:10074000104A126902EB83020F4911600133052B35
:10075000F6DD00220B490D4806F0EAFB0C4B186051
:1007600018B14F210B4805F04FFB0B4805F0D2FBA9
:10077000204604F037FC034B06225A610023E6E7CB
:100780007401002058010020000020418001002059
:10079000BC010020E0050108FC0501082DE9F0413D
:1007A00007460C4615461E46DFF8608100224FF4CE
:1007B0000051404601F03AFE00224FF4805140467D
:1007C00001F034FE00224FF48041404601F02EFE3D
:1007D00000224FF40041404601F028FEF81E032895
:1007E00026D8DFE800F002274B6F00224FF40051BB
:1007F000464801F01BFE002714E0DFF810810122BB
:100800004FF40051404601F011FE284604F0EAFB87
:1008100000224FF40051404601F008FE304604F03B
:10082000E1FB0137A742E8DB4FF47A7004F0DAFB12
:10083000BDE8F08100224FF48051344801F0F6FD0C
:10084000002714E0DFF8C48001224FF480514046B5
:1008500001F0ECFD284604F0C5FB00224FF4805166
:10086000404601F0E3FD304604F0BCFB0137A742EF
:10087000E8DB4FF47A7004F0B5FBD9E700224FF4BF
:100880008041224801F0D2FD002714E0DFF87C808F
:1008900001224FF48041404601F0C8FD284604F093
:1008A000A1FB00224FF48041404601F0BFFD3046DD
:1008B00004F098FB0137A742E8DB4FF47A7004F0AC
:1008C00091FBB5E700224FF40041104801F0AEFD66
:1008D000002714E0DFF8348001224FF40041404645
:1008E00001F0A4FD284604F07DFB00224FF40041F6
:1008F000404601F09BFD304604F074FB0137A742EF
:10090000E8DB4FF47A7004F06DFB91E7000C0240D5
:1009100010B5234C00224FF48051204601F086FD93
:10092000642004F05FFB01224FF40051204601F0E7
:100930007DFD642004F056FB01224FF480412046E7
:1009400001F074FD642004F04DFB00224FF40051CF
:10095000204601F06BFD642004F044FB01224FF4BB
:100960000041204601F062FD642004F03BFB0022C0
:100970004FF48041204601F059FD642004F032FB21
:1009800001224FF48051204601F050FD642004F014
:1009900029FB00224FF40041204601F047FD10BD25
:1009A000000C024008B5FFF7B3FF46E0CB2B41D166
:1009B000C8231A4607210320FFF7F0FE3AE0C823B8
:1009C0001A4601210320FFF7E9FE33E0C8231A4647
:1009D00002210320FFF7E2FE2CE0C8231A46032180
:1009E0000846FFF7DBFE25E0C8231A460421032052
:1009F000FFF7D4FE1EE0C8231A4605210320FFF7A7
:100A0000CDFE17E0C8231A4606210320FFF7C6FED5
:100A100010E0264B1B68002B44D000224FF480517D
:100A2000234801F003FDC8234FF4C87202210320BC
:100A3000FFF7B4FE0A2004F0D5FA1E4B1B68002B0A
:100A4000E7D000224FF48051194801F0EFFCC82391
:100A50004FF4C87201210320FFF7A0FE154B1B685D
:100A60000C2BA3DC002BE5DD013B0B2BE2D801A214
:100A700052F823F0BF090008CD090008DB0900087F
:100A8000350A0008350A0008350A0008350A00084A
:100A9000350A0008350A0008E9090008F7090008C6
:100AA000050A0008FFF734FFC4E700BFBC010020BF
:100AB000000C0240C0010020084ADC2303FB00F0C8
:100AC00013184FF0000C83F864C04FF0070CA3F824
:100AD00066C01154012283F864207047C4010020CD
:100AE000F1EE407A1A4BDC2202FB0033C3ED017AAF
:100AF00083ED020AF1EE607AC3ED037AC3ED040AD6
:100B000000225A6183ED061ADA61C3ED081AF1EE8C
:100B1000427AC3ED097A83ED0A2A93F8641041F012
:100B2000020183F86410B3F8662022F0020292B248
:100B3000A3F8662001F00F010B2900D07047044B89
:100B4000DC2101FB003022F00102A0F86620F5E76D
:100B5000C40100202DE9F04107460846DFF8D080A7
:100B6000DC2607FB06F608EB0604A166C4F8A42001
:100B70000025C4F8A8500122C4F8AC2018F80630AB
:100B80005B01C4F89030C4F89450FF23C4F8983047
:100B9000C4F89C50C4F8A050C4F8B02006F18801F5
:100BA0004144083100F06AFD18F80630C4F8C0303E
:100BB000C4F8C8500823C4F8D030C4F8CC50A36E91
:100BC00093F82030DBB2052B17D094F8642042F064
:100BD000080284F86420B4F8662022F00402A4F825
:100BE0006620134BDC2202FB073393F8643003F0DA
:100BF0000F030B2B12D0BDE8F0810D4BDC2202FB62
:100C00000733B3F8662042F00402A3F8662093F895
:100C1000642022F0080283F86420E2E7044802FB23
:100C20000707B7F8663023F00103A7F86630E2E75C
:100C3000C4010020164BDC2202FB003393F8643021
:100C400003F00F030B2B00D0704710B5104C02FBC4
:100C500000FC04EB0C0E0EF1B8030E4A92E8030000
:100C600083E803000CF1B8020CF1D8030CF1C001C9
:100C7000234422442144DEF8680000F0C9FD00B995
:100C800010BD6423C82203210520FFF787FDF7E785
:100C9000C40100200000002008B50268034B9A42FE
:100CA00000D008BD01F0A0FEFBE700BF000001403E
:100CB00072B6FEE700B595B03022002108A804F016
:100CC000BBFF0023039304930593069307930193BB
:100CD000214A116C41F080511164126C02F0805273
:100CE0000192019A02931D4B1A6842F480421A60E5
:100CF0001B6803F480430293029B012308934FF483
:100D00008033099302230E934FF480020F9208223E
:100D100010924FF4A872119212930723139308A80C
:100D200000F038FF98B90F230393022304930023A4
:100D300005934FF4A05306934FF480530793052176
:100D400003A801F08DF920B915B05DF804FBFFF799
:100D5000AFFFFFF7ADFF00BF00380240007000405A
:100D600008B501F027FEFFF7A5FF00F01DF800F021
:100D7000C3F900F0E3F900F037FA00F08BFA00F065
:100D800025FB00F05BF9074C204600F013FD022123
:100D9000204600F0BBFD04F099F800F025F904F0BE
:100DA000A7F8FEE75C3B00202DE9F04F8DB0002452
:100DB0000794089409940A940B9401946C4B1A6B51
:100DC00042F010021A631A6B02F010020192019AAB
:100DD00002941A6B42F004021A631A6B02F00402C6
:100DE0000292029A03941A6B42F080021A631A6B01
:100DF00002F080020392039A04941A6B42F00102FB
:100E00001A631A6B02F001020492049A05941A6B99
:100E100042F002021A631A6B02F002020592059A6E
:100E200006941A6B42F008021A631B6B03F0080366
:100E30000693069BDFF8449122460821484601F0BC
:100E4000F5FADFF83C8101221146404601F0EEFA46
:100E5000DFF830A122464FF21001504601F0E6FAC9
:100E6000082507950126089609940A9407A948467B
:100E700001F0EAF90796089609940A9407A94046F2
:100E800001F0E2F907950225089509940A944FF0BC
:100E9000050BCDF82CB007A9404601F0D5F907960F
:100EA0004FF4901308930994324F07A9384601F084
:100EB000CBF910230793089509940A9406230B9302
:100EC00007A9384601F0C0F9042307930894099450
:100ED00007A9294801F0B8F94FF4806307930895F2
:100EE00009940A94CDF82CB007A9234801F0ACF975
:100EF0004FF210030793089609940A9407A95046E5
:100F000001F0A2F94FF4A4530793089509940A94A9
:100F100006230B9307A9404601F096F94FF400739E
:100F200007930894099407A9384601F08DF94FF406
:100F3000E0530793089509940A940A230B9307A991
:100F4000384601F081F9202307930894099407A9F2
:100F5000504601F079F907954FF4901308930994DE
:100F600007A9484601F070F90DB0BDE8F08F00BF49
:100F7000003802400000024000040240001002401D
:100F800000080240000C024008B5FFF755FB0220A4
:100F9000FFF7D0FB08BD08B5FFF704FD08BD000052
:100FA00008B501210020FFF787FDB3EE022AF1EE1C
:100FB000041A9FED0A1ADFED0A0AB2EE090A0020B0
:100FC000FFF78EFD002207491046FFF7C3FD002002
:100FD000FFF730FE642004F005F8F8E70000FA435C
:100FE000000070425C3B002008B50B4A00210B4812
:100FF00003F09AFF0A4B18600A4A00210A4803F0DE
:1010000093FF0A4B18600A4A00210A4803F08CFF3C
:10101000094B186008BD00BF54060108890F00087D
:10102000543B002078060108970F0008583B002029
:1010300030060108A10F0008140C002008B50D4867
:101040000D4B03600323436000238360C3604FF4B0
:10105000A02202614FF4C002426103764376837698
:10106000C3760377437700F063FA00B908BDFFF752
:101070001FFEFBE75C3B00200064004010B588B019
:101080000023039304930593069307930268184B78
:101090009A4201D008B010BD0024019403F5EA3350
:1010A0001A6C42F000721A641A6C02F0007201921B
:1010B000019A02941A6B42F008021A631B6B03F048
:1010C00008030293029B03230393022204920693D4
:1010D0000923079303A9074801F0B6F82246012126
:1010E000142001F021FC142001F056FCD2E700BFCF
:1010F00000640040000C024010B582B0002401944E
:101100000D4B1A6B42F400121A631B6B03F40013AD
:101110000193019B22460521102001F005FC1020BF
:1011200001F03AFC22460521112001F0FDFB1120BF
:1011300001F032FC02B010BD0038024008B50B4887
:101140000B4B03600B4B436000238360C3604FF481
:101150008042026143618361C361036201F056FC16
:1011600000B908BDFFF7A4FDFBE700BF843B0020EA
:1011700000540040A086010030B589B000230393DD
:1011800004930593069307930268144B9A4201D087
:1011900009B030BD00250195114C236B43F00203CB
:1011A0002363236B03F002030193019B4FF410733D
:1011B000039312230493012305930423079303A9A4
:1011C000084801F041F80295236C43F400132364AE
:1011D000236C03F400130293029BD9E700540040F0
:1011E000003802400004024008B50D480D4B036072
:1011F0004FF48273436000238360C36003614361E3
:101200004FF400728261C3610362436283620A2306
:10121000C36201F0D9FC00B908BDFFF749FDFBE747
:10122000D83B00200030014000B589B00023039373
:1012300004930593069307930268144B9A4202D0D5
:1012400009B05DF804FB0021019103F584335A6C69
:1012500042F480525A645A6C02F480520192019A0C
:1012600002911A6B42F001021A631B6B03F0010337
:101270000293029BE0230393022304930523079325
:1012800003A9034800F0E0FFDAE700BF00300140A7
:101290000000024008B50A480A4B03604FF461237E
:1012A000436000238360C36003610C224261836159
:1012B000C36101F077FF00B908BDFFF7F9FCFBE758
:1012C000F03C00200044004030B589B00023039377
:1012D00004930593069307930268364B9A4201D014
:1012E00009B030BD04460025019503F5FA331A6CA8
:1012F00042F400321A641A6C02F400320192019A2C
:1013000002951A6B42F001021A631B6B03F0010392
:101310000293029B0C23039302230493032306935B
:101320000723079303A9244800F08EFF2348244B8A
:1013300003604FF0006343608560C5604FF48063D5
:101340000361456185614FF48073C3614FF440339D
:101350000362456201F0F0F828BB184BA3639C635D
:101360001848194B03604FF00063436040238360CB
:101370000023C3604FF48062026143618361C361F3
:101380004FF440320262436201F0D6F870B90D4B5F
:1013900063639C6300220521262001F0C5FA262004
:1013A00001F0FAFA9CE7FFF783FCD6E7FFF780FC31
:1013B000EDE700BF0044004000000240303C002048
:1013C00088600240903C0020A06002407047FEE729
:1013D000FEE7FEE7FEE7FEE77047000008B50248BB
:1013E00001F0A2F908BD00BF303C002008B502485A
:1013F00001F09AF908BD00BF903C002008B50248F2
:1014000000F0A3FA08BD00BF5C3B002008B502480D
:1014100001F082FC08BD00BF9086002008B502489C
:1014200002F064F808BD00BFF03C002000B583B0B6
:10143000002200920D4B596C41F480415964596C63
:1014400001F48041009100990192196C41F08051A2
:1014500019641B6C03F080530193019B0F216FF003
:10146000010001F061FA03B05DF804FB00380240AE
:101470000120704708B504F097FB162303604FF076
:10148000FF3008BD08B54FF0FF31FFF7F3FFFEE76F
:1014900070B50C461646002506E0AFF300802146E5
:1014A00001F8010B01350C46B542F6DB304670BD44
:1014B00070B50C461646002504E014F8010BAFF396
:1014C00000800135B542F8DB304670BD08B50346F3
:1014D0000D4A12685AB10C4A106803440B4A11783D
:1014E0000B4A521A934206D8074A136008BD064AAF
:1014F00008491160EFE700BE04F056FB0C230360BF
:101500004FF0FF30F2E700BF383D0020000400003C
:1015100000000220581601204FF0FF3070474FF4B2
:1015200000534B6000207047012070470020704737
:10153000002800F0A18038B5044690F82030D3B1DF
:101540002268136843F00103136001F059FA05465D
:1015500023685A6812F0010F10D101F051FA401BB4
:101560000A28F5D9636A43F400336362052384F8DB
:101570002030012038BDFFF781FDE1E71A6822F035
:1015800002021A6001F03CFA054623685A6812F01C
:10159000020F0DD001F034FA401B0A28F5D9636A16
:1015A00043F400336362052384F820300120E1E72F
:1015B000227E012A3DD01A6822F080021A60637EE2
:1015C000012B3BD02268136823F040031360A37EF5
:1015D000012B39D02268136823F020031360E37EC7
:1015E000012B37D02268136843F010031360237F68
:1015F000012B35D02268136823F008031360637F42
:10160000012B33D02268136823F004031360A3680E
:10161000E268134322691343626913436268013A23
:1016200021681343CB6100206062012384F82030DD
:10163000A0E71A6842F080021A60C0E722681368C7
:1016400043F040031360C2E72268136843F02003AD
:101650001360C4E72268136823F010031360C6E721
:101660002268136843F008031360C8E72268136810
:1016700043F004031360CAE70120704790F820305C
:10168000013BDBB2012B05D9436A43F4802343625B
:101690000120704730B5464BD3F8002242F00102DA
:1016A000C3F80022D3F8002222F47C52C3F80022AF
:1016B000D3F80022486A42EA0022C3F800224A69AD
:1016C00002F01F02012000FA02F2D3F81C026FEAB6
:1016D000020C20EA0200C3F81C02CB69C3B9344BE8
:1016E000D3F80C020CEA0000C3F80C028C8848699D
:1016F000CD6844EA0544483043F830408C68088897
:1017000040EA04404C6904F1480E03EBCE035860F4
:10171000CB69012B1ED08B69002B33D12448D0F824
:1017200004320CEA0303C0F804320B698BBB204877
:10173000D0F814320CEA0303C0F814320B6A012B00
:101740002ED01B4AD2F8003223F00103C2F8003237
:10175000002030BD164BD3F80C021043C3F80C0226
:101760008C8848690D6844EA0544483043F83040A5
:1017700088894C698D6840EA0540483403EBC4030E
:101780005860C8E70A48D0F804321343C0F804325E
:10179000CBE70748D0F814321343C0F81432CDE732
:1017A0000349D1F81C321A43C1F81C22C9E700BF13
:1017B0000064004070B5044690F82050EDB2012D51
:1017C00006D0436A43F4002343620125284670BDD6
:1017D000022380F820300268136823F001031360AD
:1017E00001F00EF9064623685B6813F0010F0CD078
:1017F00001F006F9831B0A2BF5D9636A43F4003321
:101800006362052384F82030E0E700256562DDE7A8
:1018100030B590F820C00468A4680CF1FF3C5FFA72
:101820008CFCBCF1010F6BD814F0E05F62D0C4F304
:10183000016CBCF1020F05D9436A43F40003436213
:10184000012062E0012404FA0CF41C608B68002B78
:101850003DD10D68CB68046843EA45550CF1180387
:101860001B01E55003680C690CF1180E03EB0E1315
:101870005C600B7D012B35D0D17993791B0443EA51
:101880000163517943EA012314790168234301EB91
:101890000C11C1F88C31D17893781B0443EA0163B1
:1018A000517843EA0123117802680B4302EB0C12D2
:1018B000C2F8883102680CF1180C4FEA0C1C52F87F
:1018C0000C3043F0010342F80C3000201DE04C685E
:1018D00043EAC403CC6823430CF1180424010568CF
:1018E0002B51BFE7036803EB0E13596841F4807175
:1018F0005960C1E7436A43F400134362012004E0E6
:10190000436A43F480234362012030BD90F82030C5
:10191000013BDBB2012B05D9436A43F480234362C8
:1019200001207047026853691943516100207047D4
:1019300070477047704770477047704770477047EF
:10194000704770477047704770472DE9F84F05465C
:1019500003685C69D3F804809F68D3F80CB0D3F8AF
:1019600010A0D3F8189014F001063BD017F0010630
:1019700016D001229A6017F0020F08D117F0040F59
:101980000CD117F0080606D04FF4805608E0FFF798
:10199000CFFF002604E0FFF7CEFF01E04FF4006622
:1019A00017F4807F0DD02B684FF480729A6017F483
:1019B000007F40F0868017F4806F00F0868046F448
:1019C000005617F4803F0DD02B684FF480329A6098
:1019D00017F4003F40F0838017F4802F00F08380DD
:1019E00046F4004614F0080F07D01BF0100F04D087
:1019F00046F400762B681022DA6014F0040F02D04F
:101A00001BF0080F79D114F0020F04D02B68DB68AB
:101A100013F0030F78D114F0400F07D01AF0100F15
:101A200004D046F480662B6810221A6114F0200F4F
:101A300002D01AF0080F6BD114F0100F04D02B68ED
:101A40001B6913F0030F6AD114F4003F02D018F0A1
:101A5000100F68D114F4803F02D018F0080F69D13C
:101A600014F4004F7AD018F0040F74D014F4807F6F
:101A700004D019F0010F01D046F0010614F4007FE4
:101A800004D019F0020F01D046F0020614F4806F62
:101A900004D019F0040F01D046F0040614F4006FCE
:101AA00059D019F0700956D0B9F1400F65D058D807
:101AB000B9F1200F5ED0B9F1300F42D146F02006C7
:101AC00044E02846FFF735FF7BE717F4006F02D0AC
:101AD00046F4804675E72846FFF72EFF71E7284653
:101AE000FFF728FF7EE717F4002F02D046F4803678
:101AF00078E72846FFF721FF74E72B680822DA60B1
:101B00002846FFF71CFF7EE72846FFF717FF82E70E
:101B10002B6808221A612846FFF713FF8CE7284636
:101B2000FFF70EFF90E72B6810225A602846FFF758
:101B300009FF8FE72B6808225A602846FFF703FF4A
:101B40008EE7B9F1100F01D146F008062A689369B3
:101B500023F0700393612B6804225A609EB9BDE89C
:101B6000F88FB9F1500F0BD0B9F1600FEED146F4F8
:101B70008076EBE746F01006E8E746F04006E5E73A
:101B800046F08006E2E76B6A1E436E622846FFF766
:101B9000DBFEE4E7002800F0E08170B582B0044687
:101BA000036813F0010F3BD09F4B9B6803F00C03BD
:101BB000042B2CD09C4B9B6803F00C03082B21D0EA
:101BC0006368B3F5803F4FD0B3F5A02F52D0964B4A
:101BD0001A6822F480321A601A6822F480221A608D
:101BE0006368002B50D000F00BFF05468E4B1B683E
:101BF00013F4003F14D100F003FF401B6428F5D913
:101C00000320B1E1884B5B6813F4800FD8D0864B7A
:101C10001B6813F4003F03D06368002B00F09F8122
:101C2000236813F0020F54D07F4B9B6813F00C0F06
:101C30003ED07D4B9B6803F00C03082B33D0E36848
:101C4000002B68D0794B01221A6000F0D9FE0546BE
:101C5000754B1B6813F0020F54D100F0D1FE401BEE
:101C60000228F5D903207FE16F4A136843F48033DB
:101C70001360B5E76C4B1A6842F480221A601A6848
:101C800042F480321A60ABE700F0BAFE0546664BBC
:101C90001B6813F4003FC3D000F0B2FE401B642861
:101CA000F5D9032060E1604B5B6813F4800FC6D167
:101CB0005D4B1B6813F0020F03D0E368012B40F06B
:101CC0005081594A136823F0F803216943EAC1039C
:101CD0001360236813F0080F42D063696BB3534B52
:101CE0000122C3F8802E00F08BFE05464E4B5B6F41
:101CF00013F0020F34D100F083FE401B0228F5D907
:101D0000032031E1484A136823F0F803216943EACC
:101D1000C1031360DDE7454B00221A6000F070FE3E
:101D20000546414B1B6813F0020FD2D000F068FE4D
:101D3000401B0228F5D9032016E13C4B0022C3F8D2
:101D4000802E00F05DFE0546374B5B6F13F0020FEF
:101D500006D000F055FE401B0228F5D9032003E110
:101D6000236813F0040F77D02F4B1B6C13F0805FA8
:101D700033D1002301932C4B1A6C42F080521A6429
:101D80001B6C03F080530193019B0125284B1B68BA
:101D900013F4807F23D0A368012B34D0052B38D0D7
:101DA000214B1A6F22F001021A671A6F22F0040207
:101DB0001A67A368002B3DD000F022FE06461A4B9E
:101DC0001B6F13F0020F46D100F01AFE801B41F288
:101DD00088339842F3D90320C6E00025D6E7144A99
:101DE000136843F48073136000F00AFE0646104B3C
:101DF0001B6813F4807FCED100F002FE801B022806
:101E0000F5D90320B0E0084A136F43F001031367CC
:101E1000CFE7054B1A6F42F004021A671A6F42F0BF
:101E200001021A67C5E700BF0038024000004742C0
:101E30000070004000F0E4FD0646524B1B6F13F0AB
:101E4000020F08D000F0DCFD801B41F2883398427D
:101E5000F3D9032088E0EDB9A369002B00F083805B
:101E6000484A926802F00C02082A51D0022B17D07F
:101E7000454B00221A6600F0C3FD0446414B1B6827
:101E800013F0007F42D000F0BBFD001B0228F5D903
:101E9000032069E03B4A136C23F080531364DBE7B3
:101EA000394B00221A6600F0ABFD0546354B1B6826
:101EB00013F0007F06D000F0A3FD401B0228F5D9E7
:101EC000032051E0E369226A1343626A43EA821302
:101ED000A26A5208013A43EA0243E26A43EA026311
:101EE000284A5360284B01221A6600F089FD0446F7
:101EF000244B1B6813F0007F06D100F081FD001B0E
:101F00000228F5D903202FE000202DE000202BE04F
:101F1000012B2BD01B4B5B6803F48001E2699142DB
:101F200026D103F03F02216A8A4223D1616A47F633
:101F3000C0721A40B2EB811F1ED103F44031A26A75
:101F40005208013AB1EB024F18D103F07063E26A14
:101F5000B3EB026F14D1002006E00120704701208E
:101F600002E0012000E0002002B070BD0120FBE78C
:101F70000120F9E70120F7E70120F5E70120F3E769
:101F80000120F1E7003802400000474208B5314B1C
:101F90009B6803F00C03042B57D0082B57D12D4B13
:101FA0005A6802F03F025B6813F4800F2AD0294B75
:101FB0005968C1F3881C4FEA4C11B1EB0C006EEB71
:101FC0000E0E4FEA8E1343EA90638101091A63EB08
:101FD0000E03DB0043EA5173C90011EB0C0C43F113
:101FE0000003590200234FEA4C2041EADC51FEF77E
:101FF0008FF9184B5B68C3F3014301335B00B0FBFF
:10200000F3F025E0134B5968C1F3881C4FEA4C11DB
:10201000B1EB0C006EEB0E0E4FEA8E1343EA9063A9
:102020008101091A63EB0E03DB0043EA5173C90017
:1020300011EB0C0C43F10003990200234FEA8C20B2
:1020400041EA9C51FEF764F9D3E7034800E00348F6
:1020500008BD00BF0038024000127A000024F400DE
:10206000002800F09B8070B50D4604464F4B1B685E
:1020700003F007038B4208D2CBB24C4A13701368AB
:1020800003F007038B4240F08B80236813F0020FAC
:1020900017D013F0040F04D0454A936843F4E0537B
:1020A0009360236813F0080F04D0414A936843F407
:1020B000604393603E4A936823F0F003A1680B43AA
:1020C0009360236813F0010F32D06368012B21D095
:1020D0009A1E012A25D9364A126812F0020F61D0E1
:1020E00033498A6822F0030213438B6000F088FCB6
:1020F00006462F4B9B6803F00C036268B3EB820F1C
:1021000016D000F07DFC801B41F288339842F0D954
:10211000032042E0264A126812F4003FE0D1012079
:102120003BE0234A126812F0007FD9D1012034E04D
:102130001E4B1B6803F00703AB4207D9EAB21B4BE7
:102140001A701B6803F00703AB422DD1236813F00C
:10215000040F06D0164A936823F4E053E1680B435A
:102160009360236813F0080F07D0114A936823F493
:102170006043216943EAC1039360FFF707FF0C4BFB
:102180009B68C3F303130B4AD35CD8400A4B186017
:102190000A4B186803F02AFA002070BD012070472E
:1021A0000120FAE70120F8E70120F6E7003C0240B1
:1021B00000380240A406010814000020100000208E
:1021C000014B1868704700BF1400002008B5FFF7E6
:1021D000F7FF044B9B68C3F38223034AD35CD840C8
:1021E00008BD00BF00380240B406010808B5FFF77B
:1021F000E7FF044B9B68C3F34233034AD35CD840E8
:1022000008BD00BF00380240B40601080F23036078
:102210000B4B9A6802F0030242609A6802F0F002E7
:1022200082609A6802F4E052C2609B68DB0803F4A3
:10223000E0530361034B1B6803F007030B60704717
:1022400000380240003C024000230F2B00F2E480E3
:1022500070B582B060E085685E000324B44025EA72
:102260000405CC68B4402C438460456825EA020527
:102270004C68C4F300129A402A4342605AE0DC08DA
:10228000083450F8246003F0070295000F22AA409A
:1022900026EA020E0A69AA4042EA0E0240F8242009
:1022A0005CE0072200E0002202FA0EF22A43023428
:1022B0005A4D45F824205A4A94686FEA0C0224EAE1
:1022C0000C054E6816F4801F01D04CEA0405544CEE
:1022D000A560E46802EA04054E6816F4001F01D008
:1022E0004CEA04054E4CE560646802EA04054E6859
:1022F00016F4003F01D04CEA0405494C656024689F
:1023000022404D6815F4803F01D04CEA0402444C51
:10231000226001330F2B7DD801229A400C6804EA19
:10232000020C32EA0404F4D14C6804F00304013CCA
:10233000012C90D94A6802F00302032A09D0C4682C
:102340005D000322AA4024EA02048A68AA402243CC
:10235000C2604A6802F00302022A90D004684FEA81
:10236000430E032202FA0EF224EA02044A6802F043
:10237000030202FA0EF2224302604A6812F4403F5E
:10238000C7D000220192274A546C44F4804454641C
:10239000526C02F480420192019A9C08A51C1F4ACB
:1023A00052F8255003F003024FEA820E0F2202FA80
:1023B0000EF225EA02051C4A90423FF474AF02F582
:1023C000806290421AD002F58062904218D002F5E5
:1023D0008062904216D002F58062904214D002F5DD
:1023E0008062904212D002F58062904210D002F5D5
:1023F000806290423FF455AF082255E7012253E72F
:10240000022251E703224FE704224DE705224BE762
:10241000062249E702B070BD704700BF0038014096
:10242000003C014000380240000002400AB18161D6
:10243000704709048161704730B405682C6824F442
:1024400080242C60046863608368402B05D0036897
:1024500099600368DA6030BC704703689A6003686B
:10246000D960F8E710B40368D9B210390C4AA2FB5E
:10247000014212090B4CA25CC2655F2909D923F401
:102480007F7323F0030304338365806D5DF8044B91
:10249000704723F47F7323F003038365F5E700BFE0
:1024A000ABAAAAAA9C060108836A826992B9012B89
:1024B0000AD0022B02D00BB100207047C36A13F080
:1024C000807F28D100207047C36AB3F1C07F24D039
:1024D00000207047B2F5005F09D0022B25D9032BED
:1024E00025D1C36A13F0807F23D100207047032BCE
:1024F00003D8DFE803F01404140A00207047C36A0D
:1025000013F0807F0DD100207047C36AB3F1C07F04
:1025100009D000207047012070470120704701203A
:10252000704701207047012070470120704700204C
:10253000704701207047000070B5044600F060FA53
:10254000002C5BD00546022384F83530002384F844
:1025500034302268136823F00103136023681A687B
:1025600012F0010F0AD000F04BFA431B052BF5D9EE
:1025700020236365032084F8350070BD1A68204865
:1025800010406168A2680A43E1680A4321690A436E
:1025900061690A43A1690A43E1690A43216A0A435E
:1025A0000243616A04291ED01A602668756925F005
:1025B0000705636A1D43042B07D1A36A1D43E36A21
:1025C0001BB12046FFF770FF90B975612046FFF7F9
:1025D00049FFE26D3F239340836000206065012343
:1025E00084F83530C9E7E16A206B01430A43DBE731
:1025F00040236365012084F83500BEE70120BCE775
:102600003F8010F038B50446856D90F834000128FD
:102610002BD0012084F8340094F83500C0B2012892
:1026200004D0002384F83430022038BD022084F81E
:102630003500002060652046FFF7FEFEE26D3F2377
:102640009340AB602268136843F016031360236C59
:1026500023B12268136843F00803136022681368EB
:1026600043F0010313600020DFE70220DDE770B5CF
:102670000446866D00F0C4F994F83530DBB2022BC5
:1026800006D080236365002384F83430012070BDB8
:1026900005462268136823F0160313602268536905
:1026A00023F080035361236CE3B12268136823F0A5
:1026B000080313602268136823F001031360236882
:1026C0001B6813F0010F11D000F09AF9431B052B82
:1026D000F5D920236365032084F83500002384F8AE
:1026E0003430D4E7A36C002BDFD1E3E7E26D3F2366
:1026F0009340B360012384F83530002084F834001F
:10270000C5E790F83530DBB2022B03D08023436558
:1027100001207047052380F835300268136823F0E4
:102720000103136000207047F0B583B00446002316
:102730000193724B1D68724BA3FB0535AD0A876D83
:102740003E68C26D08239340334210D003681A6874
:1027500012F0040F0BD01A6822F004021A60C26D46
:1027600008239340BB60436D43F001034365E26D72
:1027700001239340334209D02268526912F0800F3E
:1027800004D0BB60636D43F002036365E26D042314
:102790009340334209D02268126812F0020F04D02D
:1027A000BB60636D43F004036365E26D10239340E7
:1027B000334224D02268126812F0080F1FD0BB6089
:1027C00023681A6812F4802F0DD01B6813F4002FB1
:1027D00004D1236C9BB12046984710E0A36C73B1E1
:1027E000204698470BE01A6812F4807F03D11A68DC
:1027F00022F008021A60236C0BB120469847E26D64
:1028000020239340334255D02268126812F0100FF3
:1028100050D0BB6094F83530DBB2052B0ED0236866
:102820001A6812F4802F33D01B6813F4002F2AD1BA
:10283000636C002B3ED0204698473BE0226813682B
:1028400023F0160313602268536923F08003536159
:10285000236CA3B12268136823F008031360E26DB0
:102860003F239340BB60012384F83530002384F874
:102870003430236D002B3FD0204698473CE0A36CBA
:10288000002BE7D1EBE7E36BA3B12046984711E0BB
:102890001A6812F4807F09D11A6822F010021A60B7
:1028A000012384F83530002384F83430E36B0BB116
:1028B00020469847636DFBB1636D13F0010F17D08D
:1028C000052384F835302268136823F00103136070
:1028D000019B01330193AB4204D823681B6813F0BA
:1028E000010FF5D1012384F83530002384F834300A
:1028F000E36C0BB12046984703B0F0BD14000020F4
:10290000B5814E1B074AD36823F4E0631B041B0CFC
:10291000000200F4E060034343F0BF6343F400337C
:10292000D360704700ED00E000B5194BDB68C3F3DE
:102930000223C3F1070CBCF1040F28BF4FF0040CB5
:1029400003F1040EBEF1060F18D9033B4FF0FF3E12
:102950000EFA0CFC21EA0C0199400EFA03F322EA6C
:102960000303194300280BDB0901C9B200F16040E1
:1029700000F5614080F800135DF804FB0023E5E7F3
:1029800000F00F000901C9B2024B1954F4E700BF6F
:1029900000ED00E014ED00E0002807DB00F01F026E
:1029A000400901239340024A42F82030704700BF9B
:1029B00000E100E008B50B4B1A6842F400721A609F
:1029C0001A6842F480621A601A6842F480721A60CF
:1029D0000320FFF797FF0F2002F008FEFEF726FD09
:1029E000002008BD003C0240034A1168034B1B78DD
:1029F0000B441360704700BF3C3D00200C000020DA
:102A0000014B1868704700BF3C3D0020002800F0D3
:102A1000CC8070B5044690F83D30002B77D024234D
:102A200084F83D302268136823F0010313602268A4
:102A3000136843F4004313602268136823F40043CF
:102A40001360FFF7C3FB62685A4B9A4264D85A4B33
:102A500098428CBF00230123002B40F0A8805749E7
:102A6000A1FB00318B0C25686A6822F03F0242EA24
:102A700091426A6021680A6A22F03F0266684D4D01
:102A8000AE424FD8013313430B622168CA6922F466
:102A90004F4222F0FF026668464B9E424CD8431ECE
:102AA0007600B3FBF6F3013340F6FC70034278D0B6
:102AB000C3F30B031343CB6121680B6823F0C003FE
:102AC000E269206A024313430B6021688B6823F498
:102AD000034323F0FF032269E068024313438B6042
:102AE0002168CB6823F0FF036269A06902431343A6
:102AF000CB602268136843F0010313600020206458
:102B0000202384F83D30206384F83E0070BD80F8B7
:102B10003C30FEF731FB82E7294B98428CBF002303
:102B2000012399E74FF4967505FB03F3254DA5FBAB
:102B300003539B090133A6E7A368BBB9451E06EB07
:102B4000460CB5FBFCF50135C5F30B05B5FA85F56B
:102B50006D0945BBC3B9013806EB4603B0FBF3F37F
:102B60000133C3F30B0343F40043A3E7451E06EB15
:102B7000860C0CEB8C0CB5FBFCF50135C5F30B0595
:102B8000B5FA85F56D09E4E7013806EB860303EB3A
:102B90008303B0FBF3F30133C3F30B0343F440436C
:102BA00088E7042386E7012384E70120704701209A
:102BB000ACE700BFA08601007F841E0083DE1B43BC
:102BC000FF083D00D34D621000285AD010B50446CE
:102BD000436A33B94368B3F5827F05D00023C361EC
:102BE00002E00023036143610023A36294F85130A3
:102BF000002B40D0022384F851302268136823F060
:102C000040031360636803F48273A26802F4044211
:102C10001343E26802F400621343226902F00202E5
:102C20001343626902F001021343A26902F40072C5
:102C30001343E26902F038021343226A02F0800271
:102C40001343A26A02F40052216813430B60638BA2
:102C500003F00403626A02F01002216813434B6020
:102C60002268D36923F40063D361002060650123E7
:102C700084F8513010BD84F850302046FEF7D4FA65
:102C8000B8E701207047704790F83D30DBB2012B68
:102C900037D1022380F83D300268D36843F0010346
:102CA000D3600368194A934220D0B3F1804F1DD0FE
:102CB000A2F57C42934219D002F58062934215D06E
:102CC00002F58062934211D002F5784293420DD012
:102CD00002F57052934209D0A2F59432934205D086
:102CE0001A6842F001021A60002070479A6802F0E8
:102CF0000702062A07D01A6842F001021A60002073
:102D00007047012070470020704700BF000001405D
:102D1000704770477047704710B5044603681A69DA
:102D200012F0020F11D0DA6812F0020F0DD06FF01E
:102D300002021A610123037703689B6913F0030FF2
:102D400070D0FFF7E6FF0023237723681A6912F09B
:102D5000040F12D0DA6812F0040F0ED06FF00402E4
:102D60001A610223237723689B6913F4407F5FD0A5
:102D70002046FFF7CEFF0023237723681A6912F05D
:102D8000080F12D0DA6812F0080F0ED06FF00802A8
:102D90001A61042323772368DB6913F0030F4ED0F5
:102DA0002046FFF7B6FF0023237723681A6912F045
:102DB000100F12D0DA6812F0100F0ED06FF0100260
:102DC0001A61082323772368DB6913F4407F3DD021
:102DD0002046FFF79EFF0023237723681A6912F02D
:102DE000010F03D0DA6812F0010F36D123681A6997
:102DF00012F0800F03D0DA6812F0800F34D123680C
:102E00001A6912F0400F03D0DA6812F0400F32D185
:102E100023681A6912F0200F03D0DA6812F0200F2D
:102E200030D110BDFFF774FF2046FFF773FF8AE72C
:102E30002046FFF76DFF2046FFF76CFF9BE720461B
:102E4000FFF766FF2046FFF765FFACE72046FFF778
:102E50005FFF2046FFF75EFFBDE76FF001021A61DA
:102E60002046FDF719FFC1E76FF080021A61204686
:102E700000F0A1F8C3E76FF040021A612046FFF7A7
:102E80004AFFC5E76FF020021A61204600F092F871
:102E9000C7E700000368304A904212D0B0F1804F7B
:102EA0000FD0A2F57C4290420BD002F58062904296
:102EB00007D002F58062904203D002F5784290423A
:102EC00003D123F070034A681343234A90422AD067
:102ED000B0F1804F27D0A2F57C42904223D002F57A
:102EE000806290421FD002F5806290421BD002F5B2
:102EF0007842904217D002F57052904213D002F5FA
:102F0000806290420FD002F5806290420BD0A2F511
:102F10009832904207D002F58062904203D002F5C9
:102F20008062904203D123F44073CA68134323F0B4
:102F300080034A69134303608B68C3620B68836232
:102F4000054B984203D003F58063984201D10B6989
:102F500003630123436170470000014040B310B593
:102F6000044690F83D30F3B1022384F83D30214609
:102F700051F8040BFFF78EFF012384F8463084F8E4
:102F80003E3084F83F3084F8403084F8413084F893
:102F9000423084F8433084F8443084F8453084F873
:102FA0003D30002010BD80F83C30FFF76CFEDBE7C1
:102FB0000120704770477047026802F10C0353E824
:102FC000003F23F0C0030C3242E800310029F3D166
:102FD000202380F83D307047026802F10C0353E86B
:102FE000003F23F490730C3242E800310029F3D102
:102FF000026802F1140353E8003F23F00103143286
:1030000042E800310029F3D1036B012B05D02023C6
:1030100080F83E30002303637047026802F10C031E
:1030200053E8003F23F010030C3242E8003100293E
:10303000F3D1ECE790F83D30DBB2212B01D0022038
:1030400070478368B3F5805F17D0036A5A1C026229
:103050001A7803685A60C38C9BB2013B9BB2C3844D
:103060004BB90268D36823F08003D3600268D36849
:1030700043F04003D360002070470369002BE4D184
:10308000036A1B880268C3F308035360036A0233B0
:103090000362E0E738B504460268136923F440533D
:1030A000C1680B4313618368026913434269134388
:1030B000C2691A430168CB6823F4164323F00C035A
:1030C0001343CB600268536923F4407381690B4357
:1030D00053610368314A934206D002F580629342FD
:1030E00002D0FFF773F801E0FFF780F8E369B3F56A
:1030F000004F29D00021031849411B1841F100015C
:10310000C90041EA5371DB00181863684FEA830273
:103110004FEA937341F10001FDF7FAF8204DA5FB4A
:1031200000325109642303FB11031B013233A5FB59
:1031300003235B0903F0F00202EB011203F00F031B
:10314000216813448B6038BD0023021843EB030150
:10315000121841F10001C90041EA5271D200101861
:1031600041F10001626892185B41FDF7D1F80C4D06
:10317000A5FB00325109642303FB1103DB0032334A
:10318000A5FB03235B095A0002F4F87202EB01125B
:1031900003F00703216813448B60D4E7001001405B
:1031A0001F85EB5158B310B5044690F83D300BB372
:1031B000242384F83D302268D36823F40053D3607D
:1031C0002046FFF767FF2268136923F490431361D9
:1031D0002268536923F02A0353612268D36843F4B9
:1031E0000053D36000202064202384F83D3084F80D
:1031F0003E3010BD80F83C30FEF766F8D8E701207D
:103200007047000038B590F83D30DBB2202B38D144
:103210000446002937D0002A37D090F83C30012BE3
:1032200035D0012380F83C3001628284C2840025BD
:103230000564212380F83D30436B1648D863636BE7
:1032400015481864636B1548D864636B1D65206866
:103250001346021D606BFFF7D5F923686FF040023B
:103260001A6084F83C50226802F1140353E8003FCE
:1032700043F08003143242E800310029F3D10020EA
:1032800000E0022038BD0120FCE70120FAE702201F
:10329000F8E700BF273300088F3300089F3300088A
:1032A00010B5044603685A6990F83D30DBB2212B13
:1032B0000AD023685A6902F0400294F83E30DBB22B
:1032C000222B19D0002010BD02F08002002AF0D07D
:1032D000226802F1140353E8003F23F08003143204
:1032E00042E800310029F3D1606B08B1FFF7BFF964
:1032F0002046FFF761FEDCE7002AE3D0226802F1F6
:10330000140353E8003F23F04003143242E8003135
:103310000029F3D1A06B08B1FFF7A9F92046FFF708
:103320005BFECFE7704708B50346806B1B681B68E0
:1033300013F4807F1AD10023C384026802F11403BE
:1033400053E8003F23F08003143242E800310029A3
:10335000F3D1026802F10C0353E8003F43F040034D
:103360000C3242E800310029F3D108BDFFF7DAFF43
:10337000FBE708B50168CA6822F04002CA60202253
:1033800080F83D20FFF7CEFF002008BD704708B54C
:10339000806BFFF7FBFF08BD70477047704710B5A3
:1033A000846B23685A6994F83D30DBB2212B10D02E
:1033B00023685A6902F0400294F83E30DBB2222BB7
:1033C00011D0236C43F0100323642046FFF7E6FF7F
:1033D00010BD02F08002002AEAD00023E3842046D8
:1033E000FFF7EAFDE4E7002AEBD00023E38520465F
:1033F000FFF7F2FDE5E708B5806B0023C385C384C2
:10340000FFF7CCFF08BD704790F83E30DBB2222BAF
:1034100067D18368B3F5805F4DD0826AB3F5805F72
:1034200004D0002B54D10369002B51D103685B6891
:103430001370836A01338362C38D9BB2013B9BB2DD
:10344000C385002B4FD100B583B00268D36823F049
:103450002003D3600268D36823F48073D3600268CA
:10346000536923F001035361202380F83E30036B3E
:10347000012B33D100230363026802F10C0353E8EC
:10348000003F23F010030C3242E800310029F3D151
:1034900003681A6812F0100F06D0002201921A6811
:1034A00001925B680193019B818DFFF7ACFF0020C7
:1034B00003B05DF804FB0269002AAED1826A03689A
:1034C0005B68C3F308031380836A02338362B3E744
:1034D00003685B6803F07F031370AAE7FFF75CFFE4
:1034E000E5E70220704700207047000030B583B048
:1034F000044602681368D068516913F00F0505D1BE
:1035000013F0200F02D010F0200F19D12DB111F0BF
:10351000010119D110F4907F16D1216B01297DD0C2
:1035200013F0800F03D010F0800F40F0158113F0DE
:10353000400F03D010F0400F40F0128103B030BDB7
:103540002046FFF761FFF9E713F0010F06D010F4F2
:10355000807F03D0226C42F00102226413F0040F3A
:1035600004D019B1226C42F00202226413F0020F5F
:1035700004D019B1226C42F00402226413F0080F47
:1035800007D010F0200F00D119B1226C42F00802D0
:103590002264226C002AD1D013F0200F02D010F048
:1035A000200F29D123685B6903F04003226C12F0DD
:1035B000080F00D163B32046FFF70EFD23685B6957
:1035C00013F0400F20D0226802F1140353E8003FAB
:1035D00023F04003143242E800310029F3D1A36BF9
:1035E00073B1614A1A65A06BFFF78BF80028A5D06C
:1035F000A06B036D9847A1E72046FFF705FFD1E7D1
:103600002046FFF7CBFE99E72046FFF7C7FE95E778
:103610002046FFF7C3FE002323648FE713F0100F4B
:103620003FF47EAF10F0100F3FF47AAF0023019308
:103630001368019353680193019B536913F0400F82
:1036400050D0A26B13685B689BB2002B3FF476AF3F
:10365000A18D99427FF672AFE385D369B3F5807F80
:1036600037D0226802F10C0353E8003F23F4807343
:103670000C3242E800310029F3D1226802F1140330
:1036800053E8003F23F00103143242E800310029DF
:10369000F3D1226802F1140353E8003F23F0400302
:1036A000143242E800310029F3D1202384F83E305F
:1036B00000232363226802F10C0353E8003F23F048
:1036C00010030C3242E800310029F3D1A06BFEF761
:1036D000CEFFA18DE38D9BB2C91A89B22046FFF7B8
:1036E00092FE2BE7A18DE38D9BB2C91A89B2E38DBF
:1036F0009BB2002B3FF422AF00293FF41FAF22689A
:1037000002F10C0353E8003F23F490730C3242E8BB
:1037100000300028F3D1226802F1140353E8003F7F
:1037200023F00103143242E800300028F3D12023B3
:1037300084F83E3000232363226802F10C0353E82F
:10374000003F23F010030C3242E800300028F3D190
:103750002046FFF758FEF1E62046FFF76BFCEDE64A
:103760002046FFF706FEE9E6F733000808B5806B50
:10377000036B012B02D0FFF710FE08BD818D4908B5
:10378000FFF741FEF9E708B50346806B1B681B682D
:1037900013F4807F2BD10023C385026802F10C0350
:1037A00053E8003F23F480730C3242E800310029D3
:1037B000F3D1026802F1140353E8003F23F0010340
:1037C000143242E800310029F3D1026802F11403F7
:1037D00053E8003F23F04003143242E8003100294F
:1037E000F3D1202380F83E30036B012B05D0036B0F
:1037F000012B0FD0FFF7D0FD08BD026802F10C03CA
:1038000053E8003F23F010030C3242E80031002956
:10381000F3D1ECE7818DFFF7F6FDEDE730B583B02E
:10382000044613468162828500250564222280F8C1
:103830003E20826B2048D063A26B20481064A26BAC
:103840001F48D064A26B156520680A46011DA06B55
:10385000FEF7D8FE019523681A6801925B68019310
:10386000019B84F83C5023695BB1226802F10C0390
:1038700053E8003F43F480730C3242E800310029E2
:10388000F3D1226802F1140353E8003F43F001032F
:10389000143242E800310029F3D1226802F1140306
:1038A00053E8003F43F04003143242E8003100295E
:1038B000F3D1002003B030BD873700086D37000812
:1038C0009F33000808B590F83E30DBB2202B0DD1B5
:1038D00071B17AB190F83C30012B0DD0012380F802
:1038E0003C3000230363FFF799FF00E0022008BD8E
:1038F0000120FCE70120FAE70220F8E7034AD2F8AA
:10390000883043F47003C2F88830704700ED00E05F
:1039100000F1080343604FF0FF328260C36003612F
:1039200000230360704700230361704743684B60C6
:103930009A688A6051609960086103680133036086
:10394000704730B40D68B5F1FF3F11D000F10803A6
:103950001C465B681A68AA42FAD963684B60996092
:103960008C606160086103680133036030BC70479C
:103970000469F2E70369416882688A6041685160BE
:103980005A68824206D0002202611A68013A1A601F
:103990001868704782685A60F5E710B5044601F070
:1039A000D1FCA26BE36B9A4204D0002401F0ECFC42
:1039B000204610BD0124F9E710B5044601F0C2FC11
:1039C000A36B23B9012401F0DFFC204610BD0024C5
:1039D000F9E770B504461546866B026C5AB9036860
:1039E0001BB100200136A66370BD806800F0F0FFB7
:1039F0000023A360F6E76DB9406802F00FF9226C6E
:103A0000636813446360A268934219D323686360B8
:103A10002846E7E7C06802F001F9226C5142E368EA
:103A20009B1AE3602268934202D2A3680B44E360CE
:103A3000022D01D00020D5E726B1013E0020D1E7BC
:103A40002846CFE70020CDE70346026C6AB110B5E7
:103A50000846D9681144D9609C68A14201D319680D
:103A6000D960D96802F0DAF810BD704738B505465C
:103A700001F068FC95F8454064B201E0013C64B295
:103A8000002C0ADD6B6A43B105F1240000F0DAFE78
:103A90000028F3D000F086FFF0E7FF2385F84530DB
:103AA00001F072FC01F04EFC95F8444064B201E074
:103AB000013C64B2002C0ADD2B6943B105F1100012
:103AC00000F0C0FE0028F3D000F06CFFF0E7FF2309
:103AD00085F8443001F058FC38BD38B5E0B10D46EA
:103AE000044601F02FFC2368E26B216C01FB0230DD
:103AF000A0600020A0636360013A02FB0133E36031
:103B0000FF2384F8443084F84530FDB9236963B954
:103B100001F03AFC012038BD4FF0500383F31188C7
:103B2000BFF36F8FBFF34F8FFEE704F1100000F07B
:103B300089FE0028ECD04FF0E0234FF08052C3F80C
:103B4000042DBFF34F8FBFF36F8FE1E704F1100037
:103B5000FFF7DEFE04F12400FFF7DAFED8E738B500
:103B60001D46049C0B4649B92460E063236401218F
:103B70002046FFF7B2FF84F84C5038BD2260F4E7CE
:103B800040B94FF0500383F31188BFF36F8FBFF339
:103B90004F8FFEE710B584B01C46844653B192B1F6
:103BA00089B94FF0500383F31188BFF36F8FBFF3D0
:103BB0004F8FFEE74FF0500383F31188BFF36F8FF1
:103BC000BFF34F8FFEE76AB150230393039B502B43
:103BD00013D04FF0500383F31188BFF36F8FBFF3FF
:103BE0004F8FFEE70029EFD04FF0500383F3118889
:103BF000BFF36F8FBFF34F8FFEE7039B012384F862
:103C0000463000949DF818306046FFF7A8FF204624
:103C100004B010BDF0B585B0019288B10F461D46C5
:103C20000446B1B1022D20D1E36B012B1DD04FF022
:103C3000500383F31188BFF36F8FBFF34F8FFEE7FD
:103C40004FF0500383F31188BFF36F8FBFF34F8F93
:103C5000FEE7036C002BE5D04FF0500383F311888F
:103C6000BFF36F8FBFF34F8FFEE700F0A1FE064654
:103C700058B9019B002B48D04FF0500383F31188B3
:103C8000BFF36F8FBFF34F8FFEE700263DE02A465C
:103C900039462046FFF79DFE636A7BB948B14FF075
:103CA000E0234FF08052C3F8042DBFF34F8FBFF3D2
:103CB0006F8F01F069FB012005B0F0BD04F1240015
:103CC00000F0C0FD0028F4D04FF0E0234FF0805208
:103CD000C3F8042DBFF34F8FBFF36F8FE9E701F0F7
:103CE00053FB0020E8E702A800F00EFE012619E0D1
:103CF000002384F8443021E0002384F8453023E099
:103D00002046FFF7B3FE00F07DFC01F01BFBA26B29
:103D1000E36B9A42BBD3022DB9D0019B002BDED0BE
:103D2000002EE0D001F030FB00F0D2FB01F00AFBE6
:103D300094F8442052B2B2F1FF3FD9D094F8452014
:103D400052B2B2F1FF3FD7D001F01EFB01A902A889
:103D500000F0E6FDD8B92046FFF71FFE0028CFD0BF
:103D6000019904F1100000F039FD2046FFF77EFEB6
:103D700000F048FC0028C8D14FF0E0234FF08052FB
:103D8000C3F8042DBFF34F8FBFF36F8FBDE72046FD
:103D9000FFF76CFE00F036FC00208DE72DE9F843BC
:103DA00090B10F4616461C460546B1B1022C20D1F3
:103DB000EB6B012B1DD04FF0500383F31188BFF341
:103DC0006F8FBFF34F8FFEE74FF0500383F31188DF
:103DD000BFF36F8FBFF34F8FFEE7036C002BE5D06F
:103DE0004FF0500383F31188BFF36F8FBFF34F8FF2
:103DF000FEE701F0CDFBEFF311894FF0500383F3A1
:103E00001188BFF36F8FBFF34F8FAA6BEB6B9A4292
:103E100006D3022C04D0002089F31188BDE8F88372
:103E200095F845804FFA88F8AB6B2246394628460C
:103E3000FFF7CFFDB8F1FF3F06D008F101035BB2F9
:103E400085F845300120E7E76B6A0BB90120E3E70D
:103E500005F1240000F0F6FC18B126B10120306015
:103E6000DAE70120D8E70120D6E7F0B585B0019266
:103E700090B10F460446C1B100F09AFD064600BB62
:103E8000019B002B5ED04FF0500383F31188BFF3EA
:103E90006F8FBFF34F8FFEE74FF0500383F311880E
:103EA000BFF36F8FBFF34F8FFEE7036C002BE3D0A0
:103EB0004FF0500383F31188BFF36F8FBFF34F8F21
:103EC000FEE700263EE039462046FFF7BDFD013DF6
:103ED000A563236923B901F057FA012005B0F0BDAD
:103EE00004F1100000F0AEFC0028F4D04FF0E02305
:103EF0004FF08052C3F8042DBFF34F8FBFF36F8F85
:103F0000E9E701F041FA0020E8E702A800F0FCFC34
:103F1000012621E0002384F8443029E0002384F8BE
:103F200045302BE02046FFF7A1FD00F06BFB09E0D8
:103F30002046FFF79BFD00F065FB2046FFF73CFDA8
:103F400000283FD101F0FEF9A56B002DBBD1019BEC
:103F5000002BD6D0002ED8D001F016FA00F0B8FA17
:103F600001F0F0F994F844305BB2B3F1FF3FD1D0E7
:103F700094F845305BB2B3F1FF3FCFD001F004FAC3
:103F800001A902A800F0CCFC0028D1D12046FFF7FF
:103F900013FD0028C6D0019904F1240000F01EFC96
:103FA0002046FFF763FD00F02DFB0028CAD14FF03B
:103FB000E0234FF08052C3F8042DBFF34F8FBFF3BF
:103FC0006F8FBFE7002089E70023072B0CD8074A33
:103FD00052F833200AB10133F7E7044A42F83310AC
:103FE00002EBC30358607047704700BF403D00209C
:103FF00070B504460D46164601F0A4F994F8443015
:104000005BB2B3F1FF3F0DD094F845305BB2B3F132
:10401000FF3F0BD001F0B8F9A36B5BB12046FFF76F
:1040200025FD70BD002384F84430EDE7002384F8BB
:104030004530EFE73246294604F1240000F0E6FB64
:10404000ECE70000084B1B681B6823B9074B4FF0D7
:10405000FF321A607047044B1B68DB68DB685A68E4
:10406000024B1A60704700BF843D00202C420020A4
:104070002DE9F04780460D4617469946089EDDF823
:1040800024A00A9C9200A521206B01F0D5FD236B92
:1040900007F18042013A03EB820727F00707B5B327
:1040A0004FF0000CBCF10F0F0BD815F80C2004EBEF
:1040B0000C0383F8342015F80C3013B10CF1010C0B
:1040C000F0E7002384F84330372E00D93726E66224
:1040D000E66400252565201DFFF725FC04F1180086
:1040E000FFF721FC2461C6F13806A66164626565AC
:1040F00084F858504A464146384601F0F7F82060A7
:10410000BAF1000F01D0CAF80040BDE8F0870023E3
:1041100084F83430D8E7000038B5002407E004EB19
:10412000840293000E481844FFF7F2FB0134372C49
:10413000F5D90C4D2846FFF7EBFB0B4C2046FFF75B
:10414000E7FB0A48FFF7E4FB0948FFF7E1FB0948F2
:10415000FFF7DEFB084B1D60084B1C6038BD00BF3D
:104160008C3D0020004200201442002038420020F4
:104170006442002050420020843D0020883D002001
:1041800010B5044601F0DEF8224A136801331360CB
:10419000214B1B685BB1214B1B686BB91E4B1B6825
:1041A000DA6AE36A9A4207D81B4B1C6004E01A4B98
:1041B0001C601368012B29D0194A1368013313605E
:1041C0006364E06A174B1B68984201D9154B18606D
:1041D00000EB8000211D144B03EB8000FFF7A6FBD2
:1041E00001F0D2F80D4B1B687BB10B4B1B68DA6AF0
:1041F000E36A9A4209D24FF0E0234FF08052C3F8AD
:10420000042DBFF34F8FBFF36F8F10BDFFF784FFF7
:10421000D2E700BFEC410020803D00204C4200204E
:10422000F8410020FC4100208C3D002010B50446E0
:1042300090F8593063B1012B11D0022B0ED04FF002
:10424000500383F31188BFF36F8FBFF34F8FFEE7E7
:10425000006B00F0CFFF204600F0CCFF10BD00F057
:10426000C9FFFBE70F4B1B68D3B110B501F06AF82B
:104270000D4BDB68DC68201DFFF77CFB0B4A1368E5
:10428000013B1360074A1368013B136001F07CF89F
:104290002046FFF7CBFF034B1B68002BE6D110BD78
:1042A000704700BFF041002064420020EC41002034
:1042B00008B5FFF7D7FF074B1B68012BF9D94FF063
:1042C000E0234FF08052C3F8042DBFF34F8FBFF3AC
:1042D0006F8FEEE78C3D002070B504460D46174BFE
:1042E0001E68174B18680430FFF744FBB4F1FF3F1A
:1042F0000DD03444124B1B685C60A64210D9114BA0
:1043000018680F4B19680431FFF71BFB70BD002DB7
:10431000EFD00B4B196804310B48FFF707FBF5E7AB
:104320000A4B1868064B19680431FFF70AFB084B63
:104330001B68A342EAD9064B1C60E7E778420020DD
:10434000803D0020883D002050420020843D002018
:104350002C42002030B587B00B9C7CB10C9DB5B1D0
:104360005C250495049D5C2D1AD04FF0500383F317
:104370001188BFF36F8FBFF34F8FFEE74FF05003ED
:1043800083F31188BFF36F8FBFF34F8FFEE74FF0BA
:10439000500383F31188BFF36F8FBFF34F8FFEE796
:1043A000049D0C9D2C63022485F85940002403943D
:1043B000029505AC01940A9C0094FFF759FE0C98F5
:1043C000FFF7DEFE059807B030BD2DE9F04385B05C
:1043D0000746884614461E46900000F08DFE00B346
:1043E00081465C2000F088FE0546B0B1C0F83090F0
:1043F000E5B1002385F85930039302950D9B019395
:104400000C9B00933346224641463846FFF730FE68
:104410002846FFF7B5FE012005E0484600F0EAFE19
:10442000E6E74FF0FF3005B0BDE8F0834FF0FF3016
:10443000F9E7000010B588B000240594069407AA97
:1044400006A905A800F0DCFD059B0293069B0193DD
:1044500000942346079A18491848FFF77BFF184B2A
:10446000186040B100F068FB012806D0B0F1FF3FB2
:1044700018D008B010BD0020F6E74FF0500383F3CA
:104480001188BFF36F8FBFF34F8F0E4B4FF0FF328A
:104490001A600D4B01221A600C4B00221A6000F0CA
:1044A000EBFFE6E74FF0500383F31188BFF36F8F04
:1044B000BFF34F8FFEE700BFBC060108B142000802
:1044C000284200202C4200204C420020784200204C
:1044D000024A136801331360704700BFF4410020A3
:1044E000014B1868704700BF78420020F8B53A4B7E
:1044F0001B68002B69D1394B1D6801351D60C5B99A
:10450000374B1B681B6843B14FF0500383F311888E
:10451000BFF36F8FBFF34F8FFEE7314A1168314B06
:10452000186810601960304A136801331360FFF790
:1045300089FD2E4B1B68AB423DD900272C4B1B68D5
:10454000DB6A03EB83039A002A4B9B58012B00D9AB
:104550000127294B1B68002B3CD001273AE001279B
:104560001F4B1B681B6843B31D4B1B68DB68DC6873
:1045700063689D4226D3261D3046FFF7FBF9A36AE8
:104580001BB104F11800FFF7F5F9E36A1B4A126842
:10459000934201D9194A136003EB83039A00314611
:1045A00014481044FFF7C2F9E26A114B1B68DB6A3A
:1045B0009A42D4D2D4E70027D2E70C4B4FF0FF3217
:1045C0001A60BBE7094A1360B8E70D4A1368013364
:1045D000136000273846F8BDF441002078420020DF
:1045E000843D0020883D0020304200202C420020E5
:1045F000803D00208C3D00207C420020FC410020BA
:104600003442002038B5354B1B6843B94FF0500396
:1046100083F31188BFF36F8FBFF34F8FFEE700F076
:1046200091FE2E4B1A68013A1A601B68002B4FD17D
:104630002B4B1B680BB900244BE00024294B1B6853
:104640001BB3284BDB68DC6804F11800FFF792F914
:10465000251D2846FFF78EF9E06A234B1B68984218
:1046600001D9214B186000EB800029461F4B03EB5A
:104670008000FFF75BF9E26A1D4B1B68DB6A9A4218
:10468000DCD31C4B01221A60D8E70CB1FFF7DAFC2F
:10469000194B1C6884B9174B1C68D4B14FF0E02348
:1046A0004FF08052C3F8042DBFF34F8FBFF36F8FCD
:1046B00001240EE0013C07D0FFF718FF0028F9D0D5
:1046C0000C4B01221A60F5E70B4B00221A60E2E75F
:1046D000002400F059FE204638BD00BFF441002000
:1046E000EC41002038420020FC4100208C3D00209D
:1046F000803D00207C4200203442002010B5A8B14B
:104700000446104B1B6843B14FF0500383F31188EC
:10471000BFF36F8FBFF34F8FFEE7FFF7D9FE002186
:104720002046FFF7D9FDFFF76DFF48B94FF0E023B2
:104730004FF08052C3F8042DBFF34F8FBFF36F8F3C
:1047400010BD00BFF44100201F4B1B681BB11F4B65
:1047500001221A6070471D4B00221A601C4B1B6817
:1047600003EB83018A001B498A585AB90BB1013BFC
:10477000F6E74FF0500383F31188BFF36F8FBFF359
:104780004F8FFEE703EB830082000A4450684068C5
:10479000506003EB830C4FEA8C02083211448842CC
:1047A0000BD003EB830291000A4A0A445268D16895
:1047B000094A1160064A13607047406862469100DA
:1047C000044A0A445060ECE7F44100207C42002097
:1047D000FC4100208C3D0020803D002058B110B5E8
:1047E0000C46094A11681831FFF7ABF80121204641
:1047F000FFF772FD10BD4FF0500383F31188BFF334
:104800006F8FBFF34F8FFEE7803D002038B570B14A
:104810000D4614460A4A11681831FFF787F80CB1A3
:104820004FF0FF3521462846FFF756FD38BD4FF0C3
:10483000500383F31188BFF36F8FBFF34F8FFEE7F1
:10484000803D002038B5C368DC6824B304F1180546
:104850002846FFF78FF8184B1B682BBB251D2846F1
:10486000FFF788F8E06A154B1B68984201D9134B93
:10487000186000EB80002946114B03EB8000FFF726
:1048800055F8E26A0F4B1B68DB6A9A4211D9012086
:104890000D4B186038BD4FF0500383F31188BFF300
:1048A0006F8FBFF34F8FFEE729460848FFF73EF8AA
:1048B000E7E70020EEE700BFF4410020FC410020C4
:1048C0008C3D0020803D00207C42002038420020AA
:1048D00060B110B5044600F035FD094B1B6823603C
:1048E000084B1B68636000F04FFD10BD4FF0500394
:1048F00083F31188BFF36F8FBFF34F8FFEE700BFC5
:104900003042002078420020034B1B680360034BB9
:104910001B684360704700BF30420020784200208F
:10492000F8B5C8B10C460546F9B100F00BFD1B4BBC
:1049300019686B68C81A2268B2F1FF3F26D0184E7A
:1049400036682F68B74201D08B4224D9824215D8ED
:104950000023236001241AE04FF0500383F31188F1
:10496000BFF36F8FBFF34F8FFEE74FF0500383F31A
:104970001188BFF36F8FBFF34F8FFEE75B1A1344AD
:1049800023602846FFF7C0FF002400E0002400F069
:10499000FBFC2046F8BD0124F9E700BF7842002067
:1049A00030420020014B01221A6070477C420020F7
:1049B000054B1B6833B1054B1B680BB100207047DA
:1049C00002207047012070474C420020F441002033
:1049D00000283BD038B504461E4B1B68834208D0E4
:1049E0004FF0500383F31188BFF36F8FBFF34F8FE6
:1049F000FEE7036D43B94FF0500383F31188BFF313
:104A00006F8FBFF34F8FFEE7013B0365C16AC26C36
:104A100091421DD00BB1002038BD051D2846FEF780
:104A2000A9FFE06CE062C0F13803A3610A4B1B6888
:104A3000984201D9084B186000EB80002946074BCB
:104A400003EB8000FEF772FF0120E5E700207047CE
:104A50000020E1E7803D0020FC4100208C3D00204B
:104A6000064B1A6813682BB90123036023B9D36876
:104A7000186870470023F8E7002070478042002044
:104A800008B54160006191420CD8D21A83699A42FC
:104A900001D3012008BD011D094B1868FEF751FF25
:104AA0000020F7E79A4201D2994206D2011D054B38
:104AB0001868FEF746FF0020ECE70120EAE700BF98
:104AC000844200208042002030B583B000F03AFCE0
:104AD000114B1B681BB100F057FC03B030BD0F4DEC
:104AE0002846FEF715FF0E4C2046FEF711FF0D4B32
:104AF0001D600D4B1C60002300930C4B0C4A1021D1
:104B00000A20FFF73DF8044B18600028E3D009495C
:104B1000FFF75AFADFE700BFA44300202843002034
:104B20003C43002080420020844200205443002067
:104B300088420020C406010810B588B0FFF7C4FF02
:104B4000124B1B68CBB100240594069407AA06A952
:104B500005A800F061FA059B0293069B01930223CE
:104B600000932346079A0A490A48FFF7F3FB0A4BCA
:104B7000186010B1012008B010BD4FF0500383F34E
:104B80001188BFF36F8FBFF34F8FFEE7A443002060
:104B9000CC0601089D4E0008A8430020B8B19C46F1
:104BA00003461848006858B300B585B000910192DB
:104BB000029305291CDCFFF7FBFE022810D000231E
:104BC0001A4669460F480068FFF724F815E04FF0D1
:104BD000500383F31188BFF36F8FBFF34F8FFEE74E
:104BE0000023069A694607480068FFF713F804E0B7
:104BF000002362466946FFF7D1F805B05DF804FB73
:104C000000207047A443002070B582B01B4B1B6886
:104C10001A6862B3DB681E68DC68251D2846FEF74B
:104C2000A9FE236A2046984794F8283013F0040F11
:104C3000ECD0A36933449E4207D2636024612946C5
:104C40000E4B1868FEF77DFEE0E7002100910B4651
:104C500032462046FFF7A2FF0028D7D14FF050037D
:104C600083F31188BFF36F8FBFF34F8FFEE7044AC2
:104C7000106802490860136002B070BD80420020D5
:104C80008442002038B50546FFF72AFC0446074B4E
:104C90001B68834205D800232B60044B1C60204610
:104CA00038BDFFF7B1FF01232B60F6E7504300202A
:104CB00070B582B006460D4617490968C968CC68C8
:104CC000201DFEF757FE94F828C01CF0040F08D1F1
:104CD0002CF0010C84F828C0236A2046984702B0C3
:104CE00070BDA16933462A4631442046FFF7C8FE0D
:104CF0000028F1D0002100910B4632462046FFF7F4
:104D00004DFF0028E8D14FF0500383F31188BFF323
:104D10006F8FBFF34F8FFEE78042002070B582B0E7
:104D200006460C46FFF7D4FB01A8FFF7ABFF019B3B
:104D300033BB05460CB9B04219D224B1124A1268ED
:104D40001268DAB901242246711B104B1868FFF76C
:104D50004FF9FFF757FCA8B94FF0E0234FF080520E
:104D6000C3F8042DBFF34F8FBFF36F8F0AE0FFF737
:104D700049FC29463046FFF79BFF03E01C46E2E76B
:104D8000FFF740FC02B070BD84420020A443002025
:104D900010B588B002E0049B002B0FDA002204A9B2
:104DA0003D4B1868FFF761F8002873D0049B002B77
:104DB000F1DA07990698059B9847ECE7069C63692A
:104DC00013B1201DFEF7D6FD03A8FFF75BFF049B80
:104DD000092BE3D8DFE803F005050530375005055A
:104DE000303794F8283043F0010384F82830059BCD
:104DF000A169024619442046FFF742FE0028CDD0A3
:104E0000236A2046984794F8283013F0040FC5D041
:104E1000A269002100910B46059802442046FFF745
:104E2000BDFE0028BAD14FF0500383F31188BFF3C1
:104E30006F8FBFF34F8FFEE794F8283023F0010304
:104E400084F82830AAE794F8283043F0010384F866
:104E500028300599A16131B103460246014420463C
:104E6000FFF70EFE9AE74FF0500383F31188BFF36C
:104E70006F8FBFF34F8FFEE794F8283013F0020FC7
:104E800004D023F0010384F8283087E7204600F09F
:104E9000B1F983E708B010BDA443002000B583B08A
:104EA00001A8FFF7DDFD0199FFF738FFFFF770FF5D
:104EB000F6E708B54FF0E0231B69FFF779FD0128FD
:104EC00000D108BD00F0AEFAFBE70000EFF3058368
:104ED0002BB9064B186828B901221A6070476FF089
:104EE000050070474FF0FF30704700BF08460020B4
:104EF000EFF3058373B90A4B1B68012B0DD110B575
:104F00000024084BDC77064B02221A60FFF792FA66
:104F1000204610BD6FF0050070474FF0FF3070471E
:104F20000846002000ED00E0F0B587B000240594AD
:104F3000EFF3058474BB68B322B31568936903B9B2
:104F400018235C1E372C49D8546814F0010F47D140
:104F500056696EB14FEA960C94682CB1D7685B2FF6
:104F600002D9176907B1C6B92CB14FF0FF340EE072
:104F70004FF0800CF0E7D4688CB9146994B14FF00D
:104F8000FF3404E01546002418234FF0800C012C58
:104F90000AD0ACB1059807B0F0BD0124F7E74FF097
:104FA000FF34F4E70024F2E7146992680292019456
:104FB00000930B4662462946FFF7CCF90590E9E7D6
:104FC00005AA019200930B461FFA8CF22946FFF7BF
:104FD000FCF90128DED000230593DBE70020DAE7A7
:104FE0000020D8E708B5EFF3058333B908B90020EE
:104FF00008BDFFF783FB0020FAE76FF00500F7E735
:10500000034B0360034B0B6080231360704700BFAA
:10501000AC450020AC430020034B0360034B0B6006
:105020004FF48073136070470C4A00200C46002038
:10503000124A12F0070F1ED0D11D21F00701C1F551
:10504000705313440A460E48026000214160134425
:10505000083B23F007030B48036059601960991A55
:1050600051601360084B1960084B1960084B4FF0F2
:1050700000421A6070474FF47053E4E76C4A002016
:1050800080860020684A00207486002070860020F8
:105090006C860020164B1A461B688342FBD351686E
:1050A00002EB010C844509D0416800EB010C63451B
:1050B00009D00360904219D01060704740680144E5
:1050C00051601046F0E710B40A4C2468A3420BD09C
:1050D0005B681944416013681B680360904200D00C
:1050E00010605DF8044B70470460F7E7704700BF3D
:1050F00080860020684A002070B50546FFF7E8F971
:10510000364B1B68A3B1364B1B681D424ED135B1DF
:10511000083515F0070F02D025F007050835002DDA
:1051200046D0304B1B68AB4251D32F4A146804E081
:10513000FFF77EFFE7E722461C466368AB4202D2D8
:105140002368002BF7D1254B1B68A34241D016687A
:1051500008362368136063685B1B102B10D9601935
:1051600010F0070F08D04FF0500383F31188BFF3FE
:105170006F8FBFF34F8FFEE743606560FFF78AFFD5
:10518000626818490B689B1A0B60184909688B42C2
:1051900001D216490B60124B1B6813436360002356
:1051A0002360134A13680133136002E0002600E015
:1051B0000026FFF727FA16F0070F0CD04FF0500328
:1051C00083F31188BFF36F8FBFF34F8FFEE7002685
:1051D000EFE70026EDE7304670BD00BF684A0020CB
:1051E0006C86002070860020808600207486002057
:1051F00078860020002834D038B50446A0F1080590
:1052000050F8043C174A1268134208D14FF050037B
:1052100083F31188BFF36F8FBFF34F8FFEE750F812
:10522000081C41B14FF0500383F31188BFF36F8F17
:10523000BFF34F8FFEE723EA020340F8043CFFF779
:1052400047F954F8041C084A13680B4413602846B5
:10525000FFF720FF054A136801331360FFF7D2F907
:1052600038BD70476C860020708600207C86002048
:1052700082B0002301930D4B1B68B3F1FF3F08D0B0
:105280004FF0500383F31188BFF36F8FBFF34F8F3D
:10529000FEE74FF0500383F31188BFF36F8FBFF326
:1052A0004F8F019B002BFCD002B0704718000020EC
:1052B00008480068006880F308884FF0000080F319
:1052C000148862B661B6BFF34F8FBFF36F8F00DFF4
:1052D00000BF000008ED00E0DFF80C00016841F4B9
:1052E000700101607047000088ED00E04FF08073AE
:1052F00040F8043C21F0010140F8081C054B40F83F
:105300000C3C40F8202C6FF0020340F8243C443859
:10531000704700BF7152000800000000000000004C
:10532000074B19680868B0E8F04F80F30988BFF3AD
:105330006F8F4FF0000080F311887047AFF300804B
:10534000803D00204FF0500383F31188BFF36F8F2F
:10535000BFF34F8F0B4A136801331360012B00D04A
:1053600070474FF0E023D3F8043D13F0FF0FF7D060
:105370004FF0500383F31188BFF36F8FBFF34F8F4C
:10538000FEE700BF18000020094B1B6843B94FF02F
:10539000500383F31188BFF36F8FBFF34F8FFEE786
:1053A000013B034A13600BB983F31188704700BFB8
:1053B00018000020000000000000000000000000B5
:1053C000EFF30980BFF36F8F154B1A681EF0100FB3
:1053D00008BF20ED108A20E9F04F10602DE9090088
:1053E0004FF0500080F31188BFF34F8FBFF36F8FE2
:1053F000FFF7AAF94FF0000080F3118809BC196883
:105400000868B0E8F04F1EF0100F08BFB0EC108A2B
:1054100080F30988BFF36F8F704700BFAFF3008040
:10542000803D002008B54FF0500383F31188BFF38F
:105430006F8FBFF34F8FFFF759F828B14FF0E0237C
:105440004FF08052C3F8042D002383F3118808BD68
:105450004FF0E022002313619361054B1B6805495F
:10546000A1FB03139B09013B5361072313617047A1
:1054700014000020D34D62104FF0E023D3F8002D2C
:105480003D4B9A421CD04FF0E023D3F8002D3B4B0C
:105490009A421ED030B583B0394B1A78D2B20192FD
:1054A000FF221A701B78DBB28DF803309DF80330B1
:1054B00003F05003334A1370334B07221A601BE08A
:1054C0004FF0500383F31188BFF36F8FBFF34F8FFB
:1054D000FEE74FF0500383F31188BFF36F8FBFF3E4
:1054E0004F8FFEE7284A1368013B13609DF8033095
:1054F0005B00DBB28DF803309DF8033013F0800FB2
:10550000F0D1214B1B68032B08D04FF0500383F3DD
:105510001188BFF36F8FBFF34F8FFEE71B021A4A4C
:10552000136003F4E0631360019BDBB2144A137051
:105530004FF0E024D4F8203D43F47003C4F8203D3C
:10554000D4F8203D43F07043C4F8203DFFF780FFBE
:1055500000250E4B1D60FFF7BFFED4F8343F43F02B
:105560004043C4F8343FFFF7A3FEFFF7EDF8FFF721
:105570007FFE284603B030BD71C20F4170C20F419B
:1055800000E400E0888600208C86002018000020BF
:10559000EFF305830F2B0FD9114A9B5CDBB2114A45
:1055A00012789A4208D94FF0500383F31188BFF361
:1055B0006F8FBFF34F8FFEE74FF0E023D3F80C3D22
:1055C00003F4E063084A1268934208D94FF050038D
:1055D00083F31188BFF36F8FBFF34F8FFEE77047E0
:1055E000F0E300E0888600208C86002010B588B0AB
:1055F000014600221920FDF797F91920FDF7CCF993
:1056000000240194144B5A6C42F001025A645B6C02
:1056100003F001030193019B02A903A8FCF7F6FD27
:10562000FCF7E4FD43000D48A0FB03239B0C013B6A
:105630000B480C4A026040F2E732C26043600461EA
:105640008460FDF78BFC10B1012008B010BD044848
:10565000FDF71AFBF9E700BF0038024083DE1B4369
:105660009086002000000140124A12F0070F1ED061
:10567000D11D21F00701C1F5705313440A460E48AD
:105680000260002141601344083B23F007030B48EC
:10569000036059601960991A51601360084B1960D2
:1056A000084B1960084B4FF000421A6070474FF4E6
:1056B0007053E4E7DC860020E8C20020D886002092
:1056C000E4C20020E0C20020DCC20020164B1A46D3
:1056D0001B688342FBD3516802EB010C844509D05F
:1056E000416800EB010C634509D00360904219D07A
:1056F000106070474068014451601046F0E710B4F4
:105700000A4C2468A3420BD05B68194441601368BB
:105710001B680360904200D010605DF8044B704736
:105720000460F7E7704700BFE8C20020D886002079
:1057300070B50546FEF7CCFE344B1B68A3B1344B65
:105740001B681D424AD135B1083515F0070F02D04C
:1057500025F007050835002D42D02E4B1B68AB42C3
:105760004DD32D4A146804E0FFF77EFFE7E7224699
:105770001C466368AB4202D22368002BF7D1234B4F
:105780001B68A3423DD0166808362368136063681F
:105790005B1B102B10D9601910F0070F08D04FF0C9
:1057A000500383F31188BFF36F8FBFF34F8FFEE772
:1057B00043606560FFF78AFF626816490B689B1AB1
:1057C0000B60164909688B4201D214490B60104BDB
:1057D0001B68134363600023236002E0002600E09F
:1057E0000026FEF70FFF16F0070F0CD04FF0500306
:1057F00083F31188BFF36F8FBFF34F8FFEE700264F
:10580000EFE70026EDE7304670BD00BFD8860020E8
:10581000DCC20020E0C20020E8C20020E4C2002078
:1058200080B338B50446A0F1080550F8043C164A88
:105830001268134208D14FF0500383F31188BFF36D
:105840006F8FBFF34F8FFEE750F8081C41B14FF048
:10585000500383F31188BFF36F8FBFF34F8FFEE7C1
:1058600023EA020340F8043CFEF732FE54F8041C1D
:10587000064A13680B4413602846FFF727FFFEF71C
:10588000C1FE38BD704700BFDCC20020E0C200206E
:1058900050F8043C024A106823EA0000704700BF39
:1058A000DCC2002070B505460C46FEF711FE20460E
:1058B000FFF73EFF064678B175B12846FFF7E8FFCF
:1058C0000838844200D3044622462946304600F078
:1058D000A5F92846FFF7A4FFFEF794FE304670BDF9
:1058E00038B505460C46FEF7F3FD05FB04F42046EB
:1058F000FFF71EFF0546034603E0002103F8011BE6
:105900001446621E002CF8D1FEF77CFE284638BDF6
:1059100008B5034605490A6802440A6004490A6852
:1059200013440B60FFF704FF08BD00BFF0C2002066
:10593000F4C2002058B110B50446FFF7A9FF044A8D
:1059400013681B1A13602046FFF76AFF10BD7047EB
:10595000F4C2002038B50C460C4A13680B4413609F
:105960000B4A13680B44136058B10546FFF790FFCC
:10597000074A13681B1A136021462846FFF792FF57
:1059800038BD0846FFF7D4FEFAE700BFF0C200209A
:10599000F4C2002010B501FB00F3054C22681A4444
:1059A0002260044C226813442360FFF799FF10BD66
:1059B000F0C20020F4C200202DE9F04107460E4657
:1059C000144615A3D3E90023FAF752FC0D4680468E
:1059D0002060616010A3D3E9002338463146FAF70E
:1059E00047FCA260002A01DBBDE8F081084981FB89
:1059F0000231D317C3EB21730133B8EB030165EB1D
:105A0000E37521606560034901FB0322A260EBE7B7
:105A1000A12FB84400CA9A3B00CA9A3B000000007C
:105A200030B583B00D460024009401946846FEF71B
:105A30004FFF0099019A4FEA411C4CEAD26C530186
:105A40009B1A6CEB010C4FEA4C2C4CEAD35C5B02CA
:105A50009B1841EB0C0C4FEA8C1E4EEA936E98019A
:105A6000C31A6EEB0C0C98182A4641EB0C01FFF799
:105A7000A3FF204603B030BD08B54FF400620349D0
:105A8000D0F88C02FDF71EFF012008BDF8C20020EF
:105A900008B5D0F88C02FDF703FC012008BD70B5F5
:105AA000D0F88C5295F83D30DBB2202B01D000208D
:105AB00070BD144692B22846FDF7A4FB064646B9CF
:105AC00095F83D30DBB2202B03D00120FFF78AFA96
:105AD000F5E70EB92046EBE70020E9E72DE9F843AA
